:100000000C94C8050C940F060C940F060C940F0664
:100010000C940F060C940F060C940F060C940F060C
:100020000C940F060C940F060C9422280C94F428C0
:100030000C94FE220C940F060C940F060C940F06E1
:100040000C940F060C940F060C940F060C940F06DC
:100050000C940F060C9457230C940F060C940F0667
:100060000C940F060C940F060C940F060C940F06BC
:100070000C940F060C940F060C940F060C940F06AC
:100080000C940F060C940F060C940F060C940F069C
:100090000C948F150C940F060C940F060C940F06FD
:1000A0000C940F060C940F060C940F06D718D71853
:1000B0000919091956197419951A951A7F19141ADC
:1000C000251A251A851A951A951A8E1A351B351B6D
:1000D000471B471B3E1B471B471B471B351B351B3D
:1000E000431B471B471B431B61298829802A8829FA
:1000F000802AD429F729802A4E2A5D2A2900350032
:100100001E001F002000210022004B002B001400C5
:100110001A000800150017004E00390004001600F0
:10012000070009000A004900E1001D001B0006004D
:1001300019000500E000E300500051002C5D2C0088
:100140002C002A002D002700260025002400230073
:1001500031002F00130012000C0018001C002800B2
:10016000340033000F000E000D000B004C00E500C2
:1001700038003700360010001100E400E6004F00A0
:1001800052002D5D2C002C00290035001E001F00A0
:100190002000210022004B002B0014001A0009004F
:1001A00013000A004E003900040015001600170065
:1001B00007004900E1001D001B00060019000500B2
:1001C000E000E300500051002C5D2C002C002A00C0
:1001D0002D002700260025002400230031002F00D9
:1001E00033001C0018000F000D002800340012001E
:1001F0000C00080011000B004C00E500380037002F
:10020000360010000E00E400E6004F0052002D5DA5
:100210002C002C00290035001E001F0020002100AA
:1002200022004B002B0034003600370013001C0066
:100230004E00390004001200080018000C004900AC
:10024000E100330014000D000E001B00E000E3008D
:10025000500051002C5D2C002C002A002F0027009C
:100260002600250024002300310038000F0015006F
:1002700006000A00090028002D00160011001700D2
:100280000B0007004C00E5001B0019001A001000CD
:100290000500E400E6004F0052002D5D2C002C000C
:1002A000000000000000000000000000000000004E
:1002B000000000000000000000000000000000003E
:1002C000000000000000000000000000000000002E
:1002D000000000000000000000000000000000001E
:100670000000000001003A003B003C003D003E004D
:100680003F00010001004A0052004D004B000100F4
:1006900001000100500051004F004E000100010018
:1006A0000100010001000100010001000100E20061
:1006B000AA00AC000100AE00AE00010045004400FD
:1006C0004300420041004000010001000100010020
:1006D0000100010001000100010001000100010012
:1006E00001000100490001000100010001000100BA
:1006F000010001000100AB00A9000100AE00AE0046
:1007000001000100010001000100010001000100E1
:1007100001000100010001000100010001000100D1
:1007200001000100010001000100010001000100C1
:1007300001000100010001000100010001000100B1
:1007400001000100010001002D0001000100010075
:100750000100010030000100010001000100010062
:100760000100010001000100010001000100010081
:100770004900010001000100010001000100010029
:100780000100010001000100010001000000000063
:100790000000000000000000000000000000000059
:1007A0000000000000000000000000000000000049
:1007B0000000000000000000000000000000000039
:1007C0000000000000000000000000000000000029
:1009B0000000000000000000000000000100010035
:1009C0000100010001000100010001000100295D9A
:1009D000010001000100010001000100010001000F
:1009E0002B5D0100010001000100010001002A5DF2
:1009F00001000100010001000100010001000100EF
:100A000001000100010001000100010001000100DE
:100A1000005C010001000100010001000100DF5C39
:100A200001000100010001000100010001000100BE
:100A300001000100010001000100010001000100AE
:100A400001000100010001002A0354006800650054
:100A500020005600690074006500720062006900A1
:100A600020004B006500790062006F006100720099
:100A7000640000000E034B00650065006200690021
:100A80006F0000000403090409023B00020100A0FA
:100A9000FA0904000001030101000921110100010C
:100AA0002240000705810308000A09040100010330
:100AB000000000092111010001227B0007058203CB
:100AC00020000A120110010000000810CB5721007D
:100AD000020102000105010902A10185020901A12B
:100AE00000050919012908150025019508750181DE
:100AF000020501093009311581257F9502750881AC
:100B00000609381581257F950175088106050C0AAF
:100B100038021581257F950175088106C0C0050141
:100B20000980A101850319012AB700150126B70024
:100B3000950175108100C0050C0901A101850419FA
:100B4000012AA002150126A002950175108100C09E
:100B500005010906A101050719E029E7150025018E
:100B60009508750181029501750881010507190035
:100B700029FF150026FF0095067508810005081954
:100B8000012905950575019102950175039101C033
:100B900011241FBECFEFDAE0DEBFCDBF04B603FEE7
:100BA00027C080919C0290919D02A0919E02B091DD
:100BB0009F028730904BA740B04BD1F410929C021B
:100BC00010929D0210929E0210929F0214BE84B752
:100BD000877F84BF0FB6F894A895809160008861E4
:100BE00080936000109260000FBEE0E0F8E309958A
:100BF00011E0A0E0B1E0E4EEF6E502C005900D9250
:100C0000A439B107D9F722E0A4E9B1E001C01D92EF
:100C1000AC39B207E1F70E945A250C94702B0C9462
:100C200000000E94871085E00E94F51060E070E0EF
:100C3000CB010E94E1210C94ED21CF93FB018C327A
:100C40002DE59207A1F020F489329D4549F031C08D
:100C50008D322DE5920771F08E329D45F9F029C055
:100C6000C281CC2339F180E00E94AB061DC0C28155
:100C70008AE002C0C2818BE0CC2341F00E94791F40
:100C800040E16BE08AE00E9413070EC00E949A1FA9
:100C900040E16BE08AE00E9413070CC0C28180E152
:100CA000CC2321F00E94791FC0E004C00E949A1F4B
:100CB00001C0C1E08C2FCF91089581E008950C947C
:100CC0001D0608950C9461061F93CF93DF9300D007
:100CD00000D01F92CDB7DEB749835A836B83309122
:100CE000C90189819A81311114C0662359F02223E8
:100CF00049F00E946E20182F682F89819A810E94E6
:100D0000172003C00E944220182F69817A81812F09
:100D100004C00E946E2069817A810F900F900F901D
:100D20000F900F90DF91CF911F910C949807FC01C9
:100D3000262F408151816281738184810C946406E5
:100D4000CF93DF93EC0160E00E949706BE01DF9134
:100D5000CF910C946206CF93DF9361E070E0EB01DA
:100D600002C0CC0FDD1F8A95E2F78C2F0E94B521BF
:100D7000BE0180E090E0DF91CF910C94191F8F921B
:100D80009F92AF92BF92CF92DF92EF92FF920F931A
:100D90001F936B017C0181E090E0A0E0B0E04C018A
:100DA0005D0104C0880C991CAA1CBB1C4A95D2F793
:100DB000AC01BD0104C0440F551F661F771F2A9563
:100DC000D2F7482959296A297B2904C0880F991F1D
:100DD000AA1FBB1F0A95D2F78A019B010C211D2176
:100DE0002E213F21401751076207730739F4BC01D8
:100DF000CD016C297D298E299F290AC08095909567
:100E0000A095B095BC01CD016C217D218E219F2143
:100E10001F910F91FF90EF90DF90CF90BF90AF9018
:100E20009F908F9008950F93382F262F60912F0257
:100E3000709130028091310290913202042F432F41
:100E40000E94BF060F910C94531F0E94A221811192
:100E500002C00E9450220E949A110C94B8090C946E
:100E6000B40908950E94231B0E9431072FEF84E3E9
:100E70009CE0215080409040E1F700C000000C94BD
:100E8000BE230F931F93CF93DF93EC0161E00E9489
:100E900097068C01BE010E945F06882379F1BE018E
:100EA000C8010E94FB10882349F1BE01C8010E94BD
:100EB0001D12882319F1BE01C8010E946F128823F8
:100EC000E9F0BE01C8010E949A138823B9F08A8113
:100ED000882369F001158CE5180731F00F3D1C459A
:100EE00031F40E9450220AC00E94320707C0CE018E
:100EF000DF91CF911F910F910C945D0680E0DF91FF
:100F0000CF911F910F91089508950C94840781E06B
:100F100008950C948707CF93C82F0E9485078C2FC4
:100F20000E948907CF91089580E090E00895089588
:100F300026E4829FC0011124FC0127E0729FE00D8E
:100F4000F11D1124E60FF11DEE0FFF1FE450FF4FBE
:100F5000859194910895880F991FFC01E85BF54FE6
:100F6000859194910895CF93DF930E9498070E94F2
:100F7000CB08EC018115904508F041C0C11580E413
:100F8000D80708F0D1C0C83ED10510F5C03ED10544
:100F900008F0FDC0C83AD10578F4C53AD10508F08B
:100FA000A2C0C130D10509F4F2C008F4EEC0C430CB
:100FB000D10508F0ECC0E9C0CF3BD10508F49BC0D7
:100FC000C03CD10508F4E1C0CE01805C91099EC00F
:100FD000C11590E2D90758F4C11521E0D20708F0F5
:100FE000D6C0CD3ED10508F4D0C0D065D0C0C11563
:100FF00080E3D80708F08EC0CE019F7087C0C1156E
:1010000095E5D90708F043C0C11524E5D20708F0DB
:10101000A2C0C11582E5D80708F5C11591E5D90729
:1010200008F085C0CE0174E0969587957A95E1F732
:1010300083709C2F937021E030E002C0220F331F99
:101040009A95E2F73C68382BCF70C695C69580E23A
:10105000C89FE0011124C22BD32B99C09E0123709D
:1010600033278C2F86958695C115D34508F064C02B
:10107000C1E0D0E002C0CC0FDD1F2A95E2F720E2EC
:10108000829FC0011124C82BD92BDC6880C0C115F8
:1010900029E5D207A0F4C11588E5D80708F060C09B
:1010A000C11596E5D90708F070C08C2F0E945F0922
:1010B0008F71C82FD0E0DC2FCC27D06268C0C1155B
:1010C0002AE5D20708F451C0CE019056811590420E
:1010D00008F05BC08D2F8F710E945F09DD27D06201
:1010E0008F71D82B54C0C55AD0E0CC5BDE4FC8817D
:1010F000D0E0D0644CC0C85AD0E0CC0FDD1FCA5E2F
:10110000DE4F0990D881C02DD46441C00E94AB0746
:10111000EC013DC0CE019927D3FF03C0EC01D86C90
:1011200036C0EC01D06C33C0DF70D06A30C0DC2F29
:10113000CC27C16FD06A2BC0C1E0D0E002C0CC0F79
:10114000DD1F2A95E2F720E2829FC0011124C82BFF
:10115000D92BDA681CC0DC2FCC27C46FD06A17C02B
:10116000DC2FCC27C06FD06A12C08C2F8F700E94EA
:101170005F0994E0D695C7959A95E1F7CF70D0E0D6
:10118000DC2FCC27D069C82B02C0C0E0D0E0CE0154
:10119000DF91CF9108958238910569F1B0F48133E0
:1011A000910509F46DC048F48932910509F463C0D2
:1011B0008A32910509F469C008958533910509F4CF
:1011C00055C089339105B9F00895833E910569F1C1
:1011D00038F4803E9105B1F0823E910509F1089501
:1011E000863E9105A9F1873E9105B9F1843E9105AE
:1011F00009F064C023C020918D0220FD4FC021FD65
:101200004DC0089580918D0280FD44C080918E0272
:1012100080FF44C080918D0284FD42C083EE4DC0AA
:1012200080918D0282FF38C0F5CF80918D0282FDC2
:1012300033C080918E0280FD31C0ECCF80918E0250
:1012400081FF32C080918D0284FD2AC087EE35C0B7
:1012500080918D0283FF26C0F5CF80918D0283FDA2
:1012600021C080918E0281FD1FC0ECCF80918D0244
:1012700085FD1CC01DC080918D0285FD19C016C062
:1012800080918D0286FD16C017C080918D0286FD6B
:1012900013C010C089E311C082EE0FC080EE0DC0F4
:1012A00080E00BC086EE09C084EE07C089E205C06D
:1012B00085E303C08AE201C081E390E00895909144
:1012C0008D0292FF0DC0282F2871283019F4877FD6
:1012D000846006C0282F2471243011F48B7F88602D
:1012E00093FF0DC0282F2871283119F4877E84615F
:1012F00006C0282F2471243111F48B7E886120913F
:101300008E0220FF0DC0382F3871383019F4877FD6
:10131000816006C0382F3171313011F48E7F8860C2
:1013200021FF0DC0282F2871283119F4877E816193
:1013300006C0282F2171213111F48E7E886194FD21
:10134000877E0895E82FF0E0E65AFD4F80810895EA
:10135000089580EA8A95F1F7089500C008950C94E5
:10136000A90908950C94B1090C94B2090C94B1091F
:101370000C94B609F894E82FE295EF70F0E031A1F3
:10138000282F2F7081E090E001C0880F2A95EAF79E
:10139000982F9095932391A392A1892B82A378945F
:1013A000089508950F931F93CF93DF930E94650BC9
:1013B0008091000180910001811102C095E001C07F
:1013C00090E09093650285E0891B8093640284E934
:1013D0000E94BA0987E90E94BA0986EC0E94BA09FC
:1013E00084E30E94BA0985E30E94BA09C7E4D1E008
:1013F0000EE411E089910E94BA090C171D07D1F77C
:10140000E0E5F2E0AAE5B2E011921D9282E0EA3551
:10141000F807D1F785E00E940A0B0E942507DF91AB
:10142000CF911F910F910C946F0B0F931F93CF933C
:10143000DF9300D000D01F92CDB7DEB70E94480BDB
:1014400060916502882309F442C08E010F5F1F4F2F
:1014500085E0F80111928A95E9F7862F90E0B801AE
:10146000865A9D4F0E94CB13811116C08091960120
:101470008F5F80939601863030F1E0916402F0E056
:10148000E65AFD4FD801CE01069611921D92A8177B
:10149000B907D9F711E018C010929601A091640223
:1014A000B0E0A65ABD4FF8019E012A5F3F4F10E001
:1014B00081919C91981711F08C9311E01196E2178D
:1014C000F307B1F701C010E00E942F070DC070E0D4
:1014D000665A7D4F8091640290E0865A9D4F0E942B
:1014E00018140E94D10910E0812F0F900F900F90D7
:1014F0000F900F90DF91CF911F910F9108958F92D0
:101500009F92AF92BF92CF92DF92EF92FF920F9392
:101510001F93CF93DF938EE4A82E81E0B82EC0E511
:10152000D2E093E5E92E91E0F92E912C01E010E054
:101530006501F5018081F894E82FE295EF70F0E005
:1015400021A18F70A80102C0440F551F8A95E2F7B0
:10155000CA01922F982B91A392A18095892382A3EF
:1015600078940E94AD09E7E4F1E020E030E0812CBE
:101570004191A42FA295AF70B0E090968C9190E02D
:101580004F7002C0959587954A95E2F780FD07C098
:10159000802F022E01C0880F0A94EAF701C080E074
:1015A000882A2F5F3F4F2730310511F75FEFA51ACB
:1015B000B50AF60180810E94BA090E94AF098881AC
:1015C000881619F0888281E001C080E0982A21966F
:1015D000EA14FB0409F0ACCF6091650270E0665A32
:1015E0007D4F292D45E080E592E00E940B0B0E9483
:1015F000150A992011F081E090E0DF91CF911F91C1
:101600000F91FF90EF90DF90CF90BF90AF909F90A1
:101610008F9008950895FF920F931F93CF93DF93B8
:101620008C01F62ED72FC42F222349F081E080931E
:1016300099010E94302390939801809397018091A3
:1016400099018823C1F080919701909198010E949F
:1016500048230B9780F0EF2DFD2FD8014C2F50E041
:10166000CD01801B910B841795071CF48D918193FC
:10167000F7CF10929901DF91CF911F910F91FF90B9
:10168000089552985A9889B182FB882780F9089565
:1016900080919A01811112C08091D800806180935D
:1016A000D8008AE18A95F1F700C08091D90080FDC9
:1016B00002C082E001C081E080939A0181E09091B4
:1016C0009A01913009F080E008950E94410B8093C7
:1016D00000010E94480B81110C94341408950E945B
:1016E000480B811102C00C9436140895833081F1A7
:1016F00028F4813059F08230D1F00895853009F412
:1017000049C0B8F1863009F456C0089580910801A7
:10171000262F30E0280F311D2F3F310524F4680FAC
:101720006093080108958FEF8093080108958091D8
:101730000701262F30E0280F311D2F3F310524F4FB
:10174000680F6093070108958FEF80930701089554
:1017500080910601262F30E0280F311D2F3F3105E3
:1017600024F4680F6093060108958FEF80930601BB
:10177000089580910501262F30E0280F311D2F3F5D
:10178000310524F4680F6093050108958FEF80936D
:101790000501089580910201262F30E0280F311DA8
:1017A0002F3F310524F4680F6093020108958FEFF5
:1017B00080930201089580910101262F30E0280FC7
:1017C000311D2F3F310524F4680F60930101089506
:1017D0008FEF809301010895833011F128F4813057
:1017E00049F0823091F00895853081F120F1863002
:1017F000C1F1089580910801681720F4861B809339
:101800000801089510920801089580910701681752
:1018100020F4861B80930701089510920701089514
:1018200080910601681720F4861B809306010895B5
:1018300010920601089580910501681720F4861B17
:101840008093050108951092050108958091020189
:10185000681720F4861B80930201089510920201FC
:10186000089580910101681720F4861B809301017F
:1018700008951092010108950F931F9341E050E0E5
:1018800060E070E08A019B0104C0000F111F221F5D
:10189000331F8A95D2F7C901B8010E94191F1F9101
:1018A0000F910C94231B8B3109F468C058F58B30D1
:1018B00009F486C078F4863009F445C020F48530F8
:1018C00009F44BC07FC0873009F44AC0883009F45E
:1018D00077C078C0803109F464C068F48E3009F0B4
:1018E00071C08091440282FB222720F991E0922767
:1018F00090FB82F94CC0863109F462C0893109F449
:101900005FC060C08A32E1F060F4873209F455C0EC
:1019100028F48E3108F456C08D5150C08932E9F058
:1019200051C0833450F48A3308F045C0853309F43C
:1019300044C0883309F444C045C08334F1F142C047
:101940000E9450223DC080914402817F8E7F80930F
:10195000440281E080939C0108950E94320730C0C8
:1019600080914402982F9095917090FB80F980931C
:101970004402911125C0897F877F10C08091440265
:1019800081FB222720F991E0922790FB81F9809337
:1019900044029923A9F0809144028160809344021B
:1019A0000FC08091440283FB222720F991E0922707
:1019B00090FB83F9ECCF895301C080E00E943C0C7E
:1019C00081E0089580E0089580E008950C94E40C8F
:1019D0008E518A3030F4E82FF0E0E85AFE4F8081D3
:1019E000089580E00895CF93C82F80919C018130A5
:1019F00051F018F0823099F17DC00E94EF208232C0
:101A000009F07AC004C00E94EF20823261F48C2F6A
:101A10000E94E60C811104C08C2F0E94530C1DC043
:101A200081E090E01AC08C2F0E94E40C811114C058
:101A3000C43179F048F4CB3079F0C03109F060C09E
:101A400082E080939C0108C0C93219F0C83321F0AC
:101A500057C010929C0154C081E0817053C0C932BC
:101A600089F118F5C43171F1B0F4C73009F046C0FE
:101A70008EE18093080182E3809307018AE08093DE
:101A8000060184E18093050188E08093020188E2E9
:101A90008093010133C082EE8C0F863078F58C2F55
:101AA0000E94E80C80939B0129C0CE34E9F020F419
:101AB000CB3421F56AE013C0C13579F0C235F1F4B9
:101AC00061E00DC080919B01882319F010929B0169
:101AD00015C081E080939C0115C061E006C0809133
:101AE0009B010E94760B0AC06AE080919B010E94D4
:101AF000EC0B04C010929C0180E004C081E002C0A5
:101B000080E0ABCFCF9108958091A30180FF0BC0FF
:101B10006091060185E0689FB00111247595679575
:101B2000759567952BC081FF09C06091060185E01E
:101B3000689FB00111247595679520C082FF07C08A
:101B40006091060185E0689FB001112417C0909153
:101B5000A2019923D1F060910501961788F7209191
:101B6000060185E0289F90011124929FA001939F78
:101B7000500D112470E0CA010E94D82A6038710506
:101B800040F46115710519F406C065E070E0862F18
:101B900008958FE7089581E008958091A30180FF63
:101BA00008C06091020170E075956795759567951D
:101BB00021C081FF06C06091020170E075956795B4
:101BC00019C082FF04C06091020170E010C09091C2
:101BD000A101992399F0609101019617A0F78091D6
:101BE0000201899FC001112470E00E94D82A603848
:101BF000710540F46115710519F406C061E070E0EB
:101C0000862F08958FE7089581E008958D3E21F491
:101C10000E94840D819504C08E3E29F40E94840D9B
:101C20008093A70108958F3E21F40E94840D819531
:101C300004C0803F29F40E94840D8093A60108957A
:101C4000893F19F40E94CD0D05C08A3F31F40E94EE
:101C5000CD0D81958093A80108958B3F21F40E94BA
:101C6000CD0D819504C08C3F29F40E94CD0D809349
:101C7000A90108959FE0980F983078F421E030E0B2
:101C8000A90102C0440F551F9A95E2F7CA0190912D
:101C9000A501892B8093A50108958D3F21F48091A2
:101CA000A30181600BC08E3F21F48091A30182606B
:101CB00005C08F3F29F48091A30184608093A30124
:101CC00008958D3E39F49091A70197FF35C0109289
:101CD000A70159C08E3E29F49091A7011916BCF3B3
:101CE0002BC09091A6018F3E29F497FF25C010923A
:101CF000A60149C0803F19F41916CCF31DC090917C
:101D0000A801893F29F41916BCF41092A8013BC020
:101D10008A3F19F497FF10C0F8CF8B3F39F49091A8
:101D2000A90197FF09C01092A9012DC08C3F21F491
:101D30009091A9011916BCF39FE0980F983080F498
:101D400021E030E0A90102C0440F551F9A95E2F747
:101D5000CA0180959091A50189238093A50113C0A4
:101D60008D3F21F48091A3018E7F0BC08E3F21F423
:101D70008091A3018D7F05C08F3F29F48091A3013D
:101D80008B7F8093A3018091A601811106C0809171
:101D9000A701811102C01092A2018091A8018111B6
:101DA00006C08091A901811102C01092A10108957D
:101DB0000E9430232091A601211104C02091A70187
:101DC000222321F09093A00180939F012091A801EC
:101DD000211104C02091A901222321F090939E019A
:101DE00080939D0184EA91E00C940816EF92FF9293
:101DF0000F931F93CF93DF9300D000D000D0CDB7C7
:101E0000DEB786E0E4EAF1E0DE01119601900D9282
:101E10008A95E1F7E090A601F090A7010091A80152
:101E20001091A9011092A6011092A7011092A80189
:101E30001092A901E11003C0FF2009F45DC0809158
:101E40009F019091A0010E944823AC019091A201B2
:101E5000992339F02091070130E02417350758F015
:101E60004BC0209108018AE0289F9001112424177B
:101E7000350718F041C09F3F19F09F5F9093A20172
:101E8000EE2061F00E94840D1E1414F09FEF01C03B
:101E900091E0989F902D11249093A601FF2061F06E
:101EA0000E94840D1F1414F09FEF01C091E0989FD1
:101EB000902D11249093A7013091A6013323E1F0D6
:101EC0002091A7012223C1F045EB3403C001112466
:101ED000992319F09093A60103C081E08093A60195
:101EE00035EB2303C0011124992319F09093A70126
:101EF00003C081E08093A701011103C0112309F4FD
:101F00005DC080919D0190919E010E944823AC018B
:101F10009091A101992339F02091030130E0241719
:101F2000350758F04BC0209104018AE0289F9001AA
:101F300011242417350718F041C09F3F19F09F5F07
:101F40009093A101002361F00E94CD0D101614F0B2
:101F50009FEF01C091E0989F902D11249093A801CC
:101F6000112361F00E94CD0D111614F09FEF01C0F6
:101F700091E0989F902D11249093A9013091A80190
:101F80003323E1F02091A9012223C1F045EB340372
:101F9000C0011124992319F09093A80103C081E096
:101FA0008093A80135EB2303C0011124992319F074
:101FB0009093A90103C081E08093A9018091A601BB
:101FC00081110BC08091A701811107C08091A801E8
:101FD000811103C08091A90181110E94D80EEB826A
:101FE000FC820D831E8386E0FE013196A4EAB1E0F7
:101FF00001900D928A95E1F726960FB6F894DEBF10
:102000000FBECDBFDF91CF911F910F91FF90EF9049
:102010000895E4EAF1E086E0DF011D928A95E9F790
:102020001092A2011092A1011092A3010895809133
:1020300066028170089580916602869586958695E0
:1020400008950E94A221811102C00E9450220E9484
:10205000D82180936602282F26952695269530E074
:102060002830310524F08770886380936602809160
:10207000660280FF04C086958695869501C080E043
:102080000C94301120916602822F86958695869554
:10209000482F50E04730510554F48F5F982F990F27
:1020A000990F990F822F8770892B809366028091F8
:1020B00066028160809366020E94DC218091660244
:1020C0008695869586950C94301180916602982F9E
:1020D000969596959695A1F0915E990F990F990F07
:1020E0008770892B80936602887F91E009F490E0E5
:1020F0008091660290FB80F9809366020E94DC2149
:10210000809166028695869586950C943011809113
:10211000660280FD13C0816080936602813019F4ED
:1021200089E080936602809166020E94DC218091A2
:1021300066028695869586950C9430110895809157
:10214000660280FF08C08E7F809366020E94DC21B9
:1021500080E00C94301108958091660280FD0C940B
:102160009F100C94871090916602892F8695869512
:1021700086958F5F8F719770883038F4880F880F3D
:10218000880F892B8093660202C09093660280912B
:102190006602887F91E009F490E08091660290FBEE
:1021A00080F9809366020E94DC2180916602869508
:1021B000869586950C943011883008F087E09091D0
:1021C00066029770282F220F220F220F922B9093D6
:1021D0006602987F21E009F420E09091660220FBDE
:1021E00090F9909366020C9430110E94DC1080915B
:1021F00066020C94DC219C01FB018281882349F159
:102200002E3BFCE53F07C9F040F42C3BECE53E07D4
:1022100069F02D3B3C4561F00895203C9CE5390771
:1022200091F070F0213C3C4589F0089587E001C0B1
:1022300080E00E94F51080E008950E946510FBCFB9
:102240000E944210F8CF0E94AC10F5CF0E94B3104C
:10225000F2CF81E00895269A2E9808952E98089539
:10226000CF92DF92EF92FF92CF93C82F883050F435
:10227000811109C0809180008F7D809380000E9431
:102280002E1106C0C7E0809180008062809380009C
:102290002C2F30E0AFEFBFEF0E94142B27E030E08F
:1022A00040E050E00E94EC2AB42FA32F922F882701
:1022B000492F5A2F6B2F7727CA014C3724E1520739
:1022C00028F469E070E00E94C42A29C0DB01CA0139
:1022D0008A50974DAF4FBF4F6627782F892F9A2F7F
:1022E00025EF38E241E050E00E94EC2A69017A01D2
:1022F000CA01B9010E94B42A9B01AC01C701B60111
:102300000E94B42ABB27A92F982F872F009721E07E
:10231000A207B10511F0BC0102C06FEF7FEF70930F
:102320008B0060938A00CF91FF90EF90DF90CF9069
:10233000089508950E942B1182E28093800089E124
:10234000809381008FEF9FEF9093870080938600AA
:102350000C9421100F931F93CF93DF93C42FD22F90
:10236000FC0182818823C9F04093AC010E94302394
:102370009093AB018093AA0180E28C0F883008F023
:1023800057C0C77081E001C0880FCA95EAF7DF9196
:10239000CF911F910F910C9496188091AC01481326
:1023A00030C08091AA019091AB010E944823883CE3
:1023B000910538F510E21D0FCD17B9F080E28C0FB2
:1023C000883040F4C77081E001C0880FCA95EAF7F1
:1023D0000E949D18183028F581E09D2F977001C04C
:1023E000880F9A95EAF70E949618802F0E948D1800
:1023F0001830F0F4D77081E001C0880FDA95EAF761
:102400000AC080E28C0F883098F4C77081E001C068
:10241000880FCA95EAF7DF91CF911F910F910C9425
:102420009D18802FDF91CF911F910F910C948D18E3
:10243000DF91CF911F910F9108950F939C01CB01D4
:10244000243F4CE5340731F188F4293DFCE53F0792
:10245000D9F02A3D4CE5340779F1283D3C45A9F5F2
:1024600006E221EE41EE68ED7CE52BC0263FFCE55F
:102470003F07E1F0A8F0273F3C4539F507E225EE9C
:1024800046EE67EF7CE51DC007E225EE45EE69EDFF
:102490007CE517C006E221EE40EE64EF7CE511C05A
:1024A00007E225EE44EE65EF7CE50BC006E221EE87
:1024B00042EE66EF7CE505C008E221E045EE6AEDFC
:1024C0007CE50E94AA1180E008C0FC01828188237B
:1024D00019F01092AC0101C081E00F910895CF93E3
:1024E000DF93EC01FB018281882309F41FC1C23014
:1024F000FCE5DF0708F41BC1C6319CE5D90738F0BD
:102500009E012B5F3C452930310508F010C10E9427
:10251000BA2190938E0280938D02C031ECE5DE07E4
:1025200009F4C3C008F041C0C8308CE5D80709F4ED
:102530009AC0F0F4C430ECE5DE0709F487C068F413
:10254000C2308CE5D80709F477C0C330DC4509F008
:10255000E3C080918D02826076C0C630ECE5DE0774
:1025600009F46EC008F07BC080918D0288606BC05A
:10257000CC308CE5D80709F485C068F4CA30ECE5A6
:10258000DE0709F474C008F079C00E94231B809113
:102590008D02806858C0CE308CE5D80709F476C02B
:1025A00008F07FC080918D028BC0CC3FECE5DE0748
:1025B00009F44FC018F5C3318CE5D80709F47DC084
:1025C00078F4C131ECE5DE0709F473C0C231DC45B3
:1025D00009F0A2C00E94231B80918D028F7733C027
:1025E000C5318CE5D80709F472C008F486C0CB3F2A
:1025F000DC4509F091C080918E023EC0C115FDE519
:10260000DF0709F45FC058F4CE3F9CE5D90709F411
:1026100044C008F43FC080918E0282602DC0C23059
:10262000FDE5DF0709F475C008F45DC0C330DD4582
:1026300009F072C080E06EC080918D02816003C09D
:1026400080918D02806180938D0266C080918D02A1
:1026500011C080918E02826080938E025DC0809155
:102660008D028062F0CF80918D028064ECCF8091EA
:102670008D0288608460E7CF8160EECF80918D020B
:102680008E7FE1CF80918D028D7FDDCF80918D0295
:10269000877FD9CF80918E0218C080918E028D7F66
:1026A000DBCF80918D028F7ECECF80918D028F7D8A
:1026B000CACF80918D028F7BC6CF80918D02877F9C
:1026C0008B7FC1CF80918E028D7F8E7FC5CF809111
:1026D0008D0282FB222720F991E0922790FB82F95C
:1026E00090FB83F9B0CF80918E02982F90959170D6
:1026F0008E7F892B90FB81F9AFCF0E94231B8091A5
:102700008D0287FB222720F991E0922790FB87F921
:102710009ACF81E00E94522280918D0290918E0288
:102720000E94CB210E94231B80E001C081E0DF9149
:10273000CF910895CF93DF9386319C4541F5EB010E
:102740000E94EF20982F8A812091090130910A017F
:10275000882379F09A7A81E009F480E08093AD01D2
:10276000911102C069E201C065E3C9010E9499228A
:102770000AC08091AD01811102C069E201C065E328
:10278000C9010E949B220E943D2180E001C081E09E
:10279000DF91CF9108950F931F93CF93DF931F92F3
:1027A000CDB7DEB7AB0104E610E025E030E064E031
:1027B00082E30E943D150E941710882319F00E94A1
:1027C0001B1001C080E0898390917002891781F00D
:1027D00004E610E021E030E0AE014F5F5F4F69E0BA
:1027E00082E30E94101597FD03C0898180937002D7
:1027F0000E94A323DC01CB010296A11DB11D809391
:10280000670290936802A0936902B0936A0204E69B
:1028100010E024E030E047E652E060E082E30E940E
:10282000101581E00F90DF91CF911F910F910895C6
:102830000F931F93CF93DF938B01C7E6D2E068819C
:1028400079818A819B810E94862385E0F801ABE62D
:10285000B2E001900D928A95E1F78985DF91CF91E1
:102860001F910F910C9430110C94391482E30C9445
:1028700089151092B90088E48093B8000895EF920A
:10288000FF920F931F93CF93DF93182FEB011092BA
:10289000BC0084EA8093BC000E9430237C018091BC
:1028A000BC0087FD0EC0CF3F8FEFD807C1F30E9459
:1028B00030238E199F098C179D0788F38EEF9FEFA9
:1028C0002EC08091B900887F883041F08091B90096
:1028D000887F803119F08FEF9FEF21C01093BB00EC
:1028E00084E88093BC000E9430238C018091BC005E
:1028F00087FD0CC0CF3F8FEFD807C1F30E94302374
:10290000801B910B8C179D0788F3D8CF8091B9005D
:10291000887F883111F08034F1F680E090E0DF911B
:10292000CF911F910F91FF90EF9008950F931F93F8
:10293000CF93DF93EB018093BB0084E88093BC00CE
:102940000E9430238C018091BC0087FD0EC0CF3FD8
:102950008FEFD807C1F30E943023801B910B8C1797
:102960009D0788F38EEF9FEF0CC02091B900287F60
:1029700081E090E0283211F480E090E0919581951B
:102980009109DF91CF911F910F9108950F931F939C
:10299000CF93DF93EC0184EC8093BC000E94302342
:1029A0008C018091BC0087FD0EC0CF3F8FEFD80710
:1029B000C1F30E943023801B910B8C179D0788F375
:1029C0008EEF9FEF03C08091BB0090E0DF91CF912D
:1029D0001F910F9108950F931F93CF93DF93EC01F5
:1029E00084E88093BC000E9430238C018091BC005D
:1029F00087FD0EC0CF3F8FEFD807C1F30E94302371
:102A0000801B910B8C179D0788F38EEF9FEF03C0FF
:102A10008091BB0090E0DF91CF911F910F910895BD
:102A2000CF92DF92EF92FF920F931F93CF93DF939A
:102A3000C62F6A017901B8010E943F1497FD11C0A9
:102A4000B8018C2F0E949614E601EC0CFD1CCE15EB
:102A5000DF0539F097FD05C0B80189910E949614F1
:102A6000F6CF24E92093BC00DF91CF911F910F9105
:102A7000FF90EF90DF90CF900895CF92DF92EF928A
:102A8000FF920F931F93CF93DF93D82EC62E7A0118
:102A9000E901B8010E943F1497FD2AC0B8018C2DAE
:102AA0000E94961497FD24C0B8018D2D81600E946C
:102AB0003F146701219796012E193F092C173D07F6
:102AC00068F497FD15C0C8010E94C61497FD02C0A6
:102AD000F6018083FFEFCF1ADF0AEDCF97FD08C024
:102AE000C8010E94EB1497FD03C0CE0DDF1D888343
:102AF00024E92093BC001816190614F480E090E035
:102B0000DF91CF911F910F91FF90EF90DF90CF90C9
:102B100008958093BA0085EC8093BC0008951F92BD
:102B20000F920FB60F9211248F939F93EF93FF9301
:102B30008091B900887F803869F038F48823B1F13A
:102B40008036B1F51092AE0133C0883A09F1883B66
:102B5000F9F02EC08091AE01811111C08091BB00AF
:102B60008093AF018091AF018E3120F01092AF01C0
:102B700080E001C081E091E09093AE011AC0E09145
:102B8000AF01F0E08091BB00E959FD4F808308C0A0
:102B9000E091AF01F0E0E959FD4F80818093BB00E7
:102BA0008091AF018F5F8093AF0102C01092BC0093
:102BB00081E09091BC008295880F880F807C956899
:102BC000892B8093BC00FF91EF919F918F910F9083
:102BD0000FBE0F901F9018959093B5018093B4018C
:102BE0000895E091B401F091B501309721F0019082
:102BF000F081E02D099480E00895E091B401F09116
:102C0000B501309721F00280F381E02D09940895F9
:102C1000E091B401F091B501309739F022E0DC0188
:102C20002C930480F581E02D099408952091B20140
:102C30003091B3012817390771F09093B301809355
:102C4000B201E091B401F091B501309721F0068016
:102C5000F781E02D099408952091B0013091B101E0
:102C60002817390771F09093B1018093B001E0917A
:102C7000B401F091B501309721F00084F185E02D89
:102C8000099408950E943C236093C5017093C60186
:102C90008093C7019093C8016093C1017093C201F2
:102CA0008093C3019093C401089585B7806885BF60
:102CB00085B7806885BF08950C94480B08950C94DF
:102CC0005E160C945E160C9461160C945E160C94B1
:102CD00065160C945E160E94551680EA91E20E94D9
:102CE000CF230E9469160C9467160E9427230E9426
:102CF0007D230E94D2090E94D4230E9421100C94AB
:102D000063169F92AF92BF92CF92DF92EF92FF92A3
:102D10000F931F93CF93DF93CDB7DEB72A970FB6EC
:102D2000F894DEBF0FBECDBF0E945F160E945E16F4
:102D30000E947F0A81110E94421687EBA82E81E033
:102D4000B82E00E010E0902E802F0E94A209D82E0D
:102D5000F501C1905F01C826B1F40F5F1F4F0A3023
:102D6000110589F78FEF89838A831B820E943023A4
:102D70008160782F9D838C8349815A816B818D81FD
:102D80000E9425172FC08091440281FD0E94A8094E
:102D9000E12CFF24F3948C2D8F21F1F00E945C161E
:102DA000882399F0EE829F82DF2081E009F480E0A1
:102DB00088870E9430238160782F9A8789874E8187
:102DC0005F8168858A850E942517F801E954FE4FC6
:102DD0008081F826F08206C0E394FF0CF7E0EF1242
:102DE000DACFBBCF0E9499110E94F60E0E94F11516
:102DF0009091B6018917B9F00E94F1158093B60140
:102E00002A960FB6F894DEBF0FBECDBFDF91CF91EB
:102E10001F910F91FF90EF90DF90CF90BF90AF90F8
:102E20009F900C948B072A960FB6F894DEBF0FBEC6
:102E3000CDBFDF91CF911F910F91FF90EF90DF9069
:102E4000CF90BF90AF909F900895DF92EF92FF9246
:102E50000F931F93CF93DF93CDB7DEB72B970FB6AA
:102E6000F894DEBF0FBECDBFF42E052F162FE72E30
:102E7000D82E61110E940F21FE01319686E0DF01FC
:102E80001D928A95E9F77E2D4F2D502F612F8D2DA4
:102E90009E810E94DC1D2B960FB6F894DEBF0FBEFC
:102EA000CDBFDF91CF911F910F91FF90EF90DF90F9
:102EB0000895FC01808191810E94B0200895CF93F4
:102EC000882309F4A9C0C82F8238C1F40E94F115E3
:102ED00081FDA2C069E38091090190910A010E94DD
:102EE00099220E943D212FEF81EE94E021508040F5
:102EF0009040E1F700C0000069E319C0833801F594
:102F00000E94F11580FD88C063E5809109019091D0
:102F10000A010E9499220E943D212FEF81EE94E048
:102F2000215080409040E1F700C0000063E58091AF
:102F3000090190910A010E949B22CF910C943D219E
:102F40008438C1F40E94F11582FD66C067E4809167
:102F5000090190910A010E9499220E943D212FEFC0
:102F600081EE94E0215080409040E1F700C00000E5
:102F700067E4DDCF8CEF8C0F813AF8F48C2F0E9440
:102F8000F30C811149C06C2F8091090190910A01C5
:102F90000E946322882349F06C2F8091090190914F
:102FA0000A010E949B220E943D216C2F8091090101
:102FB00090910A010E949922C0CF80E28C0F883044
:102FC00048F4C77081E001C0880FCA95EAF70E94F3
:102FD000F220B3CFEBE5EC0FE33040F4F0E0E05744
:102FE000FE4F808190E0CF910C941616E8E5EC0F2F
:102FF000E73150F4F0E0EE0FFF1FEE59FE4F8081F5
:103000009181CF910C942C16CD3E30F08C2F0E94E4
:10301000060ECF910C94D80ECF910895882309F411
:1030200064C0823879F40E94F11581FF5EC069E3C3
:103030008091090190910A010E9499220E943D21EC
:1030400069E310C08338B1F40E94F11580FF4DC0D0
:1030500063E58091090190910A010E9499220E94E2
:103060003D2163E58091090190910A010E949B2214
:103070000C943D21843879F40E94F11582FF35C00B
:1030800067E48091090190910A010E9499220E94AF
:103090003D2167E4E7CF9CEF980F913A10F4682F39
:1030A000E1CF90E2980F983050F4877091E001C022
:1030B000990F8A95EAF7892F0E94F820D9CF9BE5CE
:1030C000980F933020F480E090E00C94161698E569
:1030D000980F973120F480E090E00C942C168D3EF0
:1030E00020F00E94610E0C94D80E08951F93CF9388
:1030F000DF93182FEB010E945F17209741F08FE9B3
:103100009FE00197F1F700C000002197F6CF812FD3
:10311000DF91CF911F910C940E18893319F060E064
:1031200070E002C060E570E00C947618882321F00E
:103130000E94F2200C943D210895882321F00E94E2
:10314000F8200C943D210895CF92DF92EF92FF92E8
:103150000F931F93CF93DF937C01062FC72FFC01A2
:10316000D281158112951F700E94E820882399F062
:10317000DD2389F08C2F807F803421F080E2800F66
:10318000883048F082E00E9487210E94E82091E088
:10319000D82ED92601C0D12CCC2EC2948FE0C822C3
:1031A0008C2D90E0FC01EA5AFF4F0C940E2B8C2FD3
:1031B000807FCF70882311F0C295C07FDD2399F006
:1031C000CC2309F48DC180E2800F883010F001110A
:1031D00004C08C2F0E94F22003C08C2F0E94022179
:1031E0000E943D217DC1802F0E940E18CC2309F43E
:1031F0009CC180E2800F883010F0011104C08C2F38
:103200000E94F82003C08C2F0E9408210E943D21BB
:103210008CC18C2F807FCF70803211F0C295C07F1F
:10322000002319F00130C9F022C0DD2371F0112311
:1032300041F0113031F40E9422218C2B0E942A216E
:1032400074C10E9422218C2B1DC0112319F0113052
:1032500009F46BC10E94332125C0DD2321F0163013
:1032600008F063C10EC0153008F05FC11BC0DD233C
:1032700061F0112331F0F701858180FF31C18F703A
:1032800085838C2F0E94961850C1112359F0093361
:1032900009F037C1FFEF27EE83E0F1502040804076
:1032A000E1F72DC18C2F0E949D183FC18C2F869570
:1032B0008695837019F0813061F037C1DD2321F0EC
:1032C000802F9C2F937002C080E090E00E94161621
:1032D00034C1DD2321F0802F9C2F937002C080E049
:1032E00090E00E942C1629C1802FDD2319F00E9446
:1032F000060E02C00E94610E0E94D80E1EC18C2FC5
:10330000837009F045C0D11114C1402F42954695F4
:103310004770440F440F602F6F70862F90E0A0E03D
:10332000B0E0042E04C0880F991FAA1FBB1F0A9487
:10333000D2F704FF10C00FE010E020E030E004C03E
:10334000000F111F221F331F4A95D2F700951095C9
:103350002095309503C000E010E09801C695C69511
:10336000C370BC01CD01602B712B822B932BC2301B
:1033700049F058F4C13019F00E942D1FDAC00E94A4
:103380001B1FD7C00E943F1FD4C00E94191FD1C06D
:10339000DD2319F08C2F817001C08695882309F4F4
:1033A000C8C0402F429546954770440F440F602F88
:1033B0006F70862F90E0A0E0B0E0042E04C0880F6C
:1033C000991FAA1FBB1F0A94D2F704FF10C00FE079
:1033D00010E020E030E004C0000F111F221F331F57
:1033E0004A95D2F7009510952095309503C000E0DE
:1033F00010E09801C695C695C370BC01CD01602B45
:10340000712B822B932BC23049F058F4C13019F044
:103410000E94F21F8EC00E94E01F8BC00E940420F9
:1034200088C00E94531F85C0CF70DD2339F08C2FD8
:103430000E94791F802F0E9496187BC0802F0E94C7
:103440009D188C2F0E949A1F74C0023F01F128F42E
:10345000003F41F0013FA1F03FC0033FF9F0043FBE
:1034600039F13AC0DD2341F0153008F05EC08C2FF1
:103470008F710E94BF1F59C0163008F056C0F7CF99
:10348000DD2339F08C2F8F710E94791F4EC0DD2310
:10349000C9F38C2F8F710E949A1F47C0DD2329F03A
:1034A0008C2F8F710E94641F40C00E945F1F3DC01F
:1034B000DD2349F0CF718C2F0E94791F63E08C2FA0
:1034C0000E94722132C081E00E948721123068F18F
:1034D00082E00E94872129C0DD2331F0112391F27F
:1034E000802F0E945F1721C0112399F2093349F4FC
:1034F0009FEFE7EEF3E09150E040F040E1F700C0CD
:103500000000802F0E940E1810C04C2F4F70602FAB
:10351000C7010E9494070E948A1E0FC04C2F4F7053
:10352000602FC7010E94970708C088EF8C0D843078
:1035300020F40E94F1150E948B07DD20C9F00E9443
:10354000E42080FD15C0F70112820E94DE200E9457
:10355000791FC7010E94D91A0E94DE20DF91CF9106
:103560001F910F91FF90EF90DF90CF900C949A1FD6
:10357000DF91CF911F910F91FF90EF90DF90CF904F
:1035800008950F931F93CF93DF93EC0168817981A6
:103590008A810E94BB208C010E9416200E94071F76
:1035A000B801CE010E94A418DF91CF911F910F9115
:1035B0000895CF93DF93EC01988189812B813C8121
:1035C000232B31F08F3F31F481E09F3F19F403C08A
:1035D00081E001C080E080FD19C0CE010E9441075A
:1035E00081110CC00E94E820882381F08A81882301
:1035F00069F082E0DF91CF910C948721CE010E9487
:10360000C11ACE01DF91CF910C94A006DF91CF912A
:10361000089580E090E00E94161680E090E00E94FD
:103620002C160E940F210E941F210E943D210E9402
:1036300009100C94D80E8091090190910A010E9402
:103640009D220C94091B0E94FF200C941B1BE92F48
:10365000E295EF704E2F50E0FA013297EE30F1050F
:10366000B0F4EA59FF4F0C940E2B803F91F018F400
:10367000883E68F40EC0843F51F40BC0883E48F089
:10368000813F29F406C093FB882780F9089580E0E4
:10369000089581E008950E94B0200E94271B08959C
:1036A000CF93DF9300D000D01F92CDB7DEB70F903D
:1036B0000F900F900F900F90DF91CF910895CF93BF
:1036C000DF9300D000D000D0CDB7DEB726960FB67E
:1036D000F894DEBF0FBECDBFDF91CF9108951F9349
:1036E000CF93DF93C091CA0116E08091CB01C81738
:1036F00099F0D0E01C9FF0011D9FF00D1124E453C0
:10370000FE4F4081518162817381848195810E9445
:103710005F1B2196C770E9CFDF91CF911F9108956C
:103720004091FC015091FD016091FE017091FF01FB
:1037300080910002909101020C945F1B0F931F93E4
:10374000CF93DF938091010282958F7009F05DC065
:103750008091FE01882309F458C08091CA0110911C
:10376000CB016091FC017091FD01C091FF01D091EE
:10377000000291E06F3F09F090E0292F06E08117E9
:1037800009F443C0209721F07F3F21F030E003C0CF
:1037900031E001C0322F90E030FD34C0089FF001CD
:1037A000099FF00D1124DF01A453BE4F11963C91E7
:1037B0001197371327C03C91361324C012963C91C1
:1037C000129731111FC013964D915C9114974C1BA9
:1037D0005D0B483C5105B0F4809101028F7080610F
:1037E00080930102EF52FE4F80818F708061808351
:1037F0008CEF91E00E94D91ADF91CF911F910F9128
:103800000C946F1B01968770BACFDF91CF911F91F7
:103810000F9108959F92AF92BF92CF92DF92EF9255
:10382000FF920F931F93CF93DF93CDB7DEB76197CE
:103830000FB6F894DEBF0FBECDBF8C0185E0F80156
:10384000DE011D9601900D928A95E1F7F801408105
:103850005181E2809091FC016091FD012091FF0176
:10386000309100022115310531F06F3F31F481E0D4
:103870009F3F19F403C081E001C080E0F82FF17090
:103880009F2E80FD46C1F801A380B4808CEFC82E26
:1038900081E0D82EF090FE01F501E21BF30BFF2032
:1038A00009F4DFC080910102E83CF10508F09BC0FB
:1038B000282F207F09F052C0561313C0491311C09E
:1038C000FE2CE1100EC08F708061809301020E9477
:1038D000901BC6010E94D91A80910102F8018583CC
:1038E00058C1AB2831F05F3F31F481E04F3F19F40C
:1038F00003C081E001C080E080FD03C081E08E252F
:1039000002C080E090E0F82FF170FF2E80FF1CC015
:103910008091CA012091CB0136E0821709F417C1CA
:1039200090E0389FF001399FF00D1124E453FE4FD1
:103930006181561306C06081461303C06281E6129E
:1039400003C001968770E9CFFE2CEE2009F421C157
:10395000809101028160809301025AC0561306C013
:10396000491304C0E11002C0F8019FC04D875E8773
:103970008D859E850E944B1B882379F1EE2069F18D
:1039800020910102822F82958F7090E0029774F04F
:103990008091FC019091FD0198878F831986BB86E9
:1039A000AA862C87CE0107960E94D91A86E0F801D4
:1039B000ACEFB1E001900D928A95E1F70E949E1B59
:1039C0000E94901B0DC0561729F14D875E878D858B
:1039D0009E850E944B1B81112CC0C8010E94D91AE0
:1039E000FF24F394D6C0282F207F69F77A2DB98A57
:1039F000A88A6E2D89890E94501B8CEF91E00E944D
:103A0000D91A86E0F60111928A95E9F70E94901B77
:103A1000F12CBFC04913D9CFE110D7CFF80185836E
:103A2000C8010E94D91A86E0F60111928A95E9F739
:103A3000B0C0EE2091F220910102822F82958F700A
:103A400090E002970CF4B2CF8091FC019091FD01BF
:103A50009A8389831B82BD82AC822E83CE0101961C
:103A6000A3CFE83CF10508F047C0FE2CEE2009F496
:103A7000B4CF561330C049132EC02091010220FD4F
:103A800021C0822F82958F70482F50E0411551053B
:103A9000C9F0F80125834F30510541F08F5F982F11
:103AA0009295907F822F8F70892B8583C8010E9409
:103AB000D91A86E0F801ACEFB1E001900D928A9539
:103AC000E1F742C086E0F801ACEFB1E001900D9261
:103AD0008A95E1F75EC04D875E878D859E850E9441
:103AE0004B1B811163CF80910102816080930102A1
:103AF000C8010E94D91A4DC07A2DB98AA88A6E2DA4
:103B000089890E94501B86E0F60111928A95E9F797
:103B10001BC0EE2009F461CF4D875E878D859E85A1
:103B20000E944B1BF82E882309F457CF86E0F8013A
:103B3000ACEFB1E001900D928A95E1F78CEF91E046
:103B40000E9459170E949E1B0E94901B22C04D8705
:103B50005E878D859E850E94B020292F22952F702B
:103B6000223028F49F7039F0811105C00BC0243039
:103B700028F49F7049F4805E883020F0C8010E94CC
:103B8000D91A9F2CF92C05C0F8019581907F99F7DF
:103B9000F9CF8F2D61960FB6F894DEBF0FBECDBF63
:103BA000DF91CF911F910F91FF90EF90DF90CF9019
:103BB000BF90AF909F9008951F93CF93DF93CDB7A1
:103BC000DEB72C970FB6F894DEBF0FBECDBF4F8384
:103BD000588769877A878B879C87CE0107960E94D2
:103BE0000A1C8823D1F09F8188852A853B85232B59
:103BF00031F08F3F31F481E09F3F19F403C081E041
:103C000001C080E080FD47C04F81588569857A8575
:103C10008B859C850E945F1B3EC086E0FE01379627
:103C2000DE01119601900D928A95E1F7FF81E885FA
:103C30006A857B856115710531F0EF3F31F481E0D4
:103C4000FF3F19F403C081E001C080E080FD23C084
:103C50002091CB0130E0C9010196877099274091EE
:103C6000CA0150E084179507F1F1F983EA837D8357
:103C70006C8396E0929FD001939FB00D1124A453C2
:103C8000BE4FFE01319601900D929A95E1F7809317
:103C9000CB010E946F1B16E08091CA019091CB016D
:103CA000891771F1189FC001112484539E4F0E94FF
:103CB0000A1C882329F1E091CA011E9FF0011124FA
:103CC000E453FE4F408151816281738184819581EB
:103CD0000E945F1B8091CA0190E00196877099272E
:103CE0008093CA01D9CF0E94231B1092CB0110925E
:103CF000CA01ECEFF1E086E0DF011D928A95E9F759
:103D00002C960FB6F894DEBF0FBECDBFDF91CF91DA
:103D10001F910895EF92FF920F931F93CF93DF931C
:103D20008C01892B09F46CC0F12CEE24E394E8019A
:103D30002196F8018491843740F4843008F051C012
:103D4000813081F0823019F15BC0853709F444C0BD
:103D5000A8F19CE7980F903708F052C08F770E9427
:103D60000E1841C00E5F1F4FFE01849190E2980F24
:103D7000983050F48770FE2D01C0FF0F8A95EAF746
:103D80008F2F0E94122114C00E945F172DC00E5F5A
:103D90001F4FFE01849190E2980F983060F4877075
:103DA000FE2D01C0FF0F8A95EAF78F2F0E94182180
:103DB0000E943D2119C00E940E1816C00E5F1F4FB1
:103DC000FE01C491CC2381F08FE99FE00197F1F7C8
:103DD00000C00000C150F6CF0E5F1F4FFE01F490EF
:103DE00003C00E945F178E018F2D882309F49FCF97
:103DF000EFE9FFE03197F1F700C000008150F5CF07
:103E0000DF91CF911F910F91FF90EF90089508954A
:103E100008950C94081F0C94091F0E940B1F6093B7
:103E200033027093340280933502909336020C94DF
:103E3000091B0C940D1F0F931F93009133021091D7
:103E400034022091350230913602602B712B822B87
:103E5000932B1F910F910C940D1F0F931F930091A3
:103E600033021091340220913502309136026023E2
:103E70007123822393231F910F910C940D1F0F9395
:103E80001F9300913302109134022091350230913A
:103E9000360260277127822793271F910F910C9478
:103EA0000D1F0C94081F0E94511F60932F027093E6
:103EB000300280933102909332020C94091B60E02F
:103EC00070E0CB010C94531F0F931F9341E050E01F
:103ED00060E070E08A019B0104C0000F111F221FE7
:103EE000331F8A95D2F7C901B8011F910F910C9425
:103EF000531F0F931F9341E050E060E070E004C057
:103F0000440F551F661F771F8A95D2F780912F02A5
:103F100090913002A0913102B09132028A019B014E
:103F2000082B192B2A2B3B2BC901B8011F910F918C
:103F30000C94531F0F931F9341E050E060E070E03A
:103F400004C0440F551F661F771F8A95D2F740950E
:103F500050956095709580912F0290913002A091BC
:103F60003102B09132028A019B01082319232A23CE
:103F70003B23C901B8011F910F910C94531F0F935C
:103F80001F9341E050E060E070E004C0440F551F13
:103F9000661F771F8A95D2F780912F029091300289
:103FA000A0913102B09132028A019B0108271927A2
:103FB0002A273B27C901B8011F910F910C94531F69
:103FC0000F931F9300912F02109130022091310224
:103FD00030913202602B712B822B932B1F910F910A
:103FE0000C94531F0F931F9300912F0210913002D6
:103FF0002091310230913202602371238223932376
:104000001F910F910C94531F0F931F9300912F0238
:1040100010913002209131023091320260277127D5
:10402000822793271F910F910C94531F089527E027
:10403000929F800D1124E82FE695E695E69587700E
:1040400051E001C0550F8A95EAF785E0E89FF0013D
:104050001124EE5FFD4F20E030E070E04081CB01A5
:10406000022E02C0969587950A94E2F78170819599
:1040700084278523842781932F5F3F4F2530310587
:1040800069F7089527E0929F800D1124682F6695A7
:1040900066956695982F977085E0689FB00111240A
:1040A00040E050E080E0FB01E40FF51FEE5FFD4FC4
:1040B000208130E0092E02C0369527950A94E2F758
:1040C00021703327042E01C0220F0A94EAF7822BB5
:1040D0004F5F5F4F4530510531F70895BF92CF9242
:1040E000DF92EF92FF920F931F93CF93DF938C0198
:1040F000C0902F02D0903002E0903102F090320256
:104100008091330290913402A0913502B091360231
:10411000C82AD92AEA2AFB2ACFE1D0E0D701C60172
:104120000C2E04C0B695A795979587950A94D2F75B
:1041300080FD04C0219790F7B12C07C0BC2EB801B8
:104140008C2F0E94B3070197A9F38B2DDF91CF919C
:104150001F910F91FF90EF90DF90CF90BF90089547
:10416000CF93DF93EC010E946E20BE010E94B30743
:10417000DF91CF9108951F93CF93DF93EB0190913F
:10418000C901992321F0CB010E94B02013C08823DC
:1041900049F0CB010E946E20182F682FCE010E949B
:1041A000172004C0CB010E944220182FBE01812F8E
:1041B0000E94B307DF91CF911F910895809137023C
:1041C0008595859585950895809137028770089526
:1041D00090913702977081E009F480E00895809112
:1041E0004302089590914302892B809343020895DE
:1041F0008095909143028923809343020895109201
:104200004302089590914202892B809342020895BF
:1042100080959091420289238093420208951092E2
:104220004202089590914102892B809341020895A2
:1042300080959091410289238093410208951092C4
:104240004102089580913802089508950C94252123
:104250000C94262190913802981721F0809338020F
:104260000C942821089580913802882329F0109217
:10427000380280E00C9428210895E0910901F09122
:104280000A01809143028083E0910901F0910A01C3
:10429000908180914202892B8083E0910901F09105
:1042A0000A01908180914102892B8083809138029C
:1042B000882381F0E0910901F0910A019081892B16
:1042C00080838091090190910A010E9457228111F7
:1042D0000E9433218091090190910A010C94FD15EF
:1042E0000C94252198E0899F90011124262B20937E
:1042F00037020E94791F80913702859585958595B3
:104300000C9470211092370280E00C94702120915F
:1043100037028095822380933702982F977079F423
:1043200030E0482F082E000C550B2417350739F0C4
:104330008595859585950E949A1F0C9482210895F4
:1043400080E0089580E090E00E94362B21E08B3ED3
:104350009E4F09F020E0822F089582E090E00C94B7
:104360002E2B83E090E00C942E2B682F83E090E0BE
:104370000C943C2BCF9384E090E00E942E2BC82F0E
:1043800081E290E00E942E2B2C2F30E0A901582BC7
:10439000CA01CF910895CF93C92F682F84E090E090
:1043A0000E943C2B6C2F81E290E0CF910C943C2B2F
:1043B00086E090E00C942E2B682F86E090E00C9421
:1043C0003C2BAB01BC018FE090E00C944E2BAB0179
:1043D000BC0183E190E00C944E2B60E070E0CB01D7
:1043E0000C94E7216BEE7EEF80E090E00E945A2B68
:1043F00060E082E090E00E943C2B60E083E090E08F
:104400000E943C2B1092330210923402109235021B
:104410001092360260E084E090E00E943C2B60E065
:1044200081E290E00E943C2B60E085E090E00E94F9
:104430003C2B60E086E090E00E943C2B6FEF87E031
:1044400090E00E943C2B40E050E0BA0188E090E010
:104450000E944E2B60E08DE090E00E943C2B40E0FB
:1044600050E0BA0188E190E00E944E2B60E087E1C5
:1044700090E00E943C2B40E050E0BA018CE190E0DB
:104480000E944E2B60E080E290E00E943C2B40E0D6
:1044900050E0BA0188E190E00E944E2B0C94110686
:1044A0000C94F221682F8EE090E00C943C2BFC01E0
:1044B000329697E080E0915029F021912223D9F3A0
:1044C0008F5FF9CF0895662349F0FC013296089674
:1044D0002191621729F0E817F907D1F780E00895D4
:1044E00081E008959C01FC0132969FEF80E04191AC
:1044F000461789F09F3F19F4411101C0982F8F5F33
:104500008630A9F79F3F39F0F901E90FF11D97FDBA
:10451000FA956283089508959C012A5F3F4FFC013C
:104520004281461301C01282019682179307B9F7A0
:1045300008950C9472220C948C22029626E0FC01C1
:1045400011922A95E9F7089508950C94A4220C94E9
:10455000A422CF930E94A7220E947F0A0E94A52234
:10456000C0E08C2F0E94A209811104C0CF5FCA3025
:10457000C1F701C081E0CF9108950C94A4220C945E
:10458000BD2280919302843061F10E94BF2280E0BD
:104590000E94301180E00E948B071092450220E4B7
:1045A00088E190E00FB6F894A895809360000FBE64
:1045B0002093600083B7817F846083BF83B781606D
:1045C00083BF7894889583B78E7F83BF0FB6F894A6
:1045D000A8958091600088618093600010926000CF
:1045E0000FBE08950C94A4220E94231B0E94211048
:1045F0000E94F1150E948B070C94F2221F920F92D9
:104600000FB60F9211248F939F93AF93BF93809116
:104610004502811113C08091850290918602A0917C
:104620008702B09188024196A11DB11D8093850239
:1046300090938602A0938702B0938802BF91AF91B6
:104640009F918F910F900FBE0F901F90189582E051
:1046500084BD93E095BD9AEF97BD80936E00089559
:104660002FB7F8948091850290918602A0918702DD
:10467000B09188022FBF08952FB7F89460918502FA
:104680007091860280918702909188022FBF0895D1
:104690009C014FB7F8948091850290918602A09179
:1046A0008702B09188024FBF821B930B08957894C4
:1046B0001F920F920FB60F9211248F939F93AF9377
:1046C000BF938091850290918602A0918702B0915C
:1046D00088020196A11DB11D8093850290938602E8
:1046E000A0938702B0938802BF91AF919F918F9161
:1046F0000F900FBE0F901F90189510928902109284
:104700008A0210928B0210928C020895CF92DF924F
:10471000EF92FF926B017C010E94480B81110EC049
:104720000E943C23C61AD70AE80AF90AC0928902F5
:10473000D0928A02E0928B02F0928C02FF90EF906E
:10474000DF90CF9008950F931F930E94480B88230A
:1047500021F01F910F910C943C230E943C23009167
:10476000890210918A0220918B0230918C02600F95
:10477000711F821F931F1F910F91089587E797E77D
:1047800090930108809300089AE088E10FB6F894AE
:10479000A895809360000FBE90936000FFCF909328
:1047A00095018093940108950E94A221811102C075
:1047B0000E9450220E94AD21809344020E94BA219F
:1047C00090938E0280938D020E94B121682F70E039
:1047D00080E090E00E94191F60912F0270913002DA
:1047E00080913102909132020C94511F80914E02BF
:1047F0000895CF93DF9300D01F92CDB7DEB790918D
:104800009302943019F589837B836A8382E08093D5
:10481000E9008FEF9091E800815095FD06C095ED7D
:104820009A95F1F700008111F5CF8091E80085FF9E
:104830000DC040E050E063E070E0CE0101960E94C0
:1048400016268091E8008E778093E8000F900F90F5
:104850000F90DF91CF910895BC0184E00C94F9236F
:10486000BC0183E00C94F92322E02093E9002FEFB0
:104870003091E800215035FD06C035ED3A95F1F74D
:1048800000002111F5CF2091E80025FF0BC040E08A
:1048900050E066E070E00E9416268091E8008E7776
:1048A0008093E8000895CF93DF9321E02093E900FF
:1048B0002FEF3091E800215035FD06C035ED3A95D7
:1048C000F1F700002111F5CF2091E80025FF14C079
:1048D000EC0140E050E068E070E00E941626809114
:1048E000E8008E778093E80088E0FE01A6E4B2E05D
:1048F00001900D928A95E1F7DF91CF910895809113
:104900009202811109C00E94A7270E940428809169
:10491000E20084608093E20008951092920208956C
:1049200008950895089542E061EC81E00E942027F7
:1049300042E261EC82E00C94202780919502833062
:1049400009F460C030F4813071F0823009F499C00C
:1049500008958A3009F485C08B3009F46BC0893022
:1049600009F0A7C020C080919402813A09F0A1C04B
:104970008091E800877F8093E80080919802909171
:104980009902892B21F468E086E492E003C060E09C
:1049900080E090E070E00E9461268091E8008B77D3
:1049A0008093E800089580919402813209F081C0DB
:1049B0008091980290919902029708F07AC08091B4
:1049C000E800877F8093E8008091E80082FD05C0C1
:1049D000809193028111F8CF6CC02091F3008091F7
:1049E000F20090E0922B029729F48091F1008B7FE6
:1049F000813021F48091F10080934E028091E80093
:104A00008B7753C080919402813A09F052C0809113
:104A1000980290919902892B09F04BC08091E8008F
:104A2000877F8093E8008091E80080FFFCCF809131
:104A3000150136C0809194028132D9F58091980297
:104A400090919902892BA9F58091E800877F809346
:104A5000E8000E94552780919602809315010C94DE
:104A6000231B80919402813221F58091E800877F99
:104A70008093E8000E9455278091970280934F020F
:104A8000089580919402813AA1F48091E800877F93
:104A90008093E8008091E80080FFFCCF80914F0276
:104AA0008093F1008091E8008E778093E8000C9469
:104AB0005527089584B7877F84BF0FB6F894A895CB
:104AC00080916000886180936000109260000FBE4A
:104AD00090E080E80FB6F8948093610090936100B5
:104AE0000FBE0E946B160E94A7270E940428809187
:104AF000E20084608093E20078940E94992A0E94E8
:104B000075168BE091E00E94EC1580919302853040
:104B1000A9F480919302853079F40E94C12280919A
:104B200091028823B1F30E94A922882391F30E9465
:104B300000260E94231BEDCF0E94F4220E948116C2
:104B40000E945F160E945E16E0CF0C94A725292FC5
:104B5000332723303105C9F060F42130310581F06D
:104B60002230310509F044C08BE390E028E83AE0B8
:104B700043C021323105E1F02232310549F138C01C
:104B800082E190E023EC3AE037C09927813091052B
:104B900049F028F0029761F5E8E4FAE005C0E4E89E
:104BA000FAE002C0E4E7FAE0849190E09F0124C0BB
:104BB0006115710541F061307105D1F489E090E033
:104BC00023EB3AE019C089E090E02AE93AE014C00A
:104BD0006115710541F06130710551F48BE790E08A
:104BE00025ED3AE009C080E490E020E53BE004C018
:104BF00080E090E020E030E0FA01318320830895E6
:104C000080E189BD82E189BD09B400FEFDCF8091BC
:104C1000D8008F7D8093D8008091E00082608093DF
:104C2000E0008091E00081FDFCCF0895CF92DF92FB
:104C3000EF92FF920F931F93CF93DF93EC018B01C1
:104C40007A010E947427811133C0E114F10439F014
:104C5000F70180819181081B190BC80FD91FC12C46
:104C6000D12C0115110519F18091E80085FD16C0C0
:104C70008091E8008E778093E800E114F10449F018
:104C8000F70180819181C80ED91ED182C08285E052
:104C90000FC00E947427882321F30AC08991809352
:104CA000F10001501109FFEFCF1ADF0ADACF80E0DF
:104CB000DF91CF911F910F91FF90EF90DF90CF90F8
:104CC000089520919A0230919B022617370748F0E9
:104CD0006115710539F42091E8002E772093E800E2
:104CE00001C0B901FC0120E06115710579F18091E5
:104CF00093028823F1F18530F1F18091E80083FD82
:104D00003CC08091E80082FD2EC08091E80080FFC9
:104D1000EBCF2091F3008091F20090E0922B61158F
:104D2000710551F08830910538F421912093F100FC
:104D3000615071090196F3CF21E0089709F020E056
:104D40008091E8008E778093E800CECF2111CFCFFD
:104D50000AC080919302882361F0853061F08091D0
:104D6000E80083FD0AC08091E80082FFF2CF80E076
:104D7000089582E0089583E0089581E008952091E8
:104D80009A0230919B022617370748F0611571058A
:104D900039F42091E8002E772093E80001C0B90192
:104DA000FC0120E06115710591F180919302882347
:104DB00009F440C0853009F43FC08091E80083FDCC
:104DC0003DC08091E80082FD2FC08091E80080FF07
:104DD000E9CF2091F3008091F20090E0922B6115D1
:104DE000710559F08830910540F424912093F10029
:104DF0003196615071090196F2CF21E0089709F0D0
:104E000020E08091E8008E778093E800CBCF2111DD
:104E1000CCCF0AC080919302882361F0853061F085
:104E20008091E80083FD0AC08091E80082FFF2CF04
:104E300080E0089582E0089583E0089581E0089578
:104E4000982F973068F59093E900981739F0709192
:104E5000EC002091ED005091F00003C0242F762F3C
:104E600050E021FD02C09F5FECCF3091EB003E7F10
:104E70003093EB003091ED003D7F3093ED003091A9
:104E8000EB0031603093EB007093EC002093ED0069
:104E90005093F0002091EE0027FDE5CF80E00895CB
:104EA0008F708093E90081E008958091940287FFDC
:104EB00011C08091E80082FD05C0809193028111AC
:104EC000F8CF11C08091E8008B770BC080919302DE
:104ED000882349F08091E80080FFF8CF8091E800B6
:104EE0008E778093E80008952091E4003091E500EA
:104EF00095E64091EC00842F817040FF23C08091A3
:104F0000E80080FD1DC080919302882399F08530D0
:104F100099F08091EB0085FD11C04091E400509123
:104F2000E5002417350729F3915011F09A01E1CFDC
:104F300084E0089582E0089583E0089581E0089573
:104F400080E008954091E80042FFDDCF08950E947F
:104F500015280E941D28E0EEF0E0808181608083AA
:104F6000E8EDF0E080818F77808319BCA7EDB0E099
:104F70008C918E7F8C9380818F7E808310929202A1
:104F800008950F931F93CF93DF930E9415280E94DB
:104F90001D28C8EDD0E088818F778883888180685C
:104FA000888388818F7D888319BC10929302109228
:104FB0008F02109291021092900200EE10E0F80120
:104FC00080818B7F808388818160888342E060E07C
:104FD00080E00E942027E1EEF0E080818E7F8083D8
:104FE000E2EEF0E080818160808380818860808350
:104FF000F80180818E7F8083888180618883DF9142
:10500000CF911F910F910895E8EDF0E080818F7EA0
:105010008083E7EDF0E080818160808384E082BF5F
:1050200081E0809392020C94C127E8EDF0E080814A
:105030008E7F80831092E20008951092DA00109221
:10504000E10008951F920F920FB60F9211242F9333
:105050003F934F935F936F937F938F939F93AF9300
:10506000BF93EF93FF938091E10082FF0BC080918B
:10507000E20082FF07C08091E1008B7F8093E10016
:105080000E94982A8091DA0080FF1FC08091D8008A
:1050900080FF1BC08091DA008E7F8093DA008091C0
:1050A000D90080FF0DC080E189BD82E189BD09B4CE
:1050B00000FEFDCF81E0809393020E947F2405C013
:1050C00019BC109293020E948D248091E10080FF10
:1050D00019C08091E20080FF15C08091E2008E7FB0
:1050E0008093E2008091E20080618093E2008091F1
:1050F000D80080628093D80019BC85E08093930229
:105100000E9491248091E10084FF30C08091E200F0
:1051100084FF2CC080E189BD82E189BD09B400FE15
:10512000FDCF8091D8008F7D8093D8008091E100E1
:105130008F7E8093E1008091E2008F7E8093E20079
:105140008091E20081608093E20080918F02882349
:1051500011F084E007C08091E30087FD02C081E088
:1051600001C083E0809393020E9492248091E10029
:1051700083FF29C08091E20083FF25C08091E10078
:10518000877F8093E10082E08093930210928F02E8
:105190008091E1008E7F8093E1008091E2008E7F1C
:1051A0008093E2008091E20080618093E20042E01F
:1051B00060E080E00E9420278091F000886080936A
:1051C000F0000E949024FF91EF91BF91AF919F91C9
:1051D0008F917F916F915F914F913F912F910F90A0
:1051E0000FBE0F901F9018951F920F920FB60F923F
:1051F00011242F933F934F935F936F937F938F93DC
:105200009F93AF93BF93CF93DF93EF93FF93C0919F
:10521000E900CF708091EC00D82FD17080FDD0E8EC
:105220001092E9008091F000877F8093F0007894DD
:105230000E9438291092E9008091F00088608093E4
:10524000F000CD2BCF70C093E900FF91EF91DF917B
:10525000CF91BF91AF919F918F917F916F915F910E
:105260004F913F912F910F900FBE0F901F90189567
:105270001F93CF93DF93CDB7DEB7AA970FB6F894FD
:10528000DEBF0FBECDBFE4E9F2E08091F100819373
:1052900022E0EC39F207C9F70E949D248091E800D2
:1052A00083FF2EC18091940290919502492F50E086
:1052B0004A30510508F024C1FA01EC58FF4F0C9414
:1052C0000E2B803821F0823809F01AC108C0809175
:1052D000900290919102992389F082600FC0809191
:1052E00098028F70873008F00BC18093E90080919D
:1052F000EB0085FB882780F91092E9009091E80087
:10530000977F9093E8008093F1001092F100D1C054
:10531000282F2D7F09F0F4C0882319F0823061F026
:10532000EFC080919602813009F0EAC0933009F015
:1053300080E0809391022EC08091960281112AC054
:10534000809198028F702FEF280F263008F0D8C078
:105350008093E9002091EB0020FF1CC0933021F4E2
:105360008091EB00806214C09091EB00906190936B
:10537000EB0021E030E0A90102C0440F551F8A95DF
:10538000E2F74093EA001092EA008091EB00886017
:105390008093EB001092E9008091E800877F809372
:1053A000E8000E945527ACC08111AAC01091960256
:1053B0001F778091E3008078812B8093E3008091B8
:1053C000E800877F8093E8000E9455278091E800DD
:1053D00080FFFCCF8091E30080688093E30011118F
:1053E00002C082E001C083E08093930289C08058AC
:1053F000823008F085C080919602909197028C3D92
:1054000053E0950779F583E08A838AE289834FB771
:10541000F894DE01139620E03EE051E2E32FF0E045
:1054200050935700E49120FF03C0E295EF703F5F77
:10543000EF708E2F90E0EA3010F0C79601C0C09652
:105440008D939D932F5F243149F74FBF8091E800E2
:10545000877F8093E8006AE270E0CE0101960E94A7
:10546000612616C06091980270919902AE014F5F5B
:105470005F4F0E94A525BC01892B09F441C0909182
:10548000E800977F9093E80089819A810E94BF2667
:105490008091E8008B778093E80032C0803881F5F6
:1054A0008091E800877F8093E80080918F0280934D
:1054B000F1008091E8008E7772CF811121C0809138
:1054C00096029091970299270297D4F48091E80070
:1054D000877F8093E8008091960280938F020E94DC
:1054E000552780918F02811106C08091E30087FDCE
:1054F00002C081E001C084E0809393020E94932463
:105500008091E80083FF0AC08091E800877F809344
:10551000E8008091EB0080628093EB00AA960FB6C2
:10552000F894DEBF0FBECDBFDF91CF911F910895DC
:105530000895CF93809193028823A1F0C091E90050
:10554000CF709091EC00892F817090FD80E8C82B7E
:105550001092E9008091E80083FD0E943829CF7005
:10556000C093E900CF910895DB018F939F930E9430
:10557000232BBF91AF91A29F800D911DA39F900DF2
:10558000B29F900D11240895AA1BBB1B51E107C0C7
:10559000AA1FBB1FA617B70710F0A61BB70B881FC3
:1055A000991F5A95A9F780959095BC01CD01089552
:1055B00097FB072E16F4009407D077FD09D00E94C0
:1055C000C42A07FC05D03EF4909581959F4F08951D
:1055D000709561957F4F0895A1E21A2EAA1BBB1BFF
:1055E000FD010DC0AA1FBB1FEE1FFF1FA217B307AF
:1055F000E407F50720F0A21BB30BE40BF50B661FC5
:10560000771F881F991F1A9469F760957095809588
:1056100090959B01AC01BD01CF010895EE0FFF1FD6
:105620000590F491E02D0994A29FB001B39FC001B1
:10563000A39F700D811D1124911DB29F700D811DBE
:105640001124911D08950E94142BA59F900DB49FC5
:10565000900DA49F800D911D11240895F999FECFFE
:1056600092BD81BDF89A992780B50895A8E1B0E070
:1056700042E050E00C94622B262FF999FECF92BDA8
:1056800081BDF89A019700B4021639F01FBA20BD07
:105690000FB6F894FA9AF99A0FBE08950396272F39
:1056A0000E943D2B0E943C2B252F0E943D2B242F36
:1056B0000C943D2B0196272F0E943D2B0C943C2BE4
:1056C000DC01CB01FC01F999FECF06C0F2BDE1BDC2
:1056D000F89A319600B40D9241505040B8F70895B1
:0456E000F894FFCF6C
:1056E400012808641E140A321E3902F62353243496
:1056F4002430242C2401E200E900EA00B500B600BD
:10570400B700CD008301CC008A01920194012102EB
:10571400230224022502260227022A02B300B4002F
:105724006F007000818283F4F5F6F7313332949779
:10573400C634350000000000010203040506070812
:105744000900E200E900EA00B500B600B700CD00A8
:105754008301CC008A0192019401210223022402D4
:105764002502260227022A02B300B4006F0070004B
:0457740081828300AB
:00000001FF
