:100000000C9420040C9467040C9467040C9467040B
:100010000C9467040C9467040C9467040C946704B4
:100020000C9467040C9467040C94BB290C948D2ADF
:100030000C94DF240C9467040C9467040C946704FC
:100040000C9467040C9467040C9467040C94670484
:100050000C9467040C9438250C9467040C94670482
:100060000C9467040C9467040C9467040C94670464
:100070000C9467040C9467040C9467040C94670454
:100080000C9467040C9467040C9467040C94670444
:100090000C9467040C9467040C9467040C94670434
:1000A0000C9467040C9467040C946704430743079B
:1000B00075077507C207E00701090109EB0780080A
:1000C00091089108F10801090109FA08A109A1099B
:1000D000B309B309AA09B309B309B309A109A1096D
:1000E000AF09B309B309AF09FA2A212B192C212B27
:1000F000192C6D2B902B192CE72BF62B29003A008D
:100100003B003C003D003E003F00400041004200FB
:100110004300440045004A004D00490035001E00E0
:100120001F002000210022002300240025002600BB
:1001300027002D002E0000002A0048002B000000A0
:1001400014001A000800150017001C0018000C000D
:10015000120013002F00300031004B003900000066
:1001600004001600070009000A000B000D000E0035
:100170000F0033003400280000004E00E1000000B2
:100180001D001B00060019000500110010003600BC
:10019000370038000000E50052004C00E000E300AA
:1001A0000000E200000000002C0000000000000041
:1001B000E6000351E400500051004F0029003A00CE
:1001C0003B003C003D003E003F004000410042003B
:1001D0004300440045004A004D004C0035001E001D
:1001E0001F002000210022002300240025002600FB
:1001F00027002D002E0000002A0049002B000000DF
:1002000014001A00090013000A000D000F00180066
:100210001C0033002F00300031004B00390000007B
:10022000040015001600170007000B00110008005D
:100230000C0012003400280000004E00E100000015
:100240001D001B000600190005000E0010003600FE
:10025000370038000000E50052004800E000E300ED
:100260000000E200000000002C0000000000000080
:10027000E6000351E400500051004F0029003A000D
:100280003B003C003D003E003F004000410042007A
:100290004300440045004A004D004C0035001E005C
:1002A0001F0020002100220023002400250026003A
:1002B00027002F00300000002A0049002B0000001A
:1002C00034003600370013001C0009000A00060045
:1002D00015000F0038002E0031004B0039000000DF
:1002E00004001200080018000C0007000B001700A3
:1002F000110016002D00280000004E00E100000053
:10030000330014000D000E001B00050010001A0041
:1003100019001D000000E50052004800E000E30065
:100320000000E200000000002C00000000000000BF
:10033000E6000351E400500051004F002900C35C67
:10034000CA5CC65CC85CC45C01000100010001001D
:10035000635D645D655D01000100005C01000100FA
:10036000CB5CC75CC95C0100010001000100010019
:100370000100010001000000010001000100000077
:100380000100010001000100010001000100010065
:100390000100010001000100010001000100000056
:1003A00001000451010001000100010001000100F1
:1003B0000100010001000100000001000100000037
:1003C0000100010001000100010001000100010025
:1003D000010001000000E500A90049000100010042
:1003E0000000010000000000AE000000000000005E
:1003F000650003510100AC00AA00AB000000000042
:1004000000000000000000000000000000000000EC
:1004100000000000000000000000000000000000DC
:1004200000000000000000000000000000000000CC
:1004300000000000000000000000C35C000000009D
:10044000000000000000005C00000000635D645DCF
:10045000655D0000000000000000CA5C00000000B4
:100460000000045100000000000000000000000037
:1004700000000000000000000000CB5C0351000001
:10048000000000000000000000000000000000006C
:100490000000000000000000A900000000000000B3
:1004A0000000000000000000AE000000000000009E
:1004B000000003510000AC00AA00AB0000047F3F25
:1004C0001F643214643214783C1E1E140A05222361
:1004D000252628292A2C2D2F3032333536383A3B21
:1004E0003D3E4042434547494A4C4E505153555773
:1004F000595A5C5E6062646668696B6D6F71737592
:1005000077797B7D7F81838587898A8C8E90929491
:1005100096989A9C9E9FA1A3A5A7A8AAACAEAFB19E
:10052000B3B4B6B8B9BBBCBEBFC1C2C3C5C6C7C9E8
:10053000CACBCCCDCED0D1D2D2D3D4D5D6D7D7D8A2
:10054000D9D9DADADBDBDBDCDCDCDCDCDDDDDDDDF4
:10055000DCDCDCDCDCDBDBDBDADAD9D9D8D7D7D6FC
:10056000D5D4D3D2D2D1D0CECDCCCBCAC9C7C6C5B3
:10057000C3C2C1BFBEBCBBB9B8B6B4B3B1AFAEACF9
:10058000AAA8A7A5A3A19F9E9C9A98969492908EA4
:100590008C8A89878583817F7D7B79777573716F7D
:1005A0006D6B6968666462605E5C5A595755535159
:1005B000504E4C4A4947454342403E3D3B3A38360F
:1005C000353332302F2D2C2A292826252322FFAA25
:1005D0007F554000010101010101010101020202F8
:1005E00002020202020203030303030303030404DF
:1005F00004040404040505050505060606060607A9
:100600000707070708080808090909090A0A0A0B61
:100610000B0B0C0C0C0D0D0D0E0E0E0F0F0F101002
:100620001111111212131314141515161617171889
:100630001819191A1A1B1B1C1D1D1E1E1F202021F4
:100640002222232424252626272829292A2B2C2D3B
:100650002D2E2F30313232333435363738393A3B5C
:100660003C3D3E3F404142434445464748494A4C51
:100670004D4E4F50515354555658595A5B5D5E5F1D
:10068000616264656668696B6C6D6F7072737577B3
:10069000787A7B7D7E8082838587888A8C8E8F9115
:1006A000939596989A9C9EA0A2A3A5A7A9ABADAF3F
:1006B000B1B3B5B7BABCBEC0C2C4C6C9CBCDCFD129
:1006C000D4D6D8DBDDDFE2E4E7E9EBEEF0F3F5F8D2
:1006D000FAFDFF0C034B00420044003700350000D8
:1006E00000160371006D006B006200750069006CFC
:1006F0000064006500720000000403090409023B65
:1007000000020100A0FA0904000001030101000930
:1007100021110100012240000705810308000A0998
:10072000040100010300000009211101000122B6AB
:10073000000705820320000A1201000200000008E1
:10074000424B616002000102000105010902A101A2
:1007500085020901A10005091901290815002501D3
:100760009508750181020501093009311581257F40
:1007700095027508810609381581257F9501750850
:100780008106050C0A38021581257F9501750881BF
:1007900006C0C005010980A101850319012AB7001F
:1007A000150126B700950175108100C0050C0901DF
:1007B000A101850419012AA002150126A0029501B4
:1007C00075108100C005010906A1018505050719FD
:1007D000E029E71500250195087501810205071933
:1007E0000029EF1500250195F07501810205081912
:1007F000012905950575019102950175039101C0C7
:1008000005010906A101050719E029E715002501E1
:100810009508750181029501750881010507190088
:1008200029FF150026FF00950675088100050819A7
:10083000012905950575019102950175039101C086
:1008400011241FBECFEFDAE0DEBFCDBF04B603FE3A
:1008500027C080912F0390913003A0913103B09174
:1008600032038730904BA740B04BD1F410922F0346
:1008700010923003109231031092320314BE84B7E9
:10088000877F84BF0FB6F894A89580916000886137
:1008900080936000109260000FBEE0E0F8E30995DD
:1008A00011E0A0E0B1E0E4E8FAE502C005900D92A5
:1008B000A63CB107D9F723E0A6ECB1E001C01D9238
:1008C000AF32B207E1F70E94A3150C94402D0C94AF
:1008D0000000CF93DF93EC010E944B10BE0180E03B
:1008E00090E0DF91CF910C94F009FB0184362DE567
:1008F000920769F085362DE5920779F083369D459C
:10090000A9F48281882399F081E090E00BC0828174
:10091000882369F082E090E005C08281882339F065
:1009200084E090E00E94690480E0089581E00895E9
:1009300081E008950C94750408950C949C041F9311
:10094000CF93DF9300D000D01F92CDB7DEB749839D
:100950005A836B833091C80189819A81311114C007
:10096000662359F0222349F00E94450B182F682F67
:1009700089819A810E94EE0A03C00E94190B182FE8
:1009800069817A81812F04C00E94450B69817A8137
:100990000F900F900F900F900F90DF91CF911F91BC
:1009A0000C94ED11FC01262F4081518162817381ED
:1009B00084810C949F0481E00895CF93DF93EC0130
:1009C00060E00E94D204BE01DF91CF910C949D049F
:1009D0000E941C140E9474050E94F8200C94591463
:1009E0000C94551408950E948F090E94F2042FEF71
:1009F00084E39CE0215080409040E1F700C000007B
:100A00000C945E250F931F93CF93DF938C0161E0CD
:100A10000E94D204EC01B8010E949A04882309F4D0
:100A20004BC0B801CE010E945920882309F444C06C
:100A3000B801CE010E94A6218823F1F1B801CE01B0
:100A40000E94F8218823C1F1B801CE010E942A2317
:100A5000882391F1B801CE010E94A01E882361F184
:100A6000F8018281882309F1CB358DE5D807C1F0E3
:100A700050F4C115FCE5DF0781F0CF3DDC45A9F45A
:100A80000E94E51019C0CC35EDE5DE0761F0CD35EB
:100A9000DD4559F40E94640F08C00E94F3040CC0A5
:100AA0000E946D0F02C00E94700FC801DF91CF91AC
:100AB0001F910F910C94980480E0DF91CF911F91CA
:100AC0000F91089508950C94620581E00895CF93E5
:100AD000C82F0E946505882329F0C1FD02C02A9A0B
:100AE00001C02A98CF910895229A2A9A0895CF9307
:100AF000C82F0E9463058C2F0E946705CF9108952F
:100B0000CF93DF93CDB7DEB72B970FB6F894DEBF48
:100B10000FBECDBF4F83588769877A878B87611156
:100B20000E94930F9E012F5F3F4F86E0F9011192C3
:100B30008A95E9F785E0FE013796D90101900D927B
:100B40008A95E1F789819A814C815D81452B31F04D
:100B50009F3F31F491E08F3F19F403C091E001C051
:100B600090E090FF09C049815A816B817C818D8121
:100B70009E810E94930E05C0C9010E94DB04811171
:100B8000F2CF2B960FB6F894DEBF0FBECDBFDF912C
:100B9000CF910895FC01808191810E94870B089577
:100BA000CF93882309F4A4C0C82F8238C1F40E94CF
:100BB000602381FD9DC069E3809100019091010156
:100BC0000E9456240E94C50F2FEF81EE94E0215021
:100BD00080409040E1F700C0000069E319C083380D
:100BE00001F50E94602380FD83C063E580910001D0
:100BF000909101010E9456240E94C50F2FEF81EEB3
:100C000094E0215080409040E1F700C0000063E58F
:100C100080910001909101010E946124CF910C9478
:100C2000C50F8438C1F40E94602382FD61C067E46F
:100C300080910001909101010E9456240E94C50FED
:100C40002FEF81EE94E0215080409040E1F700C00A
:100C5000000067E4DDCF8CEF8C0F813AD0F46C2F6D
:100C600080910001909101010E94D623882349F0D0
:100C70006C2F80910001909101010E9461240E94DB
:100C8000C50F6C2F80910001909101010E945624A4
:100C9000C5CF80E28C0F883048F4C77081E001C076
:100CA000880FCA95EAF70E94760FB8CFEBE5EC0FF4
:100CB000E33040F4F0E0EA5AFE4F808190E0CF91BB
:100CC0000C949423E8E5EC0FE73150F4F0E0EE0FDC
:100CD000FF1FE85DFE4F80819181CF910C94AA2384
:100CE000CD3E30F08C2F0E943016CF910C9402171D
:100CF000CF910895882309F464C0823879F40E9462
:100D0000602381FF5EC069E3809100019091010141
:100D10000E9456240E94C50F69E310C08338B1F4C5
:100D20000E94602380FF4DC063E580910001909197
:100D300001010E9456240E94C50F63E580910001C5
:100D4000909101010E9461240C94C50F843879F4BC
:100D50000E94602382FF35C067E48091000190917A
:100D600001010E9456240E94C50F67E4E7CF9CEF63
:100D7000980F913A10F4682FE1CF90E2980F9830D5
:100D800050F4877091E001C0990F8A95EAF7892F96
:100D90000E947C0FD9CF9BE5980F933020F480E020
:100DA00090E00C94942398E5980F973120F480E01C
:100DB00090E00C94AA238D3E20F00E948B160C9498
:100DC000021708951F93CF93DF93182FEB010E9412
:100DD000D005209741F08FE99FE00197F1F700C01F
:100DE00000002197F6CF812FDF91CF911F910C94B6
:100DF0007A06893319F060E070E002C060E570E0C7
:100E00000C94E206882321F00E94760F0C94C50F03
:100E10000895882321F00E947C0F0C94C50F08953B
:100E2000CF92DF92EF92FF920F931F93CF93DF93B6
:100E30007C01062FC72FFC01D281158112951F70EE
:100E40000E944B0F882399F0DD2389F08C2F807F3F
:100E5000803421F080E2800F883048F082E00E94E8
:100E600015100E944B0F91E0D82ED92601C0D12C2D
:100E7000CC2EC2948FE0C8228C2D90E0FC01EA5A5F
:100E8000FF4F0C94A72C8C2F807FCF70882311F0FC
:100E9000C295C07FDD2399F0CC2309F48DC180E297
:100EA000800F883010F0011104C08C2F0E94760F43
:100EB00003C08C2F0E94860F0E94C50F7DC1802F1A
:100EC0000E947A06CC2309F49CC180E2800F88300E
:100ED00010F0011104C08C2F0E947C0F03C08C2FD6
:100EE0000E948C0F0E94C50F8CC18C2F807FCF7009
:100EF000803211F0C295C07F002319F00130C9F093
:100F000022C0DD2371F0112341F0113031F40E9431
:100F1000A60F8C2B0E94AE0F74C10E94A60F8C2BC3
:100F20001DC0112319F0113009F46BC10E94BB0FD1
:100F300025C0DD2321F0163008F063C10EC0153046
:100F400008F05FC11BC0DD2361F0112331F0F70110
:100F5000858180FF31C18F7085838C2F0E940207AD
:100F600050C1112359F0093309F037C1FFEF27EEC3
:100F700083E0F15020408040E1F72DC18C2F0E948A
:100F800009073FC18C2F86958695837019F08130B3
:100F900061F037C1DD2321F0802F9C2F937002C0B8
:100FA00080E090E00E94942334C1DD2321F0802F63
:100FB0009C2F937002C080E090E00E94AA2329C178
:100FC000802FDD2319F00E94301602C00E948B167C
:100FD0000E9402171EC18C2F837009F045C0D111E9
:100FE00014C1402F429546954770440F440F602F1F
:100FF0006F70862F90E0A0E0B0E0042E04C0880F50
:10100000991FAA1FBB1F0A94D2F704FF10C00FE05C
:1010100010E020E030E004C0000F111F221F331F3A
:101020004A95D2F7009510952095309503C000E0C1
:1010300010E09801C695C695C370BC01CD01602B28
:10104000712B822B932BC23049F058F4C13019F028
:101050000E94040ADAC00E94F209D7C00E94160A50
:10106000D4C00E94F009D1C0DD2319F08C2F81700B
:1010700001C08695882309F4C8C0402F4295469543
:101080004770440F440F602F6F70862F90E0A0E0F0
:10109000B0E0042E04C0880F991FAA1FBB1F0A943A
:1010A000D2F704FF10C00FE010E020E030E004C0F1
:1010B000000F111F221F331F4A95D2F7009510957C
:1010C0002095309503C000E010E09801C695C695C4
:1010D000C370BC01CD01602B712B822B932BC230CE
:1010E00049F058F4C13019F00E94C90A8EC00E941C
:1010F000B70A8BC00E94DB0A88C00E942A0A85C0FA
:10110000CF70DD2339F08C2F0E94500A802F0E946F
:1011100002077BC0802F0E9409078C2F0E94710A52
:1011200074C0023F01F128F4003F41F0013FA1F0FB
:101130003FC0033FF9F0043F39F13AC0DD2341F0ED
:10114000153008F05EC08C2F8F710E94960A59C02E
:10115000163008F056C0F7CFDD2339F08C2F8F7191
:101160000E94500A4EC0DD23C9F38C2F8F710E945C
:10117000710A47C0DD2329F08C2F8F710E943B0A32
:1011800040C00E94360A3DC0DD2349F0CF718C2F4C
:101190000E94500A63E08C2F0E94FA0F32C081E057
:1011A0000E941510123068F182E00E94151029C0CB
:1011B000DD2331F0112391F2802F0E94D00521C050
:1011C000112399F2093349F49FEFE7EEF3E09150D0
:1011D000E040F040E1F700C00000802F0E947A0656
:1011E00010C04C2F4F70602FC7010E94E9110E9460
:1011F000B50B0FC04C2F4F70602FC7010E94EC1130
:1012000008C088EF8C0D843020F40E9460230E9477
:101210007705DD20C9F00E94470F80FD15C0F7015A
:1012200012820E94410F0E94500AC7010E94450984
:101230000E94410FDF91CF911F910F91FF90EF908E
:10124000DF90CF900C94710ADF91CF911F910F9195
:10125000FF90EF90DF90CF9008950F931F93CF935F
:10126000DF93EC01688179818A810E94920B8C0165
:101270000E94ED0A0E94DE09B801CE010E9410070B
:10128000DF91CF911F910F910895CF93DF93EC01E0
:10129000988189812B813C81232B31F08F3F31F460
:1012A00081E09F3F19F403C081E001C080E080FD30
:1012B00019C0CE010E94020581110CC00E944B0F83
:1012C000882381F08A81882369F082E0DF91CF91C1
:1012D0000C941510CE010E942D09CE01DF91CF9103
:1012E0000C94DD04DF91CF91089580E090E00E949E
:1012F000942380E090E00E94AA230E94930F0E9412
:10130000A30F0E94C50F0E9433180C9402178091FE
:101310000001909101010E946C240C9475090E94B7
:10132000830F0C948709E92FE295EF704E2F50E060
:10133000FA013297EE30F105B0F4EA59FF4F0C9400
:10134000A72C803F91F018F4883E68F40EC0843FCB
:1013500051F40BC0883E48F0813F29F406C093FB4E
:10136000882780F9089580E0089581E00895FC01C0
:10137000808191810E94870B0E9493090895CF93E9
:10138000DF9300D000D01F92CDB7DEB70F900F9043
:101390000F900F900F90DF91CF910895CF93DF932F
:1013A00000D000D000D0CDB7DEB726960FB6F894A7
:1013B000DEBF0FBECDBFDF91CF9108950895089590
:1013C0000C94DF090C94E0090E94E2096093090281
:1013D00070930A0280930B0290930C020C9475098F
:1013E0000C94E4090F931F930091090210910A02D3
:1013F00020910B0230910C02602B712B822B932BCE
:101400001F910F910C94E4090F931F93009109020F
:1014100010910A0220910B0230910C02602371237B
:10142000822393231F910F910C94E4090F931F9330
:101430000091090210910A0220910B0230910C02D6
:1014400060277127822793271F910F910C94E4093D
:101450000C94DF090E94280A60930502709306022B
:1014600080930702909308020C94750960E070E085
:10147000CB010C942A0A0F931F9341E050E060E0E7
:1014800070E08A019B0104C0000F111F221F331F4F
:101490008A95D2F7C901B8011F910F910C942A0ABD
:1014A0000F931F9341E050E060E070E004C0440FF0
:1014B000551F661F771F8A95D2F78091050290917C
:1014C0000602A0910702B09108028A019B01082B35
:1014D000192B2A2B3B2BC901B8011F910F910C949A
:1014E0002A0A0F931F9341E050E060E070E004C0CF
:1014F000440F551F661F771F8A95D2F74095509568
:10150000609570958091050290910602A091070266
:10151000B09108028A019B01082319232A233B2347
:10152000C901B8011F910F910C942A0A0F931F93C0
:1015300041E050E060E070E004C0440F551F661FBA
:10154000771F8A95D2F78091050290910602A091AB
:101550000702B09108028A019B01082719272A2750
:101560003B27C901B8011F910F910C942A0A0F93D0
:101570001F930091050210910602209107023091FD
:101580000802602B712B822B932B1F910F910C94CF
:101590002A0A0F931F9300910502109106022091D1
:1015A00007023091080260237123822393231F9145
:1015B0000F910C942A0A0F931F930091050210912A
:1015C00006022091070230910802602771278227C6
:1015D00093271F910F910C942A0A089520E1929F5E
:1015E000800D1124E82FE695E695E695877051E089
:1015F00001C0550F8A95EAF785E0E89FF0011124B4
:10160000E753FE4F20E030E070E04081CB01022E36
:1016100002C0969587950A94E2F781708195842798
:101620008523842781932F5F3F4F2530310569F74C
:10163000089520E1929F800D1124682F669566958C
:101640006695982F977085E0689FB001112440E05F
:1016500050E080E0FB01E40FF51FE753FE4F2081CF
:1016600030E0092E02C0369527950A94E2F72170E2
:101670003327042E01C0220F0A94EAF7822B4F5F12
:101680005F4F4530510531F70895BF92CF92DF92F9
:10169000EF92FF920F931F93CF93DF938C01C09033
:1016A0000502D0900602E0900702F09008028091B7
:1016B000090290910A02A0910B02B0910C02C82A73
:1016C000D92AEA2AFB2ACFE1D0E0D701C6010C2EA5
:1016D00004C0B695A795979587950A94D2F780FD93
:1016E00004C0219790F7B12C07C0BC2EB8018C2FF5
:1016F0000E9426130197A9F38B2DDF91CF911F91A3
:101700000F91FF90EF90DF90CF90BF900895CF930F
:10171000DF93EC010E94450BBE010E942613DF916E
:10172000CF9108951F93CF93DF93EB019091C80160
:10173000992321F0CB010E94870B13C0882349F025
:10174000CB010E94450B182F682FCE010E94EE0A94
:1017500004C0CB010E94190B182FBE01812F0E94DB
:101760002613DF91CF911F910895EF92FF920F936F
:101770001F93CF93DF938C01892B09F46CC0F12C5C
:10178000EE24E394E8012196F8018491843740F433
:10179000843008F051C0813081F0823019F15BC093
:1017A000853709F444C0A8F19CE7980F903708F0FA
:1017B00052C08F770E947A0641C00E5F1F4FFE0114
:1017C000849190E2980F983050F48770FE2D01C0FC
:1017D000FF0F8A95EAF78F2F0E94960F14C00E9480
:1017E000D0052DC00E5F1F4FFE01849190E2980F2F
:1017F000983060F48770FE2D01C0FF0F8A95EAF7DC
:101800008F2F0E949C0F0E94C50F19C00E947A065C
:1018100016C00E5F1F4FFE01C491CC2381F08FE9EB
:101820009FE00197F1F700C00000C150F6CF0E5FB6
:101830001F4FFE01F49003C00E94D0058E018F2D32
:10184000882309F49FCFEFE9FFE03197F1F700C05B
:1018500000008150F5CFDF91CF911F910F91FF9044
:10186000EF9008951F93CF93DF93C0910D0216E080
:1018700080910E02C81799F0D0E01C9FF0011D9FC7
:10188000F00D1124E15FFD4F408151816281738130
:10189000848195810E94CE092196C770E9CFDF919E
:1018A000CF911F91089540913F0250914002609165
:1018B00041027091420280914302909144020C9443
:1018C000CE090F931F93CF93DF93809144028295AB
:1018D0008F7009F05DC080914102882309F458C0DF
:1018E00080910D0210910E0260913F0270914002B2
:1018F000C0914202D091430291E06F3F09F090E025
:10190000292F06E0811709F443C0209721F07F3F7B
:1019100021F030E003C031E001C0322F90E030FD13
:1019200034C0089FF001099FF00D1124DF01A15F71
:10193000BD4F11963C911197371327C03C91361338
:1019400024C012963C91129731111FC013964D91ED
:101950005C9114974C1B5D0B483C5105B0F4809191
:1019600044028F70806180934402EC5EFD4F808161
:101970008F70806180838FE392E00E944509DF9140
:10198000CF911F910F910C94320C01968770BACFB2
:10199000DF91CF911F910F9108959F92AF92BF92C7
:1019A000CF92DF92EF92FF920F931F93CF93DF932B
:1019B000CDB7DEB761970FB6F894DEBF0FBECDBFCF
:1019C0008C0185E0F801DE011D9601900D928A954B
:1019D000E1F7F801E28090913F026091400220918E
:1019E0004202309143022115310531F06F3F31F44D
:1019F00081E09F3F19F403C081E001C080E0F82F2F
:101A0000F1709F2E80FD3FC1F80140815181A3807C
:101A1000B4808FE3C82E82E0D82EF0904102F50109
:101A2000E21BF30BFF2009F4D9C080914402E83C8B
:101A3000F10508F095C0282F207F09F052C05613F9
:101A400013C0491311C0FE2CE1100EC08F708061CD
:101A5000809344020E94530CC6010E944509809164
:101A60004402F80185834CC1AB2831F05F3F31F46B
:101A700081E04F3F19F403C081E001C080E080FDA8
:101A800003C081E08E2502C080E090E0F82FF17065
:101A9000FF2E80FF1CC080910D0220910E0236E0C7
:101AA000821709F40BC190E0389FF001399FF00DC7
:101AB0001124E15FFD4F6181561306C0608146131A
:101AC00003C06281E61203C001968770E9CFFE2C45
:101AD000EE2009F415C18091440281608093440294
:101AE00054C0561306C0491304C0E11002C0F801E7
:101AF00099C0C8010E94B709882361F1EE2051F115
:101B000020914402822F82958F7090E0029774F0AA
:101B100080913F029091400298878F831986BB86FF
:101B2000AA862C87CE0107960E94450986E0F80117
:101B3000AFE3B2E001900D928A95E1F70E94610C4B
:101B40000E94530C0AC0561711F1C8010E94B70930
:101B500081112CC0C8010E944509FF24F394D0C014
:101B6000282F207F81F77A2DB98AA88A6E2D89893E
:101B70000E94BF098FE392E00E94450986E0F601CA
:101B800011928A95E9F70E94530CF12CB9C04913C0
:101B9000DCCFE110DACFF8018583C8010E94450946
:101BA00086E0F60111928A95E9F7AAC0EE2091F23B
:101BB00020914402822F82958F7090E002970CF45E
:101BC000B5CF80913F02909140029A8389831B8216
:101BD000BD82AC822E83CE010196A6CFE83CF105F2
:101BE00008F044C0FE2CEE2009F4B4CF561330C0E8
:101BF00049132EC02091440220FD21C0822F8295DE
:101C00008F70482F50E041155105C9F0F801258328
:101C10004F30510541F08F5F982F9295907F822F22
:101C20008F70892B8583C8010E94450986E0F801E1
:101C3000AFE3B2E001900D928A95E1F73CC086E0F7
:101C4000F801AFE3B2E001900D928A95E1F758C038
:101C5000C8010E94B709811169CF80914402816057
:101C600080934402C8010E9445094AC07A2DB98A6E
:101C7000A88A6E2D89890E94BF0986E0F60111921B
:101C80008A95E9F718C0EE2009F464CFC8010E94D4
:101C9000B709F82E882309F45DCF86E0F801AFE399
:101CA000B2E001900D928A95E1F78FE392E00E94F5
:101CB000CA050E94610C0E94530C22C04D875E87AA
:101CC0008D859E850E94870B292F22952F702230AB
:101CD00028F49F7039F0811105C00BC0243028F41E
:101CE0009F7049F4805E883020F0C8010E94450949
:101CF0009F2CF92C05C0F8019581907F99F7F9CFB9
:101D00008F2D61960FB6F894DEBF0FBECDBFDF9169
:101D1000CF911F910F91FF90EF90DF90CF90BF90E8
:101D2000AF909F9008951F93CF93DF93CDB7DEB709
:101D30002C970FB6F894DEBF0FBECDBF4F835887E8
:101D400069877A878B879C87CE0107960E94CD0C86
:101D50008823D1F09F8188852A853B85232B31F00C
:101D60008F3F31F481E09F3F19F403C081E001C04F
:101D700080E080FD47C04F81588569857A858B85D5
:101D80009C850E94CE093EC086E0FE013796DE01AA
:101D9000119601900D928A95E1F7FF81E8856A8599
:101DA0007B856115710531F0EF3F31F481E0FF3F34
:101DB00019F403C081E001C080E080FD23C02091C0
:101DC0000E0230E0C90101968770992740910D02FB
:101DD00050E084179507F1F1F983EA837D836C83E2
:101DE00096E0929FD001939FB00D1124A15FBD4F4B
:101DF000FE01319601900D929A95E1F780930E02C3
:101E00000E94320C16E080910D0290910E0289170B
:101E100071F1189FC0011124815F9D4F0E94CD0C6C
:101E2000882329F1E0910D021E9FF0011124E15F4A
:101E3000FD4F4081518162817381848195810E942F
:101E4000CE0980910D0290E00196877099278093CA
:101E50000D02D9CF0E948F0910920E0210920D022E
:101E6000EFE3F2E086E0DF011D928A95E9F72C9618
:101E70000FB6F894DEBF0FBECDBFDF91CF911F919B
:101E80000895809145028595859585950895809161
:101E900045028770089590914502977081E009F49A
:101EA00080E008959091CF0292FB222720F9281715
:101EB00051F080FB92F99093CF028091CE029091E5
:101EC000CF020C94611008958091CF0282FB882785
:101ED00080F991E089270C94520F81E00C94520F05
:101EE00080E00C94520F80916902089590916902EC
:101EF000892B8093690208958095909169028923C6
:101F00008093690208951092690208959091680281
:101F1000892B8093680208958095909168028923A7
:101F20008093680208951092680208959091670264
:101F3000892B809367020895809590916702892389
:101F40008093670208951092670208958091460277
:101F5000089508950C94A90F0C94AA0F9091CF02A4
:101F600092FD08C090914602981721F08093460296
:101F70000C94AC0F089580914602882329F01092AA
:101F8000460280E00C94AC0F0895E0910001F091BE
:101F90000101809169028083E0910001F0910101CB
:101FA000908180916802892B8083E0910001F091FB
:101FB0000101908180916702892B80838091460284
:101FC000882381F0E0910001F09101019081892B3B
:101FD000808380910001909101010E94C0238111B2
:101FE0000E94BB0F80910001909101010C946C2321
:101FF0000C94A90F9091CF0292FD10C098E0899F98
:1020000090011124262B209345020E94500A8091B2
:1020100045028595859585950C94F80F0C94500A8A
:102020001092450280E00C94F80F209145028095B3
:10203000822380934502982F977041F430E0482F17
:10204000082E000C550B2417350721F49091CF0270
:1020500092FF07C08595859585950E94710A0C941D
:10206000101008956FEF7FEF80E090E00C942A2D20
:1020700080E090E00E94062D21E0893E9E4F09F00D
:1020800020E0822F089582E090E00C94F82C83E009
:1020900090E00C94F82C682F83E090E00C940C2DC9
:1020A000CF9384E090E00E94F82CC82F82E290E069
:1020B0000E94F82C2C2F30E0A901582BCA01CF9197
:1020C0000895CF93C92F682F84E090E00E940C2DD3
:1020D0006C2F82E290E0CF910C940C2DAB01BC01EF
:1020E0008FE090E00C941E2DAB01BC0183E190E0E9
:1020F0000C941E2D60E070E0CB010C94741060E035
:1021000070E0CB010E946E100C947A1069EE7EEFA5
:1021100080E090E00E942A2D60E082E090E00E9442
:102120000C2D60E083E090E00E940C2D10920902DB
:1021300010920A0210920B0210920C0260E084E0EE
:1021400090E00E940C2D60E082E290E00E940C2D55
:1021500060E085E090E00E940C2D60E086E090E079
:102160000E940C2D6FEF87E090E00E940C2D40E064
:1021700050E0BA0188E090E00E941E2D60E08DE002
:1021800090E00E940C2D40E050E0BA0188E190E020
:102190000E941E2D60E087E190E00E940C2D40E03F
:1021A00050E0BA018CE190E00E941E2D60E070E0EA
:1021B00080E290E00E942A2D40E050E0BA0188E1E0
:1021C00090E00E941E2D0C947F100C948610682FB6
:1021D0008EE090E00C940C2D0E941D2560937B02F4
:1021E00070937C0280937D0290937E0260937702CD
:1021F000709378028093790290937A02089585B75C
:10220000806885BF85B7806885BF089581E008959F
:102210000C94061108950C940A110C940A110C9454
:102220000D110C940A110C9411110C940A110E94B6
:10223000FF1082E094E10E9482250E9415110C9407
:1022400013110E940B110C940A110E9408250E9480
:102250000A150E947D1F0E94AE1D0C940F116F92F3
:102260007F928F929F92AF92BF92CF92DF92EF9226
:10227000FF920F931F93CF93DF93CDB7DEB72A97CB
:102280000FB6F894DEBF0FBECDBF0E941D158111A1
:102290000E94EC103BE6832E32E0932E00E010E02B
:1022A000C02E802F0E9440145C01F4016190719057
:1022B0004F016826792661147104B1F40F5F1F4F36
:1022C0000630110569F78FEF89838A831B820E948C
:1022D00011258160782F9D838C8349815A816B8180
:1022E0008D810E9480053AC080917F0281FD0E940D
:1022F0004914D12CEE24E394F12CC3018E219F21AB
:10230000892B29F10E9408118823A9F0DE82CF824F
:10231000AE20BF2081E0AB2809F480E088870E94CE
:1023200011258160782F9A8789874E815F81688522
:102330008A850E948005000F111FF801E559FD4FA5
:1023400080819181E826F926F182E08207C0D3944A
:10235000EE0CFF1CF0E1DF12D0CFB0CF0E94F21DD7
:102360000E94F7200E9420170E94602390916A0229
:102370008917D1F00E94602380936A022A960FB6D3
:10238000F894DEBF0FBECDBFDF91CF911F910F91AB
:10239000FF90EF90DF90CF90BF90AF909F908F9085
:1023A0007F906F900C9477052A960FB6F894DEBF55
:1023B0000FBECDBFDF91CF911F910F91FF90EF9096
:1023C000DF90CF90BF90AF909F908F907F906F9055
:1023D000089580E090E008950895E72FF0E096E0FA
:1023E000899FE00DF11D112484E0EE0FFF1F8A95F7
:1023F000E1F7E60FF11DEE0FFF1FE450FF4F85914F
:1024000094910895880F991FFC01E454FB4F859126
:1024100094910895CF93DF930E942B13EC018115C3
:1024200020E5920708F03FC0811540E4940708F0CA
:10243000D2C0883E910500F5803E910508F002C1AA
:10244000883A910570F4853A910508F0A6C081306C
:10245000910509F49FC008F4F2C0049708F0F2C097
:10246000EEC08F3B910508F4A1C0803C910508F4B3
:10247000E6C0805C9109A5C0811550E2950760F423
:10248000C11581E0D80708F0DDC0CD3ED10508F4C4
:10249000D6C0CE019065D7C0811520E3920708F021
:1024A00093C09F708EC0811545E5940708F046C023
:1024B000811554E5950708F0A6C0C11582E5D80737
:1024C00018F5C11521E5D20708F088C0CE01F4E067
:1024D00096958795FA95E1F7282F23703C2F337056
:1024E00081E090E002C0880F991F3A95E2F79C685E
:1024F000922B2C2F2F702695269540E2249F900139
:102500001124822B932B9FC09E01237033279C2F75
:1025100096959695C115D34508F065C041E050E009
:1025200002C0440F551F2A95E2F780E2989F900160
:102530001124CA01822B932B9C6885C0811559E513
:10254000950798F4C11588E5D80708F061C0C11552
:1025500026E5D20708F073C08C2F0E94BF138F713D
:1025600090E0982F882790626EC081154AE5940705
:1025700008F453C090568115904208F060C08D2F2A
:102580008F710E94BF139E01332730628F71A901A2
:10259000582B53C081E090E056C0855AC82FD0E038
:1025A000C957DE4F888190E090644DC0885AC82F8B
:1025B000D0E0CC0FDD1FC75ADE4F8881998194642B
:1025C00042C00E9402123FC09927D3FF02C0986CFC
:1025D0003AC0906C38C09F70906A35C09C2F882795
:1025E000816F906A30C041E050E002C0440F551F37
:1025F0002A95E2F780E2989F90011124CA01822B6C
:10260000932B9A6820C0982F8827846F906A1BC0EC
:102610009C2F8827806F906A16C08F700E94BF130E
:102620009E0194E0369527959A95E1F72F7030E05A
:10263000322F22273069A901482BCA0104C080E04B
:1026400090E001C0CE01DF91CF9108950E94ED117D
:102650000E940A1208958238910569F1B0F481331D
:10266000910509F46DC048F48932910509F463C0FD
:102670008A32910509F469C008958533910509F4FA
:1026800055C089339105B9F00895833E910569F1EC
:1026900038F4803E9105B1F0823E910509F108952C
:1026A000863E9105A9F1873E9105B9F1843E9105D9
:1026B00009F064C023C02091CE0220FD4FC021FD4F
:1026C0004DC008958091CE0280FD44C08091CF021C
:1026D00080FF44C08091CE0284FD42C083EE4DC095
:1026E0008091CE0282FF38C0F5CF8091CE0282FD6C
:1026F00033C08091CF0280FD31C0ECCF8091CF02FA
:1027000081FF32C08091CE0284FD2AC087EE35C0A1
:102710008091CE0283FF26C0F5CF8091CE0283FD4B
:1027200021C08091CF0281FD1FC0ECCF8091CE02ED
:1027300085FD1CC01DC08091CE0285FD19C016C04C
:102740008091CE0286FD16C017C08091CE0286FD14
:1027500013C010C089E311C082EE0FC080EE0DC01F
:1027600080E00BC086EE09C084EE07C089E205C098
:1027700085E303C08AE201C081E390E0089590916F
:10278000CE0292FF0DC0282F2871283019F4877FC0
:10279000846006C0282F2471243011F48B7F886058
:1027A00093FF0DC0282F2871283119F4877E84618A
:1027B00006C0282F2471243111F48B7E886120916A
:1027C000CF0220FF0DC0382F3871383019F4877FC1
:1027D000816006C0382F3171313011F48E7F8860EE
:1027E00021FF0DC0282F2871283119F4877E8161BF
:1027F00006C0282F2171213111F48E7E886194FD4D
:10280000877E089580E008950C9432100E941D1573
:102810008FE39CE90197F1F700C000000E941D15AD
:1028200080E00E94401480FF04C00E9404140C94B5
:102830005E2508950C9406140E943810811102C080
:102840000E94E5100E94431080937F020E94501066
:102850009093CF028093CE020E941A140E944710D8
:10286000682F70E080E090E00E94F009609105021E
:102870007091060280910702909108020C94280A38
:10288000E82FF0E0EE0FFF1FE452FD4F80819181B1
:102890000895089580EA8A95F1F7089500C0089593
:1028A0000C944A1408950C9452140C9453140C94E0
:1028B00052140C945714F894E82FE295EF70F0E05E
:1028C00031A1282F2F7081E090E001C0880F2A9558
:1028D000EAF7982F9095932391A392A1892B82A335
:1028E000789408950F931F93CF93DF93CAE9D1E0B3
:1028F00089918F3F11F00E945B1481E0C03AD807A4
:10290000B9F7CAE8D1E00AE911E089918F3F11F0E7
:102910000E945B140C171D07C1F7DF91CF911F9127
:102920000F910895AF92BF92CF92DF92EF92FF92F4
:102930000F931F93CF93DF938C01C62FD0E0CE016E
:1029400086569E4F6C01DC019C919F3F09F457C055
:10295000B62EF894E92FE295EF70F0E081A19F7018
:1029600021E030E001C0220F9A95EAF7822B81A383
:1029700082A12095282322A378940E944E14EAE88D
:10298000F1E020E030E0E12CF12C41E050E08191D9
:102990008F3FC1F0A82FA295AF70B0E090966C91D8
:1029A00070E08F70DB0102C0B595A7958A95E2F7BC
:1029B000A0FD08C0CA01022E02C0880F991F0A9408
:1029C000E2F702C080E090E0E82AF92A2F5F3F4F4B
:1029D00020313105E1F6F60180818F3F11F00E9430
:1029E0005B1461E0E114F10409F460E08B2D0E94B6
:1029F0005014CC0FDD1FC00FD11FF982E882DF9188
:102A0000CF911F910F91FF90EF90DF90CF90BF90EB
:102A1000AF9008950E947214E0EDF2E0ACEDB2E0E8
:102A2000119211921D921D9282E0EC3DF807C1F7C0
:102A300086E00E9468150C94E804FF920F931F93A0
:102A4000CF93DF93CDB7DEB72C970FB6F894DEBFE8
:102A50000FBECDBF8E010F5F1F4F8CE0F8011192AA
:102A60008A95E9F7F12C6F2DC8010E949214F39416
:102A7000F6E0FF12F8CF4CE050E0B80180ED92E0B4
:102A80000E94EB2CFF24F394009709F4F12C892B7E
:102A900041F08CE0F801A0EDB2E001900D928A9532
:102AA000E1F72F2D46E06CED72E080ED92E00E94A0
:102AB00069150E94F0048F2D2C960FB6F894DEBF96
:102AC0000FBECDBFDF91CF911F910F91FF90089561
:102AD0000895FF920F931F93CF93DF93F82E092F42
:102AE000162FD72FC42F222349F081E08093820232
:102AF0000E9411259093810280938002809182022E
:102B00008823D9F080918002909181020E9429252A
:102B1000059798F0EF2DF02FA12FBD2F80E090E0CA
:102B20004C2F50E08417950734F4219131912D9367
:102B30003D930196F7CF10928202DF91CF911F91C2
:102B40000F91FF9008950E947E240E94F8260E9413
:102B500011270E9423270E942111FBCF8091890217
:102B600080FF0BC06091070185E0689FB0011124D0
:102B700075956795759567952BC081FF09C0609124
:102B8000070185E0689FB00111247595679520C005
:102B900082FF07C06091070185E0689FB0011124A2
:102BA00017C0909188029923D1F060910601961781
:102BB00088F72091070185E0289F90011124929FBA
:102BC000A001939F500D112470E0CA010E94712C46
:102BD0006038710540F46115710519F406C065E0AF
:102BE00070E0862F08958FE7089581E00895809121
:102BF000890280FF08C06091030170E075956795B8
:102C00007595679521C081FF06C06091030170E052
:102C10007595679519C082FF04C06091030170E04B
:102C200010C090918702992399F060910201961744
:102C3000A0F780910301899FC001112470E00E94D8
:102C4000712C6038710540F46115710519F406C0E6
:102C500061E070E0862F08958FE7089581E0089580
:102C60008D3E21F40E94AE15819504C08E3E29F45C
:102C70000E94AE1580938D0208958F3E21F40E942C
:102C8000AE15819504C0803F29F40E94AE15809353
:102C90008C020895893F19F40E94F71505C08A3FF8
:102CA00031F40E94F715819580938E0208958B3F31
:102CB00021F40E94F715819504C08C3F29F40E94ED
:102CC000F71580938F0208959FE0980F983078F45D
:102CD00021E030E0A90102C0440F551F9A95E2F7A8
:102CE000CA0190918B02892B80938B0208958D3FAE
:102CF00021F48091890281600BC08E3F21F4809184
:102D00008902826005C08F3F29F480918902846026
:102D10008093890208958D3E39F490918D0297FF3A
:102D200035C010928D0259C08E3E29F490918D02CB
:102D30001916BCF32BC090918C028F3E29F497FF9B
:102D400025C010928C0249C0803F19F41916CCF3AB
:102D50001DC090918E02893F29F41916BCF410927F
:102D60008E023BC08A3F19F497FF10C0F8CF8B3F0B
:102D700039F490918F0297FF09C010928F022DC0F5
:102D80008C3F21F490918F021916BCF39FE0980FAD
:102D9000983080F421E030E0A90102C0440F551FB3
:102DA0009A95E2F7CA01809590918B0289238093CE
:102DB0008B0213C08D3F21F4809189028E7F0BC05E
:102DC0008E3F21F4809189028D7F05C08F3F29F4C9
:102DD000809189028B7F8093890280918C0281117E
:102DE00006C080918D02811102C0109288028091EC
:102DF0008E02811106C080918F02811102C0109253
:102E0000870208950E94112520918C02211104C08F
:102E100020918D02222321F09093860280938502D7
:102E200020918E02211104C020918F02222321F0D3
:102E300090938402809383028AE892E00C94862324
:102E4000EF92FF920F931F93CF93DF9300D000D0A8
:102E500000D0CDB7DEB786E0EAE8F2E0DE011196F9
:102E600001900D928A95E1F7E0908C02F0908D022E
:102E700000918E0210918F0210928C0210928D029E
:102E800010928E0210928F02E11003C0FF2009F40D
:102E90005DC080918502909186020E942925AC0137
:102EA00090918802992339F02091080130E024178D
:102EB000350758F04BC0209109018AE0289F900106
:102EC00011242417350718F041C09F3F19F09F5F68
:102ED00090938802EE2061F00E94AE151E1414F04B
:102EE0009FEF01C091E0989F902D112490938C0248
:102EF000FF2061F00E94AE151F1414F09FEF01C077
:102F000091E0989F902D112490938D0230918C0226
:102F10003323E1F020918D022223C1F045EB3403ED
:102F2000C0011124992319F090938C0203C081E011
:102F300080938C0235EB2303C0011124992319F0EF
:102F400090938D0203C081E080938D02011103C034
:102F5000112309F45DC080918302909184020E9444
:102F60002925AC0190918702992339F02091040121
:102F700030E02417350758F04BC0209105018AE056
:102F8000289F900111242417350718F041C09F3F56
:102F900019F09F5F90938702002361F00E94F7155C
:102FA000101614F09FEF01C091E0989F902D11240E
:102FB00090938E02112361F00E94F715111614F000
:102FC0009FEF01C091E0989F902D112490938F0264
:102FD00030918E023323E1F020918F022223C1F041
:102FE00045EB3403C0011124992319F090938E020C
:102FF00003C081E080938E0235EB2303C0011124CE
:10300000992319F090938F0203C081E080938F027F
:1030100080918C0281110BC080918D02811107C0BB
:1030200080918E02811103C080918F0281110E94D4
:103030000217EB82FC820D831E8386E0FE0131962F
:10304000AAE8B2E001900D928A95E1F726960FB6B4
:10305000F894DEBF0FBECDBFDF91CF911F910F91CE
:10306000FF90EF900895EAE8F2E086E0DF011D921C
:103070008A95E9F7109288021092870210928902CD
:103080000895EF92FF920F931F93CF93DF938B01DD
:10309000682F11110AC0442329F0E82FF0E0ED5207
:1030A000FA4F6491762F862F75C0212F30E0E82FDC
:1030B000F0E0442321F0ED52FA4FE491F0E046E0D5
:1030C000049FC0011124CFEFD0E0BE010E945D2C0F
:1030D0004BEA4603C001479F900D1124800F911DBC
:1030E000800F911D982F990F890FAE01421B530B32
:1030F0004E9FD0014F9FB00D5E9FB00D11249B2FAE
:10310000189FA0011124452F55278E01041B150B74
:103110000E9FA0010F9F500D1E9F500D11247E0188
:10312000E81AF108E29E8001E39E100DF29E100D58
:103130001124212F3327C21BD30BCE9F9001CF9F89
:10314000300DDE9F300D112462307105A9F048F476
:103150006115710569F061307105C9F48B2F752F08
:103160000DC06430710581F058F06630710579F456
:103170007E2F8B2F932F0DC0832F7B2F9E2F09C067
:103180008E2F7B2F952F05C08E2F732F02C07E2F81
:10319000852F692FDF91CF911F910F91FF90EF90B5
:1031A000089541E00E944118089508950E94D118A1
:1031B0000895CF93DF93762FE901682F842F0E9423
:1031C000D618798368838A83DF91CF91089580919F
:1031D000E802282F269530E02115310519F4817079
:1031E000826005C02532310524F0817088648093A7
:1031F000E802089588E090E00C94002DCF92DF92D1
:10320000EF92FF926B017C010E94E718B701A601C3
:1032100088E090E0FF90EF90DF90CF900C941E2D0F
:10322000E8EEF2E083E0808311828FEF8283838374
:10323000148260817181828193810C94FE18809147
:10324000E80280FF02C08695089580E0089590917D
:10325000EC02933018F49F5F9093EC02882351F0B6
:103260006091E8027091E9028091EA029091EB028C
:103270000C94FE18089581E00C9427199091EC02AB
:10328000992319F091509093EC02882351F06091AA
:10329000E8027091E9028091EA029091EB020C94AD
:1032A000FE18089581E00C943E1970E00C940821FA
:1032B00060910E018091E80280FF0AC080910D01AB
:1032C00023E0829FC001112483519D4F0C94551916
:1032D00080910F0190911001891780F7E82FF0E09D
:1032E0009F01220F331FE20FF31FE351FD4F1182A5
:1032F000108212828F5FF0CF9091E80290FF16C08B
:1033000090910F0120911001921770F4E92FF0E0D5
:10331000DF01AA0FBB1FEA0FFB1FE351FD4F8183A3
:10332000608342839F5FF0CF0C9458190895CF9328
:10333000DF9300D01F92CDB7DEB79091E80290FFE7
:103340000AC09E012F5F3F4F0E94D9184B816981AF
:103350008A810E947C190F900F900F90DF91CF917E
:103360000895CF93DF93EC01EC81F0E0E253FB4F43
:103370004491E8EEF2E0628181810E9497198C818C
:103380008F5F8C83DF91CF910895CF93DF93EC0112
:10339000E8EEF2E0438162818C810E9497198C8172
:1033A0008F5F8C83DF91CF9108950F931F93CF93FD
:1033B000DF9300D01F92CDB7DEB78C0180919002D1
:1033C00081110AC09E012F5F3F4F4FEF6FEF0E94A8
:1033D000D9188A8180939002F8018481813051F05C
:1033E00028F0823061F4409190020AC080919002EE
:1033F00040E007C06091900240E080E003C040E000
:1034000080E060E00E947C19F801848190E00196E0
:1034100063E070E00E94712C84830F900F900F90F6
:10342000DF91CF911F910F910895AF92BF92CF92EC
:10343000DF92EF92FF920F931F93CF93DF9300D011
:103440001F92CDB7DEB7182FF62E042FE22E9091E3
:10345000E80290FF6DC0E92FE695AE2FB0E0A056D0
:10346000BE4F8C9180939C029E7F923061F49E01AE
:103470002F5F3F4F812F0E94D9184B8169818A812C
:103480000E947C1943C0823019F40091EB023EC0C7
:10349000863019F41091E90239C08930D9F38931A5
:1034A000A9F5E9518E2F8170D82EE695F0E0E25310
:1034B000FA4FA590B490C12CBB2460911101C6169F
:1034C00018F52C2D30E0A29EC001A39E900DB29E57
:1034D000900D112470E00E945D2C812FD11002C04C
:1034E000860F01C0861B90910F01290F311DA90184
:1034F000440F551F240F351F23513D4F402F6F2D73
:103500000E94D918C394D9CF0E9458191093E90288
:10351000F092EA020093EB02EE2051F06091E80293
:103520007091E9028091EA029091EB020E94FE18EC
:103530000F900F900F90DF91CF911F910F91FF90FF
:10354000EF90DF90CF90BF90AF900895E8EEF2E05B
:103550009181282F4381628188E0890F0C94151A8C
:1035600081E00C94A61AE8EEF2E09181282F4381C5
:10357000628188EF890F0C94151A81E00C94B31ABC
:10358000E8EEF2E0628128E0620F08F46FEF282F86
:10359000438181810C94151A81E00C94C01AE8EEE5
:1035A000F2E0628128E0621B08F460E0282F43818A
:1035B00081810C94151A81E00C94CF1AE8EEF2E0A8
:1035C000438128E0420F08F44FEF282F6281818168
:1035D0000C94151A81E00C94DE1AE8EEF2E04381B7
:1035E00028E0421B08F440E0282F628181810C947E
:1035F000151A81E00C94ED1A20E00C94151AFF9234
:103600000F931F93CF93DF93EC01F12C0FEF10E09A
:1036100060911101F616F0F480910F012F2D30E02A
:10362000280F311DC901880F991F280F391F2351F9
:103630003D4F70E0C8010E94712C962F8C81409103
:10364000EB026091EA02F99E800D11240E94D918C4
:10365000F394DECF0E9458199A818C8190FF02C0AA
:103660008F5F01C081508C83DF91CF911F910F91AB
:10367000FF900895BF92CF92DF92EF92FF920F9347
:103680001F93CF93DF93FC01828180FF02C00FEF75
:1036900001C001E010E080911101181708F040C04E
:1036A00080910F01C12ED12CE601C80FD11DCE0192
:1036B000880F991FC80FD91FC351DD4F1982188277
:1036C0001A8234E0E32EF12CB12C809192028B0D02
:1036D000813114F08F7005C087FF03C090911101F4
:1036E000890F082E000C990BC816D90691F4809109
:1036F000EB028E9DA0018F9D500D1124559547958D
:10370000559547959E016091EA028091E9020E94D9
:10371000D918B00EF1E0EF1AF108B9F61F5FBBCF70
:103720000E94581980919202013031F4811102C037
:1037300080911101815007C090E0019660911101C4
:1037400070E00E94712C80939202DF91CF911F91C3
:103750000F91FF90EF90DF90CF90BF900895CF939F
:1037600080910F0190911001891770F4E82FF0E01B
:103770009F01220F331FE20FF31FE351FD4F118210
:10378000108212828F5FF0CFC0E060911101C617E6
:10379000C0F5EC2FF0E070E0CF010E94712C209179
:1037A0000F01820F20919102022E000C330B90E04A
:1037B000E217F307CCF020910C01022E000C330B22
:1037C0002E173F078CF09C01220F331F820F931F8F
:1037D0009C0123513D4F4091EB026091EA028091A0
:1037E000E9020E94D9180BC0FC01EE0FFF1F8E0FDB
:1037F0009F1FFC01E351FD4F118210821282CF5FA7
:10380000C4CF0E94581920910B0180919102820F20
:103810008093910290910C01920F90930C011916D4
:103820005CF4082E000C990B4091110150E04150BE
:103830005109841795071CF0219520930B01CF9116
:1038400008958F929F92AF92BF92CF92DF92EF92A4
:10385000FF920F931F93CF93DF938C01FC01448160
:10386000C42FD0E09E01DE010E94B52C9B01AC016B
:103870000E94CB2C6B017C01E0E2F0E0EC1BFD0B25
:10388000A5E5B0E09B01AC010E94CB2C4B015C0193
:103890009F01DF010E94AD2C9B01AC010E94D62C40
:1038A0009B01AC012C0D3D1D4E1D5F1DC501B401DA
:1038B0000E94852CC22FD22F2A3228F4F3E02F9FAA
:1038C000900111240DC025E530E02C1B3109C90100
:1038D000880F991F280F391F37FF02C02F5F3F4FF6
:1038E00035952795C22FC095F12C85E5E82EED1A68
:1038F00080911101F816C8F4F1FC02C08E2D01C0B0
:103900008D2F90910F012F2D30E0290F311DA9012E
:10391000440F551F240F351F23513D4F4C2F6091ED
:10392000EA020E94D918F394E3CF0E945819F801D3
:103930008481811102C091E003C0803219F49FEFAD
:1039400090930A0190910A01890FF8018483DF9115
:10395000CF911F910F91FF90EF90DF90CF90BF908C
:10396000AF909F908F9008950F931F93CF93DF9305
:10397000EC0100E010E080911101282F30E00217E7
:10398000130724F590910F019801290F311DA9010A
:10399000440F551F240F351F23513D4F869590E04E
:1039A0004C81081719071CF4442331F002C041115F
:1039B00003C04091EB0201C040E06091EA028091B7
:1039C000E9020E94D9180F5F1F4FD5CF0E945819E6
:1039D0008C8190E00196817099278C83DF91CF9143
:1039E0001F910F910895E8EEF2E080818E7F808331
:1039F00060817181828193810E94FE1810929D02E4
:103A00002FEF80E792E0215080409040E1F700C026
:103A100000000C945819E8EEF2E080818E7F8083DC
:103A200010929D022FEF80E792E02150804090405D
:103A3000E1F700C000000C94581910929D0280918B
:103A40009A0281110AC081E080939A028091E80273
:103A50008170809399020C940B1D08956091E80287
:103A6000669570E04BE050E082E191E00E94DE2C30
:103A7000892B19F481E080939D020E941125909377
:103A800094028093930208959091E80290FF35C0CC
:103A90009170811102C0926006C0853210F0986466
:103AA00002C0880F982B9093E802662351F0609132
:103AB000E8027091E9028091EA029091EB020E9483
:103AC000FE186091E802669570E04BE050E082E1FC
:103AD00091E00E94DE2C892B19F010929D0202C009
:103AE0000E942E1D81E0809396024091EB0260912E
:103AF000EA028091E9020C94FC1A0895682F9091D3
:103B0000E802969581E0890F853208F081E00C94F7
:103B1000441D81E00C947E1D682F9091E8029695DB
:103B20008FEF890F09F484E20C94441D81E00C941A
:103B30008C1D61E00C94441DE8EEF2E08081816010
:103B4000808386950C94991D8091E80280FD0C94E9
:103B5000F31C0C949C1D60E00C94441D80919B020E
:103B600081112EC00E943810811104C00E94E510FE
:103B70000E9410190E94FA186093E8027093E902FB
:103B80008093EA029093EB026E7F61F40E94101919
:103B90000E94FA186093E8027093E9028093EA02A7
:103BA0009093EB020E94E71810929D028091E80228
:103BB00080FF03C086950E94AB1D81E080939B022D
:103BC0000895E8EEF2E080818160808386950C9410
:103BD000AB1D10929A028091990281110E94E11D01
:103BE0000C942E1D0F931F93CF93DF9380919D0212
:103BF000882309F485C080919C02E091E802E69553
:103C0000E81BE0939502823049F4F0E0E653FB4F65
:103C1000E491CE2FD0E001EB19E149C0863049F4A0
:103C2000F0E0E953FB4FE491CE2FD0E005EC19E131
:103C30003EC0893051F4E695F0E0EC53FB4FE4913F
:103C4000CE2FD0E00FEF1AE132C08F3051F4E6955D
:103C5000F0E0EF53FB4FE491CE2FD0E00AE31BE1FD
:103C600026C0853149F4F0E0E254FB4FE491CE2FB9
:103C7000D0E00FEA1BE11BC0883181F0833239F4B8
:103C8000ECEBF4E0C591D49105ED19E110C084325C
:103C900051F4C4EFD1E004EB1CE109C0C8E2D0E06C
:103CA00001E21CE104C0C0EDD7E005ED18E1809110
:103CB0009602882361F0109296020E94112590933B
:103CC00094028093930210929802109297020E949D
:103CD0001125E0919302F09194028E1B9F0B8F3F70
:103CE0009F4770F4EC0FFD1FF0939402E093930252
:103CF00083E992E0F801DF91CF911F910F91099430
:103D0000DF91CF911F910F910895882311F0FA014F
:103D100001C0FB010994CF93DF93C82FD62F0E94D7
:103D20001F198C1740F00E941F198D1720F4DF9186
:103D3000CF910C94891D8C2FDF91CF910C94991DFC
:103D40001F93CF93DF93FB011281112309F4BCC0B1
:103D5000EC010E94730F8272CD3CFCE5DF0709F491
:103D600097C008F043C0C73CECE5DE0709F47CC00F
:103D7000D8F4C43C9CE5D90709F46AC038F4C33CC4
:103D8000DC4509F0A4C00E94A41DA0C0C53C9CE570
:103D9000D90709F462C0C63CDC4509F098C04DEB78
:103DA0005AE160EB7AE15DC0CA3CFCE5DF0709F44B
:103DB00065C070F4C83CECE5DE0709F45AC0C93CA4
:103DC000DC4509F084C04CEC5AE16BED7AE149C066
:103DD000CB3C9CE5D90709F456C0CC3CDC4509F046
:103DE00076C042E559E16BE379E13BC0C23DFCE5B9
:103DF000DF0709F45AC098F4CF3C9CE5D90709F4D1
:103E00004EC008F44AC0C03DFCE5DF0709F44AC0D3
:103E1000C13DDC4509F05BC06EE089E04EC0C53DA8
:103E20009CE5D90709F447C050F4C33DFCE5DF0722
:103E3000F9F1C43DDC4509F04AC088E142C0C63D05
:103E40009CE5D907E9F1CE35DD4509F43FC03FC017
:103E500046E95DE169E87DE104C049E85DE166E9C4
:103E60007DE10E94851E32C040EB5AE16DEB7AE1A4
:103E7000F8CF4BED5AE16CEC7AE1F3CF49EF5AE120
:103E80006AEE7AE1EECF4AEE5AE169EF7AE1E9CFE4
:103E90004BE359E162E579E1E4CF81E012C065E0EE
:103EA00082E00BC068E086E008C064E18FE005C0F6
:103EB00067E185E102C062E289E10E948B1E06C0D3
:103EC00083E20E94991D02C011E001C010E0812F21
:103ED000DF91CF911F91089586E090E00C94F82C2B
:103EE000682F86E090E00C940C2D80911D03847067
:103EF000896280931D030C94701F0E9438108111F9
:103F000004C00E94E5100E94751F0E946C1F8093E0
:103F10001D03282F26952695269530E0263031055D
:103F200024F08770886280931D0380911D0380FFB9
:103F300004C086958695869501C080E00C948E20FD
:103F400020911D03822F869586958695482F50E0F7
:103F50004530510554F48F5F982F990F990F990FA1
:103F6000822F8770892B80931D0380911D038160B0
:103F700080931D030E94701F80911D038695869576
:103F800086950C948E2080911D03982F969596957A
:103F90009695A1F0915E990F990F990F8770892BD3
:103FA00080931D03887F91E009F490E080911D03C8
:103FB00090FB80F980931D030E94701F80911D0368
:103FC0008695869586950C948E2080911D0380FDA4
:103FD00013C0816080931D03813019F489E08093C0
:103FE0001D0380911D030E94701F80911D03869503
:103FF000869586950C948E20089580911D0380FFF0
:1040000008C08E7F80931D030E94701F80E00C9477
:104010008E20089580911D0380FD0C94FD1F0C944B
:10402000E51F90911D03892F8695869586958F5F54
:104030008F719770863038F4880F880F880F892B1E
:1040400080931D0302C090931D0380911D03887F00
:1040500091E009F490E080911D0390FB80F980933A
:104060001D030E94701F80911D038695869586957D
:104070000C948E20863008F085E090911D03977097
:10408000282F220F220F220F922B90931D03987F2F
:1040900021E009F420E090911D0320FB90F990931A
:1040A0001D030C948E200E943A2080911D030C94D5
:1040B000701F9C01FB018281882349F12E3BFCE5A6
:1040C0003F07C9F040F42C3BECE53E0769F02D3B7F
:1040D0003C4561F00895203C9CE5390791F070F073
:1040E000213C3C4589F0089585E001C080E00E94B4
:1040F000532080E008950E94C31FFBCF0E94A01FA1
:10410000F8CF0E940A20F5CF0E941120F2CF81E063
:104110000895269A2E9808952E980895CF92DF92AA
:10412000EF92FF92CF93C82F863050F4811109C0CF
:10413000809180008F7D809380000E948C2006C03B
:10414000C5E0809180008062809380002C2F30E059
:10415000AFEFBFEF0E94B52C25E030E040E050E02B
:104160000E94852CB42FA32F922F8827492F5A2FD6
:104170006B2F7727CA014C3724E1520728F469E0F6
:1041800070E00E945D2C29C0DB01CA018A50974D66
:10419000AF4FBF4F6627782F892F9A2F25EF38E230
:1041A00041E050E00E94852C69017A01CA01B90101
:1041B0000E944D2C9B01AC01C701B6010E944D2C01
:1041C000BB27A92F982F872F009721E0A207B105C1
:1041D00011F0BC0102C06FEF7FEF70938B00609312
:1041E0008A00CF91FF90EF90DF90CF9008950895CF
:1041F0000E94892082E28093800089E1809381007F
:104200008FEF9FEF90938700809386000C947D1F23
:104210006A9A2EB12B7F3EB134604FB7F894FC01FF
:10422000CB01880F991F680F791F6E0F7F1FE6174C
:10423000F70789F0819198E03EB9000000C087FF40
:104240002EB9880F000000C000C000C02EB900C009
:104250009A9591F7ECCF4FBF8FE594E00197F1F776
:1042600000C0000008950F931F93CF93DF93C42FD6
:10427000D22FFC0182818823C9F04093A0020E94C2
:10428000112590939F0280939E0280E28C0F8830CC
:1042900008F057C0C77081E001C0880FCA95EAF7DF
:1042A000DF91CF911F910F910C9402078091A00292
:1042B000481330C080919E0290919F020E94292550
:1042C000883C910538F510E21D0FCD17B9F080E25A
:1042D0008C0F883040F4C77081E001C0880FCA9508
:1042E000EAF70E940907183028F581E09D2F9770A2
:1042F00001C0880F9A95EAF70E940207802F0E945A
:10430000F9061830F0F4D77081E001C0880FDA9513
:10431000EAF70AC080E28C0F883098F4C77081E019
:1043200001C0880FCA95EAF7DF91CF911F910F91D5
:104330000C940907802FDF91CF911F910F910C945E
:10434000F906DF91CF911F910F9108950F939C0172
:10435000CB01243F4CE5340731F188F4293DFCE5DD
:104360003F07D9F02A3D4CE5340779F1283D3C451B
:10437000A9F506E221EE41EE68ED7CE52BC0263F73
:10438000FCE53F07E1F0A8F0273F3C4539F507E29F
:1043900025EE46EE67EF7CE51DC007E225EE45EE13
:1043A00069ED7CE517C006E221EE40EE64EF7CE5A6
:1043B00011C007E225EE44EE65EF7CE50BC006E296
:1043C00021EE42EE66EF7CE505C008E221E045EE15
:1043D0006AED7CE50E94332180E008C0FC01828107
:1043E000882319F01092A00201C081E00F91089576
:1043F000CF93DF93EC01FB018281882309F426C16E
:10440000C430FDE5DF0760F4CB3F9CE5D90768F4D5
:104410009E0122503C452431310508F018C105C0E9
:10442000C236EDE5DE0709F012C10E9450109093EC
:10443000CF028093CE02C031FCE5DF0709F4CAC089
:1044400008F041C0C8309CE5D90709F4A4C0F0F4D5
:10445000C430FCE5DF0709F48CC068F4C2309CE589
:10446000D90709F482C0C330DC4509F0E5C080916A
:10447000CE028260DFC0C630FCE5DF0709F483C0EE
:1044800008F085C08091CE028860D4C0CC309CE515
:10449000D90709F490C068F4CA30FCE5DF0709F4D5
:1044A0007EC008F084C00E948F098091CE0280688F
:1044B000C1C0CE309CE5D90709F481C008F086C0A0
:1044C0008091CE0294C0CD3FFCE5DF0709F47BC0AC
:1044D00038F5C4319CE5D90709F49AC058F4C231C3
:1044E000FCE5DF0709F47AC008F07EC08091CE02B7
:1044F0008F7BA0C0CB3F9CE5D907F1F108F03FC00E
:10450000C531DC4509F098C08091CE0282FB22279C
:1045100020F991E0922790FB82F990FB83F98AC001
:10452000C1308DE5D80709F467C050F48091CF02FF
:10453000CF3FECE5DE07C1F108F05BC08D7F65C0C1
:10454000C3308DE5D80709F471C008F46DC0C236D8
:10455000DD4509F071C08091CE0284FB222720F94D
:1045600091E0922790FB84F965C08091CE02816032
:1045700061C08091CE0216C08091CF0216C080919A
:10458000CF02826042C08091CE02806153C0809190
:10459000CE0280624FC08091CE0280644BC0809179
:1045A000CE028860846046C0826081602EC08091A7
:1045B000CE028E7F3FC08091CE028D7F3BC0809126
:1045C000CE02877F37C08091CF0214C08091CE0287
:1045D0008F7E30C08091CE028F7D2CC00E948F09CB
:1045E0008091CE028F7726C08091CE02877F8B7F0D
:1045F00021C08D7F8E7F09C08091CF02982F90952A
:1046000091708E7F892B90FB81F98093CF0214C02B
:104610000E948F098091CE0287FB222720F991E02A
:10462000922790FB87F906C081E001C080E00E94DC
:10463000E71002C08093CE028091CE029091CF020B
:104640000E9461100E948F0980E001C081E0DF912B
:10465000CF910895CF93DF9386319C4541F5EB01CF
:104660000E94730F982F8A812091000130910101DF
:10467000882379F09A7A81E009F480E08093A1029E
:10468000911102C069E201C065E3C9010E9456248C
:104690000AC08091A102811102C069E201C065E3F4
:1046A000C9010E9461240E94C50F80E001C081E021
:1046B000DF91CF9108959093A7028093A602089569
:1046C000E091A602F091A702309721F00190F081CD
:1046D000E02D099480E00895E091A602F091A702F0
:1046E000309799F020912701222359F02091CE0292
:1046F00027FF07C0DC012C9111962C93119725E020
:104700002C930280F381E02D09940895E091A60294
:10471000F091A702309739F022E0DC012C9304805D
:10472000F581E02D099408952091A4023091A5020D
:104730002817390771F09093A5028093A402E091A5
:10474000A602F091A702309721F00680F781E02DB4
:10475000099408952091A2023091A30228173907E5
:1047600071F09093A3028093A202E091A602F091CF
:10477000A702309721F00084F185E02D0994089577
:10478000FC01329680912701882331F08091CE027E
:1047900087FF02C09EE101C096E080E0915028F0C2
:1047A00021912223D9F38F5FF9CF0895662351F128
:1047B000209127012223E9F02091CE0227FF19C082
:1047C000462F4695469546954E31E0F4677021E0B8
:1047D00030E002C0220F331F6A95E2F7FC01E40FBC
:1047E000F11D828190E02823392381E0232B69F495
:1047F00009C0FC01329608962191621729F0E8174A
:10480000F907D1F780E0089581E008959C01FC014B
:1048100032969FEF80E04191461789F09F3F19F44F
:10482000411101C0982F8F5F8630A9F79F3F39F063
:10483000F901E90FF11D97FDFA9562830895089536
:104840009C012A5F3F4FFC014281461301C0128246
:10485000019682179307B9F70895262F2695269576
:1048600026952E3168F4FC01E20FF11D677021E0FE
:1048700030E001C0220F6A95EAF78281282B22835B
:104880000895262F2695269526952E3170F4FC0145
:10489000E20FF11D677021E030E001C0220F6A9540
:1048A000EAF7209582812823228308952091270109
:1048B000222329F02091CE0227FD0C942D240C9464
:1048C000062420912701222329F02091CE0227FDE2
:1048D0000C9441240C94202420912701FC01329651
:1048E000222331F08091CE0287FF02C08EE101C009
:1048F00086E0DF011D928A95E9F7089508950895ED
:104900000C947F240C947F24CF930E9482240E94D5
:104910001D150E948024C0E08C2F0E944014892B1A
:1049200029F4CF5FC630C1F780E001C081E0CF91AC
:1049300008950C947F240C9499248091260384304C
:1049400009F42EC00E949B2480E00E948E2080E00B
:104950000E9477050E941D1D1092A80220E488E1A4
:1049600090E00FB6F894A895809360000FBE209356
:10497000600083B7817F846083BF83B7816083BF1A
:104980007894889583B78E7F83BF0FB6F894A895E7
:1049900080916000886180936000109260000FBE7B
:1049A00008950C947F240E948F090E947D1F0E940D
:1049B00060230E9477050E94E91D0C94D1241F9268
:1049C0000F920FB60F9211248F939F93AF93BF93C3
:1049D0008091A802811113C080911E0390911F0342
:1049E000A0912003B09121034196A11DB11D809398
:1049F0001E0390931F03A0932003B0932103BF9144
:104A0000AF919F918F910F900FBE0F901F901895AF
:104A100082E084BD93E095BD9AEF97BD80936E00D0
:104A200008952FB7F89480911E0390911F03A091D1
:104A30002003B09121032FBF08952FB7F894609100
:104A40001E0370911F0380912003909121032FBFBB
:104A500008959C014FB7F89480911E0390911F0315
:104A6000A0912003B09121034FBF821B930B0895A7
:104A700078941F920F920FB60F9211248F939F93E9
:104A8000AF93BF9380911E0390911F03A0912003C9
:104A9000B09121030196A11DB11D80931E03909337
:104AA0001F03A0932003B0932103BF91AF919F9167
:104AB0008F910F900FBE0F901F90189581E08093FB
:104AC000E00080E28093D8001092C9008FE19EE45C
:104AD0000197F1F700C0000087E090EBDC018093C4
:104AE0002F0390933003A0933103B09332039CE0E3
:104AF00088E10FB6F894A895809360000FBE90935C
:104B00006000FFCF9093C7018093C6010895809104
:104B1000CC02089590912603943031F58093A90238
:104B20007093AB026093AA0282E08093E9008FEF5A
:104B30009091E800815095FD06C095ED9A95F1F7AA
:104B400000008111F5CF8091E80085FF0DC040E0A5
:104B500050E063E070E089EA92E00E94AF27809124
:104B6000E8008E778093E8000895BC0184E00C94FF
:104B70008A25BC0183E00C948A2522E02093E90079
:104B80002FEF3091E800215035FD06C035ED3A9504
:104B9000F1F700002111F5CF2091E80025FF0BC0AF
:104BA00040E050E066E070E00E94AF278091E800AE
:104BB0008E778093E8000895CF93DF9320912701AB
:104BC000222339F02091CE0227FF03C060E222E0C9
:104BD00002C068E021E02093E9002FEF3091E80067
:104BE000215035FD06C035ED3A95F1F70000211151
:104BF000F5CF2091E80025FF1DC0EC018091270131
:104C0000811105C040E050E068E070E003C070E052
:104C100040E050E0CE010E94AF278091E8008E77FF
:104C20008093E80080E2FE01ACEAB2E001900D92D0
:104C30008A95E1F7DF91CF91089580912503811145
:104C400009C00E9440290E949D298091E200846051
:104C50008093E20008951092250308950895089521
:104C6000089542E061EC81E00E94B92842E261ECE3
:104C700082E00C94B92880912803833009F460C045
:104C800030F4813071F0823009F499C008958A308F
:104C900009F485C08B3009F46BC0893009F0A7C0D6
:104CA00020C080912703813A09F0A1C08091E800DB
:104CB000877F8093E80080912B0390912C03892BB0
:104CC00021F460E28CEA92E003C060E080E090E0D2
:104CD00070E00E94FA278091E8008B778093E800CB
:104CE000089580912703813209F081C080912B03C0
:104CF00090912C03029708F07AC08091E800877F9A
:104D00008093E8008091E80082FD05C08091260331
:104D10008111F8CF6CC02091F3008091F20090E0F7
:104D2000922B029729F48091F1008B7F813021F43E
:104D30008091F1008093CC028091E8008B7753C082
:104D400080912703813A09F052C080912B03909102
:104D50002C03892B09F04BC08091E800877F80935A
:104D6000E8008091E80080FFFCCF8091270136C0E9
:104D7000809127038132D9F580912B0390912C03E8
:104D8000892BA9F58091E800877F8093E8000E9435
:104D9000EE2880912903809327010C948F0980913C
:104DA0002703813221F58091E800877F8093E80016
:104DB0000E94EE2880912A038093CD02089580916D
:104DC0002703813AA1F48091E800877F8093E8006F
:104DD0008091E80080FFFCCF8091CD028093F100AC
:104DE0008091E8008E778093E8000C94EE28089577
:104DF00084B7877F84BF0FB6F894A8958091600030
:104E0000886180936000109260000FBE90E080E89F
:104E10000FB6F89480936100909361000FBE0C94DC
:104E200017110E9440290E949D29E2EEF0E0808146
:104E30008460808378940E94322C0E9425118DE139
:104E400091E00C945B23809126038530A9F4809136
:104E50002603853079F40E949D24809124038823C1
:104E6000B1F30E948424882391F30E9499270E9421
:104E70008F09EDCF0E94D3240C942F110C9440275E
:104E8000292F332723303105C9F060F42130310553
:104E900081F02230310509F044C08BE390E02DEF22
:104EA00036E043C021323105E1F02232310549F1CB
:104EB00038C082E190E028E337E037C0992781309D
:104EC000910549F028F0029761F5E3EDF6E005C0A1
:104ED000E9EFF6E002C0E1EEF6E0849190E09F0198
:104EE00024C06115710541F061307105D1F489E08C
:104EF00090E028E237E019C089E090E02FE037E049
:104F000014C06115710541F06130710551F486EBF3
:104F100090E02AE437E009C080E490E020E038E047
:104F200004C080E090E020E030E0FA01318320838B
:104F3000089580E189BD82E189BD09B400FEFDCFFD
:104F40008091D8008F7D8093D8008091E0008260AE
:104F50008093E0008091E00081FDFCCF0895CF9226
:104F6000DF92EF92FF920F931F93CF93DF93EC01A9
:104F70008B017A010E940D29811133C0E114F104E3
:104F800039F0F70180819181081B190BC80FD91FD7
:104F9000C12CD12C0115110519F18091E80085FD76
:104FA00016C08091E8008E778093E800E114F10448
:104FB00049F0F70180819181C80ED91ED182C0824B
:104FC00085E00FC00E940D29882321F30AC0899132
:104FD0008093F10001501109FFEFCF1ADF0ADACFF9
:104FE00080E0DF91CF911F910F91FF90EF90DF90C4
:104FF000CF90089520912D0330912E032617370767
:1050000048F06115710539F42091E8002E7720935E
:10501000E80001C0B901FC0120E06115710579F1DA
:10502000809126038823F1F18530F1F18091E80029
:1050300083FD3CC08091E80082FD2EC08091E80095
:1050400080FFEBCF2091F3008091F20090E0922B53
:105050006115710551F08830910538F42191209344
:10506000F100615071090196F3CF21E0089709F032
:1050700020E08091E8008E778093E800CECF211168
:10508000CFCF0AC080912603882361F0853061F07C
:105090008091E80083FD0AC08091E80082FFF2CF92
:1050A00080E0089582E0089583E0089581E0089506
:1050B00020912D0330912E032617370748F06115F4
:1050C000710539F42091E8002E772093E80001C0A3
:1050D000B901FC0120E06115710591F18091260371
:1050E000882309F440C0853009F43FC08091E8006E
:1050F00083FD3DC08091E80082FD2FC08091E800D3
:1051000080FFE9CF2091F3008091F20090E0922B94
:105110006115710559F08830910540F42491209370
:10512000F1003196615071090196F2CF21E00897A4
:1051300009F020E08091E8008E778093E800CBCFE3
:105140002111CCCF0AC080912603882361F08530DD
:1051500061F08091E80083FD0AC08091E80082FF41
:10516000F2CF80E0089582E0089583E0089581E021
:105170000895982F973068F59093E900981739F0C3
:105180007091EC002091ED005091F00003C0242FAD
:10519000762F50E021FD02C09F5FECCF3091EB00F5
:1051A0003E7F3093EB003091ED003D7F3093ED007A
:1051B0003091EB0031603093EB007093EC00209362
:1051C000ED005093F0002091EE0027FDE5CF80E048
:1051D00008958F708093E90081E0089580912703FE
:1051E00087FF11C08091E80082FD05C080912603F1
:1051F0008111F8CF11C08091E8008B770BC08091AE
:105200002603882349F08091E80080FFF8CF809141
:10521000E8008E778093E80008952091E4003091B3
:10522000E50095E64091EC00842F817040FF23C09B
:105230008091E80080FD1DC080912603882399F0AD
:10524000853099F08091EB0085FD11C04091E4001C
:105250005091E5002417350729F3915011F09A0178
:10526000E1CF84E0089582E0089583E0089581E02D
:10527000089580E008954091E80042FFDDCF089551
:105280000E94AE290E94B629E0EEF0E080818160A4
:105290008083E8EDF0E080818F77808319BCA7EDF3
:1052A000B0E08C918E7F8C9380818F7E8083109272
:1052B000250308950F931F93CF93DF930E94AE2988
:1052C0000E94B629C8EDD0E088818F7788838881D5
:1052D0008068888388818F7D888319BC109226031B
:1052E00010922203109224031092230300EE10E088
:1052F000F80180818B7F808388818160888342E090
:1053000060E080E00E94B928E1EEF0E080818E7FCD
:105310008083E2EEF0E0808181608083808188601C
:105320008083F80180818E7F80838881806188837B
:10533000DF91CF911F910F910895E8EDF0E080810A
:105340008F7E8083E7EDF0E080818160808384E060
:1053500082BF81E0809325030C945A29E8EDF0E0A8
:1053600080818E7F80831092E20008951092DA008F
:105370001092E10008951F920F920FB60F92112420
:105380002F933F934F935F936F937F938F939F934D
:10539000AF93BF93EF93FF938091E10082FF0BC027
:1053A0008091E20082FF07C08091E1008B7F8093B3
:1053B000E1000E94312C8091DA0080FF1FC08091B3
:1053C000D80080FF1BC08091DA008E7F8093DA00C6
:1053D0008091D90080FF0DC080E189BD82E189BD47
:1053E00009B400FEFDCF81E0809326030E941D26B4
:1053F00005C019BC109226030E942B268091E10063
:1054000080FF19C08091E20080FF15C08091E2000A
:105410008E7F8093E2008091E20080618093E200C1
:105420008091D80080628093D80019BC85E0809379
:1054300026030E942F268091E10084FF30C08091D6
:10544000E20084FF2CC080E189BD82E189BD09B4FE
:1054500000FEFDCF8091D8008F7D8093D800809191
:10546000E1008F7E8093E1008091E2008F7E809347
:10547000E2008091E20081608093E200809122034B
:10548000882311F084E007C08091E30087FD02C00B
:1054900081E001C083E0809326030E943026809142
:1054A000E10083FF29C08091E20083FF25C0809145
:1054B000E100877F8093E10082E0809326031092D1
:1054C00022038091E1008E7F8093E1008091E200D1
:1054D0008E7F8093E2008091E20080618093E20001
:1054E00042E060E080E00E94B9288091F00088608E
:1054F0008093F0000E942E26FF91EF91BF91AF9113
:105500009F918F917F916F915F914F913F912F91DB
:105510000F900FBE0F901F9018951F920F920FB60D
:105520000F9211242F933F934F935F936F937F9329
:105530008F939F93AF93BF93CF93DF93EF93FF939B
:10554000C091E900CF708091EC00D82FD17080FD20
:10555000D0E81092E9008091F000877F8093F000FE
:1055600078940E94D12A1092E9008091F00088601E
:105570008093F000CD2BCF70C093E900FF91EF91A5
:10558000DF91CF91BF91AF919F918F917F916F915B
:105590005F914F913F912F910F900FBE0F901F90F1
:1055A00018951F93CF93DF93CDB7DEB7AA970FB6A9
:1055B000F894DEBF0FBECDBFE7E2F3E08091F100CB
:1055C000819323E0EF32F207C9F70E943B268091D6
:1055D000E80083FF2EC18091270390912803492F73
:1055E00050E04A30510508F024C1FA01EC58FF4F51
:1055F0000C94A72C803821F0823809F01AC108C019
:105600008091230390912403992389F082600FC035
:1056100080912B038F70873008F00BC18093E900D5
:105620008091EB0085FB882780F91092E90090912A
:10563000E800977F9093E8008093F1001092F100CA
:10564000D1C0282F2D7F09F0F4C0882319F08230B3
:1056500061F0EFC080912903813009F0EAC09330F6
:1056600009F080E0809324032EC0809129038111EA
:105670002AC080912B038F702FEF280F263008F05F
:10568000D8C08093E9002091EB0020FF1CC093302C
:1056900021F48091EB00806214C09091EB00906146
:1056A0009093EB0021E030E0A90102C0440F551FA8
:1056B0008A95E2F74093EA001092EA008091EB00AD
:1056C00088608093EB001092E9008091E800877F6A
:1056D0008093E8000E94EE28ACC08111AAC010910E
:1056E00029031F778091E3008078812B8093E3006A
:1056F0008091E800877F8093E8000E94EE288091E7
:10570000E80080FFFCCF8091E30080688093E30095
:10571000111102C082E001C083E08093260389C09A
:105720008058823008F085C08091290390912A0327
:105730008C3D53E0950779F583E08A838AE289837B
:105740004FB7F894DE01139620E03EE051E2E32FDC
:10575000F0E050935700E49120FF03C0E295EF7012
:105760003F5FEF708E2F90E0EA3010F0C79601C0D7
:10577000C0968D939D932F5F243149F74FBF809141
:10578000E800877F8093E8006AE270E0CE0101962E
:105790000E94FA2716C060912B0370912C03AE0172
:1057A0004F5F5F4F0E943E27BC01892B09F441C027
:1057B0009091E800977F9093E80089819A810E94F8
:1057C00058288091E8008B778093E80032C08038B9
:1057D00081F58091E800877F8093E8008091220323
:1057E0008093F1008091E8008E7772CF811121C003
:1057F0008091290390912A0399270297D4F48091EC
:10580000E800877F8093E80080912903809322033A
:105810000E94EE2880912203811106C08091E3004E
:1058200087FD02C081E001C084E0809326030E94CE
:1058300031268091E80083FF0AC08091E800877FCD
:105840008093E8008091EB0080628093EB00AA9641
:105850000FB6F894DEBF0FBECDBFDF91CF911F9181
:1058600008950895CF93809126038823A1F0C091D5
:10587000E900CF709091EC00892F817090FD80E855
:10588000C82B1092E9008091E80083FD0E94D12A84
:10589000CF70C093E900CF910895DB018F939F9360
:1058A0000E94CB2CBF91AF91A29F800D911DA39F11
:1058B000900DB29F900D11240895AA1BBB1B51E1BE
:1058C00007C0AA1FBB1FA617B70710F0A61BB70B70
:1058D000881F991F5A95A9F780959095BC01CD0115
:1058E000089597FB072E16F4009407D077FD09D092
:1058F0000E945D2C07FC05D03EF4909581959F4F4A
:105900000895709561957F4F0895A1E21A2EAA1B04
:10591000BB1BFD010DC0AA1FBB1FEE1FFF1FA2175F
:10592000B307E407F50720F0A21BB30BE40BF50B5C
:10593000661F771F881F991F1A9469F760957095E5
:10594000809590959B01AC01BD01CF010895EE0FAC
:10595000FF1F0590F491E02D09940E94B52C33238C
:1059600012F48A1B9B0B0C94C62CA29FB001B39F10
:10597000C001A39F700D811D1124911DB29F700D58
:10598000811D1124911D08950E94B52CB7FF089523
:10599000821B930B08950E94B52CA59F900DB49F78
:1059A000900DA49F800D911D11240895B7FF0C94B4
:1059B000CB2C0E94CB2C821B930B0895FC014150F1
:1059C000504030F001900616D1F73197CF0108957D
:1059D000882799270895FB01DC0104C08D9101906F
:1059E000801921F441505040C8F7881B990B089545
:1059F000F999FECF92BD81BDF89A992780B5089597
:105A0000A6E1B0E044E050E00C94322DA8E1B0E013
:105A100042E050E00C94322D262FF999FECF92BD32
:105A200081BDF89A019700B4021639F01FBA20BD63
:105A30000FB6F894FA9AF99A0FBE08950396272F95
:105A40000E940D2D0E940C2D252F0E940D2D242F1C
:105A50000C940D2D0196272F0E940D2D0C940C2DCA
:105A6000DC01CB01FC01F999FECF06C0F2BDE1BD1E
:105A7000F89A319600B40D9241505040B8F708950D
:045A8000F894FFCFC8
:105A840047022808641E140A321E01010200100095
:105A9400101001191A1B1C1D1E1F2021228725DC32
:105AA40025BD25B925B52501E200E900EA00B500C8
:105AB400B600B700CD008301CC008A0192019401A5
:105AC4002102230224022502260227022A02B3000D
:105AD400B4006F007000818283E200E900EA00B53F
