:100000000C9469080C94F01E0C94B0080C94B00881
:100010000C94B0080C94B0080C94B0080C94B00880
:100020000C94B0080C94B0080C9491320C94633387
:100030000C94C32C0C94B0080C94B0080C94B00829
:100040000C94B0080C94B0080C94B0080C94B00850
:100050000C94B0080C941C2D0C94B0080C94B008AF
:100060000C94B0080C94B0080C94B0080C94B00830
:100070000C94B0080C94B0080C94B0080C94B00820
:100080000C94B0080C94B0080C94B0080C94B00810
:100090000C94B0080C94B0080C94B0080C94B00800
:1000A0000C94B0080C94B0080C94B00818191B19E3
:1000B000201927192C19311936193B1940194519DE
:1000C0004A194F195119541957195A195D196019BC
:1000D00062196719AB22AB22DD22DD222A235E24BE
:1000E0005E245E244823DD23EE23EE234E245E248B
:1000F0005E245724FA24FA240C250C2503250C250C
:100100000C250C25FA24FA2408250C250C25082595
:10011000D033F733EF34F733EF3443346634EF340E
:10012000BD34CC34165C1E001F00200021002200CC
:100130002B0014001A00080015001700E00004004E
:100140001600070009000A00E1001D001B00060060
:1001500019000500000000002A5DE300E2002C0009
:100160002A00270026002500240023003100130068
:1001700012000C0018001C00280034000F000E00B4
:100180000D000B00337238003700360010001100EC
:10019000000000002B5DE2004C002C003A003B0008
:1001A0003C003D003E003F00010001000100010055
:1001B0000100010001000100010001000100010037
:1001C0000100010001000100010001000000000029
:1001D0000100AA00A90001004500440043004200BC
:1001E0004100400049000100010001000100010040
:1001F00001000100010001000100010001000100F7
:100200000100010001000100000000000100AB003E
:10021000AC00AE003500010001000100010001004A
:1002200001004A0052004D004B00490001005000FF
:1002300051004F004E0000000100000000000000CF
:1002400000000000000000000100010001000100AA
:100250004C002E002D000100010001003100300093
:100260002F000100010001003400330001000100F3
:100270000100010001000100010001000100010076
:10028000000000000100010001000100000000006A
:10029000000000000000000000000000000000005E
:1002A000000000000000000000000000000000004E
:1002B000000000000000000000000000000000003E
:1002C000000000000000000000000000000000002E
:1002D000000000000000000000000000000000001E
:1002E000000000000000000000000000000000000E
:1002F00000000000000000000000000000000000FE
:1003000000000000165C1E001F00200021002200DB
:100310002B0014001A00090013000A00E00004007A
:100320001500160017000700E1001D001B00060065
:1003300019000500000000002A5DE300E2002C0027
:100340002A00270026002500240023003100330066
:100350001C0018000F000D00280012000C000800FF
:1003600011000B00387234003700360010000E0008
:10037000000000002B5DE2004C002C00000000009B
:10038000000000000000000000000000000000006D
:10039000000000000000000000000000000000005D
:1003A000000000000000000000000000000000004D
:1003B000000000000000000000000000000000003D
:1008A000000000000100295D0100010001000100BD
:1008B0000100010001000100010001000100010030
:1008C00001002D5D010001000100005C010001003C
:1008D0000100010000000000010001000100010012
:1008E000005C01000100010001000100DF5C01006B
:1008F00001000100010001000100010001000100F0
:1009000001000100010001000100010001000100DF
:1009100000000000010001000100010044454255B3
:10092000473A2064697361626C65642E0A0044452D
:100930004255473A20656E61626C65642E0A000A72
:100940000025303862003A200025303258000A7203
:100950002F632030313233343536370A0072676204
:100960006C6967687420616E696D6174696F6E206F
:100970007469636B207265706F727420746F20737A
:100980006C6176650A007267626C696768742074CE
:10099000696D65722064697361626C652E0A00720C
:1009A00067626C696768742074696D657220656E32
:1009B00061626C65642E0A007267626C69676874B4
:1009C0002073657420687376205B4E4F4545505206
:1009D0004F4D5D3A2025752C25752C25750A007222
:1009E00067626C6967687420736574206873762029
:1009F0005B454550524F4D5D3A2025752C25752C91
:100A000025750A007267626C696768742072616993
:100A10006E626F7720736574206873763A20256460
:100A20002C25642C25642C25750A007267626C697C
:100A30006768742064697361626C65205B4E4F4522
:100A40004550524F4D5D3A207267626C6967687419
:100A50005F636F6E6669672E656E61626C65203DCF
:100A60002025750A007267626C6967687420646982
:100A70007361626C65205B454550524F4D5D3A2075
:100A80007267626C696768745F636F6E6669672E10
:100A9000656E61626C65203D2025750A0072676293
:100AA0006C6967687420656E61626C65205B4545A2
:100AB00050524F4D5D3A207267626C696768745F8F
:100AC000636F6E6669672E656E61626C65203D209E
:100AD00025750A007267626C6967687420746F67B5
:100AE000676C65205B454550524F4D5D3A207267FB
:100AF000626C696768745F636F6E6669672E656EA6
:100B000061626C65203D2025750A007267626C6920
:100B1000676874206D6F6465205B4E4F4545505289
:100B20004F4D5D3A2025750A007267626C696768EF
:100B300074206D6F6465205B454550524F4D5D3AA2
:100B40002025750A007267626C696768745F696E58
:100B50006974207267626C696768745F636F6E6640
:100B600069672E6D6F6465203D20302E20577269B5
:100B700074652064656661756C742076616C75655A
:100B80007320746F20454550524F4D2E0A007267F6
:100B9000626C696768745F696E6974206565636F0C
:100BA0006E666967206973206E6F7420656E61627E
:100BB0006C65642E0A007267626C696768745F69AD
:100BC0006E6974207374617274210A007267626CBA
:100BD000696768745F696E69742063616C6C6564D1
:100BE0002E0A007267626C696768745F636F6E6675
:100BF00069672E7370656564203D2025640A007264
:100C000067626C696768745F636F6E6669672E768A
:100C1000616C203D2025640A007267626C69676818
:100C2000745F636F6E6669672E736174203D202563
:100C3000640A007267626C696768745F636F6E66EE
:100C400069672E687565203D2025640A0072676813
:100C50006C696768745F636F6E6669672E6D6F6439
:100C600065203D2025640A007267626C69676874BC
:100C70005F636F6E6669672E656E61626C65203DAD
:100C80002025640A007267626C696768745F636F2D
:100C90006E66696720454550524F4D3A0A001E0F57
:100CA0000500047F3F1F643214643214783C1E1E1A
:100CB000140A052223252628292A2C2D2F303233E9
:100CC0003536383A3B3D3E4042434547494A4C4E13
:100CD0005051535557595A5C5E6062646668696B3F
:100CE0006D6F71737577797B7D7F81838587898A45
:100CF0008C8E90929496989A9C9E9FA1A3A5A7A84B
:100D0000AAACAEAFB1B3B4B6B8B9BBBCBEBFC1C27A
:100D1000C3C5C6C7C9CACBCCCDCED0D1D2D2D3D40D
:100D2000D5D6D7D7D8D9D9DADADBDBDBDCDCDCDC2B
:100D3000DCDDDDDDDDDCDCDCDCDCDBDBDBDADAD9F9
:100D4000D9D8D7D7D6D5D4D3D2D2D1D0CECDCCCB7B
:100D5000CAC9C7C6C5C3C2C1BFBEBCBBB9B8B6B499
:100D6000B3B1AFAEACAAA8A7A5A3A19F9E9C9A9829
:100D7000969492908E8C8A89878583817F7D7B79FA
:100D8000777573716F6D6B6968666462605E5C5ADB
:100D90005957555351504E4C4A4947454342403E9E
:100DA0003D3B3A3836353332302F2D2C2A29282630
:100DB000252322FFAA7F55406261636B6C696768D7
:100DC0007420737465703A2025750A006261636B44
:100DD0006C696768742064697361626C650A00629B
:100DE00061636B6C6967687420656E61626C650A2B
:100DF000006261636B6C6967687420746F67676C0D
:100E0000653A2025750A006261636B6C69676874D6
:100E10002064656372656173653A2025750A006216
:100E200061636B6C6967687420696E637265617376
:100E3000653A2025750A0000010101010101010147
:100E4000010202020202020202020303030303037D
:100E5000030304040404040404050505050506064B
:100E60000606060707070707080808080909090909
:100E70000A0A0A0B0B0B0C0C0C0D0D0D0E0E0E0FAF
:100E80000F0F10101111111212131314141515163F
:100E9000161717181819191A1A1B1B1C1D1D1E1EB0
:100EA0001F20202122222324242526262728292901
:100EB0002A2B2C2D2D2E2F3031323233343536372C
:100EC00038393A3B3C3D3E3F40414243444546472A
:100ED00048494A4C4D4E4F50515354555658595A03
:100EE0005B5D5E5F616264656668696B6C6D6F70A7
:100EF00072737577787A7B7D7E8082838587888A16
:100F00008C8E8F91939596989A9C9EA0A2A3A5A74C
:100F1000A9ABADAFB1B3B5B7BABCBEC0C2C4C6C948
:100F2000CBCDCFD1D4D6D8DBDDDFE2E4E7E9EBEE01
:100F3000F0F3F5F8FAFDFF0A002530325820006B77
:100F40006579626F6172645F7265706F72743A2066
:100F5000000A0025303258006B6579626F61726457
:100F60005F7365745F6C65643A20005B735D004B72
:100F70006579626F6172642073746172742E0A0005
:100F80005B575D005B535D005B525D005B445D0041
:100F90005B435D0026034B0065006500620069004D
:100FA0006F002000490072006900730020005200A9
:100FB000650076002E002000320000000E034B007A
:100FC00065006500620069006F0000000403090409
:100FD00009025B00030100A0FA09040000010301FB
:100FE00001000921110100012240000705810308C9
:100FF000000A090401000103000000092111010099
:10100000012232000705820320000A0904020002BF
:1010100003000000092111010001222200070583BD
:101020000320000107050303200001120110010045
:1010300000000810CB56220002010200010631FF19
:101040000974A1010975150026FF00952075088116
:10105000020976150026FF00952075089102C0054B
:10106000010980A101850319012AB700150126B7DE
:1010700000950175108100C0050C0901A1018504CE
:1010800019012AA002150126A00295017510810000
:10109000C005010906A101050719E029E71500258A
:1010A00001950875018102950175088101050719EF
:1010B0000029FF150026FF00950675088100050828
:1010C0001901290595057501910295017503910195
:1010D000C00011241FBECFEFDAE0DEBFCDBF04B6E3
:1010E00003FE27C08091450390914603A0914703DA
:1010F000B09148038730904BA740B04BD1F4109289
:10110000450310924603109247031092480314BE01
:1011100084B7877F84BF0FB6F894A895809160004C
:10112000886180936000109260000FBEE0E0F8E3F9
:10113000099511E0A0E0B1E0EEE3FDE602C0059004
:101140000D92A23EB107D9F723E0A2EEB1E001C0B3
:101150001D92A534B207E1F70E94C42F0C949D366E
:101160000C940000FF93EF93E091E201F091E30112
:10117000309709F00995EF91FF910895FC01859151
:10118000803011F0EFDFFBCF0895FF27E0E230E27F
:1011900047FF0CC0419597FF09C0EDE2609570953F
:1011A00080959095611D711D811D911D27FF02C0C5
:1011B000219530E350E2AA27660F771F881F991FF9
:1011C000AA1FA41710F0A41B63955A95A9F7AA307B
:1011D00008F0A95FA05DAF93F395611571058105D6
:1011E000910541F7ED3211F4EF93F395F21718F4EE
:1011F0003F93F395FBCF8F91B5DFFA95E1F7089513
:10120000E991F9918591803021F0853219F0AADFBA
:10121000F9CF089520E0E89455915532C1F3503349
:1012200011F4689455915A3348F4505390F3220FB7
:10123000022E220F220F200D250FF4CF0EF4219540
:1012400089919991533619F3533729F1533559F14F
:10125000BC0188279927E8945C3621F489919991FB
:1012600068945591543639F446EF7EF077FF0DC0FF
:101270008FEF9FEF0AC055374AE039F0583540E10B
:1012800021F0523642E009F00895FF93EF937DDF9D
:10129000EF91FF91B7CFFF93EF93FC0181918030E5
:1012A000B9F360DFFBCFFF93EF9368DFF1CFDF93FC
:1012B000CF93CDB7DEB72596A3DFCF91DF91089509
:1012C0000E940B1A83E00E94BB1A0E94D5164FEFB2
:1012D0006FEF80E00E94F1128BE00E94D21660E076
:1012E00070E0CB010E94A62B0C94B22BCF93DF931E
:1012F000EC010E947A2BBE0180E090E0DF91CF915B
:101300000C94DE28CF93FB018B322DE5920709F177
:1013100050F489322DE5920771F08A329D45C1F56E
:10132000C28181E018C08C322DE5920731F18D32F7
:101330009D4539F02DC0C281CC2359F181E090E068
:1013400005C0C281CC2329F180E190E00E9476099A
:101350001AC0C28182E0CC2341F00E943E2940E1C4
:1013600062E081E00E946E0A0EC00E945F2940E1A7
:1013700062E081E00E946E0A0CC0C28180E1CC2351
:1013800021F00E943E29C0E004C00E945F2901C0F4
:10139000C1E08C2FCF91089581E008950C948209CB
:1013A00008950C94D0091F93CF93DF9300D000D001
:1013B0001F92CDB7DEB749835A836B8330916902A0
:1013C00089819A81311114C0662359F0222349F092
:1013D0000E94352A182F682F89819A810E94DC2962
:1013E00003C00E94082A182F69817A81812F04C0C6
:1013F0000E94352A69817A810F900F900F900F908B
:101400000F90DF91CF911F910C94280BFC01262F98
:10141000408151816281738184810C94D309CF937F
:10142000DF93EC0160E00E94060ABE01DF91CF91DC
:101430000C94D1098F929F92AF92BF92CF92DF927C
:10144000EF92FF920F931F936B017C0181E090E07C
:10145000A0E0B0E04C015D0104C0880C991CAA1CFE
:10146000BB1C4A95D2F7AC01BD0104C0440F551F07
:10147000661F771F2A95D2F7482959296A297B299F
:1014800004C0880F991FAA1FBB1F0A95D2F78A01B3
:101490009B010C211D212E213F214017510762077E
:1014A000730739F4BC01CD016C297D298E299F2950
:1014B0000AC080959095A095B095BC01CD016C2196
:1014C0007D218E219F211F910F91FF90EF90DF9042
:1014D000CF90BF90AF909F908F9008950F93382F2B
:1014E000262F6091CA027091CB028091CC0290911C
:1014F000CD02042F432F0E941A0A0F910C94182931
:101500000E94672B811102C00E94152C0E94601B53
:101510000C94870D0C94830D08950E94E8240E947A
:101520008C0A2FEF84E39CE0215080409040E1F74B
:1015300000C000000C948C2D0F931F93CF93DF936A
:10154000EC0161E00E94060A8C01BE010E94CE09F6
:10155000882309F450C0BE01C8010E94C11A882323
:1015600009F449C0BE01C8010E940E1C882309F479
:1015700042C0BE01C8010E94601C8823E1F1BE0187
:10158000C8010E948B1D8823B1F1BE01C8010E94D1
:101590000219882381F18A81882331F101308CE599
:1015A000180751F00F3D8CE51807D9F001151C45BF
:1015B000D9F40E948D0A1FC08091DF02C82FC09508
:1015C000C170C0FB80F98093DF02CC2329F08EE24A
:1015D00099E00E94BE080FC08CE199E00E94BE080D
:1015E0000BC00E94152C07C0CE01DF91CF911F9137
:1015F0000F910C94CC09C0E08C2FDF91CF911F91FB
:101600000F9108958295982F937344E0949F9001D1
:1016100011248C7C86958695282B822F8575880FC2
:101620002A7A2695822B089508950C94140B81E054
:1016300008950C94170BCF93C82F0E94150B8C2F75
:101640000E94190BCF91089580E090E008950895CD
:101650002CE3829FC0011124FC0126E0729FE00D63
:10166000F11D1124E60FF11DEE0FFF1FEC5DFE4F83
:10167000859194910895880F991FFC01E15CF64FC4
:10168000859194910895CF93DF930E94280B0E9437
:10169000550CEC018115904508F043C0C11580E45C
:1016A000D80708F0CBC0C03ED10528F5C03CD10515
:1016B00008F0B3C0C83AD10578F4C53AD10508F0AE
:1016C000A4C0C130D10509F4ECC008F4E8C0C430AE
:1016D000D10508F0E6C0E3C0CF3BD10508F0DFC07C
:1016E000C85AD0E0CC0FDD1FCB5CDE4F0990D8810B
:1016F000C02DD464D6C0C11590E2D90750F4C115ED
:1017000021E0D20708F0CDC0C83ED10508F4C9C019
:10171000C6C0C11580E3D80708F086C0CE019F700F
:101720007FC0C11595E5D90708F043C0C11524E570
:10173000D20708F09AC0C11582E5D80708F5C1158F
:1017400091E5D90708F07DC0CE0174E096958795A4
:101750007A95E1F783709C2F937021E030E002C00E
:10176000220F331F9A95E2F73C68382BCF70C6954D
:10177000C69580E2C89FE0011124C22BD32B91C0F3
:101780009E01237033278C2F86958695C115D345EE
:1017900008F05CC0C1E0D0E002C0CC0FDD1F2A958C
:1017A000E2F720E2829FC0011124C82BD92BDC680C
:1017B00078C0C11529E5D207A0F4C11588E5D8077E
:1017C00008F058C0C11596E5D90708F068C08C2FFD
:1017D0000E94E90C8F71C82FD0E0DC2FCC27D0629B
:1017E00060C0C1152AE5D20708F449C0CE01905661
:1017F0008115904208F053C08D2F8F710E94E90C23
:10180000DD27D0628F71D82B4CC0C55AD0E0CD599E
:10181000DE4FC881D0E0D06444C0CE01805C910925
:101820000E943B0BEC013DC0CE019927D3FF03C0C2
:10183000EC01D86C36C0EC01D06C33C0DF70D06ADC
:1018400030C0DC2FCC27C16FD06A2BC0C1E0D0E004
:1018500002C0CC0FDD1F2A95E2F720E2829FC00173
:101860001124C82BD92BDA681CC0DC2FCC27C46FFD
:10187000D06A17C0DC2FCC27C06FD06A12C08C2F63
:101880008F700E94E90C94E0D695C7959A95E1F780
:10189000CF70D0E0DC2FCC27D069C82B02C0C0E0CD
:1018A000D0E0CE01DF91CF9108958238910569F1A2
:1018B000B0F48133910509F46DC048F48932910583
:1018C00009F463C08A32910509F469C0089585332B
:1018D000910509F455C089339105B9F00895833E07
:1018E000910569F138F4803E9105B1F0823E910591
:1018F00009F10895863E9105A9F1873E9105B9F158
:10190000843E910509F064C023C02091360320FD78
:101910004FC021FD4DC008958091360380FD44C025
:101920008091370380FF44C08091360384FD42C01C
:1019300083EE4DC08091360382FF38C0F5CF809191
:10194000360382FD33C08091370380FD31C0ECCF78
:101950008091370381FF32C08091360384FD2AC015
:1019600087EE35C08091360383FF26C0F5CF809186
:10197000360383FD21C08091370381FD1FC0ECCF6A
:101980008091360385FD1CC01DC08091360385FD06
:1019900019C016C08091360386FD16C017C080910D
:1019A000360386FD13C010C089E311C082EE0FC05C
:1019B00080EE0DC080E00BC086EE09C084EE07C04B
:1019C00089E205C085E303C08AE201C081E390E0BB
:1019D00008959091360392FF0DC0282F287128306A
:1019E00019F4877F846006C0282F2471243011F4F5
:1019F0008B7F886093FF0DC0282F2871283119F440
:101A0000877E846106C0282F2471243111F48B7ED7
:101A100088612091370320FF0DC0382F387138308E
:101A200019F4877F816006C0382F3171313011F48D
:101A30008E7F886021FF0DC0282F2871283119F46E
:101A4000877E816106C0282F2171213111F48E7E9D
:101A5000886194FD877E0895E82FF0E0E850FD4FFF
:101A600080810895CF92DF92EF92FF920F931F93A0
:101A7000CF93DF938EE499E00E94BE0888EFE82EB2
:101A800082E0F82EC0E0D0E099E4C92E99E0D92E8A
:101A900001E419E0DF93CF93DF92CF920E945709C0
:101AA00086E499E00E94BE08F70181917F010E94BF
:101AB000020B1F928F931F930F930E9457098FE37E
:101AC00099E00E94BE0821968DB79EB708960FB682
:101AD000F8949EBF0FBE8DBFCA30D105D9F6DF91F5
:101AE000CF911F910F91FF90EF90DF90CF900895CD
:101AF00080EA8A95F1F7089500C008950C94780D56
:101B000008950C94800D0C94810D0C94800D0C9410
:101B1000850DF894E82FE295EF70F0E031A1282FC1
:101B20002F7081E090E001C0880F2A95EAF7982F86
:101B30009095932391A392A1892B82A378940895E1
:101B400008950F931F93CF93DF930E942F0F8091DF
:101B5000040180910401811102C095E001C090E070
:101B60009093030385E0891B8093020387E90E9419
:101B7000890D86EC0E94890D84E30E94890D82E91B
:101B80000E94890D84E90E94890DC6E6D1E00CE629
:101B900011E089910E94890D0C171D07D1F7EEEE17
:101BA000F2E0A8EFB2E011921D9282E0E83FF80760
:101BB000D1F785E00E94D90E0E94800ADF91CF9173
:101BC0001F910F910C94430F0F931F93CF93DF93AB
:101BD00000D000D01F92CDB7DEB70E94100F6091E9
:101BE0000303882309F442C08E010F5F1F4F85E075
:101BF000F80111928A95E9F7862F90E0B801885094
:101C00009D4F0E94E51D811116C08091E4018F5FF8
:101C10008093E401863030F1E0910203F0E0E85077
:101C2000FD4FD801CE01069611921D92A817B90753
:101C3000D9F711E018C01092E401A0910203B0E0BE
:101C4000A850BD4FF8019E012A5F3F4F10E08191DF
:101C50009C91981711F08C9311E01196E217F307FD
:101C6000B1F701C010E00E948A0A0DC070E0685010
:101C70007D4F8091020390E088509D4F0E941D1E71
:101C80000E94A00D10E0812F0F900F900F900F90E9
:101C90000F90DF91CF911F910F9108958F929F9296
:101CA000AF92BF92CF92DF92EF92FF920F931F936A
:101CB000CF93DF938CE6A82E81E0B82ECEEED2E053
:101CC00091E7E92E91E0F92E912C01E010E06501F9
:101CD000F5018081F894E82FE295EF70F0E021A102
:101CE0008F70A80102C0440F551F8A95E2F7CA0100
:101CF000922F982B91A392A18095892382A3789407
:101D00000E947C0DE6E6F1E020E030E0812C41917C
:101D1000A42FA295AF70B0E090968C9190E04F7098
:101D200002C0959587954A95E2F780FD07C0802F00
:101D3000022E01C0880F0A94EAF701C080E0882AC9
:101D40002F5F3F4F2630310511F75FEFA51AB50A17
:101D5000F60180810E94890D0E947E0D888188167F
:101D600019F0888281E001C080E0982A2196EA1467
:101D7000FB0409F0ACCF6091030370E068507D4F25
:101D8000292D45E08EEE92E00E94DA0E0E94E40DCD
:101D9000992011F081E090E0DF91CF911F910F9198
:101DA000FF90EF90DF90CF90BF90AF909F908F907B
:101DB00008950895FF920F931F93CF93DF938C01A3
:101DC000F62ED72FC42F222349F081E08093E7011C
:101DD0000E94F52C9093E6018093E5018091E70144
:101DE0008823C1F08091E5019091E6010E940D2DBC
:101DF000069780F0EF2DFD2FD8014C2F50E0CD013C
:101E0000801B910B841795071CF48D918193F7CF5C
:101E10001092E701DF91CF911F910F91FF900895EC
:101E20008091E801811112C08091D8008061809377
:101E3000D8008AE18A95F1F700C08091D90080FD31
:101E400002C082E001C081E08093E80181E09091CE
:101E5000E801913009F080E008950C94100F0E9481
:101E60002D0F809304018091040166E0882311F016
:101E700080E001C086E00E94DF0F0E94100F8111F8
:101E80000C94BC1D08950E94100F811102C00C9487
:101E9000C21D0895EF92FF920F931F93CF93DF938C
:101EA0008B01682F11110AC0442329F0E82FF0E0BC
:101EB000E95CF14F6491762F862F75C0212F30E0B9
:101EC000E82FF0E0442321F0E95CF14FE491F0E0E9
:101ED00046E0049FC0011124CFEFD0E0BE010E9474
:101EE0004C354BEA4603C001479F900D1124800FEB
:101EF000911D800F911D982F990F890FAE01421BE4
:101F0000530B4E9FD0014F9FB00D5E9FB00D11241B
:101F10009B2F189FA0011124452F55278E01041BCC
:101F2000150B0E9FA0010F9F500D1E9F500D1124E9
:101F30007E01E81AF108E29E8001E39E100DF29EF8
:101F4000100D1124212F3327C21BD30BCE9F9001DC
:101F5000CF9F300DDE9F300D112462307105A9F046
:101F600048F46115710569F061307105C9F48B2F72
:101F7000752F0DC06430710581F058F06630710521
:101F800079F47E2F8B2F932F0DC0832F7B2F9E2FC5
:101F900009C08E2F7B2F952F05C08E2F732F02C067
:101FA0007E2F852F692FDF91CF911F910F91FF9089
:101FB000EF90089541E00E944A0F08950895E8E0E7
:101FC000F1E08083618308950E94DA0F0895CF9332
:101FD000DF93762FE901682F842F0E94E40F798325
:101FE00068838A83DF91CF91089580910403282F1D
:101FF000269530E02115310519F48170826005C005
:102000002B32310524F08170846580930403089598
:1020100088E090E00C943E36CF92DF92EF92FF92F0
:102020006B017C010E94F50FB701A60188E090E0EA
:10203000FF90EF90DF90CF900C945C36E4E0F3E0FB
:1020400083E0808311828FEF828383831482A2E3F3
:10205000B2E012968C911297836012968C936081F5
:102060007181828193810C940C108091DF0280FF3A
:1020700008C085E89CE09F938F930E9457090F90BA
:102080000F908091DF0280FF0FC080910403817068
:102090001F928F9388E69CE09F938F930E9457092D
:1020A0000F900F900F900F908091DF0280FF0FC074
:1020B0008091040386951F928F938DE49CE09F93FB
:1020C0008F930E9457090F900F900F900F9080915F
:1020D000DF0280FF0EC0809105031F928F9383E380
:1020E0009CE09F938F930E9457090F900F900F9041
:1020F0000F908091DF0280FF0EC0809106031F9237
:102100008F9389E19CE09F938F930E9457090F90D2
:102110000F900F900F908091DF0280FF0EC0809192
:1021200007031F928F938FEF9BE09F938F930E94E3
:1021300057090F900F900F900F908091DF0280FF52
:102140000EC0809108031F928F9383EE9BE09F93B4
:102150008F930E9457090F900F900F900F90089542
:102160008091040380FF02C08695089580E0089561
:1021700090910803933018F49F5F9093080388238D
:1021800051F06091040370910503809106039091D2
:1021900007030C940C10089581E00C94B8109091F2
:1021A0000803992319F0915090930803882351F064
:1021B00060910403709105038091060390910703D9
:1021C0000C940C10089581E00C94CF1070E00C94E6
:1021D000701B609109018091040380FF0AC0809107
:1021E000080123E0829FC0011124875F9C4F0C945B
:1021F000E61080910A0190910B01891780F7E82F72
:10220000F0E09F01220F331FE20FF31FE75FFC4F47
:102210001182108212828F5FF0CF9091040390FFA1
:1022200016C090910A0120910B01921770F4E92FCA
:10223000F0E0DF01AA0FBB1FEA0FFB1FE75FFC4FB7
:102240008183608342839F5FF0CF0C94E9100895EF
:10225000CF93DF9300D01F92CDB7DEB790910403E8
:1022600090FF0AC09E012F5F3F4F0E94E70F4B81F6
:1022700069818A810E940D110F900F900F90DF915C
:10228000CF910895CF93DF93EC01EC81F0E0ED5412
:10229000F34F4491E4E0F3E0628181810E942811D0
:1022A0008C818F5F8C83DF91CF910895CF93DF93E3
:1022B000EC01E4E0F3E0438162818C810E9428110B
:1022C0008C818F5F8C83DF91CF9108950F931F9343
:1022D000CF93DF9300D01F92CDB7DEB78C018091F2
:1022E000E90181110AC09E012F5F3F4F4FEF6FEF51
:1022F0000E94E70F8A818093E901F801848181308F
:1023000051F028F0823061F44091E9010AC08091D7
:10231000E90140E007C06091E90140E080E003C0CE
:1023200040E080E060E00E940D11F801848190E0BF
:10233000019663E070E00E94603584830F900F90F7
:102340000F90DF91CF911F910F9108954F925F925F
:102350006F927F928F929F92AF92BF92CF92DF92B5
:10236000EF92FF920F931F93CF93DF9300D01F92B2
:10237000CDB7DEB7F82ED62EE42E622E9091040350
:1023800090FFC5C0E92FE695AE2FB0E0AA58BE4F2A
:102390008C91809332029E7F923061F49E012F5F78
:1023A0003F4F8F2D0E94E70F4B8169818A810E94E8
:1023B0000D1162C0823019F4E09007035DC08630D1
:1023C00019F4F090050358C08930D9F3893109F028
:1023D00053C0E9518E2F8170782E81E0C72CC8261A
:1023E000E695F0E0ED54F24FA590B490412CBB245B
:1023F00094E0892E9AE0992E60910C014616D0F552
:10240000042D10E00A9DC0010B9D900D1A9D900DAA
:10241000112470E00E944C355F2C711002C0560EE2
:1024200001C0561A8091DF0280FF11C0BF92AF92A7
:102430001F92CF921F925F921F924F929F928F9204
:102440000E9457090FB6F894DEBF0FBECDBF809132
:102450000A01080F111D9801220F331F020F131FCD
:102460009801275F3C4F4E2D6D2D852D0E94E70F63
:102470004394C2CF0E94E91080910503F81208C06E
:1024800080910603D81204C080910703E81629F052
:1024900080913402826080933402F0920503D092DE
:1024A0000603E09207036620E9F06091040370914F
:1024B000050380910603909107030E940C10809100
:1024C000DF0280FF24C0809107031F928F938091C9
:1024D00006031F928F93809105031F928F938FEDB8
:1024E00099E00CC08091DF0280FF11C01F92EF9233
:1024F0001F92DF921F92FF9288EB99E09F938F9338
:102500000E9457090FB6F894DEBF0FBECDBF0F90E3
:102510000F900F90DF91CF911F910F91FF90EF904F
:10252000DF90CF90BF90AF909F908F907F906F90F3
:102530005F904F900895E4E0F3E09181282F43816C
:10254000628188E0890F0C94A61181E00C949B12A3
:10255000E4E0F3E09181282F4381628188EF890FC5
:102560000C94A61181E00C94A812E4E0F3E06281DF
:1025700021E1620F08F46FEF282F438181810C94D1
:10258000A61181E00C94B512E4E0F3E0628121E150
:10259000621B08F460E0282F438181810C94A6110E
:1025A00081E00C94C412E4E0F3E0438121E1420FA6
:1025B00008F44FEF282F628181810C94A61181E0ED
:1025C0000C94D312E4E0F3E0438121E1421B08F4D0
:1025D00040E0282F628181810C94A61181E00C9447
:1025E000E21221E00C94A61120E00C94A611FF92B7
:1025F0000F931F93CF93DF93EC01F12C0FEF10E0BB
:1026000060910C01F616F0F480910A012F2D30E054
:10261000280F311DC901880F991F280F391F275F07
:102620003C4F70E0C8010E946035962F8C8140912C
:10263000070360910603F99E800D11240E94E70FA5
:10264000F394DECF0E94E9109A818C8190FF02C042
:102650008F5F01C081508C83DF91CF911F910F91CB
:10266000FF9008958F929F92AF92BF92CF92DF9288
:10267000EF92FF920F931F93CF93DF93EC018A8128
:1026800080FF03C0BB24BA9402C0BB24B3948C81E6
:1026900081110DC081E0B81206C080910C018150FB
:1026A0008093EB0102C01092EB0181E08C83A12C9E
:1026B0004CE0942E80910C01A81608F044C0809143
:1026C0000A01CA2CD12C8601080F111DC801880FE0
:1026D000991F080F191F075F1C4FF8011182108204
:1026E000128234E0E32EF12C812C8091EB01880DD5
:1026F0008D302CF0692D0E943E35892F05C087FF53
:1027000003C090910C01890F082E000C990BC8167C
:10271000D90691F4809107038E9DA0018F9D500DE5
:102720001124559547955595479598016091060355
:10273000809105030E94E70F8B0CF1E0EF1AF1087E
:10274000A1F6A394B7CF0E94E9108091EB0191E02C
:10275000B9120EC0811107C080910C018150809385
:10276000EB011C820FC081508093EB01BC820AC038
:1027700090E0019660910C0170E00E9460358093BA
:10278000EB018C83DF91CF911F910F91FF90EF9020
:10279000DF90CF90BF90AF909F908F9008951F9340
:1027A000CF93DF93EC018C81811109C081E08C8390
:1027B0001092EA0192E090930701809306018091C4
:1027C0000A0190910B01891770F4E82FF0E09F0146
:1027D000220F331FE20FF31FE75FFC4F11821082BD
:1027E00012828F5FF0CF10E060910C011617C0F5D8
:1027F000E12FF0E070E0CF010E94603520910A01E6
:10280000820F2091EA01022E000C330B90E0E217B8
:10281000F307CCF020910701022E000C330B2E178A
:102820003F078CF09C01220F331F820F931F9C01E6
:10283000275F3C4F40910703609106038091050399
:102840000E94E70F0BC0FC01EE0FFF1F8E0F9F1FB2
:10285000FC01E75FFC4F1182108212821F5FC4CF20
:102860000E94E910809106012091EA01280F20932F
:10287000EA0190910701980F9093070119165CF4F3
:10288000022E000C330B40910C0150E041505109D5
:102890002417350734F0819580930601813009F4BF
:1028A0001C82DF91CF911F9108958F929F92AF92DA
:1028B000BF92CF92DF92EF92FF920F931F93CF932D
:1028C000DF938C01FC014481C42FD0E09E01DE0126
:1028D0000E94A4359B01AC010E94BA356B017C01BA
:1028E000E0E2F0E0EC1BFD0BA5E5B0E09B01AC01E4
:1028F0000E94BA354B015C019F01DF010E949C35AB
:102900009B01AC010E94C5359B01AC012C0D3D1D06
:102910004E1D5F1DC501B4010E947435C22FD22F18
:102920002A3228F4F3E02F9F900111240DC025E5F1
:1029300030E02C1B3109C901880F991F280F391F5E
:1029400037FF02C02F5F3F4F35952795C22FC095A7
:10295000F12C85E5E82EED1A80910C01F816C8F4EB
:10296000F1FC02C08E2D01C08D2F90910A012F2DF8
:1029700030E0290F311DA901440F551F240F351FC9
:10298000275F3C4F4C2F609106030E94E70FF394A2
:10299000E3CF0E94E910F8018481811102C091E027
:1029A00003C0803219F49FEF9093050190910501C7
:1029B000890FF8018483DF91CF911F910F91FF90D0
:1029C000EF90DF90CF90BF90AF909F908F90089541
:1029D0000F931F93CF93DF93EC0100E010E0809101
:1029E0000C01282F30E00217130724F590910A01FB
:1029F0009801290F311DA901440F551F240F351FC0
:102A0000275F3C4F869590E04C81081719071CF40E
:102A1000442331F002C0411103C04091070301C0BB
:102A200040E060910603809105030E94E70F0F5F6D
:102A30001F4FD5CF0E94E9108C8190E001968170E4
:102A400099278C83DF91CF911F910F9108957F92E9
:102A50008F929F92AF92BF92CF92DF92EF92FF92AE
:102A60000F931F93CF93DF93FC018280748081E0EA
:102A70008483E3EBFCE09490E2E3FDE0E491A12C9D
:102A8000F5E0BF2ECC24CA94D12CE9190E2F10E00A
:102A900080910C01A81608F0A2C0EA2CF12C22E0CB
:102AA000281568F0BE9CF001BF9CF00D1124E15187
:102AB000FE4F80910503808380910603818371100E
:102AC0000AC0BE9CF001BF9CF00D1124E151FE4FE5
:102AD000138212826AC0BE9CE001BF9CD00D1124FB
:102AE000C151DE4F8B818823F9F081508B832FEF0A
:102AF000829FC00111246C8170E00E944C35FB0163
:102B0000FF27ED54F34F8491E82FE9192FEFE29F4F
:102B1000C0011124B8010E944C3580910703689FC1
:102B2000B00111247A8341C00E9419362091070315
:102B30002695215830E0A901440F551F322F222736
:102B4000240F351F232F33278217930774F582E054
:102B5000881588F40E941936B6010E946035888372
:102B60000E941936209106032695622F70E00E947C
:102B70006035280F2983BE9CF001BF9CF00D112405
:102B8000E151FE4F128280910703843120F0893C8D
:102B900018F088EC01C084E1BE9CF001BF9CF00DF0
:102BA0001124E151FE4F8483838380910A019701B0
:102BB000280F311DC901880F991F280F391F275F62
:102BC0003C4FBE9CF001BF9CF00D1124E151FE4F23
:102BD0004281618180810E94E70FA39459CFDF91E8
:102BE000CF911F910F91FF90EF90DF90CF90BF900A
:102BF000AF909F908F907F900C94E9108091340259
:102C0000089510923402089525E0E4E0F3E0DC0139
:102C100001900D922A95E1F7209132023091330212
:102C200040913402FC012583368347830895E2E313
:102C3000F2E01182828184608283089560910403AE
:102C4000669570E04BE050E08DE091E00E942936FF
:102C5000892B19F481E0809333020E94832D909395
:102C60002C0280932B028091340284608093340282
:102C70008091DF0280FF08C08FE999E09F938F93D6
:102C80000E9457090F900F9008951092330280917F
:102C900034028460809334028091DF0280FF08C098
:102CA00086E899E09F938F930E9457090F900F90A9
:102CB00008959091040390FF59C09170811102C052
:102CC000926006C08B3210F0946502C0880F982B7A
:102CD00090930403809134028160809334026623D0
:102CE000B1F0609104037091050380910603909107
:102CF00007030E940C108091DF0280FF1BC08091AF
:102D0000040386951F928F9389E29BE00BC080910C
:102D1000DF0280FF0FC08091040386951F928F937E
:102D20008BE09BE09F938F930E9457090F900F9029
:102D30000F900F9060910403669570E04BE050E0B7
:102D40008DE091E00E942936892B19F00E944516EA
:102D500002C00E941E1681E080932E02409107035C
:102D600060910603809105030C94F4120895682F76
:102D700090910403969581E0890F8B3208F081E0F1
:102D80000C94591681E00C94B716682F90910403A7
:102D900096958FEF890F09F48AE20C94591681E019
:102DA0000C94C51661E00C9459168091040381605F
:102DB000809304038091DF0280FF0DC01F9281E0A9
:102DC0008F938DE99AE09F938F930E9457090F90FC
:102DD0000F900F900F908091040386950C94D2165B
:102DE00060E00C94591680913102811165C0809188
:102DF000DF0280FF08C08CEC9BE09F938F930E94C2
:102E000057090F900F908091DF0280FF08C086EB7A
:102E10009BE09F938F930E9457090F900F900E9401
:102E2000672B811110C08091DF0280FF08C08EE8FF
:102E30009BE09F938F930E9457090F900F900E94E1
:102E4000152C0E941E100E940810609304037093BA
:102E500005038093060390930703809134028360F7
:102E6000809334026E7FC1F48091DF0280FF08C03E
:102E700085E49BE09F938F930E9457090F900F90DA
:102E80000E941E100E9408106093040370930503B3
:102E900080930603909307030E94F50F0E9435105C
:102EA0000E9417168091040380FF03C086950E943C
:102EB000F01681E0809331020895809104038E7FA3
:102EC00080930403609104037091050380910603CD
:102ED000909107030E940C108091DF0280FF0FC0C9
:102EE0008091040381701F928F9385E69AE09F93EF
:102EF0008F930E9457090F900F900F900F900E9490
:102F00004516809134028160809334022FEF80E770
:102F100092E0215080409040E1F700C000000C9406
:102F2000E9108091DF0280FF10C08091040380953A
:102F300081701F928F9384ED9AE09F938F930E94EC
:102F400057090F900F900F900F908091040380FD10
:102F50000C945D170C94D516809104038E7F80939A
:102F600004038091DF0280FF0CC01F921F928BE24E
:102F70009AE09F938F930E9457090F900F900F90A4
:102F80000F900E9445168091340281608093340234
:102F90002FEF80E792E0215080409040E1F700C0A1
:102FA00000000C94E9101F93CF93DF93EC01162FD0
:102FB0008F8180FF0FC0888180FF0AC08091040349
:102FC000816080930403888186950E94591602C00F
:102FD0000E94AC178F8181FF06C0212F4B816A812F
:102FE00089810E94A6118F8182FF08C08E8188236B
:102FF00019F00E941E1602C00E9445168F8183FFA1
:1030000003C081E080932E02DF91CF911F9108953C
:10301000EF92FF920F931F93CF93DF938091330230
:10302000882309F4CDC080913202E0910403E69533
:10303000E81BE0932D02823049F4F0E0E155F34FB4
:10304000E491CE2FD0E002E411E159C0863049F47A
:10305000F0E0E455F34FE491CE2FD0E006E511E126
:103060004EC0893051F4E695F0E0E755F34FE49116
:10307000CE2FD0E007EF12E142C08F3051F4E69539
:10308000F0E0EA55F34FE491CE2FD0E002E313E1F4
:1030900036C0853149F4F0E0ED55F34FE491CE2F81
:1030A000D0E00FEC13E12BC08831D9F0833239F432
:1030B000E1EAFCE0C591D49106E611E120C084323A
:1030C000A9F08532C1F48E2F63E00E943235E92FDA
:1030D000F0E0E256F34FE491CE2FD0E007E215E1A5
:1030E0000EC0C8E2D0E005E514E109C0C4EFD1E0AC
:1030F00008EE14E104C0C0EDD7E00EED1FE08091B2
:103100002E02882361F010922E020E94832D90934C
:103110002C0280932B021092300210922F020E94F8
:10312000832D20912B0230912C02AC01421B530BBA
:103130009A012F3F3F4708F043C02091EE01222320
:1031400011F11092EE012091EC013091ED01821B02
:10315000930B8F3F9F47B8F4205D3A483093ED01C1
:103160002093EC018091DF0280FF08C08DE599E09B
:103170009F938F930E9457090F900F908091340274
:10318000886080933402E0902F02F0903002E0914A
:103190002B02F0912C02CE0FDF1FD0932C02C09394
:1031A0002B028BE292E0F801099580912F02909119
:1031B0003002892B29F4EF2819F081E08093EE0189
:1031C000DF91CF911F910F91FF90EF900895882389
:1031D00011F0FA0101C0FB010994CF93DF93C82FCE
:1031E000D62F0E94B0108C1740F00E94B0108D179F
:1031F00020F4DF91CF910C94C2168C2FDF91CF91E8
:103200000C94D2161F93CF93DF93FB0112811111FF
:1032100063C0EC010E94B62A8272FE01E35CFC45A9
:10322000E431F10508F057C0EA5AFF4F0C94963587
:103230000E94911751C04FEC56E162EC76E104C058
:1032400042EC56E16FEC76E10E94E71845C042EB94
:1032500052E165EA72E1F8CF45EA52E162EB72E1D0
:10326000F3CF40ED52E161EC72E1EECF41EC52E17F
:1032700060ED72E1E9CF4EEE52E16FED72E1E4CF25
:103280004FED52E16EEE72E1DFCF43EE50E16CECB8
:1032900070E1DACF4CEC50E163EE70E1D5CF81E024
:1032A00017C065E082E010C068E086E00DC06EE007
:1032B00089E00AC064E18FE007C067E185E104C0EE
:1032C00088E106C062E289E10E94ED1805C083E250
:1032D0000E94D21601C011E0812FDF91CF911F9182
:1032E000089580912D038170089580912D03869516
:1032F0008695869508950E94672B811102C00E94D1
:10330000152C0E949D2B80932D03282F2695269502
:10331000269530E02630310524F08770886280934E
:103320002D0380912D0380FF04C086958695869598
:1033300001C080E00C94F61A20912D03822F86950F
:1033400086958695482F50E04530510554F48F5F9F
:10335000982F990F990F990F822F8770892B80933F
:103360002D0380912D03816080932D030E94A12B5A
:103370008091DF0280FF11C080912D038695869594
:1033800086951F928F938FE19EE09F938F930E946B
:1033900057090F900F900F900F9080912D038695F5
:1033A000869586950C94F61A80912D03982F969504
:1033B00096959695A1F0915E990F990F990F877048
:1033C000892B80932D03887F91E009F490E0809110
:1033D0002D0390FB80F980932D030E94A12B8091F7
:1033E000DF0280FF11C080912D038695869586951A
:1033F0001F928F9387E09EE09F938F930E945709BF
:103400000F900F900F900F9080912D0386958695C9
:1034100086950C94F61A80912D0380FD1FC0816063
:1034200080932D03813019F489E080932D038091DE
:103430002D030E94A12B8091DF0280FF08C08FED39
:103440009DE09F938F930E9457090F900F9080915A
:103450002D038695869586950C94F61A089580918D
:103460002D0380FF14C08E7F80932D030E94A12B1B
:103470008091DF0280FF08C08CEC9DE09F938F93CA
:103480000E9457090F900F9080E00C94F61A08954F
:10349000CF93C0912D03C1708091DF0280FF0CC0DB
:1034A0001F92CF9381EF9DE09F938F930E945709C6
:1034B0000F900F900F900F90CC2319F0CF910C9498
:1034C0002F1ACF910C940B1A90912D03892F86956A
:1034D000869586958F5F8F719770863038F4880F48
:1034E000880F880F892B80932D0302C090932D03A2
:1034F00080912D03887F91E009F490E080912D0365
:1035000090FB80F980932D030E94A12B8091DF0214
:1035100080FF11C080912D038695869586951F9218
:103520008F9388EB9DE09F938F930E9457090F9094
:103530000F900F900F9080912D038695869586951C
:103540000C94F61A863008F085E090912D03977060
:10355000282F220F220F220F922B90932D03987F5A
:1035600021E009F420E090912D0320FB90F9909345
:103570002D030C94F61A0E94A21A80912D030C942C
:10358000A12B9C01FB018281882349F12E3BFCE5A4
:103590003F07C9F040F42C3BECE53E0769F02D3BBA
:1035A0003C4561F00895203C9CE5390791F070F0AE
:1035B000213C3C4589F0089585E001C080E00E94EF
:1035C000BB1A80E008950E94D419FBCF0E949C1979
:1035D000F8CF0E94481AF5CF0E94641AF2CF81E01A
:1035E0000895259A2D9808952D980895CF92DF92E9
:1035F000EF92FF92CF93C82F863050F4811109C00B
:10360000809180008F77809380000E94F41A06C01A
:10361000C5E0809180008068809380002C2F30E08E
:10362000AFEFBFEF0E94A43525E030E040E050E06E
:103630000E947435B42FA32F922F8827492F5A2F19
:103640006B2F7727CA014C3724E1520728F469E031
:1036500070E00E944C3529C0DB01CA018A50974DA9
:10366000AF4FBF4F6627782F892F9A2F25EF38E26B
:1036700041E050E00E94743569017A01CA01B90144
:103680000E9422359B01AC01C701B6010E94223580
:10369000BB27A92F982F872F009721E0A207B105FC
:1036A00011F0BC0102C06FEF7FEF7093890060934F
:1036B0008800CF91FF90EF90DF90CF90089508950C
:1036C0000E94F11A82E88093800089E18093810052
:1036D0008FEF9FEF90938700809386000C947B1967
:1036E000539A2BB1277F3BB138604FB7F894FC0158
:1036F000CB01880F991F680F791F6E0F7F1FE61788
:10370000F70789F0819198E03BB9000000C087FF7E
:103710002BB9880F000000C000C000C02BB900C04A
:103720009A9591F7ECCF4FBF8FE594E00197F1F7B1
:1037300000C0000008950F931F93CF93DF93C42F11
:10374000D22FFC0182818823C9F0409337020E9466
:10375000F52C909336028093350280E28C0F8830EE
:1037600008F057C0C77081E001C0880FCA95EAF71A
:10377000DF91CF911F910F910C946A2280913702B3
:10378000481330C080913502909136020E940D2D71
:10379000883C910538F510E21D0FCD17B9F080E295
:1037A0008C0F883040F4C77081E001C0880FCA9543
:1037B000EAF70E947122183028F581E09D2F97705A
:1037C00001C0880F9A95EAF70E946A22802F0E9412
:1037D00061221830F0F4D77081E001C0880FDA95CB
:1037E000EAF70AC080E28C0F883098F4C77081E055
:1037F00001C0880FCA95EAF7DF91CF911F910F9111
:103800000C947122802FDF91CF911F910F910C9416
:103810006122DF91CF911F910F9108950F939C0129
:10382000CB01243F4CE5340731F188F4293DFCE518
:103830003F07D9F02A3D4CE5340779F1283D3C4556
:10384000A9F506E221EE41EE68ED7CE52BC0263FAE
:10385000FCE53F07E1F0A8F0273F3C4539F507E2DA
:1038600025EE46EE67EF7CE51DC007E225EE45EE4E
:1038700069ED7CE517C006E221EE40EE64EF7CE5E1
:1038800011C007E225EE44EE65EF7CE50BC006E2D1
:1038900021EE42EE66EF7CE505C008E221E045EE50
:1038A0006AED7CE50E949B1B80E008C0FC018281E0
:1038B000882319F01092370201C081E00F9108951A
:1038C000CF93DF93EC01FB018281882309F41FC1B0
:1038D000C230FCE5DF0708F41BC1C6319CE5D907FF
:1038E00038F09E012B5F3C452930310508F010C1AE
:1038F0000E947F2B9093370380933603C031ECE511
:10390000DE0709F4C3C008F041C0C8308CE5D80711
:1039100009F49AC0F0F4C430ECE5DE0709F487C07E
:1039200068F4C2308CE5D80709F477C0C330DC45B1
:1039300009F0E3C080913603826076C0C630ECE5C2
:10394000DE0709F46EC008F07BC080913603886002
:103950006BC0CC308CE5D80709F485C068F4CA3058
:10396000ECE5DE0709F474C008F079C00E94E82491
:1039700080913603806858C0CE308CE5D80709F4B2
:1039800076C008F07FC0809136038BC0CC3FECE559
:10399000DE0709F44FC018F5C3318CE5D80709F4E8
:1039A0007DC078F4C131ECE5DE0709F473C0C231A3
:1039B000DC4509F0A2C00E94E824809136038F778D
:1039C00033C0C5318CE5D80709F472C008F486C04D
:1039D000CB3FDC4509F091C0809137033EC0C11553
:1039E000FDE5DF0709F45FC058F4CE3F9CE5D90739
:1039F00009F444C008F43FC08091370382602DC0B1
:103A0000C230FDE5DF0709F475C008F45DC0C330BE
:103A1000DD4509F072C080E06EC0809136038160A0
:103A200003C08091360380618093360366C0809125
:103A3000360311C0809137038260809337035DC0E5
:103A4000809136038062F0CF809136038064ECCFA2
:103A50008091360388608460E7CF8160EECF8091EB
:103A600036038E7FE1CF809136038D7FDDCF80914D
:103A70003603877FD9CF8091370318C080913703F1
:103A80008D7FDBCF809136038F7ECECF8091360342
:103A90008F7DCACF809136038F7BC6CF809136034E
:103AA000877F8B7FC1CF809137038D7F8E7FC5CF7E
:103AB0008091360382FB222720F991E0922790FB28
:103AC00082F990FB83F9B0CF80913703982F9095BE
:103AD00091708E7F892B90FB81F9AFCF0E94E824F3
:103AE0008091360387FB222720F991E0922790FBF3
:103AF00087F99ACF81E00E94172C8091360390912C
:103B000037030E94902B0E94E82480E001C081E0EE
:103B1000DF91CF910895CF93DF9386319C4541F596
:103B2000EB010E94B62A982F8A81209128013091BA
:103B30002901882379F09A7A81E009F480E0809362
:103B40003802911102C069E201C065E3C9010E9417
:103B50005E2C0AC080913802811102C069E201C066
:103B600065E3C9010E94602C0E94042B80E001C023
:103B700081E0DF91CF91089562E070E088E191E00B
:103B80000C949E1E62E070E088E191E00C94A71E08
:103B90000E94FE15882361F085E492E00E940416DD
:103BA00081E090E00E94801F892B11F40C94011693
:103BB000089580914402883039F460E085E492E011
:103BC0000E94D317109244020895CF93DF93D62F0B
:103BD000C72F0E94C81D80E090E00E94801F892BA3
:103BE00041F5ED2FFC2F80E090E0DC01A15CBD4FA2
:103BF0002C912193019685309105B9F70E94711996
:103C0000882319F00E94751901C080E080933E025C
:103C10000E94682DDC01CB010296A11DB11D80938D
:103C20003A0290933B02A0933C02B0933D0281E0A4
:103C300001C080E0DF91CF910895CF93DF93D62F1D
:103C4000C72F0E94D91D60913A0270913B0280916A
:103C50003C0290913D020E944B2DED2FFC2F80E005
:103C600090E02191DC01A15CBD4F2C930196853041
:103C70009105B9F780913E02DF91CF910C94F61A2D
:103C80008EE1489B02C08150E1F7489BFECF08952A
:103C9000589880E28A95F1F7589A0895FC012AE035
:103CA0002A95F1F790E020E080E031E0261779F0E6
:103CB00040E14A95F1F7880F489B02C08160932745
:103CC00000C0000040E14A95F1F72F5FEFCF20E1FF
:103CD0002A95F1F729B100C0000030E13A95F1F7DB
:103CE000217092272081920F90830895EF92FF9286
:103CF0000F931F93CF93DF931F92CDB7DEB7198237
:103D00008C017C01E60EF11C0E151F0559F00E9476
:103D1000401E68E0CE0101960E944E1EF80181937C
:103D20008F01F2CF81E09981911180E00F90DF91B6
:103D3000CF911F910F91FF90EF90089590934F02B4
:103D400080934E0260934D02509A589A0895909332
:103D50004F0280934E0260934D025098589AE89A11
:103D6000E9E6F0E080818C7F80830895615091E0E6
:103D700001C0990F6A95EAF720E031E0992361F0DC
:103D8000492F482319F0589A232701C0589840E238
:103D90004A95F1F79695F2CF222311F0589A01C077
:103DA000589880E28A95F1F758980895FF920F93FA
:103DB0001F93CF93DF93EC018C01060F111DC017E9
:103DC000D10741F0F9900E94481E68E08F2D0E94B3
:103DD000B61EF5CFDF91CF911F910F91FF900895FF
:103DE0001F920F920FB60F9211240F931F932F93D0
:103DF0003F934F935F936F937F938F939F93AF9373
:103E0000BF93EF93FF93CF93DF931F92CDB7DEB7AE
:103E100019820E94401E67E0CE0101960E944E1E4C
:103E2000382F369536953695932F96959570232F86
:103E30002570920F292F2370969596958770920F73
:103E4000891348C08981811145C080914D02831733
:103E500008F440C080E18A95F1F7589A509AA2E0A0
:103E6000AA95F1F700C000914E0210914F02B8E000
:103E70003B9F000D111D11245898F80165816623A0
:103E800021F0868197810E94D61E0E94481EF0E193
:103E9000FA95F1F758985098589A80E18A95F1F779
:103EA000D80112966C911297662369F013968D9142
:103EB0009C9114970E94761ED801ED91FC9181117E
:103EC00005C082E004C0D801ED91FC9188E08083B8
:103ED0000E94401E0F90DF91CF91FF91EF91BF9113
:103EE000AF919F918F917F916F915F914F913F9192
:103EF0002F911F910F910F900FBE0F901F9018954B
:103F00000F931F93CF93DF9320914D0230E028173A
:103F100039070CF471C09C0193E0220F331F9A956E
:103F2000E1F7C0914E02D0914F02C20FD31FF89417
:103F3000509A589845E04A95F1F70000982F9695C9
:103F400095708570890F982F937086958695890F47
:103F50008901082B0E94481E84E08A95F1F700C071
:103F600067E0802F0E94B61E40E14A95F1F7509815
:103F7000589A489902C000C0FCCF87E090E0489B67
:103F80000EC0019751F4509A589AE881F98181E066
:103F90008083789481E090E031C000C0F0CF6D81E3
:103FA000662381F08E819F810E94761E81110AC056
:103FB000509A589AE881F98182E08083789482E06F
:103FC00090E01CC00E94401E80E28A95F1F758984C
:103FD000509A40E14A95F1F76A81662321F08B817E
:103FE0009C810E94D61E0E94481EE881F9811082A1
:103FF000789480E090E002C084E090E0DF91CF917F
:104000001F910F9108959093550280935402089543
:10401000E0915402F0915502309721F00190F08127
:10402000E02D099480E00895EF92FF920F931F9383
:10403000CF93DF93E0915402F09155023097B1F1A4
:104040008C010280F381E02D09958091DF0282FFCF
:104050002DC080FF04C08FE39FE00E94BE08E801EE
:1040600018E089E3E82E8FE0F82E8091DF0280FFD0
:104070000BC088811F928F93FF92EF920E94570985
:104080000F900F900F900F90115021961111EDCFBE
:104090008091DF0280FF0AC087E39FE0DF91CF912C
:1040A0001F910F91FF90EF900C94BE08DF91CF917C
:1040B0001F910F91FF90EF9008952091520230913F
:1040C00053022817390771F09093530280935202DC
:1040D000E0915402F0915502309721F00680F7816B
:1040E000E02D099408952091500230915102281733
:1040F000390771F09093510280935002E09154027D
:10410000F0915502309721F00084F185E02D09945B
:1041100008950E94012D609365027093660280935A
:1041200067029093680260936102709362028093C9
:10413000630290936402089585B7806885BF85B750
:10414000806885BF08950C94100F08950C94A520E5
:104150000C94A5200C94A8200C94A5200C94AC20C1
:104160000C94A5200E949C2081E69FE20E949D2D38
:104170000E94B0200C94AE200E94EC2C0E94422D94
:104180000E94A10D0E94A22D0E947B190E94F3168D
:104190000C94AA20CF93C82F8091DF0282FF1EC00B
:1041A00080FF04C088E59FE00E94BE088091DF0286
:1041B00080FF0CC01F92CF9383E59FE09F938F9366
:1041C0000E9457090F900F900F900F908091DF027F
:1041D00080FF04C081E59FE00E94BE088C2FCF9134
:1041E0000C941B0B9F92AF92BF92CF92DF92EF92F3
:1041F000FF920F931F93CF93DF93CDB7DEB72A972C
:104200000FB6F894DEBF0FBECDBF0E94A6200E945D
:10421000A5200E944E0E81110E94892087E5A82EBC
:1042200082E0B82E00E010E0902E802F0E942C0D2E
:10423000D82EF501C1905F01C826B1F40F5F1F4F62
:104240000A30110589F78FEF89838A831B820E94C8
:10425000F52C8160782F9D838C8349815A816B81F5
:104260008D810E9496212FC08091DF0281FD0E94E6
:10427000320DE12CFF24F3948C2D8F21F1F00E945C
:10428000A320882399F0EE829F82DF2081E009F449
:1042900080E088870E94F52C8160782F9A87898733
:1042A0004E815F8168858A850E949621F801E95ACE
:1042B000FD4F8081F826F08206C0E394FF0CF6E003
:1042C000EF12DACFBBCF0E9408180E945F1B0E943A
:1042D0000820909156028917B9F00E940820809317
:1042E00056022A960FB6F894DEBF0FBECDBFDF91FF
:1042F000CF911F910F91FF90EF90DF90CF90BF90E3
:10430000AF909F900C94CA202A960FB6F894DEBF07
:104310000FBECDBFDF91CF911F910F91FF90EF9016
:10432000DF90CF90BF90AF909F900895DF92EF9273
:10433000FF920F931F93CF93DF93CDB7DEB72B97E9
:104340000FB6F894DEBF0FBECDBFF42E052F162F8B
:10435000E72ED82E61110E94D62AFE01319686E002
:10436000DF011D928A95E9F77E2D4F2D502F612F89
:104370008D2D9E810E94A1272B960FB6F894DEBF4B
:104380000FBECDBFDF91CF911F910F91FF90EF90A6
:10439000DF900895FC01808191810E94772A089521
:1043A000CF93882309F448C0C82F8CEF8C0F813A33
:1043B000D0F46C2F80912801909129010E94282C23
:1043C000882349F06C2F80912801909129010E9447
:1043D000602C0E94042B6C2F809128019091290160
:1043E0000E945E2C0CC080E28C0F883058F4C7709D
:1043F00081E001C0880FCA95EAF70E94B92ACF91DF
:104400000C94042BEBE5EC0FE33040F4F0E0E153C7
:10441000FE4F808190E0CF910C945D20C85AC73147
:1044200058F4EC2FF0E0EE0FFF1FEF55FE4F8081A8
:104430009181CF910C947320CF910895882349F1F5
:10444000682F8CEF860F813A38F480912801909183
:1044500029010E94602C0CC080E2860F883050F445
:10446000677081E001C0880F6A95EAF70E94BF2A51
:104470000C94042B8BE5860F833020F480E090E0D1
:104480000C945D20685A673120F480E090E00C9431
:10449000732008951F93CF93DF93182FEB010E9491
:1044A000D021209741F08FE99FE00197F1F700C0FC
:1044B00000002197F6CF812FDF91CF911F910C94AF
:1044C0001E22893319F060E070E002C060E570E000
:1044D0000C944A22882321F00E94B92A0C94042BC0
:1044E0000895882321F00E94BF2A0C94042B08957C
:1044F000CF92DF92EF92FF920F931F93CF93DF93B0
:104500007C01062FC72FFC01D281158112951F70E7
:104510000E94AF2A882399F0DD2389F08C2F807FB9
:10452000803421F080E2800F883048F082E00E94E1
:104530004E2B0E94AF2A91E0D82ED92601C0D12C53
:10454000CC2EC2948FE0C8228C2D90E0FC01E6595D
:10455000FF4F0C9496358C2F807FCF70882311F0FD
:10456000C295C07FDD2399F0CC2309F482C180E29B
:10457000800F883010F0011104C08C2F0E94B92ADE
:1045800003C08C2F0E94C92A0E94042B72C1802F65
:104590000E941E22CC2309F491C180E2800F883052
:1045A00010F0011104C08C2F0E94BF2A03C08C2F71
:1045B0000E94CF2A0E94042B81C18C2F807FCF7054
:1045C000803211F0C295C07F002319F00130C9F08C
:1045D00022C0DD2371F0112341F0113031F40E942B
:1045E000E92A8C2B0E94F12A69C10E94E92A8C2BAE
:1045F0001DC0112319F0113009F460C10E94FA2A7C
:1046000025C0DD2321F0163008F058C10EC015304A
:1046100008F054C11BC0DD2361F0112331F0F70114
:10462000858180FF26C18F7085838C2F0E946A222E
:1046300045C1112359F0093309F02CC1FFEF27EED2
:1046400083E0F15020408040E1F722C18C2F0E948E
:10465000712234C18C2F86958695837019F0813034
:1046600061F02CC1DD2321F0802F9C2F937002C0BC
:1046700080E090E00E945D2029C1DD2321F0802FA1
:104680009C2F937002C080E090E00E9473201EC1B6
:104690008C2F837009F045C0D11114C1402F429571
:1046A00046954770440F440F602F6F70862F90E03F
:1046B000A0E0B0E0042E04C0880F991FAA1FBB1F02
:1046C0000A94D2F704FF10C00FE010E020E030E0C1
:1046D00004C0000F111F221F331F4A95D2F7009507
:1046E00010952095309503C000E010E09801C69524
:1046F000C695C370BC01CD01602B712B822B932B0F
:10470000C23049F058F4C13019F00E94F228DAC0E2
:104710000E94E028D7C00E940429D4C00E94DE284D
:10472000D1C0DD2319F08C2F817001C086958823BC
:1047300009F4C8C0402F429546954770440F440F76
:10474000602F6F70862F90E0A0E0B0E0042E04C0D0
:10475000880F991FAA1FBB1F0A94D2F704FF10C02D
:104760000FE010E020E030E004C0000F111F221F16
:10477000331F4A95D2F7009510952095309503C0C8
:1047800000E010E09801C695C695C370BC01CD014C
:10479000602B712B822B932BC23049F058F4C1301F
:1047A00019F00E94B7298EC00E94A5298BC00E94D3
:1047B000C92988C00E94182985C0CF70DD2339F02F
:1047C0008C2F0E943E29802F0E946A227BC0802F5E
:1047D0000E9471228C2F0E945F2974C0023F01F158
:1047E00028F4003F41F0013FA1F03FC0033FF9F042
:1047F000043F39F13AC0DD2341F0153008F05EC0C6
:104800008C2F8F710E94842959C0163008F056C031
:10481000F7CFDD2339F08C2F8F710E943E294EC0D7
:10482000DD23C9F38C2F8F710E945F2947C0DD23E0
:1048300029F08C2F8F710E94292940C00E942429C1
:104840003DC0DD2349F0CF718C2F0E943E2963E0EB
:104850008C2F0E94392B32C081E00E944E2B1230E7
:1048600068F182E00E944E2B29C0DD2331F0112334
:1048700091F2802F0E94D02121C0112399F2093397
:1048800049F49FEFE7EEF3E09150E040F040E1F7AC
:1048900000C00000802F0E941E2210C04C2F4F70BD
:1048A000602FC7010E94240B0E944F280FC04C2F7D
:1048B0004F70602FC7010E94270B08C088EF8C0D36
:1048C000843020F40E9408200E941B0BDD20C9F0D8
:1048D0000E94AB2A80FD15C0F70112820E94A52A12
:1048E0000E943E29C7010E94A2240E94A52ADF91AE
:1048F000CF911F910F91FF90EF90DF90CF900C948C
:104900005F29DF91CF911F910F91FF90EF90DF9082
:10491000CF9008950F931F93CF93DF93EC0168819D
:1049200079818A810E94822A8C010E94DB290E945F
:10493000CC28B801CE010E947822DF91CF911F913F
:104940000F910895CF93DF93EC01988189812B819A
:104950003C81232B31F08F3F31F481E09F3F19F4EC
:1049600003C081E001C080E080FD19C0CE010E943B
:104970009C0A81110CC00E94AF2A882381F08A8191
:10498000882369F082E0DF91CF910C944E2BCE0109
:104990000E948A24CE01DF91CF910C940F0ADF91FF
:1049A000CF91089580E090E00E945D2080E090E04B
:1049B0000E9473200E94D62A0E94E62A0C94042B9F
:1049C00080912801909129010E94622C0C94D2249C
:1049D0000E94C62A0C94E024E92FE295EF704E2F36
:1049E00050E0FA013297EE30F105B0F4E658FF4F8F
:1049F0000C949635803F91F018F4883E68F40EC010
:104A0000843F51F40BC0883E48F0813F29F406C032
:104A100093FB882780F9089580E0089581E0089548
:104A20000E94772A0E94EC240895CF93DF9300D050
:104A300000D01F92CDB7DEB70F900F900F900F9060
:104A40000F90DF91CF910895CF93DF9300D000D0E6
:104A500000D0CDB7DEB726960FB6F894DEBF0FBEF6
:104A6000CDBFDF91CF9108951F93CF93DF93C09176
:104A70006A0216E080916B02C81799F0D0E01C9F83
:104A8000F0011D9FF00D1124E459FD4F408151812B
:104A900062817381848195810E9424252196C7704B
:104AA000E9CFDF91CF911F91089540919C025091E1
:104AB0009D0260919E0270919F028091A002909150
:104AC000A1020C9424250F931F93CF93DF93809121
:104AD000A10282958F7009F05DC080919E028823AB
:104AE00009F458C080916A0210916B0260919C0297
:104AF00070919D02C0919F02D091A00291E06F3F02
:104B000009F090E0292F06E0811709F443C02097AF
:104B100021F07F3F21F030E003C031E001C0322FAF
:104B200090E030FD34C0089FF001099FF00D112482
:104B3000DF01A459BD4F11963C911197371327C03F
:104B40003C91361324C012963C91129731111FC02C
:104B500013964D915C9114974C1B5D0B483C51058D
:104B6000B0F48091A1028F7080618093A102EF5810
:104B7000FD4F80818F70806180838CE992E00E947C
:104B8000A224DF91CF911F910F910C9434250196AF
:104B90008770BACFDF91CF911F910F9108959F92A7
:104BA000AF92BF92CF92DF92EF92FF920F931F933B
:104BB000CF93DF93CDB7DEB761970FB6F894DEBF22
:104BC0000FBECDBF8C0185E0F801DE011D9601907E
:104BD0000D928A95E1F7F80140815181E280909130
:104BE0009C0260919D0220919F023091A0022115AC
:104BF000310531F06F3F31F481E09F3F19F403C07C
:104C000081E001C080E0F82FF1709F2E80FD46C149
:104C1000F801A380B4808CE9C82E82E0D82EF090F1
:104C20009E02F501E21BF30BFF2009F4DFC0809127
:104C3000A102E83CF10508F09BC0282F207F09F075
:104C400052C0561313C0491311C0FE2CE1100EC000
:104C50008F7080618093A1020E945525C6010E9439
:104C6000A2248091A102F801858358C1AB2831F0BC
:104C70005F3F31F481E04F3F19F403C081E001C090
:104C800080E080FD03C081E08E2502C080E090E0DE
:104C9000F82FF170FF2E80FF1CC080916A022091D6
:104CA0006B0236E0821709F417C190E0389FF001DB
:104CB000399FF00D1124E459FD4F6181561306C050
:104CC0006081461303C06281E61203C001968770BB
:104CD000E9CFFE2CEE2009F421C18091A102816070
:104CE0008093A1025AC0561306C0491304C0E110B4
:104CF00002C0F8019FC04D875E878D859E850E940A
:104D00001025882379F1EE2069F12091A102822FEC
:104D100082958F7090E0029774F080919C02909140
:104D20009D0298878F831986BB86AA862C87CE0121
:104D300007960E94A22486E0F801ACE9B2E0019057
:104D40000D928A95E1F70E9463250E9455250DC0BA
:104D5000561729F14D875E878D859E850E94102507
:104D600081112CC0C8010E94A224FF24F394D6C054
:104D7000282F207F69F77A2DB98AA88A6E2D898914
:104D80000E9415258CE992E00E94A22486E0F6019B
:104D900011928A95E9F70E945525F12CBFC049135D
:104DA000D9CFE110D7CFF8018583C8010E94A22492
:104DB00086E0F60111928A95E9F7B0C0EE2091F2F3
:104DC0002091A102822F82958F7090E002970CF4BF
:104DD000B2CF80919C0290919D029A8389831B821D
:104DE000BD82AC822E83CE010196A3CFE83CF105B3
:104DF00008F047C0FE2CEE2009F4B4CF561330C0A3
:104E000049132EC02091A10220FD21C0822F82953E
:104E10008F70482F50E041155105C9F0F8012583E6
:104E20004F30510541F08F5F982F9295907F822FE0
:104E30008F70892B8583C8010E94A22486E0F80127
:104E4000ACE9B2E001900D928A95E1F742C086E0AC
:104E5000F801ACE9B2E001900D928A95E1F75EC0ED
:104E60004D875E878D859E850E941025811163CFB9
:104E70008091A10281608093A102C8010E94A224B6
:104E80004DC07A2DB98AA88A6E2D89890E94152570
:104E900086E0F60111928A95E9F71BC0EE2009F42D
:104EA00061CF4D875E878D859E850E941025F82EE7
:104EB000882309F457CF86E0F801ACE9B2E001900D
:104EC0000D928A95E1F78CE992E00E94CA210E9436
:104ED00063250E94552522C04D875E878D859E855E
:104EE0000E94772A292F22952F70223028F49F7054
:104EF00039F0811105C00BC0243028F49F7049F4AB
:104F0000805E883020F0C8010E94A2249F2CF92CDA
:104F100005C0F8019581907F99F7F9CF8F2D6196A3
:104F20000FB6F894DEBF0FBECDBFDF91CF911F91BA
:104F30000F91FF90EF90DF90CF90BF90AF909F9038
:104F400008951F93CF93DF93CDB7DEB72C970FB69D
:104F5000F894DEBF0FBECDBF4F83588769877A872D
:104F60008B879C87CE0107960E94CF258823D1F09E
:104F70009F8188852A853B85232B31F08F3F31F433
:104F800081E09F3F19F403C081E001C080E080FD13
:104F900047C04F81588569857A858B859C850E949D
:104FA00024253EC086E0FE013796DE011196019071
:104FB0000D928A95E1F7FF81E8856A857B85611509
:104FC000710531F0EF3F31F481E0FF3F19F403C088
:104FD00081E001C080E080FD23C020916B0230E0C1
:104FE000C90101968770992740916A0250E08417A1
:104FF0009507F1F1F983EA837D836C8396E0929FB4
:10500000D001939FB00D1124A459BD4FFE013196DC
:1050100001900D929A95E1F780936B020E943425DE
:1050200016E080916A0290916B02891771F1189FC6
:10503000C001112484599D4F0E94CF25882329F156
:10504000E0916A021E9FF0011124E459FD4F408156
:10505000518162817381848195810E942425809190
:105060006A0290E001968770992780936A02D9CFEF
:105070000E94E82410926B0210926A02ECE9F2E0BE
:1050800086E0DF011D928A95E9F72C960FB6F89419
:10509000DEBF0FBECDBFDF91CF911F910895EF927C
:1050A000FF920F931F93CF93DF938C01892B09F409
:1050B0006CC0F12CEE24E394E8012196F801849170
:1050C000843740F4843008F051C0813081F0823060
:1050D00019F15BC0853709F444C0A8F19CE7980F2B
:1050E000903708F052C08F770E941E2241C00E5F99
:1050F0001F4FFE01849190E2980F983050F4877012
:10510000FE2D01C0FF0F8A95EAF78F2F0E94D92A42
:1051100014C00E94D0212DC00E5F1F4FFE0184914C
:1051200090E2980F983060F48770FE2D01C0FF0F59
:105130008A95EAF78F2F0E94DF2A0E94042B19C05C
:105140000E941E2216C00E5F1F4FFE01C491CC2389
:1051500081F08FE99FE00197F1F700C00000C15096
:10516000F6CF0E5F1F4FFE01F49003C00E94D021C6
:105170008E018F2D882309F49FCFEFE9FFE031974F
:10518000F1F700C000008150F5CFDF91CF911F9162
:105190000F91FF90EF900895089508950C94CD28F5
:1051A0000C94CE280E94D0286093CE027093CF0238
:1051B0008093D0029093D1020C94D2240C94D228E4
:1051C0000F931F930091CE021091CF022091D00235
:1051D0003091D102602B712B822B932B1F910F9159
:1051E0000C94D2280F931F930091CE021091CF02FE
:1051F0002091D0023091D102602371238223932326
:105200001F910F910C94D2280F931F930091CE02FF
:105210001091CF022091D0023091D10260277127E6
:10522000822793271F910F910C94D2280C94CD289C
:105230000E9416296093CA027093CB028093CC021D
:105240009093CD020C94D22460E070E0CB010C94DA
:1052500018290F931F9341E050E060E070E08A014D
:105260009B0104C0000F111F221F331F8A95D2F724
:10527000C901B8011F910F910C9418290F931F9326
:1052800041E050E060E070E004C0440F551F661F2D
:10529000771F8A95D2F78091CA029091CB02A09194
:1052A000CC02B091CD028A019B01082B192B2A2B2D
:1052B0003B2BC901B8011F910F910C9418290F9332
:1052C0001F9341E050E060E070E004C0440F551FC0
:1052D000661F771F8A95D2F7409550956095709517
:1052E0008091CA029091CB02A091CC02B091CD02E4
:1052F0008A019B01082319232A233B23C901B801F2
:105300001F910F910C9418290F931F9341E050E0C7
:1053100060E070E004C0440F551F661F771F8A9538
:10532000D2F78091CA029091CB02A091CC02B091A9
:10533000CD028A019B01082719272A273B27C9018B
:10534000B8011F910F910C9418290F931F9300918E
:10535000CA021091CB022091CC023091CD02602B79
:10536000712B822B932B1F910F910C9418290F9363
:105370001F930091CA021091CB022091CC02309170
:10538000CD0260237123822393231F910F910C94EC
:1053900018290F931F930091CA021091CB022091FC
:1053A000CC023091CD0260277127822793271F916D
:1053B0000F910C9418290895292F220F920F990FFD
:1053C000890FE82FE695E695E695877051E001C0D4
:1053D000550F8A95EAF785E0E89FF0011124EE5514
:1053E000FD4F20E030E070E04081CB01022E02C092
:1053F000969587950A94E2F7817081958427852395
:10540000842781932F5F3F4F2530310569F7089539
:10541000292F220F920F990F890F682F6695669595
:105420006695982F977085E0689FB001112440E041
:1054300050E080E0FB01E40FF51FEE55FD4F2081A9
:1054400030E0092E02C0369527950A94E2F72170C4
:105450003327042E01C0220F0A94EAF7822B4F5FF4
:105460005F4F4530510531F70895BF92CF92DF92DB
:10547000EF92FF920F931F93CF93DF938C01C09015
:10548000CA02D090CB02E090CC02F090CD02809185
:10549000CE029091CF02A091D002B091D102C82A41
:1054A000D92AEA2AFB2ACFE1D0E0D701C6010C2E87
:1054B00004C0B695A795979587950A94D2F780FD75
:1054C00004C0219790F7B12C07C0BC2EB8018C2FD7
:1054D0000E94430B0197A9F38B2DDF91CF911F9170
:1054E0000F91FF90EF90DF90CF90BF900895CF93F2
:1054F000DF93EC010E94352ABE010E94430BDF912D
:10550000CF9108951F93CF93DF93EB0190916902A0
:10551000992321F0CB010E94772A13C0882349F0F8
:10552000CB010E94352A182F682FCE010E94DC295A
:1055300004C0CB010E94082A182FBE01812F0E94AF
:10554000430BDF91CF911F9108958091D2028595F1
:105550008595859508958091D202877008959091E0
:10556000D202977081E009F480E008958091DE0214
:1055700008959091DE02892B8093DE020895809534
:105580009091DE0289238093DE0208951092DE025C
:1055900008959091DD02892B8093DD020895809516
:1055A0009091DD0289238093DD0208951092DD023F
:1055B00008959091DC02892B8093DC0208958095F8
:1055C0009091DC0289238093DC0208951092DC0222
:1055D00008958091D302089508950C94EC2A0C94B8
:1055E000ED2A9091D302981721F08093D3020C9466
:1055F000EF2A08958091D302882329F01092D302D4
:1056000080E00C94EF2A0895E0912801F09129019F
:105610008091DE028083E0912801F0912901908140
:105620008091DD02892B8083E0912801F09129018E
:1056300090818091DC02892B80838091D302882322
:1056400081F0E0912801F09129019081892B8083DC
:1056500080912801909129010E941C2C81110E94A7
:10566000FA2A80912801909129010C9414200C941D
:10567000EC2A98E0899F90011124262B2093D202D6
:105680000E943E298091D2028595859585950C943E
:10569000372B1092D20280E00C94372B2091D2024B
:1056A000809582238093D202982F977079F430E00E
:1056B000482F082E000C550B2417350739F0859517
:1056C000859585950E945F290C94492B089580E06B
:1056D00090E00E94443621E08B3E9E4F09F020E08E
:1056E000822F089582E090E00C94363683E090E0BB
:1056F0000C943636682F83E090E00C944A36CF93B2
:1057000084E090E00E943636C82F81E290E00E944B
:1057100036362C2F30E0A901582BCA01CF910895BD
:10572000CF93C92F682F84E090E00E944A366C2FF7
:1057300081E290E0CF910C944A3686E090E00C94A0
:105740003636682F86E090E00C944A36AB01BC01F7
:105750008FE090E00C945C36AB01BC0183E190E0FB
:105760000C945C3660E070E0CB010C94AC2B6BEEDB
:105770007EEF80E090E00E94683660E082E090E09A
:105780000E944A3660E083E090E00E944A36109220
:10579000CE021092CF021092D0021092D10260E09D
:1057A00084E090E00E944A3660E081E290E00E944E
:1057B0004A3660E085E090E00E944A3660E086E08C
:1057C00090E00E944A366FEF87E090E00E944A36F0
:1057D00040E050E0BA0188E090E00E945C3660E072
:1057E0008DE090E00E944A3640E050E0BA0188E146
:1057F00090E00E945C3660E087E190E00E944A36CB
:1058000040E050E0BA018CE190E00E945C3660E03C
:1058100080E290E00E944A3640E050E0BA0188E120
:1058200090E00E945C360C9460090C94B72B682FB2
:105830008EE090E00C944A36FC01329697E080E0CE
:10584000915029F021912223D9F38F5FF9CF089548
:10585000662349F0FC01329608962191621729F0DF
:10586000E817F907D1F780E0089581E008959C01D9
:10587000FC0132969FEF80E04191461789F09F3FEF
:1058800019F4411101C0982F8F5F8630A9F79F3F0F
:1058900039F0F901E90FF11D97FDFA95628308953A
:1058A00008959C012A5F3F4FFC014281461301C0CD
:1058B0001282019682179307B9F708950C94372C3A
:1058C0000C94512C029626E0FC0111922A95E9F7DE
:1058D000089508950C94692C0C94692CCF930E9420
:1058E0006C2C0E944E0E0E946A2CC0E08C2F0E94ED
:1058F0002C0D811104C0CF5FCA30C1F701C081E017
:10590000CF9108950C94692C0C94822C80913C03C7
:10591000843061F10E94842C80E00E94F61A80E0BD
:105920000E941B0B1092E00220E488E190E00FB689
:10593000F894A895809360000FBE2093600083B711
:10594000817F846083BF83B7816083BF78948895AB
:1059500083B78E7F83BF0FB6F894A89580916000BF
:10596000886180936000109260000FBE08950C94CF
:10597000692C0E94E8240E947B190E9408200E9442
:105980001B0B0C94B72C1F920F920FB60F92112481
:105990008F939F93AF93BF938091E002811113C0C7
:1059A00080912E0390912F03A0913003B091310389
:1059B0004196A11DB11D80932E0390932F03A093B8
:1059C0003003B0933103BF91AF919F918F910F90AE
:1059D0000FBE0F901F90189582E084BD93E095BD97
:1059E0009AEF97BD80936E0008952FB7F894809139
:1059F0002E0390912F03A0913003B09131032FBF5C
:105A000008952FB7F89460912E0370912F03809121
:105A10003003909131032FBF08959C014FB7F89444
:105A200080912E0390912F03A0913003B091310308
:105A30004FBF821B930B089578941F920F920FB65D
:105A40000F9211248F939F93AF93BF9380912E0356
:105A500090912F03A0913003B09131030196A11DC5
:105A6000B11D80932E0390932F03A0933003B09326
:105A70003103BF91AF919F918F910F900FBE0F9007
:105A80001F90189510923203109233031092340332
:105A9000109235030895CF92DF92EF92FF926B013F
:105AA0007C010E94100F81110EC00E94012DC61AA8
:105AB000D70AE80AF90AC0923203D0923303E0927F
:105AC0003403F0923503FF90EF90DF90CF9008956C
:105AD0000F931F930E94100F882321F01F910F91A5
:105AE0000C94012D0E94012D00913203109133037B
:105AF0002091340330913503600F711F821F931F73
:105B00001F910F9108950E94100F81110C94F52C94
:105B10000E94682DCB01089587E797E790930108CD
:105B2000809300089AE088E10FB6F894A8958093D6
:105B300060000FBE90936000FFCF9093E3018093CD
:105B4000E20108950E94672B811102C00E94152C6A
:105B50000E94722B8093DF020E947F2B9093370369
:105B6000809336030E94762B682F70E080E090E0EF
:105B70000E94DE286091CA027091CB028091CC0213
:105B80009091CD020C9416298091EC02089508950D
:105B9000CF93DF9300D01F92CDB7DEB790913C0337
:105BA000943019F589837B836A8382E08093E900CE
:105BB0008FEF9091E800815095FD06C095ED9A9584
:105BC000F1F700008111F5CF8091E80085FF0DC04D
:105BD00040E050E063E070E0CE0101960E94853025
:105BE0008091E8008E778093E8000F900F900F90DF
:105BF000DF91CF910895BC0184E00C94C82DBC01C5
:105C000083E00C94C82DCF93DF9321E02093E9002B
:105C10002FEF3091E800215035FD06C035ED3A9563
:105C2000F1F700002111F5CF2091E80025FF14C005
:105C3000EC0140E050E068E070E00E948530809127
:105C4000E8008E778093E80088E0FE01A4EEB2E0E1
:105C500001900D928A95E1F7DF91CF91089580E947
:105C60009FE00E94BE0880913B03811109C00E9401
:105C700016320E9473328091E20084608093E200C9
:105C800008958CE89FE00E94BE0810923B0308959F
:105C900088E89FE00C94BE0884E89FE00C94BE085E
:105CA00080E89FE00C94BE082091E2022F5F822FD3
:105CB00062E30E943235992319F02093E20208959D
:105CC0001092E2028091E302882371F180913C03FB
:105CD000843041F58091E9008F702091EC00922F83
:105CE000917020FD90E8892B93E09093E9009091CA
:105CF000EB0090FF14C09091EE0097FF10C09091C0
:105D0000E80095FF03C01092F100F9CF9091E800F0
:105D100090FF05C09091E8009E779093E8008F7007
:105D20008093E9001092E302089542E061EC81E083
:105D30000E948F3142E261EC82E00E948F3142E2A8
:105D400061EC83E00C948F3180913E03833009F441
:105D500060C030F4813071F0823009F499C0089548
:105D60008A3009F485C08B3009F46BC0893009F0A2
:105D7000A7C020C080913D03813A09F0A1C0809165
:105D8000E800877F8093E80080914103909142036F
:105D9000892B21F468E084EE92E003C060E080E0AB
:105DA00090E070E00E94D0308091E8008B77809383
:105DB000E800089580913D03813209F081C080910F
:105DC000410390914203029708F07AC08091E80065
:105DD000877F8093E8008091E80082FD05C0809174
:105DE0003C038111F8CF6CC02091F3008091F20048
:105DF00090E0922B029729F48091F1008B7F813003
:105E000021F48091F1008093EC028091E8008B777F
:105E100053C080913D03813A09F052C08091410303
:105E200090914203892B09F04BC08091E800877F55
:105E30008093E8008091E80080FFFCCF80913401DE
:105E400036C080913D038132D9F580914103909114
:105E50004203892BA9F58091E800877F8093E800B1
:105E60000E94C43180913F03809334010C94E82454
:105E700080913D03813221F58091E800877F8093F6
:105E8000E8000E94C431809140038093ED020895A0
:105E900080913D03813AA1F48091E800877F80934F
:105EA000E8008091E80080FFFCCF8091ED028093B4
:105EB000F1008091E8008E778093E8000C94C43163
:105EC00008959FB7F8941092E3029FBF90913C030E
:105ED000943009F057C09091E9009F703091EC0028
:105EE000232F217030FD20E8922B23E02093E9003E
:105EF0002091EB0020FF43C02091EE0027FF3FC020
:105F00002091E102222321F02091E80025FF37C0F3
:105F10001092E10226E03091E80035FD15C0309185
:105F20003C03343061F53091EB0035FD28C0215041
:105F300021F481E08093E10222C0EFE9FFE0319794
:105F4000F1F700C00000E7CF8093F1008091E800F6
:105F500085FD0AC08091E80080FFFCCF8091E800B9
:105F60008E778093E80006C08FB7F89421E02093E5
:105F7000E3028FBF9F709093E90080E008959F70C7
:105F80009093E9008FEF089584B7877F84BF0FB6A1
:105F9000F894A895809160008861809360001092C9
:105FA00060000FBE90E080E80FB6F8948093610027
:105FB000909361000FBE0E94B2200E9416320E9490
