:100000000C94A8020C94EF020C94EF020C94EF02F3
:100010000C94EF020C94EF020C94EF020C94EF029C
:100020000C94EF020C94EF020C94A9200C947B2109
:100030000C94CD1B0C94EF020C94EF020C94EF0285
:100040000C94EF020C94EF020C94EF020C94EF026C
:100050000C94EF020C94261C0C94EF020C94EF020B
:100060000C94EF020C94EF020C94EF020C94EF024C
:100070000C94EF020C94EF020C94EF020C94EF023C
:100080000C94EF020C94EF020C94EF020C94EF022C
:100090000C94EF020C94EF020C94EF020C94EF021C
:1000A0000C94EF020C94EF020C94EF029705970565
:1000B000C905C90516063406550755073F06D40677
:1000C000E506E5064507550755074E07F507F50709
:1000D00007080708FE07070807080708F507F507D8
:1000E0000308070807080308E8210F2207230F2247
:1000F00007235B227E220723D522E422165C1E0002
:100100001F002000210022002300240025002600DB
:1001100027002D002E0000002A002B0000001400F4
:100120001A000800150017001C0018000C0012002F
:1001300013002F0030003100396100000400160068
:10014000070009000A000B000D000E000F0033002D
:10015000340028000000E10000001D001B00060024
:100160001900050011001000360037000000387239
:1001700052004C00E000E3000000E200000000003C
:100180002C000000000000000351E400500051006A
:100190004F0035001E001F00200021002200230018
:1001A00024002500260027002D002E0000002A0034
:1001B0002B00000014001A00090013000A000D00B3
:1001C0000F0018001C0033002F003000310039618F
:1001D0000000040015001600170007000B001100B6
:1001E00008000C001200340028000000E1000000AC
:1001F0001D001B000600190005000E00100036004F
:1002000037000000387252004C00E000E3000000AC
:10021000E200000000002C0000000000000003517C
:10022000E400500051004F00165C1E001F0020002B
:1002300021002200230024002500260027002F0093
:10024000300000002A002B00000034003600370088
:1002500013001C0009000A00060015000F003800FA
:100260002E0031003961000004001200080018005F
:100270000C0007000B001700110016002D002800CD
:100280000000E1000000330014000D000E001B0010
:10029000050010001A00190000001D005200E500C2
:1002A000E000E3000000E200000000002C0000007D
:1002B000000000000351E400500051004F003500E1
:1002C0003A003B003C003D003E003F004000410042
:1002D000420043004400450000000100010000000E
:1002E0000100010001000100010001000100010006
:1002F000010001004E004B00005C01000000010005
:1003000001000100010001000100010001000100E5
:1003100001001450DF5C000001000000010001003A
:10032000010001000100010001004A004D00000031
:100330000100A900490001000100000001000000C7
:100340000000AE0000000000000001000100AC0051
:10035000AA00AB0001003A003B003C003D003E001B
:100360003F004000410042004300440045000000BF
:100370000100010000001050010001000100010017
:100380000100010001000100010001000100005C0A
:1003900001000000010012500100010001000100F5
:1003A00001000100010001000100DF5C000001000C
:1003B00000000100010011500100010001000100D6
:1003C0000100010000000100010001000100010026
:1003D000000001000000000001000000000000001B
:1003E000010001000100010001000A0344005A005D
:1003F00036003000000010034B004200440046006D
:1004000061006E00730000000403090409023B0050
:10041000020100A0FA090400000103010100092102
:10042000110100012240000705810308000A0904A8
:100430000100010300000009211101000122B600A2
:100440000705820320000A12010002000000085A7A
:1004500044602201000102000105010902A1018599
:10046000020901A1000509190129081500250195B6
:1004700008750181020501093009311581257F9533
:10048000027508810609381581257F950175088157
:1004900006050C0A38021581257F9501750881062D
:1004A000C0C005010980A101850319012AB7001503
:1004B0000126B700950175108100C0050C0901A146
:1004C00001850419012AA002150126A002950175D3
:1004D000108100C005010906A1018505050719E085
:1004E00029E7150025019508750181020507190006
:1004F00029EF1500250195F0750181020508190104
:100500002905950575019102950175039101C005B5
:10051000010906A101050719E029E7150025019544
:1005200008750181029501750881010507190029E7
:10053000FF150026FF0095067508810005081901C2
:100540002905950575019102950175039101C0007A
:1005500011241FBECFEFDAE0DEBFCDBF04B603FE2D
:1005600027C08091A2029091A302A091A402B09111
:10057000A5028730904BA740B04BD1F41092A20255
:100580001092A3021092A4021092A50214BE84B786
:10059000877F84BF0FB6F894A8958091600088612A
:1005A00080936000109260000FBEE0E0F8E30995D0
:1005B00011E0A0E0B1E0ECE0F8E402C005900D929B
:1005C000AC38B107D9F722E0ACE8B1E001C01D9228
:1005D000A23AB207E1F70E94EC130C9404240C94A5
:1005E000000081E0089581E008950C94F1020895DF
:1005F0000C94F7021F93CF93DF9300D000D01F928B
:10060000CDB7DEB749835A836B8330918E018981E0
:100610009A81311114C0662359F0222349F00E94B7
:100620009909182F682F89819A810E94420903C075
:100630000E946D09182F69817A81812F04C00E9460
:10064000990969817A810F900F900F900F900F9008
:10065000DF91CF911F910C943810FC01262F40811F
:1006600051816281738184810C94FA0281E0089542
:10067000CF93DF93EC0160E00E942D03BE01DF9178
:10068000CF910C94F8020E9465120E94C8030E9448
:1006900016180C94A2120C949E1208950E94E3075F
:1006A0000E944D032FEF84E39CE021508040904056
:1006B000E1F700C000000C944C1C0F931F93CF93E4
:1006C000DF938C0161E00E942D03EC01B8010E94D0
:1006D000F502882309F444C0B801CE010E947717BF
:1006E0008823F1F1B801CE010E9499188823C1F145
:1006F000B801CE010E94EB18882391F1B801CE0118
:100700000E941D1A882361F1F8018281882309F172
:10071000CB358DE5D807C1F050F4C115FCE5DF07F6
:1007200081F0CF3DDC45A9F40E94340F19C0CC35CF
:10073000EDE5DE0761F0CD35DD4559F40E94B80DD9
:1007400008C00E944E030CC00E94C10D02C00E944E
:10075000C40DC801DF91CF911F910F910C94F3024A
:1007600080E0DF91CF911F910F91089508950C942F
:10077000B60381E00895CF93C82F0E94B903882360
:1007800029F0C1FD02C02A9A01C02A98CF9108958C
:10079000229A2A9A0895CF93C82F0E94B7038C2FCC
:1007A0000E94BB03CF910895CF93DF93CDB7DEB7FF
:1007B0002B970FB6F894DEBF0FBECDBF4F8358877F
:1007C00069877A878B8761110E94E70D9E012F5FF1
:1007D0003F4F86E0F90111928A95E9F785E0FE0125
:1007E0003796D90101900D928A95E1F789819A8116
:1007F0004C815D81452B31F09F3F31F491E08F3F7B
:1008000019F403C091E001C090E090FF09C0498154
:100810005A816B817C818D819E810E94E70C05C08D
:10082000C9010E9436038111F2CF2B960FB6F894BE
:10083000DEBF0FBECDBFDF91CF910895FC01808157
:1008400091810E94DB090895CF93882309F4A4C005
:10085000C82F8238C1F40E94531A81FD9DC069E3FC
:1008600080910001909101010E94491B0E94190E84
:100870002FEF81EE94E0215080409040E1F700C0DE
:10088000000069E319C0833801F50E94531A80FD06
:1008900083C063E580910001909101010E94491B92
:1008A0000E94190E2FEF81EE94E02150804090407D
:1008B000E1F700C0000063E5809100019091010123
:1008C0000E94541BCF910C94190E8438C1F40E94DD
:1008D000531A82FD61C067E480910001909101018B
:1008E0000E94491B0E94190E2FEF81EE94E02150C7
:1008F00080409040E1F700C0000067E4DDCF8CEF5E
:100900008C0F813AD0F46C2F8091000190910101FD
:100910000E94C91A882349F06C2F809100019091A0
:1009200001010E94541B0E94190E6C2F809100013E
:10093000909101010E94491BC5CF80E28C0F883045
:1009400048F4C77081E001C0880FCA95EAF70E9499
:10095000CA0DB8CFEBE5EC0FE33040F4F0E0ED5B0F
:10096000FE4F808190E0CF910C94871AE8E5EC0F60
:10097000E73150F4F0E0EE0FFF1FEB5EFE4F808199
:100980009181CF910C949D1ACD3E30F08C2F0E9416
:100990007914CF910C944B15CF910895882309F4C5
:1009A00064C0823879F40E94531A81FF5EC069E303
:1009B00080910001909101010E94491B0E94190E33
:1009C00069E310C08338B1F40E94531A80FF4DC010
:1009D00063E580910001909101010E94491B0E94F2
:1009E000190E63E580910001909101010E94541B52
:1009F0000C94190E843879F40E94531A82FF35C082
:100A000067E480910001909101010E94491B0E94BE
:100A1000190E67E4E7CF9CEF980F913A10F4682F16
:100A2000E1CF90E2980F983050F4877091E001C0C8
:100A3000990F8A95EAF7892F0E94D00DD9CF9BE5AF
:100A4000980F933020F480E090E00C94871A98E59A
:100A5000980F973120F480E090E00C949D1A8D3E21
:100A600020F00E94D4140C944B1508951F93CF933B
:100A7000DF93182FEB010E942404209741F08FE9A7
:100A80009FE00197F1F700C000002197F6CF812F7A
:100A9000DF91CF911F910C94CE04893319F060E05F
:100AA00070E002C060E570E00C943605882321F008
:100AB0000E94CA0D0C94190E0895882321F00E94FB
:100AC000D00D0C94190E0895CF92DF92EF92FF9201
:100AD0000F931F93CF93DF937C01062FC72FFC0149
:100AE000D281158112951F700E949F0D882399F065
:100AF000DD2389F08C2F807F803421F080E2800F0D
:100B0000883048F082E00E94690E0E949F0D91E0BB
:100B1000D82ED92601C0D12CCC2EC2948FE0C82269
:100B20008C2D90E0FC01EA5AFF4F0C9495238C2FFA
:100B3000807FCF70882311F0C295C07FDD2399F0AC
:100B4000CC2309F48DC180E2800F883010F00111B0
:100B500004C08C2F0E94CA0D03C08C2F0E94DA0D96
:100B60000E94190E7DC1802F0E94CE04CC2309F46F
:100B70009CC180E2800F883010F0011104C08C2FDE
:100B80000E94D00D03C08C2F0E94E00D0E94190E10
:100B90008CC18C2F807FCF70803211F0C295C07FC6
:100BA000002319F00130C9F022C0DD2371F01123B8
:100BB00041F0113031F40E94FA0D8C2B0E94020E8C
:100BC00074C10E94FA0D8C2B1DC0112319F0113035
:100BD00009F46BC10E940F0E25C0DD2321F01630F1
:100BE00008F063C10EC0153008F05FC11BC0DD23E3
:100BF00061F0112331F0F701858180FF31C18F70E1
:100C000085838C2F0E94560550C1112359F009335A
:100C100009F037C1FFEF27EE83E0F150204080401C
:100C2000E1F72DC18C2F0E945D053FC18C2F869569
:100C30008695837019F0813061F037C1DD2321F092
:100C4000802F9C2F937002C080E090E00E94871A52
:100C500034C1DD2321F0802F9C2F937002C080E0EF
:100C600090E00E949D1A29C1802FDD2319F00E9477
:100C7000791402C00E94D4140E944B151EC18C2FFF
:100C8000837009F045C0D11114C1402F429546959B
:100C90004770440F440F602F6F70862F90E0A0E0E4
:100CA000B0E0042E04C0880F991FAA1FBB1F0A942E
:100CB000D2F704FF10C00FE010E020E030E004C0E5
:100CC000000F111F221F331F4A95D2F70095109570
:100CD0002095309503C000E010E09801C695C695B8
:100CE000C370BC01CD01602B712B822B932BC230C2
:100CF00049F058F4C13019F00E945808DAC00E9437
:100D00004608D7C00E946A08D4C00E944408D1C0D7
:100D1000DD2319F08C2F817001C08695882309F49A
:100D2000C8C0402F429546954770440F440F602F2E
:100D30006F70862F90E0A0E0B0E0042E04C0880F12
:100D4000991FAA1FBB1F0A94D2F704FF10C00FE01F
:100D500010E020E030E004C0000F111F221F331FFD
:100D60004A95D2F7009510952095309503C000E084
:100D700010E09801C695C695C370BC01CD01602BEB
:100D8000712B822B932BC23049F058F4C13019F0EB
:100D90000E941D098EC00E940B098BC00E942F0962
:100DA00088C00E947E0885C0CF70DD2339F08C2F6B
:100DB0000E94A408802F0E9456057BC0802F0E94AD
:100DC0005D058C2F0E94C50874C0023F01F128F414
:100DD000003F41F0013FA1F03FC0033FF9F0043F65
:100DE00039F13AC0DD2341F0153008F05EC08C2F98
:100DF0008F710E94EA0859C0163008F056C0F7CF2C
:100E0000DD2339F08C2F8F710E94A4084EC0DD23A2
:100E1000C9F38C2F8F710E94C50847C0DD2329F0CC
:100E20008C2F8F710E948F0840C00E948A083DC09D
:100E3000DD2349F0CF718C2F0E94A40863E08C2F32
:100E40000E944E0E32C081E00E94690E123068F19D
:100E500082E00E94690E29C0DD2331F0112391F256
:100E6000802F0E94240421C0112399F2093349F4F0
:100E70009FEFE7EEF3E09150E040F040E1F700C073
:100E80000000802F0E94CE0410C04C2F4F70602FA6
:100E9000C7010E9434100E94090A0FC04C2F4F70E6
:100EA000602FC7010E94371008C088EF8C0D843076
:100EB00020F40E94531A0E94CB03DD20C9F00E9447
:100EC0009B0D80FD15C0F70112820E94950D0E94B6
:100ED000A408C7010E9499070E94950DDF91CF9148
:100EE0001F910F91FF90EF90DF90CF900C94C50869
:100EF000DF91CF911F910F91FF90EF90DF90CF90F6
:100F000008950F931F93CF93DF93EC01688179814C
:100F10008A810E94E6098C010E9441090E943208E0
:100F2000B801CE010E946405DF91CF911F910F910E
:100F30000895CF93DF93EC01988189812B813C81C7
:100F4000232B31F08F3F31F481E09F3F19F403C030
:100F500081E001C080E080FD19C0CE010E945D03E8
:100F600081110CC00E949F0D882381F08A81882303
:100F700069F082E0DF91CF910C94690ECE010E945E
:100F80008107CE01DF91CF910C943803DF91CF918F
:100F9000089580E090E00E94871A80E090E00E942F
:100FA0009D1A0E94E70D0E94F70D0E94190E0E94E3
:100FB0007C160C944B1580910001909101010E94C8
:100FC0005F1B0C94C9070E94D70D0C94DB07E92F17
:100FD000E295EF704E2F50E0FA013297EE30F105B6
:100FE000B0F4EA59FF4F0C949523803F91F018F428
:100FF000883E68F40EC0843F51F40BC0883E48F030
:10100000813F29F406C093FB882780F9089580E08A
:10101000089581E00895FC01808191810E94DB099F
:101020000E94E7070895CF93DF9300D000D01F926E
:10103000CDB7DEB70F900F900F900F900F90DF910C
:10104000CF910895CF93DF9300D000D000D0CDB7DB
:10105000DEB726960FB6F894DEBF0FBECDBFDF9188
:10106000CF910895089508950C9433080C94340892
:101070000E9436086093C5017093C6018093C70132
:101080009093C8010C94C9070C9438080F931F93D0
:101090000091C5011091C6012091C7013091C8018E
:1010A000602B712B822B932B1F910F910C9438087E
:1010B0000F931F930091C5011091C6012091C701A4
:1010C0003091C80160237123822393231F910F91D4
:1010D0000C9438080F931F930091C5011091C6011D
:1010E0002091C7013091C80160277127822793277B
:1010F0001F910F910C9438080C9433080E947C08BF
:101100006093C1017093C2018093C3019093C401A5
:101110000C94C90760E070E0CB010C947E080F933B
:101120001F9341E050E060E070E08A019B0104C041
:10113000000F111F221F331F8A95D2F7C901B80172
:101140001F910F910C947E080F931F9341E050E084
:1011500060E070E004C0440F551F661F771F8A953A
:10116000D2F78091C1019091C201A091C301B091C9
:10117000C4018A019B01082B192B2A2B3B2BC90187
:10118000B8011F910F910C947E080F931F9341E0BB
:1011900050E060E070E004C0440F551F661F771FE9
:1011A0008A95D2F740955095609570958091C101D0
:1011B0009091C201A091C301B091C4018A019B0129
:1011C000082319232A233B23C901B8011F910F913A
:1011D0000C947E080F931F9341E050E060E070E0B4
:1011E00004C0440F551F661F771F8A95D2F7809160
:1011F000C1019091C201A091C301B091C4018A01C3
:101200009B01082719272A273B27C901B8011F91ED
:101210000F910C947E080F931F930091C1011091C0
:10122000C2012091C3013091C401602B712B822B2C
:10123000932B1F910F910C947E080F931F93009195
:10124000C1011091C2012091C3013091C4016023FA
:101250007123822393231F910F910C947E080F9387
:101260001F930091C1011091C2012091C3013091DF
:10127000C40160277127822793271F910F910C9437
:101280007E0808952FE0929F800D1124E82FE695A7
:10129000E695E695877051E001C0550F8A95EAF70B
:1012A00085E0E89FF0011124E157FE4F20E030E097
:1012B00070E04081CB01022E02C0969587950A947A
:1012C000E2F78170819584278523842781932F5F9E
:1012D0003F4F2530310569F708952FE0929F800D2B
:1012E0001124682F669566956695982F977085E00E
:1012F000689FB001112440E050E080E0FB01E40F62
:10130000F51FE157FE4F208130E0092E02C03695CF
:1013100027950A94E2F721703327042E01C0220F8B
:101320000A94EAF7822B4F5F5F4F4530510531F742
:101330000895BF92CF92DF92EF92FF920F931F9387
:10134000CF93DF938C01C090C101D090C201E09097
:10135000C301F090C4018091C5019091C601A09194
:10136000C701B091C801C82AD92AEA2AFB2ACFE1CD
:10137000D0E0D701C6010C2E04C0B695A79597956D
:1013800087950A94D2F780FD04C0219790F7B12C7D
:1013900007C0BC2EB8018C2F0E946F110197A9F3D2
:1013A0008B2DDF91CF911F910F91FF90EF90DF90E8
:1013B000CF90BF900895CF93DF93EC010E949909DD
:1013C000BE010E946F11DF91CF9108951F93CF93BB
:1013D000DF93EB0190918E01992321F0CB010E94C4
:1013E000DB0913C0882349F0CB010E949909182F0B
:1013F000682FCE010E94420904C0CB010E946D09F2
:10140000182FBE01812F0E946F11DF91CF911F9184
:101410000895EF92FF920F931F93CF93DF938C0168
:10142000892B09F46CC0F12CEE24E394E801219699
:10143000F8018491843740F4843008F051C0813041
:1014400081F0823019F15BC0853709F444C0A8F1FE
:101450009CE7980F903708F052C08F770E94CE0417
:1014600041C00E5F1F4FFE01849190E2980F9830AB
:1014700050F48770FE2D01C0FF0F8A95EAF78F2F79
:101480000E94EA0D14C00E9424042DC00E5F1F4F5D
:10149000FE01849190E2980F983060F48770FE2DE1
:1014A00001C0FF0F8A95EAF78F2F0E94F00D0E946E
:1014B000190E19C00E94CE0416C00E5F1F4FFE0108
:1014C000C491CC2381F08FE99FE00197F1F700C030
:1014D0000000C150F6CF0E5F1F4FFE01F49003C015
:1014E0000E9424048E018F2D882309F49FCFEFE9F9
:1014F000FFE03197F1F700C000008150F5CFDF9198
:10150000CF911F910F91FF90EF9008951F93CF936C
:10151000DF93C091C90116E08091CA01C81799F004
:10152000D0E01C9FF0011D9FF00D1124E553FE4FEC
:101530004081518162817381848195810E9422085A
:101540002196C770E9CFDF91CF911F910895409107
:10155000FB015091FC016091FD017091FE018091B1
:10156000FF01909100020C9422080F931F93CF93D8
:10157000DF938091000282958F7009F05DC08091A9
:10158000FD01882309F458C08091C9011091CA0156
:101590006091FB017091FC01C091FE01D091FF01AF
:1015A00091E06F3F09F090E0292F06E0811709F4E0
:1015B00043C0209721F07F3F21F030E003C031E0AD
:1015C00001C0322F90E030FD34C0089FF001099F28
:1015D000F00D1124DF01A553BE4F11963C911197D8
:1015E000371327C03C91361324C012963C911297B2
:1015F00031111FC013964D915C9114974C1B5D0BDC
:10160000483C5105B0F4809100028F708061809356
:101610000002E053FE4F80818F70806180838BEFEA
:1016200091E00E949907DF91CF911F910F910C9447
:10163000860A01968770BACFDF91CF911F910F91E3
:1016400008959F92AF92BF92CF92DF92EF92FF9256
:101650000F931F93CF93DF93CDB7DEB761970FB68C
:10166000F894DEBF0FBECDBF8C0185E0F801DE012E
:101670001D9601900D928A95E1F7F801E280909114
:10168000FB016091FC012091FE013091FF012115C9
:10169000310531F06F3F31F481E09F3F19F403C011
:1016A00081E001C080E0F82FF1709F2E80FD3FC1E6
:1016B000F80140815181A380B4808BEFC82E81E076
:1016C000D82EF090FD01F501E21BF30BFF2009F489
:1016D000D9C080910002E83CF10508F095C0282FA0
:1016E000207F09F052C0561313C0491311C0FE2CBD
:1016F000E1100EC08F708061809300020E94A70AE3
:10170000C6010E94990780910002F80185834CC1AF
:10171000AB2831F05F3F31F481E04F3F19F403C053
:1017200081E001C080E080FD03C081E08E2502C021
:1017300080E090E0F82FF170FF2E80FF1CC08091B8
:10174000C9012091CA0136E0821709F40BC190E06B
:10175000389FF001399FF00D1124E553FE4F618150
:10176000561306C06081461303C06281E61203C0AF
:1017700001968770E9CFFE2CEE2009F415C1809107
:10178000000281608093000254C0561306C04913C2
:1017900004C0E11002C0F80199C0C8010E940B0802
:1017A000882361F1EE2051F120910002822F829571
:1017B0008F7090E0029774F08091FB019091FC0192
:1017C00098878F831986BB86AA862C87CE010796B9
:1017D0000E94990786E0F801ABEFB1E001900D920D
:1017E0008A95E1F70E94B50A0E94A70A0AC0561717
:1017F00011F1C8010E940B0881112CC0C8010E9480
:101800009907FF24F394D0C0282F207F81F77A2DE9
:10181000B98AA88A6E2D89890E9413088BEF91E0FE
:101820000E94990786E0F60111928A95E9F70E94D5
:10183000A70AF12CB9C04913DCCFE110DACFF801C7
:101840008583C8010E94990786E0F60111928A9566
:10185000E9F7AAC0EE2091F220910002822F829532
:101860008F7090E002970CF4B5CF8091FB019091BE
:10187000FC019A8389831B82BD82AC822E83CE01B8
:101880000196A6CFE83CF10508F044C0FE2CEE20FE
:1018900009F4B4CF561330C049132EC02091000272
:1018A00020FD21C0822F82958F70482F50E0411576
:1018B0005105C9F0F80125834F30510541F08F5F84
:1018C000982F9295907F822F8F70892B8583C801E6
:1018D0000E94990786E0F801ABEFB1E001900D920C
:1018E0008A95E1F73CC086E0F801ABEFB1E00190EA
:1018F0000D928A95E1F758C0C8010E940B0881112A
:1019000069CF80910002816080930002C8010E942B
:1019100099074AC07A2DB98AA88A6E2D89890E94B2
:10192000130886E0F60111928A95E9F718C0EE20B7
:1019300009F464CFC8010E940B08F82E882309F42B
:101940005DCF86E0F801ABEFB1E001900D928A9592
:10195000E1F78BEF91E00E941E040E94B50A0E94FD
:10196000A70A22C04D875E878D859E850E94DB0970
:10197000292F22952F70223028F49F7039F0811181
:1019800005C00BC0243028F49F7049F4805E883075
:1019900020F0C8010E9499079F2CF92C05C0F8017E
:1019A0009581907F99F7F9CF8F2D61960FB6F894B6
:1019B000DEBF0FBECDBFDF91CF911F910F91FF9082
:1019C000EF90DF90CF90BF90AF909F9008951F93BE
:1019D000CF93DF93CDB7DEB72C970FB6F894DEBF69
:1019E0000FBECDBF4F83588769877A878B879C87C7
:1019F000CE0107960E94210B8823D1F09F81888514
:101A00002A853B85232B31F08F3F31F481E09F3FC6
:101A100019F403C081E001C080E080FD47C04F8120
:101A2000588569857A858B859C850E9422083EC0F1
:101A300086E0FE013796DE01119601900D928A959F
:101A4000E1F7FF81E8856A857B856115710531F0D5
:101A5000EF3F31F481E0FF3F19F403C081E001C0A2
:101A600080E080FD23C02091CA0130E0C9010196C9
:101A7000877099274091C90150E084179507F1F1CB
:101A8000F983EA837D836C8396E0929FD001939FD4
:101A9000B00D1124A553BE4FFE01319601900D9259
:101AA0009A95E1F78093CA010E94860A16E0809118
:101AB000C9019091CA01891771F1189FC0011124C1
:101AC00085539E4F0E94210B882329F1E091C90183
:101AD0001E9FF0011124E553FE4F40815181628128
:101AE0007381848195810E9422088091C90190E0D0
:101AF0000196877099278093C901D9CF0E94E30787
:101B00001092CA011092C901EBEFF1E086E0DF010B
:101B10001D928A95E9F72C960FB6F894DEBF0FBE9A
:101B2000CDBFDF91CF911F910895809101028595DE
:101B3000859585950895809101028770089590910B
:101B40000102977081E009F480E0089590917B0292
:101B500092FB222720F9281751F080FB92F99093ED
:101B60007B0280917A0290917B020C94B00E0895D2
:101B700080917B0282FB882780F991E089270C9471
:101B8000A60D81E00C94A60D80E00C94A60D80912A
:101B90002502089590912502892B809325020895AE
:101BA00080959091250289238093250208951092B3
:101BB0002502089590912402892B80932402089590
:101BC0008095909124028923809324020895109295
:101BD0002402089590912302892B80932302089573
:101BE0008095909123028923809323020895109277
:101BF0002302089580910202089508950C94FD0D2A
:101C00000C94FE0D90917B0292FD08C0909102020F
:101C1000981721F0809302020C94000E0895809191
:101C20000202882329F01092020280E00C94000E38
:101C30000895E0910001F0910101809125028083D7
:101C4000E0910001F0910101908180912402892BA3
:101C50008083E0910001F091010190818091230245
:101C6000892B808380910202882381F0E09100011A
:101C7000F09101019081892B8083809100019091E6
:101C800001010E94B31A81110E940F0E8091000180
:101C9000909101010C945F1A0C94FD0D90917B02C0
:101CA00092FD10C098E0899F90011124262B20936B
:101CB00001020E94A4088091010285958595859571
:101CC0000C944C0E0C94A4081092010280E00C9429
:101CD0004C0E209101028095822380930102982F5F
:101CE000977041F430E0482F082E000C550B241754
:101CF000350721F490917B0292FF07C08595859569
:101D000085950E94C5080C94640E08956FEF7FEFCF
:101D100080E090E00C94EE2380E090E00E94CA23E3
:101D200021E0893E9E4F09F020E0822F089582E055
:101D300090E00C94C22383E090E00C94C223CF93F4
:101D400084E090E00E94C223C82F82E290E00E94CB
:101D5000C2232C2F30E0A901582BCA01CF9108953E
:101D6000CF93C92F682F84E090E00E94D0236C2F7E
:101D700082E290E0CF910C94D023AB01BC018FE0C4
:101D800090E00C94E223AB01BC0183E190E00C9461
:101D9000E22360E070E0CB010C94C30E60E070E0E1
:101DA000CB010E94BD0E0C94C90E69EE7EEF80E05F
:101DB00090E00E94EE2360E082E090E00E94D02359
:101DC00060E083E090E00E94D0231092C501109261
:101DD000C6011092C7011092C80160E084E090E053
:101DE0000E94D02360E082E290E00E94D02360E075
:101DF00085E090E00E94D02360E086E090E00E94C1
:101E0000D0236FEF87E090E00E94D02340E050E0C5
:101E1000BA0188E090E00E94E22360E08DE090E06B
:101E20000E94D02340E050E0BA0188E190E00E9497
:101E3000E22360E087E190E00E94D02340E050E0A0
:101E4000BA018CE190E00E94E22360E070E080E261
:101E500090E00E94EE2340E050E0BA0188E190E07B
:101E60000E94E2230C94CE0E0C94D50E682F8EE0C7
:101E700090E00C94D0230E940B1C60933502709369
:101E80003602809337029093380260933102709348
:101E900032028093330290933402089585B78068AC
:101EA00085BF85B7806885BF089581E008950C944B
:101EB000550F08950C94590F0C94590F0C945C0F06
:101EC0000C94590F0C94600F0C94590F0E944E0FF4
:101ED0008BE492E10E94701C0E94640F0C94620FCC
:101EE0000E945A0F0C94590F0E94F61B0E94531324
:101EF0000E949B160C945E0F6F927F928F929F921E
:101F0000AF92BF92CF92DF92EF92FF920F931F9307
:101F1000CF93DF93CDB7DEB72A970FB6F894DEBF25
:101F20000FBECDBF0E94661381110E943B0F37E2A6
:101F3000832E32E0932E00E010E0C02E802F0E940E
:101F400089125C01F401619071904F016826792635
:101F500061147104B1F40F5F1F4F0530110569F76B
:101F60008FEF89838A831B820E94FF1B8160782FF9
:101F70009D838C8349815A816B818D810E94D4031A
:101F80003AC08091390281FD0E949212D12CEE2438
:101F9000E394F12CC3018E219F21892B29F10E940A
:101FA000570F8823A9F0DE82CF82AE20BF2081E0C8
:101FB000AB2809F480E088870E94FF1B8160782F9E
:101FC0009A8789874E815F8168858A850E94D403BC
:101FD000000F111FF801E95DFD4F80819181E82616
:101FE000F926F182E08207C0D394EE0CFF1CFFE0DB
:101FF000DF12D0CFB0CF0E9415180E9469150E9441
:10200000531A909126028917D1F00E94531A809397
:1020100026022A960FB6F894DEBF0FBECDBFDF9121
:10202000CF911F910F91FF90EF90DF90CF90BF90D5
:10203000AF909F908F907F906F900C94CB032A96D7
:102040000FB6F894DEBF0FBECDBFDF91CF911F91C9
:102050000F91FF90EF90DF90CF90BF90AF909F9047
:102060008F907F906F90089580E090E0089508959C
:102070002BE4829FC0011124FC012FE0729FE00D30
:10208000F11D1124E60FF11DEE0FFF1FE450FF4F6D
:10209000859194910895880F991FFC01E651FC4F9A
:1020A000859194910895CF93DF930E947411EC0170
:1020B000811520E5920708F03FC0811540E49407A0
:1020C00008F0D2C0883E910500F5803E910508F0E9
:1020D00002C1883A910570F4853A910508F0A6C0CE
:1020E0008130910509F49FC008F4F2C0049708F00C
:1020F000F2C0EEC08F3B910508F4A1C0803C910571
:1021000008F4E6C0805C9109A5C0811550E29507EE
:1021100060F4C11581E0D80708F0DDC0CD3ED105DF
:1021200008F4D6C0CE019065D7C0811520E3920790
:1021300008F093C09F708EC0811545E5940708F0A4
:1021400046C0811554E5950708F0A6C0C11582E583
:10215000D80718F5C11521E5D20708F088C0CE01CF
:10216000F4E096958795FA95E1F7282F23703C2F98
:10217000337081E090E002C0880F991F3A95E2F732
:102180009C68922B2C2F2F702695269540E2249F39
:1021900090011124822B932B9FC09E012370332723
:1021A0009C2F96959695C115D34508F065C041E0E2
:1021B00050E002C0440F551F2A95E2F780E2989F35
:1021C00090011124CA01822B932B9C6885C0811534
:1021D00059E5950798F4C11588E5D80708F061C05E
:1021E000C11526E5D20708F073C08C2F0E94081293
:1021F0008F7190E0982F882790626EC081154AE514
:10220000940708F453C090568115904208F060C0BE
:102210008D2F8F710E9408129E01332730628F71BB
:10222000A901582B53C081E090E056C0855AC82FB1
:10223000D0E0CC58DE4F888190E090644DC0885A41
:10224000C82FD0E0CC0FDD1FCA5BDE4F888199819B
:10225000946442C00E944B103FC09927D3FF02C034
:10226000986C3AC0906C38C09F70906A35C09C2FB3
:102270008827816F906A30C041E050E002C0440F6F
:10228000551F2A95E2F780E2989F90011124CA0118
:10229000822B932B9A6820C0982F8827846F906A8E
:1022A0001BC09C2F8827806F906A16C08F700E9479
:1022B00008129E0194E0369527959A95E1F72F70C4
:1022C00030E0322F22273069A901482BCA0104C00F
:1022D00080E090E001C0CE01DF91CF9108950E948F
:1022E00038100E94531008958238910569F1B0F4B6
:1022F0008133910509F46DC048F48932910509F4E0
:1023000063C08A32910509F469C008958533910547
:1023100009F455C089339105B9F00895833E9105BC
:1023200069F138F4803E9105B1F0823E910509F1E2
:102330000895863E9105A9F1873E9105B9F1843E45
:10234000910509F064C023C020917A0220FD4FC09E
:1023500021FD4DC0089580917A0280FD44C0809196
:102360007B0280FF44C080917A0284FD42C083EEEC
:102370004DC080917A0282FF38C0F5CF80917A02F9
:1023800082FD33C080917B0280FD31C0ECCF809113
:102390007B0281FF32C080917A0284FD2AC087EEE1
:1023A00035C080917A0283FF26C0F5CF80917A02F2
:1023B00083FD21C080917B0281FD1FC0ECCF809105
:1023C0007A0285FD1CC01DC080917A0285FD19C06E
:1023D00016C080917A0286FD16C017C080917A02DD
:1023E00086FD13C010C089E311C082EE0FC080EEDD
:1023F0000DC080E00BC086EE09C084EE07C089E204
:1024000005C085E303C08AE201C081E390E008953E
:1024100090917A0292FF0DC0282F2871283019F46C
:10242000877F846006C0282F2471243011F48B7FAD
:10243000886093FF0DC0282F2871283119F4877EFA
:10244000846106C0282F2471243111F48B7E8861A9
:1024500020917B0220FF0DC0382F3871383019F4DD
:10246000877F816006C0382F3171313011F48E7F43
:10247000886021FF0DC0282F2871283119F4877E2C
:10248000816106C0282F2171213111F48E7E88616F
:1024900094FD877E089580E008950C94860E0E9436
:1024A00066138FE39CE90197F1F700C000000E94DA
:1024B000661380E00E94891280FF04C00E944D12C2
:1024C0000C944C1C08950C944F120E948C0E811198
:1024D00002C00E94340F0E94970E809339020E941E
:1024E0009F0E90937B0280937A020E9463120E9457
:1024F0009B0E682F70E080E090E00E94440860919D
:10250000C1017091C2018091C3019091C4010C94EA
:102510007C08E82FF0E0EE0FFF1FEA57FD4F8081A7
:1025200091810895089580EA8A95F1F7089500C091
:1025300008950C94931208950C949B120C949C1281
:102540000C949B120C94A012F894E82FE295EF7073
:10255000F0E031A1282F2F7081E090E001C0880FBA
:102560002A95EAF7982F9095932391A392A1892B0E
:1025700082A3789408950F931F93CF93DF93C6E8B7
:10258000D1E089918F3F11F00E94A41281E0CB38F5
:10259000D807B9F7C7E7D1E006E811E089918F3F86
:1025A00011F00E94A4120C171D07C1F7DF91CF9103
:1025B0001F910F910895AF92BF92CF92DF92EF9249
:1025C000FF920F931F93CF93DF938C01C62FD0E020
:1025D000CE018A579E4F6C01DC019C919F3F09F40C
:1025E00057C0B62EF894E92FE295EF70F0E081A184
:1025F0009F7021E030E001C0220F9A95EAF7822B0C
:1026000081A382A12095282322A378940E94971267
:10261000E7E7F1E020E030E0E12CF12C41E050E090
:1026200081918F3FC1F0A82FA295AF70B0E0909636
:102630006C9170E08F70DB0102C0B595A7958A950B
:10264000E2F7A0FD08C0CA01022E02C0880F991F40
:102650000A94E2F702C080E090E0E82AF92A2F5FAE
:102660003F4F2F303105E1F6F60180818F3F11F0A9
:102670000E94A41261E0E114F10409F460E08B2DE2
:102680000E949912CC0FDD1FC00FD11FF982E88282
:10269000DF91CF911F910F91FF90EF90DF90CF903E
:1026A000BF90AF9008950E94BB12ECE7F2E0A6E85D
:1026B000B2E0119211921D921D9282E0E638F80765
:1026C000C1F785E00E94B1130C944303FF920F936E
:1026D0001F93CF93DF93CDB7DEB72A970FB6F89449
:1026E000DEBF0FBECDBF8E010F5F1F4F8AE0F80126
:1026F00011928A95E9F7F12C6F2DC8010E94DB1227
:10270000F394F5E0FF12F8CF4AE050E0B8018CE70F
:1027100092E00E94B523FF24F394009709F4F12C72
:10272000892B41F08AE0F801ACE7B2E001900D920C
:102730008A95E1F72F2D45E066E872E08CE792E09C
:102740000E94B2130E944B038F2D2A960FB6F89465
:10275000DEBF0FBECDBFDF91CF911F910F91FF90D4
:1027600008950895FF920F931F93CF93DF93F82E50
:10277000092F162FD72FC42F222349F081E08093F1
:102780003C020E94FF1B90933B0280933A0280918F
:102790003C028823D9F080913A0290913B020E943A
:1027A000171C059798F0EF2DF02FA12FBD2F80E07B
:1027B00090E04C2F50E08417950734F4219131912B
:1027C0002D933D930196F7CF10923C02DF91CF916C
:1027D0001F910F91FF9008950E94711B0E94E61DAA
:1027E0000E94FF1D0E94111E0E94700FFBCF80915E
:1027F000430280FF0BC06091070185E0689FB00134
:10280000112475956795759567952BC081FF09C053
:102810006091070185E0689FB00111247595679567
:1028200020C082FF07C06091070185E0689FB0016A
:10283000112417C0909142029923D1F060910601B2
:10284000961788F72091070185E0289F90011124B1
:10285000929FA001939F500D112470E0CA010E9425
:102860005F236038710540F46115710519F406C0E5
:1028700065E070E0862F08958FE7089581E0089560
:102880008091430280FF08C06091030170E075955C
:1028900067957595679521C081FF06C0609103011A
:1028A00070E07595679519C082FF04C060910301BF
:1028B00070E010C090914102992399F0609102015B
:1028C0009617A0F780910301899FC001112470E041
:1028D0000E945F236038710540F46115710519F499
:1028E00006C061E070E0862F08958FE7089581E0CB
:1028F00008958D3E21F40E94F713819504C08E3E09
:1029000029F40E94F7138093470208958F3E21F423
:102910000E94F713819504C0803F29F40E94F713A9
:10292000809346020895893F19F40E94401405C01F
:102930008A3F31F40E9440148195809348020895A3
:102940008B3F21F40E944014819504C08C3F29F4F0
:102950000E9440148093490208959FE0980F983098
:1029600078F421E030E0A90102C0440F551F9A9588
:10297000E2F7CA0190914502892B809345020895A0
:102980008D3F21F48091430281600BC08E3F21F482
:1029900080914302826005C08F3F29F480914302F9
:1029A00084608093430208958D3E39F490914702EC
:1029B00097FF35C01092470259C08E3E29F490917E
:1029C00047021916BCF32BC0909146028F3E29F4A2
:1029D00097FF25C01092460249C0803F19F419168E
:1029E000CCF31DC090914802893F29F41916BCF41C
:1029F000109248023BC08A3F19F497FF10C0F8CFED
:102A00008B3F39F49091490297FF09C01092490217
:102A10002DC08C3F21F4909149021916BCF39FE020
:102A2000980F983080F421E030E0A90102C0440FF3
:102A3000551F9A95E2F7CA01809590914502892326
:102A40008093450213C08D3F21F4809143028E7F15
:102A50000BC08E3F21F4809143028D7F05C08F3FD4
:102A600029F4809143028B7F809343028091460238
:102A7000811106C080914702811102C0109242026A
:102A800080914802811106C080914902811102C0E3
:102A90001092410208950E94FF1B209146022111CD
:102AA00004C020914702222321F09093400280939A
:102AB0003F0220914802211104C0209149022223A3
:102AC00021F090933E0280933D0284E492E00C94C6
:102AD000791AEF92FF920F931F93CF93DF9300D059
:102AE00000D000D0CDB7DEB786E0E4E4F2E0DE014E
:102AF000119601900D928A95E1F7E0904602F090D0
:102B00004702009148021091490210924602109229
:102B100047021092480210924902E11003C0FF20C0
:102B200009F45DC080913F02909140020E94171C01
:102B3000AC0190914202992339F02091080130E0D4
:102B40002417350758F04BC0209109018AE0289FCF
:102B5000900111242417350718F041C09F3F19F048
:102B60009F5F90934202EE2061F00E94F7131E14C3
:102B700014F09FEF01C091E0989F902D1124909345
:102B80004602FF2061F00E94F7131F1414F09FEF1C
:102B900001C091E0989F902D1124909347023091AD
:102BA00046023323E1F0209147022223C1F045EB96
:102BB0003403C0011124992319F09093460203C0F5
:102BC00081E08093460235EB2303C0011124992351
:102BD00019F09093470203C081E0809347020111EE
:102BE00003C0112309F45DC080913D0290913E0223
:102BF0000E94171CAC0190914102992339F0209159
:102C0000040130E02417350758F04BC0209105012E
:102C10008AE0289F900111242417350718F041C03D
:102C20009F3F19F09F5F90934102002361F00E9443
:102C30004014101614F09FEF01C091E0989F902D62
:102C4000112490934802112361F00E944014111640
:102C500014F09FEF01C091E0989F902D1124909364
:102C60004902309148023323E1F0209149022223A6
:102C7000C1F045EB3403C0011124992319F090935E
:102C8000480203C081E08093480235EB2303C00172
:102C90001124992319F09093490203C081E0809395
:102CA00049028091460281110BC080914702811137
:102CB00007C080914802811103C0809149028111AF
:102CC0000E944B15EB82FC820D831E8386E0FE0181
:102CD0003196A4E4B2E001900D928A95E1F7269630
:102CE0000FB6F894DEBF0FBECDBFDF91CF911F911D
:102CF0000F91FF90EF900895E4E4F2E086E0DF01A9
:102D00001D928A95E9F710924202109241021092A8
:102D10004302089586E090E00C94C223682F86E079
:102D200090E00C94D023809190028470896280930B
:102D300090020C948E160E948C0E811104C00E9489
:102D4000340F0E9493160E948A1680939002282FB7
:102D500026952695269530E02630310524F087709B
:102D60008862809390028091900280FF04C08695D3
:102D70008695869501C080E00C94AC172091900256
:102D8000822F869586958695482F50E045305105CF
:102D900054F48F5F982F990F990F990F822F877096
:102DA000892B8093900280919002816080939002A1
:102DB0000E948E16809190028695869586950C9439
:102DC000AC1780919002982F969596959695A1F0C4
:102DD000915E990F990F990F8770892B80939002BC
:102DE000887F91E009F490E08091900290FB80F957
:102DF000809390020E948E1680919002869586950F
:102E000086950C94AC178091900280FD13C0816070
:102E100080939002813019F489E080939002809130
:102E200090020E948E1680919002869586958695D6
:102E30000C94AC1708958091900280FF08C08E7F9B
:102E4000809390020E948E1680E00C94AC17089537
:102E50008091900280FD0C941B170C9403179091A5
:102E60009002892F8695869586958F5F8F719770D2
:102E7000863038F4880F880F880F892B8093900252
:102E800002C09093900280919002887F91E009F4B3
:102E900090E08091900290FB80F9809390020E94D4
:102EA0008E16809190028695869586950C94AC1727
:102EB000863008F085E0909190029770282F220FBD
:102EC000220F220F922B90939002987F21E009F419
:102ED00020E09091900220FB90F9909390020C9446
:102EE000AC170E945817809190020C948E169C018A
:102EF000FB018281882349F12E3BFCE53F07C9F0A5
:102F000040F42C3BECE53E0769F02D3B3C4561F07D
:102F10000895203C9CE5390791F070F0213C3C4538
:102F200089F0089585E001C080E00E94711780E07B
:102F300008950E94E116FBCF0E94BE16F8CF0E94B2
:102F40002817F5CF0E942F17F2CF81E00895269A17
:102F50002E9808952E980895CF92DF92EF92FF92C7
:102F6000CF93C82F863050F4811109C08091800022
:102F70008F7D809380000E94AA1706C0C5E08091D3
:102F800080008062809380002C2F30E0AFEFBFEF95
:102F90000E949B2325E030E040E050E00E94732334
:102FA000B42FA32F922F8827492F5A2F6B2F7727C3
:102FB000CA014C3724E1520728F469E070E00E940E
:102FC0004B2329C0DB01CA018A50974DAF4FBF4F39
:102FD0006627782F892F9A2F25EF38E241E050E0BD
:102FE0000E94732369017A01CA01B9010E943B233F
:102FF0009B01AC01C701B6010E943B23BB27A92F4F
:10300000982F872F009721E0A207B10511F0BC018E
:1030100002C06FEF7FEF70938B0060938A00CF91B7
:10302000FF90EF90DF90CF90089508950E94A7172A
:1030300082E28093800089E1809381008FEF9FEF8F
:1030400090938700809386000C949B160F931F9398
:10305000CF93DF93C42FD22FFC0182818823C9F044
:1030600040934C020E94FF1B90934B0280934A02B4
:1030700080E28C0F883008F057C0C77081E001C033
:10308000880FCA95EAF7DF91CF911F910F910C94A9
:10309000560580914C02481330C080914A029091AD
:1030A0004B020E94171C883C910538F510E21D0F59
:1030B000CD17B9F080E28C0F883040F4C77081E002
:1030C00001C0880FCA95EAF70E945D05183028F5FF
:1030D00081E09D2F977001C0880F9A95EAF70E94B2
:1030E0005605802F0E944D051830F0F4D77081E00E
:1030F00001C0880FDA95EAF70AC080E28C0F8830A9
:1031000098F4C77081E001C0880FCA95EAF7DF9193
:10311000CF911F910F910C945D05802FDF91CF917E
:103120001F910F910C944D05DF91CF911F910F913D
:1031300008950F939C01CB01243F4CE5340731F1F6
:1031400088F4293DFCE53F07D9F02A3D4CE53407DA
:1031500079F1283D3C45A9F506E221EE41EE68ED06
:103160007CE52BC0263FFCE53F07E1F0A8F0273FB8
:103170003C4539F507E225EE46EE67EF7CE51DC0DC
:1031800007E225EE45EE69ED7CE517C006E221EE8B
:1031900040EE64EF7CE511C007E225EE44EE65EFFA
:1031A0007CE50BC006E221EE42EE66EF7CE505C051
:1031B00008E221E045EE6AED7CE50E94261880E0F9
:1031C00008C0FC018281882319F010924C0201C0D2
:1031D00081E00F910895CF93DF93EC01FB01828191
:1031E000882309F426C1C430FDE5DF0760F4CB3F36
:1031F0009CE5D90768F49E0122503C4524313105F5
:1032000008F018C105C0C236EDE5DE0709F012C1AD
:103210000E949F0E90937B0280937A02C031FCE55E
:10322000DF0709F4CAC008F041C0C8309CE5D907DF
:1032300009F4A4C0F0F4C430FCE5DF0709F48CC045
:1032400068F4C2309CE5D90709F482C0C330DC457C
:1032500009F0E5C080917A028260DFC0C630FCE5EB
:10326000DF0709F483C008F085C080917A02886086
:10327000D4C0CC309CE5D90709F490C068F4CA30BA
:10328000FCE5DF0709F47EC008F084C00E94E30774
:1032900080917A028068C1C0CE309CE5D90709F4DC
:1032A00081C008F086C080917A0294C0CD3FFCE5D1
:1032B000DF0709F47BC038F5C4319CE5D90709F470
:1032C0009AC058F4C231FCE5DF0709F47AC008F06F
:1032D0007EC080917A028F7BA0C0CB3F9CE5D9074E
:1032E000F1F108F03FC0C531DC4509F098C080918C
:1032F0007A0282FB222720F991E0922790FB82F943
:1033000090FB83F98AC0C1308DE5D80709F467C006
:1033100050F480917B02CF3FECE5DE07C1F108F06D
:103320005BC08D7F65C0C3308DE5D80709F471C0DF
:1033300008F46DC0C236DD4509F071C080917A0293
:1033400084FB222720F991E0922790FB84F965C045
:1033500080917A02816061C080917A0216C080916A
:103360007B0216C080917B02826042C080917A020B
:10337000806153C080917A0280624FC080917A024E
:1033800080644BC080917A028860846046C082600D
:1033900081602EC080917A028E7F3FC080917A0238
:1033A0008D7F3BC080917A02877F37C080917B02FE
:1033B00014C080917A028F7E30C080917A028F7D16
:1033C0002CC00E94E30780917A028F7726C08091FB
:1033D0007A02877F8B7F21C08D7F8E7F09C080918D
:1033E0007B02982F909591708E7F892B90FB81F9AD
:1033F00080937B0214C00E94E30780917A0287FBCE
:10340000222720F991E0922790FB87F906C081E0FE
:1034100001C080E00E94360F02C080937A02809142
:103420007A0290917B020E94B00E0E94E30780E036
:1034300001C081E0DF91CF910895CF93DF93863172
:103440009C4541F5EB010E94C70D982F8A81209180
:10345000000130910101882379F09A7A81E009F422
:1034600080E080934D02911102C069E201C065E3E2
:10347000C9010E94491B0AC080914D02811102C0FE
:1034800069E201C065E3C9010E94541B0E94190E44
:1034900080E001C081E0DF91CF91089590935302C5
:1034A000809352020895E0915202F09153023097B6
:1034B00021F00190F081E02D099480E00895E091E1
:1034C0005202F0915302309799F020911401222377
:1034D00059F020917A0227FF07C0DC012C91119648
:1034E0002C93119725E02C930280F381E02D099411
:1034F0000895E0915202F0915302309739F022E0A2
:10350000DC012C930480F581E02D0994089520912D
:103510005002309151022817390771F090935102EF
:1035200080935002E0915202F0915302309721F0C3
:103530000680F781E02D0994089520914E02309184
:103540004F022817390771F090934F0280934E0273
:10355000E0915202F0915302309721F00084F185FE
:10356000E02D09940895FC0132968091140188237E
:1035700031F080917A0287FF02C09EE101C096E09F
:1035800080E0915028F021912223D9F38F5FF9CF69
:103590000895662351F1209114012223E9F020912E
:1035A0007A0227FF19C0462F4695469546954E311B
:1035B000E0F4677021E030E002C0220F331F6A950B
:1035C000E2F7FC01E40FF11D828190E0282339230A
:1035D00081E0232B69F409C0FC0132960896219101
:1035E000621729F0E817F907D1F780E0089581E024
:1035F00008959C01FC0132969FEF80E041914617AF
:1036000089F09F3F19F4411101C0982F8F5F8630D8
:10361000A9F79F3F39F0F901E90FF11D97FDFA95E0
:103620006283089508959C012A5F3F4FFC01428107
:10363000461301C01282019682179307B9F70895C5
:10364000262F2695269526952E3168F4FC01E20F4B
:10365000F11D677021E030E001C0220F6A95EAF7A2
:103660008281282B22830895262F2695269526953C
:103670002E3170F4FC01E20FF11D677021E030E0A3
:1036800001C0220F6A95EAF72095828128232283C0
:10369000089520911401222329F020917A0227FD18
:1036A0000C94201B0C94F91A20911401222329F068
:1036B00020917A0227FD0C94341B0C94131B20914B
:1036C0001401FC013296222331F080917A0287FFA7
:1036D00002C08EE101C086E0DF011D928A95E9F704
:1036E0000895089508950C94721B0C94721BCF9347
:1036F0000E94751B0E9466130E94731BC0E08C2FF2
:103700000E948912892B29F4CF5FC530C1F780E070
:1037100001C081E0CF9108950C94721B0C948C1B16
:1037200080919902843061F10E948E1B80E00E949A
:10373000AC1780E00E94CB031092540220E488E191
:1037400090E00FB6F894A895809360000FBE209388
:10375000600083B7817F846083BF83B7816083BF4C
:103760007894889583B78E7F83BF0FB6F894A89519
:1037700080916000886180936000109260000FBEAD
:1037800008950C94721B0E94E3070E949B160E94EE
:10379000531A0E94CB030C94C11B1F920F920FB6B9
:1037A0000F9211248F939F93AF93BF9380915402F4
:1037B000811113C08091910290919202A091930285
:1037C000B09194024196A11DB11D809391029093F6
:1037D0009202A0939302B0939402BF91AF919F91F4
:1037E0008F910F900FBE0F901F90189582E084BDAF
:1037F00093E095BD9AEF97BD80936E0008952FB723
:10380000F8948091910290919202A0919302B091CC
:1038100094022FBF08952FB7F89460919102709190
:10382000920280919302909194022FBF08959C017F
:103830004FB7F8948091910290919202A0919302D7
:10384000B09194024FBF821B930B089578941F92FE
:103850000F920FB60F9211248F939F93AF93BF9344
:103860008091910290919202A0919302B091940262
:103870000196A11DB11D8093910290939202A09395
:103880009302B0939402BF91AF919F918F910F904B
:103890000FBE0F901F90189581E08093E00080E2AA
:1038A0008093D8001092C9008FE19EE40197F1F750
:1038B00000C0000087E090EBDC018093A2029093AF
:1038C000A302A093A402B093A5029CE088E10FB6E6
:1038D000F894A895809360000FBE90936000FFCF8E
:1038E00090938D0180938C010895809178020895C2
:1038F00090919902943031F580935502709357025C
:103900006093560282E08093E9008FEF9091E80087
:10391000815095FD06C095ED9A95F1F70000811153
:10392000F5CF8091E80085FF0DC040E050E063E0F6
:1039300070E085E592E00E949D1E8091E8008E7700
:103940008093E8000895BC0184E00C94781CBC01CD
:1039500083E00C94781C22E02093E9002FEF309153
:10396000E800215035FD06C035ED3A95F1F700002D
:103970002111F5CF2091E80025FF0BC040E050E079
:1039800066E070E00E949D1E8091E8008E77809333
:10399000E8000895CF93DF9320911401222339F09A
:1039A00020917A0227FF03C060E222E002C068E0B3
:1039B00021E02093E9002FEF3091E800215035FD00
:1039C00006C035ED3A95F1F700002111F5CF2091B1
:1039D000E80025FF1DC0EC0180911401811105C094
:1039E00040E050E068E070E003C070E040E050E08C
:1039F000CE010E949D1E8091E8008E778093E800A2
:103A000080E2FE01A8E5B2E001900D928A95E1F70F
:103A1000DF91CF91089580919802811109C00E9491
:103A20002E200E948B208091E20084608093E2002F
:103A3000089510929802089508950895089542E017
:103A400061EC81E00E94A71F42E261EC82E00C94ED
:103A5000A71F80919B02833009F460C030F481304D
:103A600071F0823009F499C008958A3009F485C054
:103A70008B3009F46BC0893009F0A7C020C0809159
:103A80009A02813A09F0A1C08091E800877F809373
:103A9000E80080919E0290919F02892B21F460E2C0
:103AA00088E592E003C060E080E090E070E00E9472
:103AB000E81E8091E8008B778093E800089580915C
:103AC0009A02813209F081C080919E0290919F02FA
:103AD000029708F07AC08091E800877F8093E80021
:103AE0008091E80082FD05C0809199028111F8CF94
:103AF0006CC02091F3008091F20090E0922B02972D
:103B000029F48091F1008B7F813021F48091F100C4
:103B1000809378028091E8008B7753C080919A025D
:103B2000813A09F052C080919E0290919F02892BA8
:103B300009F04BC08091E800877F8093E800809176
:103B4000E80080FFFCCF8091140136C080919A027A
:103B50008132D9F580919E0290919F02892BA9F51F
:103B60008091E800877F8093E8000E94DC1F8091AD
:103B70009C02809314010C94E30780919A02813295
:103B800021F58091E800877F8093E8000E94DC1F88
:103B900080919D0280937902089580919A02813AE2
:103BA000A1F48091E800877F8093E8008091E8008D
:103BB00080FFFCCF809179028093F1008091E80032
:103BC0008E778093E8000C94DC1F089584B7877F7C
:103BD00084BF0FB6F894A8958091600088618093A7
:103BE0006000109260000FBE90E080E80FB6F8947D
:103BF00080936100909361000FBE0C94660F0E9449
:103C00002E200E948B20E2EEF0E080818460808391
:103C100078940E9420230E94740F8AE091E00C9413
:103C20004E1A809199028530A9F4809199028530CD
:103C300079F40E94901B809197028823B1F30E942F
:103C4000771B882391F30E94871E0E94E307EDCF24
:103C50000E94C31B0C947C0F0C942E1E292F33271B
:103C600023303105C9F060F42130310581F0223074
:103C7000310509F044C08BE390E02CE034E043C010
:103C800021323105E1F02232310549F138C082E1BB
:103C900090E027E434E037C099278130910549F05E
:103CA00028F0029761F5EAEEF3E005C0E8E0F4E001
:103CB00002C0E6EFF3E0849190E09F0124C061151B
:103CC000710541F061307105D1F489E090E027E39E
:103CD00034E019C089E090E02EE134E014C06115B1
:103CE000710541F06130710551F486EB90E029E5F2
:103CF00034E009C080E490E02FE035E004C080E0CB
:103D000090E020E030E0FA0131832083089580E1E3
:103D100089BD82E189BD09B400FEFDCF8091D80044
:103D20008F7D8093D8008091E00082608093E000D6
:103D30008091E00081FDFCCF0895CF92DF92EF9259
:103D4000FF920F931F93CF93DF93EC018B017A01C6
:103D50000E94FB1F811133C0E114F10439F0F70117
:103D600080819181081B190BC80FD91FC12CD12C40
:103D70000115110519F18091E80085FD16C08091AB
:103D8000E8008E778093E800E114F10449F0F70130
:103D900080819181C80ED91ED182C08285E00FC07A
:103DA0000E94FB1F882321F30AC089918093F100B0
:103DB00001501109FFEFCF1ADF0ADACF80E0DF915F
:103DC000CF911F910F91FF90EF90DF90CF900895CA
:103DD0002091A0023091A1022617370748F0611503
:103DE000710539F42091E8002E772093E80001C096
:103DF000B901FC0120E06115710579F1809199020A
:103E00008823F1F18530F1F18091E80083FD3CC019
:103E10008091E80082FD2EC08091E80080FFEBCF0A
:103E20002091F3008091F20090E0922B61157105D2
:103E300051F08830910538F421912093F1006150C0
:103E400071090196F3CF21E0089709F020E08091F5
:103E5000E8008E778093E800CECF2111CFCF0AC043
:103E600080919902882361F0853061F08091E800AB
:103E700083FD0AC08091E80082FFF2CF80E00895C0
:103E800082E0089583E0089581E008952091A002E2
:103E90003091A1022617370748F06115710539F4F2
:103EA0002091E8002E772093E80001C0B901FC01C1
:103EB00020E06115710591F180919902882309F440
:103EC00040C0853009F43FC08091E80083FD3DC0CB
:103ED0008091E80082FD2FC08091E80080FFE9CF4B
:103EE0002091F3008091F20090E0922B6115710512
:103EF00059F08830910540F424912093F1003196D7
:103F0000615071090196F2CF21E0089709F020E095
:103F10008091E8008E778093E800CBCF2111CCCF41
:103F20000AC080919902882361F0853061F0809108
:103F3000E80083FD0AC08091E80082FFF2CF80E0B4
:103F4000089582E0089583E0089581E00895982F10
:103F5000973068F59093E900981739F07091EC006C
:103F60002091ED005091F00003C0242F762F50E0F7
:103F700021FD02C09F5FECCF3091EB003E7F30937C
:103F8000EB003091ED003D7F3093ED003091EB0080
:103F900031603093EB007093EC002093ED00509370
:103FA000F0002091EE0027FDE5CF80E008958F70AE
:103FB0008093E90081E0089580919A0287FF11C003
:103FC0008091E80082FD05C0809199028111F8CFAF
:103FD00011C08091E8008B770BC0809199028823F3
:103FE00049F08091E80080FFF8CF8091E8008E775B
:103FF0008093E80008952091E4003091E50095E673
:104000004091EC00842F817040FF23C08091E80034
:1040100080FD1DC080919902882399F0853099F028
:104020008091EB0085FD11C04091E4005091E500C6
:104030002417350729F3915011F09A01E1CF84E05C
:10404000089582E0089583E0089581E0089580E076
:1040500008954091E80042FFDDCF08950E949C2022
:104060000E94A420E0EEF0E0808181608083E8ED92
:10407000F0E080818F77808319BCA7EDB0E08C9150
:104080008E7F8C9380818F7E80831092980208951A
:104090000F931F93CF93DF930E949C200E94A42034
:1040A000C8EDD0E088818F77888388818068888395
:1040B00088818F7D888319BC109299021092950295
:1040C000109297021092960200EE10E0F8018081A3
:1040D0008B7F808388818160888342E060E080E01C
:1040E0000E94A71FE1EEF0E080818E7F8083E2EEE8
:1040F000F0E0808181608083808188608083F80126
:1041000080818E7F8083888180618883DF91CF91D9
:104110001F910F910895E8EDF0E080818F7E8083FC
:10412000E7EDF0E080818160808384E082BF81E000
:10413000809398020C944820E8EDF0E080818E7F17
:1041400080831092E20008951092DA001092E1004C
:1041500008951F920F920FB60F9211242F933F9341
:104160004F935F936F937F938F939F93AF93BF937F
:10417000EF93FF938091E10082FF0BC08091E200FA
:1041800082FF07C08091E1008B7F8093E1000E9455
:104190001F238091DA0080FF1FC08091D80080FF2C
:1041A0001BC08091DA008E7F8093DA008091D90065
:1041B00080FF0DC080E189BD82E189BD09B400FEA8
:1041C000FDCF81E0809399020E940B1D05C019BCB0
:1041D000109299020E94191D8091E10080FF19C080
:1041E0008091E20080FF15C08091E2008E7F809375
:1041F000E2008091E20080618093E2008091D8002B
:1042000080628093D80019BC85E0809399020E9457
:104210001D1D8091E10084FF30C08091E20084FF89
:104220002CC080E189BD82E189BD09B400FEFDCFCB
:104230008091D8008F7D8093D8008091E1008F7E9F
:104240008093E1008091E2008F7E8093E200809174
:10425000E20081608093E20080919502882311F052
:1042600084E007C08091E30087FD02C081E001C0C7
:1042700083E0809399020E941E1D8091E10083FFDC
:1042800029C08091E20083FF25C08091E100877FF3
:104290008093E10082E080939902109295028091D0
:1042A000E1008E7F8093E1008091E2008E7F809319
:1042B000E2008091E20080618093E20042E060E0F1
:1042C00080E00E94A71F8091F00088608093F0003A
:1042D0000E941C1DFF91EF91BF91AF919F918F9113
:1042E0007F916F915F914F913F912F910F900FBEF2
:1042F0000F901F9018951F920F920FB60F921124D6
:104300002F933F934F935F936F937F938F939F93DD
:10431000AF93BF93CF93DF93EF93FF93C091E900E7
:10432000CF708091EC00D82FD17080FDD0E8109232
:10433000E9008091F000877F8093F00078940E94DC
:10434000BF211092E9008091F00088608093F00016
:10435000CD2BCF70C093E900FF91EF91DF91CF910A
:10436000BF91AF919F918F917F916F915F914F918D
:104370003F912F910F900FBE0F901F9018951F9394
:10438000CF93DF93CDB7DEB7AA970FB6F894DEBF11
:104390000FBECDBFEAE9F2E08091F100819322E007
:1043A000E23AF207C9F70E94291D8091E80083FFD5
:1043B0002EC180919A0290919B02492F50E04A3081
:1043C000510508F024C1FA01EC58FF4F0C949523D5
:1043D000803821F0823809F01AC108C08091960215
:1043E00090919702992389F082600FC080919E027C
:1043F0008F70873008F00BC18093E9008091EB004B
:1044000085FB882780F91092E9009091E800977F5A
:104410009093E8008093F1001092F100D1C0282F12
:104420002D7F09F0F4C0882319F0823061F0EFC0CD
:1044300080919C02813009F0EAC0933009F080E05D
:10444000809397022EC080919C0281112AC0809196
:104450009E028F702FEF280F263008F0D8C080936F
:10446000E9002091EB0020FF1CC0933021F48091E3
:10447000EB00806214C09091EB0090619093EB0090
:1044800021E030E0A90102C0440F551F8A95E2F7F0
:104490004093EA001092EA008091EB0088608093DC
:1044A000EB001092E9008091E800877F8093E8009C
:1044B0000E94DC1FACC08111AAC010919C021F7722
:1044C0008091E3008078812B8093E3008091E80065
:1044D000877F8093E8000E94DC1F8091E80080FFC6
:1044E000FCCF8091E30080688093E300111102C04B
:1044F00082E001C083E08093990289C080588230B5
:1045000008F085C080919C0290919D028C3D53E003
:10451000950779F583E08A838AE289834FB7F89417
:10452000DE01139620E03EE051E2E32FF0E05093ED
:104530005700E49120FF03C0E295EF703F5FEF70FA
:104540008E2F90E0EA3010F0C79601C0C0968D9390
:104550009D932F5F243149F74FBF8091E800877FFB
:104560008093E8006AE270E0CE0101960E94E81EA6
:1045700016C060919E0270919F02AE014F5F5F4F27
:104580000E942C1EBC01892B09F441C09091E800C7
:10459000977F9093E80089819A810E94461F8091BD
:1045A000E8008B778093E80032C0803881F58091F5
:1045B000E800877F8093E800809195028093F10066
:1045C0008091E8008E7772CF811121C080919C028A
:1045D00090919D0299270297D4F48091E800877FFB
:1045E0008093E80080919C02809395020E94DC1FDA
:1045F00080919502811106C08091E30087FD02C081
:1046000081E001C084E0809399020E941F1D809187
:10461000E80083FF0AC08091E800877F8093E8006C
:104620008091EB0080628093EB00AA960FB6F8941D
:10463000DEBF0FBECDBFDF91CF911F9108950895CA
:10464000CF93809199028823A1F0C091E900CF70A7
:104650009091EC00892F817090FD80E8C82B10921A
:10466000E9008091E80083FD0E94BF21CF70C093D4
:10467000E900CF910895DB018F939F930E94AA23B5
:10468000BF91AF91A29F800D911DA39F900DB29FEE
:10469000900D11240895AA1BBB1B51E107C0AA1F4E
:1046A000BB1FA617B70710F0A61BB70B881F991FD3
:1046B0005A95A9F780959095BC01CD01089597FB77
:1046C000072E16F4009407D077FD09D00E944B23E3
:1046D00007FC05D03EF4909581959F4F0895709505
:1046E00061957F4F0895A1E21A2EAA1BBB1BFD0105
:1046F0000DC0AA1FBB1FEE1FFF1FA217B307E407C1
:10470000F50720F0A21BB30BE40BF50B661F771F18
:10471000881F991F1A9469F76095709580959095F8
:104720009B01AC01BD01CF010895EE0FFF1F059065
:10473000F491E02D0994A29FB001B39FC001A39F03
:10474000700D811D1124911DB29F700D811D1124CA
:10475000911D08950E949B23A59F900DB49F900DDD
:10476000A49F800D911D11240895FB01DC0104C05C
:104770008D910190801921F441505040C8F7881B59
:10478000990B0895F999FECF92BD81BDF89A9927AA
:1047900080B50895A8E1B0E042E050E00C94F62323
:1047A000262FF999FECF92BD81BDF89A019700B4EA
:1047B000021639F01FBA20BD0FB6F894FA9AF99A8A
:1047C0000FBE08950396272F0E94D1230E94D02365
:1047D000252F0E94D123242F0C94D1230196272F1B
:1047E0000E94D1230C94D023DC01CB01FC01F99968
:1047F000FECF06C0F2BDE1BDF89A319600B40D922D
:0C48000041505040B8F70895F894FFCFE5
:10480C0003022808641E140A321E751CCA1CAB1C39
:10481C00A71CA31C01E200E900EA00B500B600B732
:10482C0000CD008301CC008A019201940121022366
:10483C000224022502260227022A02B300B4006FCA
:10484C00007000818283E200E900EA00B500B60046
:10485C00B700CD008301CC008A01920194012102A2
:10486C00230224022502260227022A02B300B400E6
:10487C006F007000818283F0F1C667663794313027
:0C488C003534979633F490919293950088
:00000001FF
