:100000000C94BB030C94F3030C94F3030C94F303D0
:100010000C94F3030C94F3030C94F3030C94F30388
:100020000C94F3030C94F3030C94692F0C943B3061
:100030000C94552A0C94F3030C94F3030C94F303DF
:100040000C94F3030C94F3030C94F3030C94F30358
:100050000C94F3030C94FA2A0C94F3030C94F3031A
:100060000C94F3030C94F3030C94F3030C94F30338
:100070000C94F3030C94F3030C94F3030C94F30328
:100080000C94F3030C94F3030C94F3030C94F30318
:100090000C94F3030C94F3030C94F3030C94F30308
:1000A0000C94F3030C94F3030C94F303BD09BD0902
:1000B000F009F0091B0A390A0E0B0E0B3D0AB50AAE
:1000C000C70AC70AF625F925FE2505260A260F26A2
:1000D000142619261E26232628262D2630263026CD
:1000E00030263026302630263026302630268B2605
:1000F000FD2693265D266126972664269A26A52648
:100100006F26F3267326A9267726AD26D7267B26CB
:10011000B126E1268126B726C12668269E266B26B3
:10012000A1268626BC26CD26ED26EF2659268F262B
:100130000627D127D727C527CB27DD27E327E927A0
:10014000A330CA30C231CA30C23116313931C2315E
:1001500090319F3100AD9DBD00AC9CBC00AB9BBB02
:1001600000AA9ABA00A999B900A898B800A797B7A9
:1001700000A696B600A595B500A494B400A393B3C9
:1001800000A292B200A191B100A090B0007D6D8D4F
:10019000007C6C8C007B6B8B007A6A8A00796989A1
:1001A00000786888007767870076668600756585C1
:1001B00000746484007363830072628200716181E1
:1001C00000706080004D3D5D004B3B5B004A3A5A39
:1001D00000493959004838580047375700463656C5
:1001E00000453555004434540043335300423252E5
:1001F0000041315100403050001D0D2D001C0C2CD1
:10020000001A0A2A001909290018082800170727C8
:1002100000160626001505250014042400130323E8
:10022000001202220011012100100020001E0E2EDB
:10023000004C3C5C001B0B2B004E3E5E007E6E8E25
:10024000001F0F2F004F3F5F007F6F8F00AF9FBFDA
:10025000167C1E001F002000210022002300240025
:100260002500260027002D002E002A002B00140058
:100270001A000800150017001C0018000C001200DE
:1002800013002F0030003100392104001600070050
:1002900009000A000B000D000E000F0033003400AF
:1002A00000002800E1001D001B00060019000500E9
:1002B00011001000360037003832520000004C00A8
:1002C000E000E300E200000000002C00000000005D
:1002D0002352E4005000510000004F00167C1E0025
:1002E0001F002000210022002300240025002600FA
:1002F00027002D002E002A002B0014001A000900F0
:1003000013000A000D000F0018001C0033002F001E
:1003100030003100392104001500160017000700D5
:100320000B00110008000C0012003400000028002F
:10033000E1001D001B000600190005000E00100062
:10034000360037003832520000004C00E000E30075
:10035000E200000000002C00000000002352E40036
:100360005000510000004F00167C1E001F002000AE
:1003700021002200230024002500260027002F0052
:1003800030002A002B0034003600370013001C0018
:1003900009000A00060015000F0038002E00310089
:1003A000392104001200080018000C0007000B009F
:1003B0001700110016002D0000002800E100330096
:1003C00014000D000E001B00050010001A0019009B
:1003D0001D0052000000E500E000E300E200000024
:1003E00000002C00000000002352E40050005100E7
:1003F00000004F0035003A003B003C003D003E004D
:100400003F0040004100420043004400450001001D
:1004100001000100010001000100010001000100D4
:100420000100010001004E004B00017C01000100B1
:1004300001000100010001000100010001000100B4
:10044000010004520000037C0100010001000100D2
:1004500001000100010001004A004D000100A90057
:100460000000490001000100010000000000AE0092
:100470000000000001000100AC00AA000000AB0079
:1004800001003A003B003C003D003E003F004000C0
:1004900041004200430044004500010001000052B9
:1004A0000100010001002078237825782778297839
:1004B000217801000100017C0100010002520100CD
:1004C000010001002478267828782A782278010013
:1004D0000000037C01000100010001520100010045
:1004E0000100010001000100010001000000010005
:1004F00001000100010000000000010000000000F8
:1005000001000100010001000000010000010101E3
:1005100001010101010102020202020202020203C0
:100520000303030303030304040404040404050590
:100530000505050606060606070707070708080853
:1005400008090909090A0A0A0B0B0B0C0C0C0D0D02
:100550000D0E0E0E0F0F0F1010111111121213139A
:100560001414151516161717181819191A1A1B1B13
:100570001C1D1D1E1E1F202021222223242425266F
:1005800026272829292A2B2C2D2D2E2F30313232A7
:10059000333435363738393A3B3C3D3E3F404142B3
:1005A000434445464748494A4C4D4E4F5051535499
:1005B000555658595A5B5D5E5F616264656668694D
:1005C0006B6C6D6F7072737577787A7B7D7E8082CD
:1005D000838587888A8C8E8F91939596989A9C9E16
:1005E000A0A2A3A5A7A9ABADAFB1B3B5B7BABCBE26
:1005F000C0C2C4C6C9CBCDCFD1D4D6D8DBDDDFE2F3
:10060000E4E7E9EBEEF0F3F5F8FAFDFF1003440040
:100610005A003600300052004700420000000E032E
:1006200044005A0054004500430048000000040301
:10063000090409023B00020100A0FA0904000001BC
:100640000301010009211101000122400007058179
:100650000308000109040100010300000009211141
:1006600001000122B60007058203200001120100EB
:1006700002000000085A4421110002010200010595
:10068000010902A10185020901A100050919012939
:100690000815002501950875018102050109300939
:1006A000311581257F950275088106093815812548
:1006B0007F950175088106050C0A38021581257F92
:1006C000950175088106C0C005010980A101850357
:1006D00019012AB700150126B70095017510810090
:1006E000C0050C0901A101850419012AA002150108
:1006F00026A002950175108100C005010906A1011F
:100700008506050719E029E71500250195087501FB
:1007100081020507190029EF1500250195F07501E3
:1007200081020508190129059505750191029501B8
:1007300075039101C005010906A101050719E0290A
:10074000E71500250195087501810295017508815D
:10075000010507190029FF150026FF0095067508F9
:10076000810005081901290595057501910295017A
:1007700075039101C00011241FBECFEFDAE0DEBF88
:10078000CDBF04B603FE18C080915F06909160064D
:10079000A0916106B09162068730904BA740B04BA4
:1007A00059F410925F061092600610926106109242
:1007B0006206E0E0F8E3099512E0A0E0B1E0E2E1D2
:1007C000F6E602C005900D92A63BB107D9F726E0E8
:1007D000A6EBB2E001C01D92AF35B207E1F70E946F
:1007E000A6150C9407330C940000CF93DF930E945E
:1007F0000F04C82F882379F00E94DC2881FBDD27B5
:10080000D0F981FF08C02FEF4FEF6FEF88E290E043
:100810000E94DD1ACD2F8C2FDF91CF910895CF93B9
:100820000E94CF28C82F6091E2027091E30280E01D
:1008300090E00E940808833009F442C1843009F036
:10084000FCC220E040E06FE88EE090E00E94DD1AFC
:1008500020E040E060E08FE090E00E94DD1A20E0C0
:1008600040E060E080E190E00E94DD1A2FEF4FEF62
:1008700060E081E190E00E94DD1A20E04FEF6FEF31
:1008800082E190E00E94DD1A2FEF40E060E083E11A
:1008900090E00E94DD1A20E04FEF60E084E190E0FC
:1008A0000E94DD1A20E040E06FEF85E190E00E94B9
:1008B000DD1A2FEF4FEF6FEF86E190E00E94DD1A17
:1008C00020E040E060E087E190E00E94DD1A20E057
:1008D00040E060E088E190E00E94DD1A20E040E026
:1008E00060E089E190E00E94DD1A20E840E562ECDA
:1008F0008AE190E00E94DD1A20E040E060E08BE1B8
:1009000090E00E94DD1A20E040E06FE88CE190E08A
:100910000E94DD1A20E040E060E08DE190E00E945E
:10092000DD1A20E840E562EC85E290E00E94DD1AE5
:1009300020EA40EA60E08EE190E00E94DD1A20E0CB
:1009400040E060E084E290E00E94DD1A20E040E0B8
:1009500060E083E290E00E94DD1A20E040E060EA7F
:1009600082E290E00E94DD1A20E040EA60E081E24D
:1009700090E00E94DD1A20EA40E060E080E290E032
:100980000E94DD1A20E040EA60EA8FE190E00E94D8
:10099000DD1A20E040E060E086E290E00E94DD1A8F
:1009A00020E040E060E087E290E00E94DD1A20E075
:1009B00040E060E088E290E00E94DD1A20E040E044
:1009C00060E089E290E00E94DD1A20E040E060E013
:1009D0008AE290E00E94DD1A20E040E060E08BE2D5
:1009E00090E00E94DD1A20E040E060E08CE290E0C0
:1009F0000E94DD1A20E840E562EC82E390E00E946C
:100A0000DD1A20E040E060E08EE290E00E94DD1A16
:100A100020E040E060E08FE290E00E94DD1A20E0FC
:100A200040E060E080E390E00E94DD1A20E040E0DA
:100A300060E081E390E00E94DD1A20E040E060E0A9
:100A40008DE290E00E94DD1A20E040E060E083E368
:100A500090E00E94DD1A20E040E060E084E390E056
:100A60000E94DD1A20E040E060E085E390E00E9413
:100A7000DD1A20E040E060E086E390E00E94DD1AAD
:100A800020E040E060E087E390E00E94DD1A20E093
:100A900040E060E088E390E00E94DD1A20E040E062
:100AA00060E089E390E00E94DD1A20E040E060E031
:100AB0008AE390E00E94DD1A20E040E060E0A4C1FB
:100AC00020E040E0C0FF02C06FEF01C060E08DE0B9
:100AD00090E00E94DD1A20E040E060E080E090E0DD
:100AE0000E94DD1A20E04FEF60E081E090E00E947C
:100AF000DD1A20E04FEF60E082E090E00E94DD1A16
:100B000020E04FEF60E083E090E00E94DD1A20E0FB
:100B10004FEF60E084E090E00E94DD1A20E04FEFAC
:100B200060E085E090E00E94DD1A20E04FEF60E099
:100B300086E090E00E94DD1A20E04FEF60E087E061
:100B400090E00E94DD1A20E04FEF60E088E090E046
:100B50000E94DD1A20E04FEF60E089E090E00E9403
:100B6000DD1A20E04FEF60E08AE090E00E94DD1A9D
:100B700020E04FEF60E08BE090E00E94DD1A20E083
:100B800040E060E08CE090E00E94DD1A20E040E070
:100B90006FE88EE090E00E94DD1A20E04FEF6FEFEB
:100BA0008FE090E00E94DD1A20E040E860E880E1FC
:100BB00090E00E94DD1A20E040E060E081E190E0FA
:100BC0000E94DD1A20E040E060E082E190E00E94B7
:100BD000DD1A20E040E060E083E190E00E94DD1A51
:100BE00020E040E060E084E190E00E94DD1A20E037
:100BF00040E060E085E190E00E94DD1A20E040E006
:100C000060E086E190E00E94DD1A20E040E060E0D4
:100C100087E190E00E94DD1A20E040E060E088E19A
:100C200090E00E94DD1A20E040E060E089E190E081
:100C30000E94DD1A20E040E060E08AE190E00E943E
:100C4000DD1A20E040E060E08BE190E00E94DD1AD8
:100C500020E040E06FE88CE190E00E94DD1A20E89F
:100C600040E562EC8DE190E00E94DD1A20E040E07A
:100C700060E08EE190E00E94DD1A20E040E060E05C
:100C80008FE190E00E94DD1A20E040E060E080E229
:100C900090E00E94DD1A20E040E060E081E290E018
:100CA0000E94DD1A20E040E060E082E290E00E94D5
:100CB000DD1A20E040E060E083E290E00E94DD1A6F
:100CC00020E040E060E084E290E00E94DD1A20E055
:100CD00040E060E085E290E00E94DD1A20E040E024
:100CE00060E086E290E00E94DD1A2AEA4FEF60E0C1
:100CF00087E290E00E94DD1A20E040E06FE288E2A7
:100D000090E00E94DD1A2FEF4FEF6FEF89E290E045
:100D10000E94DD1A2FEF40E060E08AE290E00E943E
:100D2000DD1A20E040E060E08BE290E00E94DD1AF6
:100D300020E04FEF6FEF8CE290E00E94DD1A20E0A0
:100D40004FE86FE88DE290E00E94DD1A20E040E07D
:100D500060E08EE290E00E94DD1A20E040E060E07A
:100D60008FE290E00E94DD1A20E040E060E080E346
:100D700090E00E94DD1A20E040E060E081E390E036
:100D80000E94DD1A20E040E060E082E390E00E94F3
:100D9000DD1A20E040E060E083E390E00E94DD1A8D
:100DA00020E040E060E084E390E00E94DD1A20E073
:100DB00040E060E085E390E00E94DD1A27E443E62E
:100DC0006FEF86E390E00E94DD1A2FE840E060E0DC
:100DD00087E390E00E94DD1A27E443E66FEF88E3A3
:100DE00090E00E94DD1A20E040E060E089E390E0BE
:100DF0000E94DD1A20E040E060E08AE390E00E947B
:100E0000DD1A2FEF4FE46FE48BE390E00E94DD1AD0
:100E100020E040E060E08CE390E00E94DD1A20E0FA
:100E200040E060E08DE390E00E94DD1A20E040E0C9
:100E300060E08EE390E00E94DD1AC1FF07C02FEF53
:100E40004FEF6FEF88E290E00E94DD1A80E0CF91D3
:100E500008950895089581E008958530B0F46530CF
:100E6000A0F44E3090F496E4899FF00111248EE0B6
:100E7000689FE00DF11D1124E40FF11DEE0FFF1F1F
:100E8000E05BFD4F85919491089581E090E0089595
:100E90000E942D07089581E008950E942B07089570
:100EA00008950E9450070895A5E0B0E0EAE5F7E054
:100EB0000C946E3249835A833091BD0289819A81A4
:100EC000311114C0662359F0222349F00E94C90C45
:100ED000182F682F89819A810E94A50C03C00E9457
:100EE000B70C182F69817A81812F04C00E94C90C28
:100EF00069817A810E942A132596E3E00C948A3254
:100F0000FC01262F408151816281738184810E947E
:100F10005407089581E00895CF93DF93EC0160E0DA
:100F20000E948007BE010E945107DF91CF91089572
:100F300008950E946E0B0E9498072FEF84E39CE0B7
:100F4000215080409040E1F700C0000008950E94C9
:100F500099070E94202B08950E9499070E94442B14
:100F600008950F931F93CF93DF93EC0161E00E94EC
:100F700080078C01BE010E944D07882341F1BE010C
:100F8000C8010E94B927882311F1BE01C8010E943F
:100F900035268823E1F0BE01C8010E941F2788235F
:100FA000B1F0BE01C8010E94DF25882381F08A814B
:100FB0008823A1F001308CE7180769F003308CE733
:100FC000180739F001151C4749F40E94A70780E073
:100FD00008C00E9479100E94AC07F9CFCE010E9490
:100FE0004B07DF91CF911F910F9108950E942D2AF9
:100FF0000E94BC210E94750881E00E94B1220895E0
:101000000E94790880E00E94B1220E94362A089549
:10101000CF92DF92EF92FF926C01EE24FF24C11475
:10102000D104E104F10421F0C701B60120E101C0BF
:1010300020E0C72ED82EE92EFF24C114D104E104EC
:10104000F10419F0285FC701B6016B017C0154E07F
:10105000F694E794D794C7945A95D1F7C114D10464
:10106000E104F10419F02C5FC701B6016B017C01AA
:1010700042E0F694E794D794C7944A95D1F7C11407
:10108000D104E104F10419F02E5FC701B601DC01BF
:10109000CB01B695A79597958795892B8A2B8B2B96
:1010A00009F02F5F822FFF90EF90DF90CF9008958F
:1010B000089581E008950895CF93DF93D82F0E947B
:1010C0005908C82F882319F08D2F0E945B088C2F98
:1010D000DF91CF9108950895CF93C82F0E945808AB
:1010E0008C2F0E945C08CF91089580E00E946C08CC
:1010F00008950E94CF280E946C080895CF930E9403
:10110000CF28C82F8091B802C81779F0C093B802D1
:101110000E94C32A6093B9027093BA028093BB0203
:101120009093BC028C2F0E946C08CF910895ABE085
:10113000B0E0EDE9F8E00C946F324F83588769878F
:101140007A878B8761110E9476109E012F5F3F4F37
:1011500086E0F90111928A95E9F785E0FE0137965C
:10116000D90101900D928A95E1F789819A814C818C
:101170005D81452B31F09F3F31F491E08F3F19F4B1
:1011800003C091E001C090E090FF09C049815A81FD
:101190006B817C818D819E810E94860F05C0C90173
:1011A0000E948A078111F2CF2B96E2E00C948B32D9
:1011B000FC01808191810E94FB0C0895662319F047
:1011C0000E942B1602C00E9486160E94FD160895EA
:1011D000CF93882309F450C0C82F8CEF8C0F813A2D
:1011E000D0F46C2F80910302909104020E94512947
:1011F000882349F06C2F80910302909104020E9491
:10120000DF290E9429106C2F809103029091040223
:101210000E94D1290CC080E28C0F883058F4C7702E
:1012200081E001C0880FCA95EAF70E9459100E9418
:10123000291022C0EBE5EC0FE33040F4F0E0E95A6E
:10124000FD4F808190E00E94072916C0E8E5EC0F71
:10125000EB3150F4F0E0EE0FFF1FEF5DFD4F8081AA
:1012600091810E942C2908C083E38C0F833120F4E4
:1012700061E08C2F0E94DE08CF9108958823A9F1A8
:101280009CEF980F913A40F4682F8091030290915F
:1012900004020E94DF290DC090E2980F983060F49C
:1012A000877091E001C0990F8A95EAF7892F0E9413
:1012B0005F100E94291008959BE5980F933028F441
:1012C00080E090E00E940729089598E5980F9B31EF
:1012D00028F480E090E00E942C29089593E3980F71
:1012E000933118F460E00E94DE0808951F93CF93B5
:1012F000DF93182FEB010E94E808209741F08FE957
:101300009FE00197F1F700C000002197F6CF812FF1
:101310000E943E09DF91CF911F910895893319F002
:1013200060E070E002C060E570E00E947609089518
:10133000882321F00E9459100E94291008958823C3
:1013400021F00E945F100E94291008951F93CF93EF
:10135000DF93D62FFC016281258122952F70172FF4
:1013600012951F70812F90E08C30910508F056C1C6
:10137000FC01EA5AFF4F0C945932872F807F7F700F
:10138000C72F882311F0C295C07F662399F0CC2324
:1013900009F430C180E28D0F883010F0D11104C003
:1013A0008C2F0E94591003C08C2F0E9469100E943C
:1013B000291020C18D2F0E943E09CC2309F42EC193
:1013C00080E28D0F883010F0D11104C08C2F0E9464
:1013D0005F1003C08C2F0E946F100E9429101EC145
:1013E000972F907F872F8F70903211F08295807F9A
:1013F000D13051F4662321F0263008F00FC108C027
:10140000253008F00BC114C0662329F02111F2C069
:101410000E94980903C1222359F0D93309F0FBC077
:10142000FFEF27EE83E0F15020408040E1F7F1C06C
:101430000E949F09F3C0872F86958695837019F0C7
:10144000813061F0EBC0662321F08D2F972F9370D0
:1014500002C080E090E00E940729E7C0662321F0E7
:101460008D2F972F937002C080E090E00E942C296E
:10147000DCC08D2F0E94DE08D8C0872F8370B9F59D
:101480006111CFC04D2F429546954770440F440FD0
:101490002D2F2F70822F90E09C01042E02C0220F6E
:1014A000331F0A94E2F7D4FF0AC08FE090E002C035
:1014B000880F991F4A95E2F78095909502C080E0C9
:1014C00090E0769576957370822B932B723049F06D
:1014D00058F4713019F00E94D80BA3C00E94CF0BB2
:1014E000A0C00E94E10B9DC00E94CC0B9AC0662355
:1014F00019F0872F817001C08695882309F491C067
:101500004D2F429546954770440F440F2D2F2F7055
:10151000822F90E09C01042E02C0220F331F0A94F8
:10152000E2F7D4FF0AC08FE090E002C0880F991F55
:101530004A95E2F78095909502C080E090E076951C
:1015400076957370822B932B723049F058F471307A
:1015500019F00E94400C65C00E94370C62C00E94C6
:10156000490C5FC00E94ED0B5CC0C72FCF70662393
:1015700039F08C2F0E94050C8D2F0E94980951C0C4
:101580008D2F0E949F098C2F0E94150C4AC0D13FBD
:10159000A9F018F4D03F31F029C0D23FB1F0D33FC9
:1015A000D9F024C0662339F02530C0F5872F8F711C
:1015B0000E94270C33C0263088F5F8CF662339F017
:1015C000872F8F710E94050C29C06623C9F3872FCE
:1015D0008F710E94150C22C0662329F0872F8F710E
:1015E0000E94F90B1BC00E94F40B18C0662331F057
:1015F000222331F38D2F0E94E80810C0222339F3F3
:10160000D93349F49FEFE7EEF3E09150E040F0402A
:10161000E1F700C000008D2F0E943E0918501430E1
:1016200020F40E94CF280E946C08DF91CF911F9177
:1016300008950F931F93CF93DF93EC016881798115
:101640008A810E94060D8C010E94520C0E94BD0BE3
:10165000B801CE010E94A609DF91CF911F910F9191
:101660000895CF93DF93FC019081818123813481A0
:10167000232B31F08F3F31F481E09F3F19F403C0F9
:1016800081E001C080E080FD0CC0EF01CF010E942D
:10169000B107882331F0CE010E94190BCE010E94C0
:1016A0008C07DF91CF91089580E090E00E94072998
:1016B00080E090E00E942C290E9476100E94291060
:1016C0000E941C170E94FD160895809103029091BC
:1016D00004020E94ED290E94540B08950E94661096
:1016E0000E94650B089592959F70963079F010F4E2
:1016F000925001C09A50923068F4803F69F018F41B
:10170000883E40F409C0843F29F406C0883E20F09A
:10171000813F11F080E0089581E00895FC019081FF
:10172000818123813481232B31F08F3F31F481E09B
:101730009F3F19F403C081E001C080E080FD07C035
:10174000808191810E94FB0C0E94730B089580E0C0
:101750000895A5E0B0E0EFEAFBE00C946F32259627
:10176000E2E00C948B32A6E0B0E0E9EBFBE00C94F5
:101770006F322696E2E00C948B32089508950E9411
:10178000BE0B08950E94BF0B08950E94C20B909358
:10179000E5028093E40208950E94C50B089520910C
:1017A000E4023091E502822B932B0E94C50B089531
:1017B0002091E4023091E502822393230E94C50B1D
:1017C00008952091E4023091E502822793270E9438
:1017D000C50B08950E94BE0B08950E94EA0B9093DA
:1017E000E3028093E202089580E090E00E94ED0B16
:1017F000089521E030E0A90102C0440F551F8A95E9
:10180000E2F7CA010E94ED0B089521E030E002C02A
:10181000220F331F8A95E2F78091E2029091E30252
:10182000822B932B0E94ED0B089521E030E002C043
:10183000220F331F8A95E2F7209530958091E202BE
:101840009091E302822393230E94ED0B089521E0FF
:1018500030E002C0220F331F8A95E2F78091E20246
:101860009091E302822793270E94ED0B0895209127
:10187000E2023091E302822B932B0E94ED0B08953C
:101880002091E2023091E302822393230E94ED0B28
:1018900008952091E2023091E302822793270E946B
:1018A000ED0B08950895962F9770A1E001C0AA0F3F
:1018B0009A95EAF793E0769567959A95E1F7660F22
:1018C000771F660F771FFA01E60FF71F40E050E021
:1018D000682F70E090819B01042E02C036952795F9
:1018E0000A94E2F72170219529272A232927219399
:1018F0004F5F5F4F4430510569F70895FB01782F22
:10190000777023E0969587952A95E1F7880F991FC0
:10191000880F991FE80FF91F40E050E080E0219107
:1019200030E0072E02C0369527950A94E2F7217021
:101930003327042E01C0220F0A94EAF7822B4F5F4F
:101940005F4F4430510559F70895282F953070F4B2
:101950008E3060F4862F622F70E02EE0929F600D33
:10196000711D11244EEB52E00E94530C08959530E6
:1019700070F48E3060F4292F90E06EEB72E03EE060
:10198000239F800D911D11240E947E0C089580E0FC
:101990000895A0E0B0E0EFECFCE00C9468327C012C
:1019A0000091E2021091E3028091E4029091E5023D
:1019B000082B192BCFE0D0E0CC24C394D12CC60146
:1019C0000C2E02C0880F991F0A94E2F780239123FE
:1019D000892B21F4219798F7B12C07C0BC2EB701B1
:1019E0008C2F0E9436130197A9F38B2DCDB7DEB74C
:1019F000E9E00C948432CF93DF93EC010E94C90C90
:101A0000BE010E943613DF91CF9108951F93CF93AB
:101A1000DF93EB019091BD02992321F0CB010E944D
:101A2000FB0C13C0882349F0CB010E94C90C182F6E
:101A3000682FCE010E94A50C04C0CB010E94B70CF8
:101A4000182FBE01812F0E943613DF91CF911F9175
:101A500008951F93CF93DF93C091E60216E0809123
:101A6000E702C81799F0D0E01C9FF0011D9FF00D10
:101A70001124E851FD4F408151816281738184813D
:101A800095810E94B30B2196C770E9CFDF91CF916A
:101A90001F910895409118035091190360911A0302
:101AA00070911B0380911C0390911D030E94B30B46
:101AB00008952091E6029091E70256E02917A9F0D7
:101AC00030E0529FF001539FF00D1124E851FD4F7B
:101AD0007181761306C07081781303C0728174130C
:101AE00006C02F5F3F4F2770E9CF80E0089581E067
:101AF00008950F931F93CF93DF9380911D038295D9
:101B00008F7009F05AC080911A03882309F455C0D8
:101B10008091E6021091E702609118037091190319
:101B2000C0911B03D0911C0391E06F3F09F090E03E
:101B3000292F06E0811709F440C0209721F07F3F4C
:101B400021F030E003C031E001C0322F90E030FDE1
:101B500031C0089FF001099FF00D1124DF01A85149
:101B6000BD4F11963C911197371324C03C91361309
:101B700021C012963C91129731111CC013964D91C1
:101B80005C9114974C1B5D0B483C510598F4809177
:101B90001D038F70806180931D03E351FD4F808191
:101BA0008F708061808388E193E00E94310B0E94F6
:101BB000290D03C001968770BDCFDF91CF911F9192
:101BC0000F910895A1E1B0E0E8EEFDE00C946532DC
:101BD0008C0185E0F801DE011D9601900D928A9539
:101BE000E1F7F801E28090911803209119034091E8
:101BF0001B0350911C034115510531F02F3F31F467
:101C000081E09F3F19F403C081E001C080E080FDC6
:101C10005EC1F801C080D1808380948088E1A82EC5
:101C200083E0B82EF0901A03B401641B750BFF20FB
:101C300009F41DC180911D03382F307F683C710568
:101C400008F0D7C031118AC0D21213C0C91211C016
:101C5000FE2CE1100EC08F70806180931D030E94E6
:101C60004A0DC5010E94310B80911D03F801858347
:101C700048C18114910439F0FFEFDF1206C081E002
:101C8000CF1203C003C081E001C080E080FD03C02B
:101C900081E08E2502C080E090E080FF05C04E2DDF
:101CA0006D2D8C2D0E94590D8114910439F02FEF68
:101CB000D21206C081E0C21203C003C081E001C09D
:101CC00080E080FD03C081E08E2502C080E090E0CE
:101CD000682F6170B62E80FF37C04E2D6D2D8C2D74
:101CE0000E94590DF82E81112FC0CD86DE868D857C
:101CF0009E850E94FB0C292F22952F70243020F402
:101D00009F70223028F009C02A50223088F017C076
:101D1000992351F0811108C0F4C0992329F0F801EA
:101D20009581907F09F4EDC0805E883040F4E9C071
:101D3000803F08F4E6C0815F833008F4E2C0C80148
:101D40000E94310BFB2CDDC0FE2CEE2009F4D9C023
:101D500080911D03816080931D0360C0D21212C068
:101D6000C91210C0E1100EC0F8018583C8010E949D
:101D7000310B86E0F801A8E1B3E001900D928A955D
:101D8000E1F7BDC0C8010E948E0B882361F1EE20EF
:101D900051F120911D03822F82958F7090E0029760
:101DA00074F0809118039091190398878F83198696
:101DB0009B868A862C87CE0107960E94310B86E08F
:101DC000F801A8E1B3E001900D928A95E1F70E9435
:101DD000790D0E944A0D0AC0D21611F1C8010E9465
:101DE0008E0B81112CC0C8010E94310BFF24F3948B
:101DF00088C03111F1CF782D998A888AA6016E2D7D
:101E000089890E94A90B88E193E00E94310B86E04A
:101E1000F50111928A95E9F70E944A0DF12C71C0E3
:101E2000C912DCCFE110DACFF8018583C8010E9426
:101E3000310B86E0F50111928A95E9F762C0EE2038
:101E400091F220911D03822F82958F7090E002976E
:101E50000CF4B5CF80911803909119039A8389836C
:101E60001B829D828C822E83CE010196A6CF683C78
:101E70007105F8F4FE2CEE2009F4B5CFD2120BC098
:101E8000C91209C086E0F801A8E1B3E001900D9203
:101E90008A95E1F736C0C8010E948E0B81118FCF61
:101EA00080911D03816080931D03C8010E94310B46
:101EB00028C0782D998A888AA6016E2D89890E946A
:101EC000A90B86E0F50111928A95E9F718C0EE207A
:101ED00009F489CFC8010E948E0BF82E882309F4DB
:101EE00082CF86E0F801A8E1B3E001900D928A95D7
:101EF000E1F788E193E00E94D8080E94790D0E94E2
:101F00004A0D8F2D6196ECE00C948132ACE0B0E08C
:101F1000ECE8FFE00C946E324F83588769877A872C
:101F20008B879C87CE0107960E94E20D8823D1F013
:101F30009F8188852A853B85232B31F08F3F31F4A3
:101F400081E09F3F19F403C081E001C080E080FD83
:101F500047C04F81588569857A858B859C850E940D
:101F6000B30B3EC086E0FE013796DE01119601906C
:101F70000D928A95E1F7FF81E8856A857B85611579
:101F8000710531F0EF3F31F481E0FF3F19F403C0F8
:101F900081E001C080E080FD23C02091E70230E0B5
:101FA000C9010196877099274091E60250E0841795
:101FB0009507F1F1F983EA837D836C8396E0929F24
:101FC000D001939FB00D1124A851BD4FFE01319651
:101FD00001900D929A95E1F78093E7020E94290DF6
:101FE00016E08091E6029091E702891771F1189F3F
:101FF000C001112488519D4F0E94E20D882329F1D0
:10200000E091E6021E9FF0011124E851FD4F40814E
:10201000518162817381848195810E94B30B80918B
:10202000E60290E00196877099278093E602D9CF67
:102030000E946E0B1092E7021092E602E8E1F3E0D4
:1020400086E0DF011D928A95E9F72C96E3E00C9477
:102050008A32CF93DF93E0910302F09104028091E2
:102060005F038083E0910302F091040290818091EC
:102070005E03892B8083C0910302D091040240E269
:1020800050E06EE173E0CE010E949F32892B59F03F
:1020900080E2FE01AEE1B3E001900D928A95E1F796
:1020A000CE010E94DF28DF91CF91089580915F03D8
:1020B000089590915F03892B80935F030895809525
:1020C00090915F03892380935F03089510925F03CB
:1020D000089590915E03892B80935E030895809507
:1020E00090915E03892380935E03089510925E03AE
:1020F00008956FEF7FEF80E090E00E940133089534
:1021000080E090E00E94CD3221E0873E9E4F09F0B2
:1021100020E0822F089582E090E00E94C532089569
:1021200083E090E00E94C532089584E090E00E9430
:10213000CD320895BC0184E090E00E9401330895FF
:10214000AB01BC018FE090E00E94F5320895AB0135
:10215000BC0183E190E00E94F532089560E070E0F8
:10216000CB010E94A710089560E070E0CB010E94AF
:10217000A0100E94AE10089567EE7EEF80E090E020
:102180000E94013360E082E090E00E94E33260E070
:1021900083E090E00E94E3321092E5021092E402A4
:1021A00060E074E184E090E00E94013360E086E04A
:1021B00090E00E94E3326FEF87E090E00E94E3320C
:1021C00040E050E0BA0188E090E00E94F53260E023
:1021D0008DE090E00E94E33240E050E0BA0188E1F7
:1021E00090E00E94F53260E087E190E00E94E332E7
:1021F00040E050E0BA018CE190E00E94F53260E0EE
:1022000070E080E290E00E94013340E050E0BA01CB
:1022100088E190E00E94F5320E94B41008950E9477
:10222000BC100895682F8EE090E00E94E33208957C
:10223000A5E0B0E0EEE1F1E10C946D320E94B72A26
:102240008C01809160039091610308171907A1F038
:102250008FEF89838A831B820E94B72A8160782F3F
:102260009D838C8349815A816B818D810E9497085F
:1022700010936103009360032596E4E00C94893287
:102280000E94C32A6093700370937103809372035A
:102290009093730360936C0370936D0380936E034C
:1022A00090936F03089581E0089581E008950E945E
:1022B0005511089508950E945A1108950E945A11C7
:1022C00008950E945E1108950E945A1108950E9477
:1022D000641108950E945A1108958AE194E10E94C0
:1022E000C5280E946A110E94671108950E945B111F
:1022F0000E945A1108950E9436140E946B080E9491
:10230000782208950E94AE2A0E940B150E947B112C
:10231000E1E3F5E0808180688083809131059091D0
:1023200032050E949A100E9461110895A5E0B0E064
:10233000ECE9F1E10C9463320E945311811103C066
:102340000E94181167C00E94211522E6E22E23E0A8
:10235000F22E5701D12CF501019111915F018D2DC4
:102360000E94541480279127D394F5E0DF1619F0CA
:10237000892B89F302C0892B19F38091740381FDA5
:102380000E945D140E945711682E10E0812F0E9458
:1023900054144C01F701A080B180A826B926A114DD
:1023A000B10479F100E0CC24C394D12CC5018C2177
:1023B0009D21892BF1F077247394C4018C219D21F8
:1023C000892B09F4712C662079F009831A837B82AA
:1023D0000E94B72A8160782F9D838C8349815A811E
:1023E0006B818D810E949708472D602F812F0E945D
:1023F000181E0F5FCC0CDD1C0E30C1F6F701918268
:1024000080821F5FF2E0EF0EF11C153009F0BECFA5
:102410000E9440110E94BC210E943E170E947E082B
:102420002596EEE00C947F321F93CF93DF930E94AA
:102430003B13EC01C11580E5D807E8F5C11590E420
:10244000D90708F0A8C0C03ED10530F5CD3CD10574
:1024500008F094C0C83AD10578F4C53AD10508F01F
:1024600083C0C130D10509F47CC008F4EBC0C4308E
:10247000D10508F0EAC0E6C0C33CD10508F0E2C0CF
:10248000C85AD0E0CC0FDD1FC65ADD4F0990D88165
:10249000C02DCE019464DAC0C11580E2D80708F0DF
:1024A000C4C0C11591E0D90708F06BC0C83ED10582
:1024B00008F4CBC0C7C0C03682E5D80728F5C034C1
:1024C00092E5D90708F07AC0C03282E5D80708F053
:1024D0006CC0C11592E5D90708F482C04C2F46950F
:1024E000469580E2489FA0011124C37021E030E0AE
:1024F000C90102C0880F991FCA95E2F7EA01C82BEB
:10250000D92BCE019D68A2C0C03C82E5D807E0F47B
:10251000C03A92E5D90708F07EC0C03882E5D807F6
:1025200008F090C08C2F8F718695869590E2899FD8
:1025300090011124C37081E090E002C0880F991FC0
:10254000CA95E2F79A6864C0C03E92E5D90708F0E0
:1025500079C0CF71DD27DC2FCC27CE01806F906A48
:1025600075C081E090E072C0C55AD0E0C057DD4F21
:102570008881C82FD0E0CE01906468C0CE019065FC
:1025800065C08D2F0E94D713182FCE0199270E9466
:102590003B131F7155C0CE0199270E943B13CC27D6
:1025A000DF70D06A8C2B9D2B51C0CF718C2F90E0A7
:1025B000D82FCC27CE01816F906A48C08C2F8F71A5
:1025C0008695869590E2899F90011124C37081E0E1
:1025D00090E002C0880F991FCA95E2F79C6818C066
:1025E0008C2F8F710E94D71395E0D695C7959A9539
:1025F000E1F7CF70D0E0DC2FCC27282F30E084FF2C
:1026000005C084E0220F331F8A95E1F7D069CE011F
:10261000822B932B1BC08C2F8F710E94D7138F712D
:10262000C82FD0E09C2F882711C08D2F8F710E945A
:10263000D713182FCE0199270E943B131F71906268
:10264000912B04C080E090E001C0CE01DF91CF91DA
:102650001F910895753038F46E3028F4462F672F97
:102660000E944807089580E090E008950E942A1390
:102670000E94141208958238910569F1B0F48133F3
:10268000910509F475C048F48932910509F467C0D1
:102690008A32910509F471C008958533910509F4D2
:1026A00059C089339105B9F00895833E910589F1A8
:1026B00038F4803E9105D1F0823E910529F10895CC
:1026C000863E9105C9F1873E9105D9F1843E910579
:1026D00009F06CC027C02091310520FD57C021FDB5
:1026E00055C02091320523FD5BC0089580913105CE
:1026F00080FD48C08091320580FF48C0809131053F
:1027000084FD46C083EE51C08091310582FF3CC0FC
:10271000F5CF8091310582FD37C08091320580FD73
:1027200035C0ECCF8091320581FF36C080913105F4
:1027300084FD2EC087EE39C08091310583FF2AC009
:10274000F5CF8091310583FD25C08091320581FD53
:1027500023C0ECCF8091310585FD22C01FC0809140
:10276000310585FD1BC08091320583FF19C00AC069
:102770008091310586FD16C017C08091310586FD18
:1027800013C010C089E311C082EE0FC080EE0DC0EF
:1027900080E00BC086EE09C084EE07C085E305C06B
:1027A00089E203C08AE201C081E390E0089590913C
:1027B000310592FF0DC0282F2871283019F4877F2A
:1027C000846006C0282F2471243011F48B7F886028
:1027D00093FF0DC0282F2871283119F4877E84615A
:1027E00006C0282F2471243111F48B7E886120913A
:1027F000320520FF0DC0382F3871383019F4877F2B
:10280000816006C0382F3171313011F48E7F8860BD
:1028100021FF0DC0282F2871283119F4877E81618E
:1028200006C0282F2171213111F48E7E886194FD1C
:10283000877E089580E008950E94791008950E948F
:1028400021158FEB9DE50197F1F700C000000E9474
:10285000211580E00E94541480FF04C00E941C14C3
:102860000E94202B08950E941F1408950E9480103A
:10287000811102C00E940F110E948B10809374037B
:102880000E94951090933205809331050E94331475
:102890000E94901090E00E94CC0B8091E2029091F7
:1028A000E3020E94EA0B0895E82FF0E0EE0FFF1F0D
:1028B000E35CFA4F808191810895089580EA8A95BA
:1028C000F1F7089500C008950E945E1408950E94D3
:1028D0002A0708950E9429070895F894E82FE295A1
:1028E000EF70F0E031A1282F2F7081E090E001C05F
:1028F000880F2A95EAF7982F9095932391A392A198
:10290000892B82A3789408950F931F93CF93DF931D
:10291000C1EAD2E089918F3F11F00E946D1482E0EC
:10292000C63AD807B9F7C3E9D2E001EA12E08991C3
:102930008F3F11F00E946D140C171D07C1F7DF9136
:10294000CF911F910F910895A0E0B0E0EAEAF4E181
:102950000C9468328C01C62FD0E0CE018F559D4F6C
:102960006C01FC0190819F3F09F450C0B62EF89491
:10297000E92FE295EF70F0E081A19F7021E030E057
:1029800001C0220F9A95EAF7822B81A382A120959C
:10299000282322A378940E946214E3E9F2E041EA3A
:1029A00052E021E030E0E12CF12C61916F3F89F0A1
:1029B000A62FA295AF70B0E090968C9190E06F70CA
:1029C00002C0959587956A95E2F780FD02C0C9011E
:1029D00002C080E090E0E82AF92A220F331F4E1748
:1029E0005F0719F7F60180818F3F11F00E946D1487
:1029F00061E0E114F10409F460E08B2D0E9464149D
:102A0000CC0FDD1FC00FD11FF982E882CDB7DEB732
:102A1000E9E00C9484320E9484148AE0EDE3F5E04E
:102A2000DF01982F1D929A95E9F7E3E3F5E0DF01C6
:102A30001D928A95E9F785E00E945C150E946A1450
:102A40000895AAE0B0E0E7E2F5E10C946C328E0163
:102A50000F5F1F4F8AE0F80111928A95E9F7F12C78
:102A60006F2DC8010E94A414F394F5E0FF12F8CF73
:102A70004AE050E0B80183E395E00E949F3221E0F4
:102A8000009709F420E0892B41F08AE0F801A3E3E4
:102A9000B5E001900D928A95E1F745E06DE375E0B0
:102AA00083E395E00E945D15182F0E946714812F23
:102AB0002A96E5E00C9488320895EF92FF920F93E6
:102AC0001F93CF93DF937C018B01C42F222349F006
:102AD00081E0809377030E94B72A909376038093D6
:102AE000750380917703811102C080E01CC0809142
:102AF0007503909176030E94CF2A0397B0F3D0E03C
:102B0000CC0FDD1FAE01B701C8010E949F32892B97
:102B100039F0AE01B701C8010E94AC3281E001C0BA
:102B200080E010927703CDB7DEB7E6E00C948732F1
:102B30000E94BE2C0E9482110E94CB2C08950E94FC
:102B4000D02C0E9496110E94EA2C08950E944E2AD1
:102B50000E94A42C0E946D110E9498150E949F153E
:102B60000E947611FBCF80917E0380FF06C06091AA
:102B70000A0270E0660F771F26C081FF04C06091D3
:102B80000A0284E005C082FF07C060910A0288E063
:102B9000689FB001112417C090917D039923D1F053
:102BA00060910902961788F720910A0288E0289F11
:102BB00090011124929FA001939F500D112470E069
:102BC000CA010E9404326038710540F46115710534
:102BD00019F406C068E070E0862F08958FE7089525
:102BE00081E0089580917E0380FF08C06091060215
:102BF00070E0759567957595679521C081FF06C052
:102C00006091060270E07595679519C082FF04C057
:102C10006091060270E010C090917C03992399F0B6
:102C2000609105029617A0F780910602899FC00166
:102C3000112470E00E9404326038710540F461157F
:102C4000710519F406C061E070E0862F08958FE7E2
:102C5000089581E008958D3C21F40E94B31581957B
:102C600004C08E3C29F40E94B3158093820308951A
:102C70008F3C21F40E94B315819504C0803D29F456
:102C80000E94B315809381030895893D19F40E9431
:102C9000F21505C08A3D31F40E94F21581958093AA
:102CA000830308958B3D21F40E94F215819504C0A1
:102CB0008C3D29F40E94F2158093840308959FE2CD
:102CC000980F983078F421E030E0A90102C0440F59
:102CD000551F9A95E2F7CA0190918003892B809342
:102CE000800308958D3D21F480917E0381600BC0A7
:102CF0008E3D21F480917E03826005C08F3D29F4D2
:102D000080917E03846080937E0308958D3C39F426
:102D10009091820397FF35C01092820359C08E3C78
:102D200029F4909182031916BCF32BC09091810372
:102D30008F3C29F497FF25C01092810349C0803D44
:102D400019F41916CCF31DC090918303893D29F421
:102D50001916BCF4109283033BC08A3D19F497FF07
:102D600010C0F8CF8B3D39F49091840397FF09C0D0
:102D7000109284032DC08C3D21F490918403191688
:102D8000BCF39FE2980F983080F421E030E0A90175
:102D900002C0440F551F9A95E2F7CA0180959091A1
:102DA000800389238093800313C08D3D21F480919B
:102DB0007E038E7F0BC08E3D21F480917E038D7F3C
:102DC00005C08F3D29F480917E038B7F80937E0325
:102DD00080918103811106C080918203811102C01C
:102DE00010927D0380918303811106C0809184033A
:102DF000811102C010927C0308950E94B72A20918D
:102E00008103211104C020918203222321F0909399
:102E10007B0380937A0320918303211104C02091C6
:102E20008403222321F090937903809378038FE722
:102E300093E00E94F9280895EFE7F3E086E0DF01D0
:102E40001D928A95E9F710927D0310927C031092EF
:102E50007E030895FC01828181110DC0838181115F
:102E60000AC08481811107C091E08581811101C070
:102E700090E0892F01C081E081700895A6E0B0E064
:102E8000E4E4F7E10C946E3286E0EFE7F3E0DE0174
:102E9000119601900D928A95E1F71092810310929C
:102EA000820310928303109284038B81811104C0EA
:102EB0008C81882309F45FC080917A0390917B0311
:102EC0000E94CF2AAC0190917D03992339F0209183
:102ED0000B0230E02417350758F04DC020910C024A
:102EE0008AE0289F900111242417350718F043C069
:102EF0009F3F19F09F5F90937D031B81112361F029
:102F00000E94B315111614F09FEF01C091E0989F35
:102F1000902D1124909381031C81112361F00E9454
:102F2000B315111614F09FEF01C091E0989F902DFA
:102F3000112490938203309181033323E1F0209197
:102F400082032223C1F045EB3403C00111249923ED
:102F500019F09093810303C081E08093810335EBE6
:102F60002303C0011124992319F09093820303C015
:102F700081E0809382038D81811104C08E8188233A
:102F800009F45FC080917803909179030E94CF2A61
:102F9000AC0190917C03992339F02091070230E035
:102FA0002417350758F04DC0209108028AE0289F69
:102FB000900111242417350718F043C09F3F19F0E2
:102FC0009F5F90937C031D81112361F00E94F21595
:102FD000111614F09FEF01C091E0989F902D1124DD
:102FE000909383031E81112361F00E94F215111644
:102FF00014F09FEF01C091E0989F902D11249093C1
:103000008403309183033323E1F02091840322234E
:10301000C1F045EB3403C0011124992319F09093BA
:10302000830303C081E08093830335EB2303C00156
:103030001124992319F09093840303C081E08093B5
:103040008403BE016F5F7F4F8FE793E00E94FF29EB
:10305000811105C08FE793E00E942A1781110E9419
:10306000FD1686E0FE013196AFE7B3E001900D92C8
:103070008A95E1F72696E3E00C948A32EF92FF926C
:103080000F931F93CF93DF938B01682F11110AC009
:10309000442329F0E82FF0E0E45FFA4F6491762FA3
:1030A000862F75C0212F30E0E82FF0E0442321F077
:1030B000E45FFA4FE491F0E046E0049FC001112480
:1030C000CFEFD0E0BE010E94F0314BEA4603C001D1
:1030D000479F900D1124800F911D800F911D982FF7
:1030E000990F890FAE01421B530B4E9FD0014F9F8A
:1030F000B00D5E9FB00D11249B2F189FA0011124CD
:10310000452F55278E01041B150B0E9FA0010F9F05
:10311000500D1E9F500D11247E01E81AF108E29E09
:103120008001E39E100DF29E100D1124212F3327F4
:10313000C21BD30BCE9F9001CF9F300DDE9F300D71
:10314000112462307105A9F048F46115710569F028
:1031500061307105C9F48B2F752F0DC06430710576
:1031600081F058F06630710579F47E2F8B2F932F04
:103170000DC0832F7B2F9E2F09C08E2F7B2F952F65
:1031800005C08E2F732F02C07E2F852F692FCDB7DC
:10319000DEB7E6E00C94873241E00E943E180895C5
:1031A00020E030E0869F212D969F200D311D1124B7
:1031B000C9010895BC018230910508F40895613E6B
:1031C0008EE1780748F49B0195E0369527959A950E
:1031D000E1F748E0420F01C04FEF91E0242F30E0CB
:1031E000290F311D35952795229FF001239FF00D62
:1031F000F00D11246E177F0718F44FEF420F04C033
:103200002F3F39F091E0920F491740F78FEF890F68
:1032100008958FEF0895409113025091140225E014
:1032200038E0429FC001439F900D529F900D1124A2
:10323000875E994C9093140280931302890F08952E
:10324000482F982F46FD9095E92FEF739F7046FD0C
:103250009F5FE295EF70EE0FF0E0EA55FD4F2181A0
:10326000299F802D212D112482958F702295207FFA
:10327000822B3081982F930F892F47FD819580589D
:103280000895E42FF0E0EE0FFF1FEA5BFE4F408150
:1032900034EE439F412D1124E82FF0E050E0445ECE
:1032A0005F4FDA01A21BB1099D01B7FF03C0319541
:1032B0002195310993E0220F331F9A95E1F7AF0171
:1032C000421B530B9A0157FF02C020E030E0582FF9
:1032D000259F212D1124822F0895EF920F93CF93D4
:1032E000DF93D72FC82F0E192115310521F457FF71
:1032F0002BC080E82AC0F90137FF04C0EE27FF2762
:10330000E21BF30BBA016E0F7F1F57FD0CC04E1B63
:103310005F0BCA01E5E0880F991FEA95E1F70E946B
:10332000043280E20CC0CB0165E0880F991F6A95DA
:10333000E1F7BF01641B750B0E94043280E6861B17
:1033400037FF03C0819501C080E0602F681B7D2F8F
:103350008C2FDF91CF910F91EF9008950F931F93D2
:10336000CF93DF93D62F072F182FC42F822F0E94C1
:103370002019EC2FF0E0EE0FFF1FEA5BFE4F90816B
:103380009058890F87FD8195880F682F2CE0629FE8
:10339000612D11246D0F702F812FDF91CF911F911F
:1033A0000F910895E42FF0E0EE0FFF1FEA5BFE4F50
:1033B0009081921B97FD9195292F38E1239F212D14
:1033C0001124620F089520914B0530E1230F08F47A
:1033D0002FEF60E1822F90E00E94D018BC0188EBB3
:1033E0009BE00E94F03180E090E008954095282F06
:1033F000429F412D1124842F089590917104892BAF
:103400008093710408950E94CC180895A0E0B0E064
:10341000ECE0FAE10C946132462F50E07EE0879FA9
:1034200090011124F901E050FF4FE40FF51FC08116
:10343000CF3F09F47CC0562E682E70EA872E74E0C8
:10344000972EE0E0CE2EE1E0DE2E712CD0E0CE0112
:10345000880F991FFC01EA5BFE4F5F01EC01C95B1D
:10346000DE4F20563B4F7901E40EF51E00E010E0E0
:1034700088E2482EF601E00FF11F20812F3F09F46A
:1034800046C067100AC0501208C0F701208130E220
:10349000230F08F42FEF20833AC030E0F50140817C
:1034A00050E0F901EE0FFF1FEA5BFE4F8081481BE1
:1034B0005109888190E0220F331FF901E95BFE4F2B
:1034C0002081BC01621B71099B01449FB001459F93
:1034D000700D700D1124229FC001239F900D900D3F
:1034E0001124860F971F0E94DA18893280F4242D48
:1034F000782F271B08F420E0F401E00FF11F2131A1
:1035000008F020E13081320F08F43FEF30830F5F85
:103510001F4F0E30110509F0ADCF73948EE0880E69
:10352000911C9EE0C90ED11CE5E07E129FCFCDB765
:10353000DEB7E0E10C947D32E7E4F5E085E08083DE
:1035400080911E0290911F02A0912002818392839C
:10355000A3838FE784838FEF858346E050E06CE19F
:1035600070E0CF010E94D33210927104089580E080
:1035700008950F931F93CF93DF93C82FD62F8A01FF
:103580000E94B71A9EE0C99FF0011124E050FF4F3E
:10359000ED0FF11D90819F3F29F0F801E80FF11D1B
:1035A00090838F5FDF91CF911F910F910895E091EC
:1035B000B402F091B50209950895E091B002F0913E
:1035C000B102099508954F925F926F927F928F9208
:1035D0009F92AF92BF92CF92DF92EF920F931F9381
:1035E000CF93DF932C013B01FC01C0818DE0C89F8C
:1035F000C02D1124DDE0DC0FD03408F0DFE3609152
:103600004B05669580914D0590914E050E94D0180E
:10361000182FCD1708F044C08C2E912CF401EC53D8
:10362000FE4F9081F20181818923C1F1F401EE0FF7
:10363000FF1FEA5BFE4FC080D12CF0E7CF1AD10804
:10364000F401EE0FFF1FE95BFE4FA080B12C80E27A
:10365000A81AB108CC9C9001CD9C300D300D1124DE
:10366000AA9CC001AB9C900D900D1124820F931F5A
:103670000E94DA18082F60914805709149058091E1
:103680004A05E12E9501A601F30109950E94031A4E
:10369000462F282F672FC4010E94DD1ACF5FB9CFB4
:1036A00081E0DF3308F080E0DF91CF911F910F912F
:1036B000EF90DF90CF90BF90AF909F908F907F90D2
:1036C0006F905F904F9008956DE679E10E94E31A44
:1036D0000895A0E0B0E0EFE6FBE10C9468328C01C5
:1036E0007B01FC01C0818DE0C89FC02D1124DDE06D
:1036F000DC0FD03408F0DFE360914B0566956695EA
:1037000021E0620F08F46FEF80914D0590914E0516
:103710000E94D018B82ECD17F0F4CC2ED12CF60183
:10372000EC53FE4F9081F8018181892391F06091E3
:1037300048057091490580914A052B2D4C2FF701C2
:1037400009950E94031A462F282F672FC6010E9451
:10375000DD1ACF5FE0CF81E0DF3308F080E0CDB746
:10376000DEB7E9E00C94843261E479E10E94691BE0
:1037700008956EEA79E10E94691B089562ED79E18E
:103780000E94691B0895A0E0B0E0E9ECFBE10C9415
:1037900067328C017B01FC01C0818DE0C89FC02D88
:1037A0001124DDE0DC0FD03408F0DFE320914B057D
:1037B00031E0230F08F42FEF30E040E050E06FEFEE
:1037C0007FEF80E090E00E943A326901CD1708F067
:1037D00041C0AC2EB12CF501EC53FE4F9081F801A5
:1037E00081818923A9F190915105915097FD15C0D0
:1037F000292F092E000C330BF901EF5AFA4F81895A
:10380000C813F3CF220F331FF901EF5AFA4F218D5E
:10381000328D2C153D0548F701C0960160914B058E
:1038200041E0640F08F46FEFC9010E94D018AC01A9
:10383000609148057091490580914A05F701099505
:103840000E94031A462F282F672FC5010E94DD1AF8
:10385000CF5FBCCF81E0DF3308F080E0CDB7DEB7CB
:10386000EAE00C94833266EF79E10E94C31B08956D
:10387000A0E0B0E0EEE3FCE10C946A328C01DC01E4
:103880008C91CDE08C9FC02D1124DDE0DC0FD03475
:1038900008F0DFE3609148057091490580914A0581
:1038A0000E94031AF62EE72ED82ECD1798F4EC2F8F
:1038B000F0E0DF01AC53BE4F8C91D80111969C9182
:1038C000982331F02D2D4F2D6E2DCF010E94DD1A42
:1038D000CF5FEBCF81E0DF3308F080E0CDB7DEB71C
:1038E000E7E00C948632A0E0B0E0E9E7FCE10C945C
:1038F00067328C01FC01C0818DE0C89FC02D11246E
:10390000DDE0DC0FD03408F0DFE3E0904905F09013
:103910004A05D09048056D2D7E2D8F2D0E94031AEB
:10392000C62EB72EA82E60914B056D0D7E2D8F2DC6
:103930000E94031AF62EE72ED82ECD17B8F48C2F3E
:1039400090E0FC01EC53FE4F3081F80121812323EC
:1039500059F030FF04C02D2D4F2D6E2D03C02A2DA0
:103960004C2D6B2D0E94DD1ACF5FE7CF81E0DF3356
:1039700008F080E0CDB7DEB7EAE00C948332A0E037
:10398000B0E0E5ECFCE10C9468327C01FC01C08104
:103990008DE0C89FC02D1124DDE0DC0FD03408F08D
:1039A000DFE3C0904905B0904A0520914B0530E413
:1039B000D32E3D2D329F312D1124D32ECD1738F526
:1039C0000C2F10E0F801EC53FE4F9081F70181813C
:1039D0008923D9F0F801EE0FFF1FEA5BFE4F6081EB
:1039E000D69EB001112495E0759567959A95E1F7FB
:1039F00080914805680F7C2D8B2D0E94031A462F5D
:103A0000282F672FC8010E94DD1ACF5FD7CF81E032
:103A1000DF3308F080E0CDB7DEB7E9E00C94843204
:103A2000A0E0B0E0E6E1FDE10C946A328C01DC013B
:103A3000CC918DE0C89FC02D1124DDE0DC0FD03487
:103A400008F0DFE3E0904905F0904A05D090480582
:103A500060914B0566956695669580914D059091B0
:103A60004E050E94D0180E942019805887FD81952C
:103A7000880F682F2CE0629F612D11246D0D7E2D23
:103A80008F2D0E94CC18F62EE72ED82ECD1798F445
:103A9000EC2FF0E0DF01AC53BE4F8C91D8011196B2
:103AA0009C91982331F02D2D4F2D6E2DCF010E942A
:103AB000DD1ACF5FEBCF81E0DF3308F080E0CDB7D8
:103AC000DEB7E7E00C948632E091B202F091B302E7
:103AD00009950895A0E0B0E0E0E7FDE10C946032C4
:103AE0007C01DC015C908DE0589E502C11243DE05F
:103AF000632E650CBFE3B61510F42FE3622EF701B9
:103B00008281882361F040E060E080E00E94641DD3
:103B100086E4E0EAF4E0DF011D928A95E9F7F70117
:103B20008081811115C08091E7049091E8040E9482
:103B3000CF2A21E08931910508F420E02093E604A2
:103B4000499730F00E94B72A9093E8048093E704E5
:103B500000E011E080EAC82E84E0D82E412C9AEAD9
:103B6000392EC0E0D0E048018C0E9D1ED401EC91AE
:103B7000E51508F441C0E61508F03EC04394F0E0B6
:103B8000EC53FE4F9081F7018181892309F434C001
:103B90005601AC0EBD1ED5017C90272D35E5231BAB
:103BA00008F420E0632D621B70914905232D372D09
:103BB000230F08F42FEF30914A0582E0289F200D53
:103BC00011242E5F239F212D1124822F0E94031A7E
:103BD000462FD4019C91282F672F892F90E00E94B7
:103BE000DD1A8091E604882339F0272D31E0231B6C
:103BF00008F420E0D5012C932196CE30D10509F0B0
:103C0000B2CFB1E008331B0749F0025F1F4FEEE06F
:103C1000CE0ED11CFCE0F41508F0A3CF81E03EE30A
:103C2000361508F480E0CDB7DEB7E1E10C947C32C4
:103C3000A8E0B0E0EEE1FEE10C946732C82EB62EAB
:103C4000A42E0E945511882309F47AC0AA2049F0B5
:103C5000AE014F5F5F4F6B2D8C2D0E94B91AD82E8D
:103C600001C0D12C0D2D10E0809172049801280F15
:103C7000311D293031056CF188E090E07C01E01ABB
:103C8000F10AB8016D587B4FA70183E794E00E94C9
:103C9000AC32B80165587B4FA7018BE794E00E94D6
:103CA000AC32A701440F551FB801660F771F655747
:103CB0007B4F8BE894E00E94AC32B8016D577B4F8C
:103CC000A70183E894E00E94AC3288E08D198093CC
:103CD000720410917204DE01119640E0842F810F6E
:103CE000D41609F190E05D91252F30E0BC016E58AB
:103CF0007B4FF901EE0FFF1FEA5BFE4F0081FB01D6
:103D00000183220F331FF901E95BFE4F2081FB0184
:103D10002187518B880F991FFC01EE58FB4F128EA3
:103D2000118E4F5FDBCF80937204AA2049F08091FF
:103D300047058C7F803321F46B2D8C2D0E94061A51
:103D40002896EAE00C94833280914D0590914E05BF
:103D5000A0914F05B091500588279C70AA27BB27DA
:103D60002AE0B695A795979587952A95D1F7823041
:103D70009105A105B10571F083309105A105B1054B
:103D800069F040E00197A105B10511F060E008C0BD
:103D900064E102C044E160E080E003C044E164E12A
:103DA00084E10E94641D0895A3E0B0E0EAEDFEE125
:103DB0000C9463328B83809111022B8182130DC08E
:103DC00020914705237030E04091120250E081E0DD
:103DD0002417350719F480E001C081E081708093D9
:103DE000100280914C0590910F02981739F0809342
:103DF0000F0240E060E080E00E94641DFB81F7302C
:103E000031F48EE092E00E94B91B8A832EC0F83014
:103E100008F441C03B813B3009F48AC008F079C204
:103E2000393009F09AC180910E021DE0819F102D5A
:103E30001124135F40914D0550914E0560914F053F
:103E40007091500580916D0490916E04A0916F0463
:103E5000B091700484179507A607B70708F427C127
:103E6000F1E0FA831F3308F04DC080910E028F5F9E
:103E700080930E029A81911167C282E080930D02B5
:103E800080911002811160C2EB81E1115DC283E07B
:103E900080930D0259C2F33029F48EE092E00E9423
:103EA000BF1CB3CFF43080F5F13029F48EE092E0FE
:103EB0000E94381CAACFF23050F48091100288235F
:103EC00009F140E060E080E00E94641D1BC08EE0CC
:103ED00092E00E94731C99CF4091690450916A044A
:103EE00060916B0470916C0480914D0590914E052A
:103EF000A0914F05B091500584179507A607B70705
:103F000008F033C11A82B1CF2B81253029F48EE01D
:103F100092E00E94641B79CF263028F48EE092E074
:103F20000E94B41B72CF8EE092E00E94101D6DCFF4
:103F300080911002882329F040E060E080E00E9438
:103F4000641D80910E029DE0899F802D1124835F66
:103F5000898340914D0550914E0560914F057091B8
:103F600050058091A8039091A903A091AA03B09154
:103F7000AB0384179507A607B70708F091C06091B7
:103F800048057091490580914A050E94031A6A8389
:103F9000772E682E85E8E82E83E0F82E00E011E009
:103FA00048015701C12CD12CF5018081F801EC0D9D
:103FB000FD1D882369F08081262D4A81672D90E0C0
:103FC0000E94DD1AF4018585262D4A81672D0CC0DB
:103FD000808120E040E060E090E00E94DD1AF40182
:103FE000858520E040E060E090E00E94DD1AF50168
:103FF000818181935F01FFEFCF1ADF0A21E0821AEE
:10400000910836E0C316D10479F6F7018681F801EC
:10401000882369F08681262D4A81672D90E00E94D1
:10402000DD1AF8018781262D4A81672D0CC0868113
:1040300020E040E060E090E00E94DD1AF801878116
:1040400020E040E060E090E00E94DD1A0E940B1941
:10405000837091E009F090E0F7019683F7E0EF0EAE
:10406000F11C025F1F4F21E00634120709F098CFC0
:104070000E94E31900914D0510914E0520914F05C6
:1040800030915005DC01CB01800F911FA21FB31F9F
:104090008093A8039093A903A093AA03B093AB03C2
:1040A00031E03A8389818F3308F4DFCE2BCF0E9431
:1040B0000B193FE3839FC0011124E92EFF24E7FC85
:1040C000FA94F701EC53FE4F908180910F028923FF
:1040D00009F4C6CE0E940B1981FF04C020E040E025
:1040E00060E013C00E940B1989830E940B19E0E85D
:1040F0008E9FC00111247FE7790F698180914A0565
:104100000E94031A462F282F672FC7010E94DD1A2D
:1041100020914B0530E1230F08F42FEF60E1822F4F
:1041200090E00E94D018BC0184EF91E00E94F03131
:1041300080914D0590914E05A0914F05B09150058D
:10414000860F971FA11DB11D80936D0490936E047F
:10415000A0936F04B093700483CE3A3008F0BCCEC5
:104160008EE092E00E94BE1B50CE80911002811121
:104170000EC080910E022DE0829F802D1124898334
:10418000082F035F003408F457C00FE355C040E028
:1041900060E080E00E94641D7CEAE72E73E0F72E69
:1041A00000E010E00E940B1981FF05C0F7011082AA
:1041B000118212821EC00E940B1989830E940B1962
:1041C000F0E88F9FC00111247FE7790F6801CC0CC4
:1041D000DD1CC601800F911F9C0124553C4F6901D5
:1041E000698180914A050E94CC18F6016083718331
:1041F00082830F5F1F4FF3E0EF0EF11C0F331105A9
:1042000089F6B7CF2981822F90E0FC01EC53FE4F55
:10421000308120910F02232361F0FC01EE0FFF1F7C
:10422000E80FF91FE455FC4F2281408161810E9413
:10423000DD1A39813F5F39838981801718F391E056
:104240009A830F3308F01A820F3308F40ECE20E061
:1042500010E001501109822F90E080179107C4F4FB
:10426000DC01AA0FBB1FA80FB91FA455BC4F0196B4
:10427000FC01EE0FFF1F8E0F9F1FFC01E455FC4F4A
:10428000C080D180E280CD92DD92EC922F5FE3CFAF
:104290000E940B197801EE0CFF1C81FF09C00E0D66
:1042A0001F1DF801E455FC4F10821182128218C0C4
:1042B0000E940B19D82E0E940B19E0E88E9FC001B6
:1042C00011247FE7790F0E0D1F1D04551C4F6D2D16
:1042D00080914A050E94CC18F80160837183828323
:1042E0000E94E31900914D0510914E0520914F0554
:1042F00030915005DC01CB01800F911FA21FB31F2D
:104300008093690490936A04A0936B04B0936C0447
:10431000ACCD8B818D3029F48EE092E00E94331C6D
:1043200074CD8D3028F48EE092E00E946A1D6DCD30
:104330008F3F21F40E94A41E82E0AACD80910E023C
:104340008F5F80930E0299CD2396EEE00C947F321E
:1043500081E008950E94A8210895FC018081815088
:104360009DE0899F802D11246DE0680F603408F076
:104370006FE30E94AA2108954F925F926F927F92FD
:104380008F929F92AF92BF92CF92DF92EF92FF9265
:10439000CF9360919B0470919C0480919D049091B7
:1043A0009E040E94DE2A6B017C010E94C32A4B01FD
:1043B0005C0160939B0470939C0480939D04909394
:1043C0009E04A0917204E2E7F4E08A2F90E04FEFA0
:1043D0005FEF60E070E04C195D096E097F09A91775
:1043E00099F0218D328D2901612C712C44155505D0
:1043F0006605770510F4815004C02C0D3D1D328FE9
:10440000218F9F5F3296EBCF8093720480919F043F
:10441000811108C0C09147058C2F837019F0C69593
:10442000C69501C0C0E080910D028130D9F028F01E
:10443000823021F1833079F14DC010920E028092CA
:104440004D0590924E05A0924F05B092500589E21D
:10445000E2E7F4E0A1E5B5E001900D928A95E1F77D
:1044600081E016C08C2F0E94D41ECC2399F10E94AB
:10447000F5038EE092E00E94AD212CC0C0931102A2
:10448000809147058370809312020E94D71A83E0BF
:1044900080930D021FC080917104882351F046E083
:1044A00050E06CE170E087E495E00E94D332109216
:1044B000710460914D0570914E0580914F0590916A
:1044C00050050E94DE2A603171058105910510F0CA
:1044D00010920D02CF91FF90EF90DF90CF90BF90A0
:1044E000AF909F908F907F906F905F904F900895C6
:1044F000E091AE02F091AF02099510925105EAE603
:10450000F5E08FEF9FEF8193919325E0EA37F20773
:10451000D1F710927204EBE8F4E08FEF9FEF8193F4
:10452000919324E0EB39F207D1F70E9480108111BA
:1045300004C00E940F110E949C1A81E080937104B4
:1045400046E050E06CE170E087E495E00E94B5320F
:1045500010927104809147058C7F11F40E949C1A7F
:104560000895CF93C82F882391F080919F048111E3
:104570000EC00E94D41E10921102809147058370D4
:10458000809312020E94D71A83E080930D02C09399
:104590009F04CF910895E7E4F5E0208191E0922710
:1045A000908310920D020E94FD19089581E00E94EF
:1045B000CB22089590914705937091F0811102C02C
:1045C000946007C08E3010F0946303C0880F880F8A
:1045D000982B90934705862F10920D020E94FD198B
:1045E000089561E00E94DA220895682F90914705AE
:1045F000969596959F5F9E3010F4892F01C081E0BB
:104600000E94DA22089581E00E94F5220895682F21
:104610009091470596959695915011F0892F01C07C
:104620008DE00E94DA22089581E00E940723089518
:1046300090914705937049F0809348056093490530
:1046400040934A05822F0E94FD190895A7E4B5E022
:104650001196EC911197F0E0282F13964C91139737
:1046600012966C91CF0108960E941823089581E05C
:104670000E9426230895A7E4B5E01196EC911197C6
:10468000F0E0282F13964C91139712966C91CF015E
:1046900008970E941823089581E00E943B23089503
:1046A000E7E4F5E0628120E1620F08F46FEF9181A9
:1046B000282F4381892F90E00E941823089581E0DC
:1046C0000E9450230895E7E4F5E0628120E1621B37
:1046D00008F460E09181282F4381892F90E00E94A7
:1046E0001823089581E00E9463230895E7E4F5E02C
:1046F000438120E1420F08F44FEF9181282F62811E
:10470000892F90E00E941823089581E00E9476236B
:104710000895E7E4F5E0438120E1421B08F440E01E
:104720009181282F6281892F90E00E94182308959B
:1047300081E00E9489230895E7E4F5E0248130E1D7
:10474000230F08F42FEF24830E94FD19089581E0C0
:104750000E949C230895E7E4F5E0248130E1231BC7
:1047600008F420E024830E94FD19089581E00E944E
:10477000AB23089560E080E50E946A250895CF93F9
:104780000E94FC2760E080E50E941824C0E021E040
:1047900041E061E08C2F0E94C124CF5FCF33B9F795
:1047A00060E080E50E949C25CF91089560933A06D1
:1047B00040933B0624E630E042E050E06AE376E0D6
:1047C000880F0E94A42821E0892B09F020E0822F85
:1047D0000895EF92FF921F93CF93DF937B01182FE1
:1047E000110FC0E0D0E0C0933A06D701AC0FBD1F57
:1047F000EBE3F6E08D91819386E0EB34F807D1F797
:1048000024E630E041E150E06AE376E0812F0E9447
:10481000A428892B31F46096C03CD10521F781E0B2
:1048200001C080E0DF91CF911F91FF90EF9008953C
:104830001F93CF93DF93C82FD62F45EC6EEF0E94C6
:10484000D62340E06DEF8C2F0E94D62310E040E08D
:10485000612F8C2F0E94D6231F5F1831C1F745ECC2
:104860006EEF8C2F0E94D62341E06DEF8C2F0E94BB
:10487000D62310E040E0612F8C2F0E94D6231F5FCB
:10488000103CC1F745EC6EEF8C2F0E94D62343E01D
:104890006DEF8C2F0E94D62340E06FE08C2F0E949A
:1048A000D62340E060E18C2F0E94D6234FEF61E0D9
:1048B0008C2F0E94D62380E4D89FA0011124416050
:1048C00060E08C2F0E94D6238FE39CE90197F1F7DB
:1048D00000C00000DF91CF911F910895A4E0B0E0E7
:1048E000E4E7F4E20C946C328F33910568F5122FF3
:1048F000042FF62EBC01660F771F660F771F6C5AC8
:104900007E4F44E050E0CE0101960E9496328981AC
:1049100083702A81E82FF0E030EC839FC0011124DE
:1049200086589A4FDC01A20FB11DFC922B81DC014D
:10493000A20FB11D0C932C81DC01A20FB11D1C93A1
:10494000EE5FFA4F81E080832496E5E00C94883294
:10495000FF920F931F93CF93DF93182F062FF42E00
:10496000C0E0D0E02F2D402F612FCE010E946E2499
:104970002196CF33D105B1F7CDB7DEB7E5E00C9482
:104980008832A4E0B0E0E7ECF4E20C946B32F62E4F
:10499000042F122F24E0829FC0011124BC016C5A05
:1049A0007E4F44E050E0CE0101960E9496325A813B
:1049B000852F8695869586954B81A42FA695A695DD
:1049C000A6953C81E32EE694E694E69457704770F2
:1049D0003770298190E0622F6370FF2089F078E1C1
:1049E000679F800D911D112486519B4F61E070E0FF
:1049F00001C0660F5A95EAF7FC015081652B11C082
:104A0000F8E16F9F800D911D112486519B4F61E04D
:104A100070E001C0660F5A95EAF76095FC0150817D
:104A200065236083B0E0822F8370002381F0F8E17A
:104A30008F9FA00DB11D1124A651BB4F81E090E0C6
:104A400001C0880F4A95EAF79C91892B10C078E144
:104A5000879FA00DB11D1124A651BB4F81E090E0AE
:104A600001C0880F4A95EAF780959C9189238C9321
:104A7000EE2DF0E0822F8370112381F098E1899F61
:104A8000E00DF11D1124E651FB4F81E090E001C0E3
:104A9000880F3A95EAF79081892B10C078E1879FBB
:104AA000E00DF11D1124E651FB4F81E090E001C0C3
:104AB000880F3A95EAF78095908189238083237047
:104AC000E22FF0E0E751FB4F81E080832496E6E09F
:104AD0000C948732EF92FF921F93CF93DF93C62FF0
:104AE000D0E09E012E5F3A4F7901F9019081992320
:104AF000D9F0182F45EC6EEF0E94D62341E06DEF00
:104B0000812F0E94D62380EC8C9FB0018D9F700D69
:104B1000112466587A4F812F0E94E923811104C025
:104B2000C751DB4F81E08883F7011082DF91CF917D
:104B30001F91FF90EF900895CF92DF92FF920F9315
:104B40001F93CF93DF93262F30E0A90147515B4F8E
:104B50006A01FA01908191110AC0F6011082DF9179
:104B6000CF911F910F91FF90DF90CF900895C62FA6
:104B7000F82E45EC6EEF0E94D62340E06DEF8F2DAE
:104B80000E94D623F8E1CF9FE001112400E010E05D
:104B9000F801EC0FFD1FE651FB4F4081602F8F2D78
:104BA0000E94D6230F5F1F4F0831110589F7D5CF1B
:104BB000882311F0FA0101C0FB01099508951F93A4
:104BC000CF93DF93FB01128111114AC0EC010E94C7
:104BD00056108272FE01E052F847E531F10520F4EB
:104BE000EE59FF4F0C94593211E03AC00E94D62280
:104BF00037C044E153E263E073E204C043E053E2B0
:104C000064E173E20E94D8252BC04CE453E267E3D1
:104C100073E2F8CF47E353E26CE473E2F3CF42E789
:104C200053E26FE573E2EECF4FE553E262E773E2E2
:104C3000E9CF48E953E265E873E2E4CF45E853E29F
:104C400068E973E2DFCF46EB53E267EA73E2DACF5B
:104C500047EA53E266EB73E2D5CF81E00E94F1228E
:104C6000812FDF91CF911F910895CF93DF93FC01A6
:104C7000DB0112968C91882309F4DDC09F01305727
:104C80002332310508F0D8C0EF010E9495109093AF
:104C9000320580933105FE01E150F047E232F10523
:104CA00020F4E958FF4F0C9459328091310581600E
:104CB000AAC0809132058860B2C0809131058260BF
:104CC000A2C08091310520C08091310588609BC0D1
:104CD000809132051EC0809132058260A0C0809113
:104CE0003105806190C08091310580628CC08091D7
:104CF0003105806488C00E946E0B80913105806808
:104D000082C080913105886084607DC080913205C9
:104D10008260816084C0809131058E7F74C08091F3
:104D20003205877F7CC0809131058D7F6CC080917A
:104D3000310520C080913105877F65C080913205A3
:104D40001EC0809132058D7F6AC0809131058F7EB3
:104D50005AC0809131058F7D56C0809131058F7B7F
:104D600052C00E946E0B809131058F774CC08091AC
:104D70003105877F8B7F47C0809132058D7F8E7F85
:104D80004EC08091310582FB222720F991E09227C5
:104D900090FB82F990FB83F936C080913205982F01
:104DA000909591708E7F892B90FB81F938C080910E
:104DB000310586FB222720F991E0922790FB86F9A6
:104DC00022C00E946E0B8091310587FB222720F9BB
:104DD00091E0922790FB87F916C081E001C080E046
:104DE0000E9412111EC08091310584FB222720F9F8
:104DF00091E0922790FB84F906C080913105982FAD
:104E0000909590FB80F9809331050BC0809132051D
:104E100083FB222720F991E0922790FB83F980936E
:104E2000320580913105909132050E949A100E94BE
:104E30006E0B80E001C081E0DF91CF910895CF93A8
:104E4000DF9386319C4741F5EB010E945610982F65
:104E50008A812091030230910402882379F09A7AA2
:104E600081E009F480E080930305911102C069E2BA
:104E700001C065E3C9010E94D1290AC080910305E0
:104E8000811102C069E201C065E3C9010E94DF2906
:104E90000E94291080E001C081E0DF91CF91089548
:104EA0000F931F93CF93DF93C42FD22FFC018281E6
:104EB0008823B1F0409306050E94B72A9093050518
:104EC0008093040580E28C0F883008F04DC0C770D5
:104ED00081E001C0880FCA95EAF70E94980944C092
:104EE00080910605481330C0809104059091050516
:104EF0000E94CF2A883C910538F510E21D0FCD178E
:104F0000B9F080E28C0F883040F4C77081E001C0B6
:104F1000880FCA95EAF70E949F09183010F581E0C2
:104F20009D2F977001C0880F9A95EAF70E94980903
:104F3000802F0E948E091830B8F4D77081E001C02C
:104F4000880FDA95EAF70AC080E28C0F883060F4A7
:104F5000C77081E001C0880FCA95EAF70E949F09D7
:104F600003C0802F0E948E09DF91CF911F910F9176
:104F700008950F93FC01E851FC47E730F10590F5E7
:104F8000CB01E756FF4F0C94593206E221EE41EE79
:104F90006AE17CE723C007E225EE45EE6BE17CE7A2
:104FA0001DC006E221EE40EE68E17CE717C007E293
:104FB00025EE44EE69E17CE711C006E221EE42EE07
:104FC0006CE17CE70BC007E225EE46EE6DE17CE785
:104FD00005C008E221E045EE6EE17CE70E94502723
:104FE00080E008C0FB018281882319F01092060539
:104FF00001C081E00F9108951092B9008CE0809378
:10500000B8000895A0E0B0E0E8E0F8E20C94663261
:10501000B82EEB010E94B72A6C01C431D10558F0BB
:10502000CF3F8FEFD80759F0CE0164E170E00E94C6
:10503000F0317B0107C0EE24E394F12C03C025E09E
:10504000E22EF12C84E8A82E94EA992E1092BC004E
:105050009092BC000E94B72A8C018091BC0087FD11
:1050600007C0C8010E94CF2AE816F906B0F729C088
:105070008091B900887F883041F08091B900887FA5
:10508000803119F00FEF1FEF1EC0B092BB00A0924D
:10509000BC000E94B72A8C018091BC0087FD07C02C
:1050A000C8010E94CF2AE816F906B0F70AC080911D
:1050B000B900887F883111F0803421F700E010E0DA
:1050C0000EC00EEF1FEFCF3F8FEFD80709F4BECF12
:1050D000C6010E94CF2AC817D90708F0B7CFC80168
:1050E000CDB7DEB7EBE00C9482320F931F93CF93D2
:1050F000DF93EB018093BB0084E88093BC000E94A7
:10510000B72A8C018091BC0087FD0DC0CF3F8FEF87
:10511000D807C1F3C8010E94CF2AC817D90790F752
:105120008EEF9FEF0CC02091B900287F81E090E0C6
:10513000283211F480E090E0919581959109DF91FA
:10514000CF911F910F910895A0E0B0E0EAEAF8E254
:105150000C9469326B018A017901B9010E9402281D
:10516000E6010C0D1D1DC017D10741F424E9209361
:10517000BC00CDB7DEB7E8E00C94853297FDF6CFE2
:10518000B70189910E947528EECF9093B702809362
:10519000B602089590930C0580930B050895E09155
:1051A0000B05F0910C05309729F00190F081E02D6E
:1051B0000995089580E008950E94CF280895FC0184
:1051C000A0910B05B0910C05109791F080911D02F4
:1051D000882341F08091310587FF04C0808181835D
:1051E00086E08083CF011296ED91FC91139709958B
:1051F0000895E0910B05F0910C05309739F022E00D
:10520000DC012C930480F581E02D09950895A3E03D
:10521000B0E0EDE0F9E20C946F3220910905309195
:105220000A0528173907A1F090930A05809309050C
:10523000E0910B05F0910C05309751F023E02983A4
:105240009B838A830680F781E02DCE010196099524
:105250002396E2E00C948B32A3E0B0E0E2E3F9E2C3
:105260000C946F32209107053091080528173907F3
:10527000A1F09093080580930705E0910B05F0914C
:105280000C05309751F024E029839B838A830680A4
:10529000F781E02DCE01019609952396E2E00C946A
:1052A0008B32662351F120911D022223E9F02091D7
:1052B000310527FF19C0462F4695469546954E3134
:1052C000E0F4677021E030E002C0220F331F6A95DE
:1052D000E2F7FC01E40FF11D828190E028233923DD
:1052E00081E0232B69F409C0FC01329608962191D4
:1052F000621729F0E817F907D1F780E0089581E0F7
:1053000008959C01FC0132969FEF80E04191461781
:1053100089F09F3F19F4411101C0982F8F5F8630AB
:10532000A9F79F3F39F0F901E90FF11D97FDFA95B3
:105330006283089508959C012A5F3F4FFC014281DA
:10534000461301C01282019682179307B9F7089598
:10535000262F2695269526952E3168F4FC01E20F1E
:10536000F11D677021E030E001C0220F6A95EAF775
:105370008281282B22830895262F2695269526950F
:105380002E3170F4FC01E20FF11D677021E030E076
:1053900001C0220F6A95EAF7209582812823228393
:1053A000089520911D02222339F02091310527FF15
:1053B00003C00E94A82908950E9481290895209180
:1053C0001D02222339F02091310527FF03C00E94DE
:1053D000BC2908950E949B29089520911D02FC017B
:1053E0003296222331F08091310587FF02C08EE191
:1053F00001C086E0DF011D928A95E9F7089546E035
:1054000050E00E949F3221E0892B09F420E0822F96
:10541000089508950E94092A089583E080930D0558
:105420000E940A2A0895811102C081E001C082E031
:1054300080930D050E940A2A08950E94132A089558
:1054400081E080930D050E940A2A08950E94202A77
:10545000089508950E94292A08950E942A2A0895ED
:105460000E94292A08950E94292A08950E94292A23
:105470000895CF930E94332A0E9421150E94302A5A
:10548000C0E08C2F0E945414892B29F4CF5FC530C3
:10549000C1F780E001C081E0CF91089585B78068B1
:1054A00085BF85B7806885BF08951F920F920FB69C
:1054B0000F9211248F939F93AF93BF9380910E050A
:1054C000811113C080914E0690914F06A091500615
:1054D000B09151064196A11DB11D80934E06909347
:1054E0004F06A0935006B0935106BF91AF919F9184
:1054F0008F910F900FBE0F901F90189580915606B8
:10550000843031F10E94F60710920E0520E488E104
:1055100090E00FB6F894A895809360000FBE20939A
:10552000600083B7817F846083BF83B7816083BF5E
:105530007894889583B78E7F83BF0FB6F894A8952B
:1055400080916000886180936000109260000FBEBF
:1055500008950E946E0B0E940008089582E084BDA9
:1055600093E095BD9AEF97BD80936E0008952FB795
:10557000F89480914E0690914F06A0915006B091FC
:1055800051062FBF08952FB7F89460914E06709181
:105590004F0680915006909151062FBF08959C01AF
:1055A0004FB7F89480914E0690914F06A091500607
:1055B000B09151064FBF821B930B0895CF92DF929B
:1055C000EF92FF922FB7F894C0904E06D0904F06FE
:1055D000E0905006F09051062FBFA7019601261BC0
:1055E000370B480B590BCA01B901FF90EF90DF90C0
:1055F000CF90089578941F920F920FB60F921124B6
:105600008F939F93AF93BF9380914E0690914F06D7
:10561000A0915006B09151060196A11DB11D809335
:105620004E0690934F06A0935006B0935106BF913B
:10563000AF919F918F910F900FBE0F901F90189573
:1056400081E08093E00080E28093D8001092C9004E
:105650008FE19EE40197F1F700C0000087E090EB36
:10566000DC0180935F0690936006A0936106B0937F
:1056700062069CE088E10FB6F894A89580936000DC
:105680000FBE90936000FFCF9CE088E10FB6F894C6
:10569000A895809360000FBE90936000FFCF80912B
:1056A0002F0508959B01909156069430F1F48F7068
:1056B0008093E9008FEF9091E800815095FD06C03E
:1056C00095ED9A95F1F700008111F5CF8091E800F2
:1056D00085FF0BC0BA01C90140E050E00E94622D75
:1056E0008091E8008E778093E800089543E050E0D1
:1056F000BC0182E00E94522B089546E050E0BC01BC
:1057000082E00E94522B0895CF93DF93EC018091A9
:105710001D02811105C048E050E0BE0181E00BC0D0
:105720008091310587FF03C040E282E002C048E07B
:1057300081E050E0BE010E94522B80E2FE01AFE00A
:10574000B5E001900D928A95E1F7DF91CF91089530
:1057500080915506811109C00E94ED2E0E944A2FAA
:105760008091E20084608093E200089510925506D3
:1057700008950E94262A08956091520681E06111E1
:1057800001C080E00E940D2A08959091560681E0A4
:10579000943009F080E0609152060E94132A089527
:1057A00042E061EC81E00E94662E42E261EC82E020
:1057B0000E94662E9091560681E0943009F080E0B8
:1057C000609152060E941D2A0895809158068330E8
:1057D00009F461C030F4813071F0823009F49BC06B
:1057E00008958A3009F487C08B3009F46CC0893081
:1057F00009F0A9C020C080915706813A09F0A3C0E2
:105800008091E800877F8093E80080915B0690910B
:105810005C06892B21F460E28FE095E003C060E034
:1058200080E090E070E00E94A72D8091E8008B77E7
:105830008093E800089580915706813209F083C073
:1058400080915B0690915C06029708F07CC0809185
:10585000E800877F8093E8008091E80082FD05C022
:10586000809156068111F8CF6EC02091F30080918F
:10587000F20090E0922B029731F48091F100813098
:1058800011F0863021F48091F10080932F058091F2
:10589000E8008B7754C080915706813A09F053C0D5
:1058A00080915B0690915C06892B09F04CC0809139
:1058B000E800877F8093E8008091E80080FFFCCFBC
:1058C00080911D0237C0809157068132E1F58091A9
:1058D0005B0690915C06892BB1F58091E800877F8B
:1058E0008093E8000E949B2E8091590680931D02B0
:1058F0000E946E0B089580915706813221F58091A8
:10590000E800877F8093E8000E949B2E80915A06D2
:1059100080933005089580915706813AA1F48091D3
:10592000E800877F8093E8008091E80080FFFCCF4B
:10593000809130058093F1008091E8008E7780930C
:10594000E8000E949B2E089584B7877F84BF0FB61E
:10595000F894A8958091600088618093600010920F
:1059600060000FBE90E080E80FB6F894809361006D
:10597000909361000FBE0E94202A08950E94ED2E90
:105980000E944A2FE2EEF0E0808184608083789468
:105990000E94D531089585E192E00E94CA280895B9
:1059A000809156068530A9F480915606853079F4A9
:1059B0000E947E2A809154068823B1F30E94392ADE
:1059C000882391F30E944C2D0E946E0BEDCF0E9414
:1059D000A92A089508959A0140915D0650915E06A6
:1059E0000E94F32C0895492F552743305105C9F0E3
:1059F00060F44130510581F04230510509F044C056
:105A00008BE390E042E356E043C041325105E1F0C0
:105A10004232510549F138C082E190E04DE656E04E
:105A200037C099278130910549F028F0029761F538
:105A3000ECE0F6E005C0EEE2F6E002C0EEE1F6E0F2
:105A4000849190E0AF0124C06115710541F061308F
:105A50007105D1F489E090E04DE556E019C089E088
:105A600090E044E456E014C06115710541F06130E6
:105A7000710551F486EB90E04FE756E009C080E4F1
:105A800090E045E357E004C080E090E040E050E063
:105A9000F90151834083089580E189BD82E189BD88
:105AA00009B400FEFDCF8091D8008F7D8093D8008F
:105AB0008091E00082608093E0008091E00081FDB1
:105AC000FCCF0895A0E0B0E0E8E6FDE20C94693276
:105AD000EC018B017A010E94BA2E811133C0E114CE
