:100000000C9439030C9480030C9480030C948003AB
:100010000C9480030C9480030C9480030C94800354
:100020000C9480030C9480030C94DF300C94B13159
:100030000C94A22B0C9480030C9480030C948003EA
:100040000C9480030C9480030C9480030C94800324
:100050000C9480030C94172C0C9480030C94800354
:100060000C9480030C9480030C9480030C94800304
:100070000C9480030C9480030C9480030C948003F4
:100080000C9480030C9480030C9480030C948003E4
:100090000C9480030C9480030C9480030C948003D4
:1000A0000C9480030C9480030C948003FB170418B9
:1000B00009180E18131818181D18221827182C18AC
:1000C000311836183B18401845184A184F1854185C
:1000D00059185E18631868186D187218FC1BFF1BFE
:1000E000041C0B1C101C151C1A1C1F1C241C291C76
:1000F0002E1C331C351C371C391C3F1C3F1C3F1C5D
:100100003F1C3F1CAA21AA21DC21DC2129224722F5
:100110005B235B235222EB22FC22FC22FB23FB23EA
:100120000D240D2404240D240D240D24FB23FB2376
:1001300009240D240D2409241E3245323D33453255
:100140003D339132B4323D330B331A33165C1E000B
:100150001F0020002100220023002400250026008B
:1001600027002D002E002A002B0014001A00080082
:10017000150017001C0018000C00120013002F00BF
:1001800030003100396104001600070009000A0040
:100190000B000D000E000F0033003400000028009B
:1001A000E1001D001B0006001900050011001000F1
:1001B000360037003872520000004C00E000E300C7
:1001C000E200000000002C00000000000351E400E9
:1001D0005000510000004F00165C1E001F00200060
:1001E00021002200230024002500260027002D00E6
:1001F0002E002A002B0014001A00090013000A0028
:100200000D000F0018001C0033002F0030003100DB
:100210003961040015001600170007000B001100DB
:1002200008000C001200340000002800E1001D004E
:100230001B000600190005000E00100036003700F4
:100240003872520000004C00E000E300E2000000C1
:1002500000002C00000000000351E4005000510099
:1002600000004F00165C1E001F002000210022002D
:10027000230024002500260027002F0030002A003C
:100280002B0034003600370013001C0009000A0060
:10029000060015000F0038002E00310039610400FF
:1002A0001200080018000C0007000B0017001100D6
:1002B00016002D0000002800E100330014000D009E
:1002C0000E001B00050010001A0019001D0052004E
:1002D0000000E500E000E300E200000000002C0068
:1002E000000000000351E4005000510000004F00E6
:1002F00035003A003B003C003D003E003F0040001E
:10030000410042004300440045000100010001009B
:1003100001000100010001000100010001000100D5
:1003200001004E004B00005C0100010001000100D3
:100330000100010001000100010001000100145052
:100340000000DF5C0100010001000100010001006C
:10035000010001004A004D000100A9000000490011
:1003600001000100010000000000AE0000000000DC
:1003700001000100AC00AA000000AB0001003A003F
:100380003B003C003D003E003F0040004100420079
:10039000430044004500010001001050010001002D
:1003A0000100C35CC65CC85CCA5CCC5CC45C010078
:1003B0000100005C01000100125001000100010079
:1003C000C75CC95CCB5CCD5CC55C01000000DF5C38
:1003D00001000100010011500100010001000100B5
:1003E0000100010001000100000001000100010006
:1003F00001000000000001000000000001000100F9
:1004000001000100000001000001010101010101E2
:1004100001010202020202020202020303030303B9
:100420000303030404040404040405050505050688
:100430000606060607070707070808080809090946
:10044000090A0A0A0B0B0B0C0C0C0D0D0D0E0E0EEF
:100450000F0F0F1010111111121213131414151580
:1004600016161717181819191A1A1B1B1C1D1D1EF2
:100470001E1F202021222223242425262627282946
:10048000292A2B2C2D2D2E2F303132323334353674
:100490003738393A3B3C3D3E3F4041424344454674
:1004A0004748494A4C4D4E4F505153545556585950
:1004B0005A5B5D5E5F616264656668696B6C6D6FF7
:1004C0007072737577787A7B7D7E8082838587886A
:1004D0008A8C8E8F91939596989A9C9EA0A2A3A5A4
:1004E000A7A9ABADAFB1B3B5B7BABCBEC0C2C4C6A5
:1004F000C9CBCDCFD1D4D6D8DBDDDFE2E4E7E9EB61
:10050000EEF0F3F5F8FAFDFF100344005A00360050
:10051000300052004700420000000E0344005A0021
:100520005400450043004800000004030904090288
:100530003B00020100A0FA090400000103010100D0
:100540000921110100012240000705810308000A6A
:10055000090401000103000000092111010001222A
:10056000B6000705820320000A12011001000000F6
:10057000085A44211102000102000105010902A1EB
:100580000185020901A100050919012908150025A5
:100590000195087501810205010930093115812590
:1005A0007F95027508810609381581257F950175AB
:1005B000088106050C0A38021581257F950175080A
:1005C0008106C0C005010980A101850319012AB770
:1005D00000150126B700950175108100C0050C09B2
:1005E00001A101850419012AA002150126A0029586
:1005F0000175108100C005010906A10185050507E7
:1006000019E029E715002501950875018102050704
:10061000190029EF1500250195F0750181020508E3
:10062000190129059505750191029501750391013F
:10063000C005010906A101050719E029E7150025F4
:100640000195087501810295017508810105071959
:100650000029FF150026FF00950675088100050892
:1006600019012905950575019102950175039101FF
:10067000C00011241FBECFEFDAE0DEBFCDBF04B64D
:1006800003FE27C08091240790912507A09126079B
:10069000B09127078730904BA740B04BD1F4109210
:1006A000240710922507109226071092270714BEE0
:1006B00084B7877F84BF0FB6F894A89580916000B7
:1006C000886180936000109260000FBEE0E0F8E364
:1006D000099513E0A0E0B1E0E6E7F9E602C0059075
:1006E0000D92A63AB107D9F727E0A6EAB3E001C018
:1006F0001D92A432B207E1F70E94172E0C94B93470
:100700000C94000081E00E94F8180C946A2B80E0A1
:100710000E94F8180C94502BCF930E941F1FC82FD3
:1007200080912B0481110CC36091E6047091E70461
:100730008091E8049091E9040E945F07833009F4F6
:1007400042C1843009F0FCC220E040E06FE88EE056
:1007500090E00E94161120E040E060E08FE090E021
:100760000E94161120E040E060E080E190E00E94ED
:1007700016112FEF4FEF60E081E190E00E9416111B
:1007800020E04FEF6FEF82E190E00E9416112FEF13
:1007900040E060E083E190E00E94161120E04FEF1E
:1007A00060E084E190E00E94161120E040E06FEFED
:1007B00085E190E00E9416112FEF4FEF6FEF86E179
:1007C00090E00E94161120E040E060E087E190E0B8
:1007D0000E94161120E040E060E088E190E00E9475
:1007E000161120E040E060E089E190E00E941611DF
:1007F00020E840E562EC8AE190E00E94161120E0DA
:1008000040E060E08BE190E00E94161120E040E0C3
:100810006FE88CE190E00E94161120E040E060E07B
:100820008DE190E00E94161120E840E562EC85E23F
:1008300090E00E94161120EA40EA60E08EE190E02C
:100840000E94161120E040E060E084E290E00E9407
:10085000161120E040E060E083E290E00E94161173
:1008600020E040E060EA82E290E00E94161120E081
:1008700040EA60E081E290E00E94161120EA40E048
:1008800060E080E290E00E94161120E040EA60EA19
:100890008FE190E00E94161120E040E060E086E2E7
:1008A00090E00E94161120E040E060E087E290E0D6
:1008B0000E94161120E040E060E088E290E00E9493
:1008C000161120E040E060E089E290E00E941611FD
:1008D00020E040E060E08AE290E00E94161120E013
:1008E00040E060E08BE290E00E94161120E040E0E2
:1008F00060E08CE290E00E94161120E840E562EC96
:1009000082E390E00E94161120E040E060E08EE279
:1009100090E00E94161120E040E060E08FE290E05D
:100920000E94161120E040E060E080E390E00E9429
:10093000161120E040E060E081E390E00E94161193
:1009400020E040E060E08DE290E00E94161120E09F
:1009500040E060E083E390E00E94161120E040E078
:1009600060E084E390E00E94161120E040E060E047
:1009700085E390E00E94161120E040E060E086E30D
:1009800090E00E94161120E040E060E087E390E0F4
:100990000E94161120E040E060E088E390E00E94B1
:1009A000161120E040E060E089E390E00E9416111B
:1009B00020E040E060E08AE390E00E94161120E031
:1009C00040E060E0A4C120E040E0C0FF02C06FEF63
:1009D00001C060E08DE090E00E94161120E040E050
:1009E00060E080E090E00E94161120E04FEF60E0B0
:1009F00081E090E00E94161120E04FEF60E082E07D
:100A000090E00E94161120E04FEF60E083E090E05C
:100A10000E94161120E04FEF60E084E090E00E9419
:100A2000161120E04FEF60E085E090E00E94161183
:100A300020E04FEF60E086E090E00E94161120E099
:100A40004FEF60E087E090E00E94161120E04FEF4A
:100A500060E088E090E00E94161120E04FEF60E037
:100A600089E090E00E94161120E04FEF60E08AE0FC
:100A700090E00E94161120E04FEF60E08BE090E0E4
:100A80000E94161120E040E060E08CE090E00E94BF
:100A9000161120E040E06FE88EE090E00E94161111
:100AA00020E04FEF6FEF8FE090E00E94161120E002
:100AB00040E860E880E190E00E94161120E040E00C
:100AC00060E081E190E00E94161120E040E060E0EB
:100AD00082E190E00E94161120E040E060E083E1B6
:100AE00090E00E94161120E040E060E084E190E098
:100AF0000E94161120E040E060E085E190E00E9455
:100B0000161120E040E060E086E190E00E941611BE
:100B100020E040E060E087E190E00E94161120E0D4
:100B200040E060E088E190E00E94161120E040E0A3
:100B300060E089E190E00E94161120E040E060E072
:100B40008AE190E00E94161120E040E060E08BE135
:100B500090E00E94161120E040E06FE88CE190E008
:100B60000E94161120E840E562EC8DE190E00E94C1
:100B7000161120E040E060E08EE190E00E94161146
:100B800020E040E060E08FE190E00E94161120E05C
:100B900040E060E080E290E00E94161120E040E03A
:100BA00060E081E290E00E94161120E040E060E009
:100BB00082E290E00E94161120E040E060E083E2D3
:100BC00090E00E94161120E040E060E084E290E0B6
:100BD0000E94161120E040E060E085E290E00E9473
:100BE000161120E040E060E086E290E00E941611DD
:100BF0002AEA4FEF60E087E290E00E94161120E0C1
:100C000040E06FE288E290E00E9416112FEF4FEF74
:100C10006FEF89E290E00E9416112FEF40E060E054
:100C20008AE290E00E94161120E040E060E08BE252
:100C300090E00E94161120E04FEF6FEF8CE290E001
:100C40000E94161120E04FE86FE88DE290E00E94CC
:100C5000161120E040E060E08EE290E00E94161164
:100C600020E040E060E08FE290E00E94161120E07A
:100C700040E060E080E390E00E94161120E040E058
:100C800060E081E390E00E94161120E040E060E027
:100C900082E390E00E94161120E040E060E083E3F0
:100CA00090E00E94161120E040E060E084E390E0D4
:100CB0000E94161120E040E060E085E390E00E9491
:100CC000161127E443E66FEF86E390E00E941611C9
:100CD0002FE840E060E087E390E00E94161127E4EF
:100CE00043E66FEF88E390E00E94161120E040E0B9
:100CF00060E089E390E00E94161120E040E060E0AF
:100D00008AE390E00E9416112FEF4FE46FE48BE32B
:100D100090E00E94161120E040E060E08CE390E05B
:100D20000E94161120E040E060E08DE390E00E9418
:100D3000161120E040E060E08EE390E00E94161182
:100D4000C1FF08C02FEF4FEF6FEF88E290E0CF9127
:100D50000C941611CF9108950895089581E0089597
:100D600081E008950C94AE0608950C94B4061F9388
:100D7000CF93DF9300D000D01F92CDB7DEB7498369
:100D80005A836B833091800489819A81311114C018
:100D9000662359F0222349F00E94B728182F682FA4
:100DA00089819A810E94602803C00E948B28182F95
:100DB00069817A81812F04C00E94B72869817A8174
:100DC0000F900F900F900F900F90DF91CF911F9188
:100DD0000C94BF07FC01262F4081518162817381F1
:100DE00084810C94B706CF93DF93EC0160E00E94FE
:100DF000EA06BE01DF91CF910C94B5060E94682CE3
:100E00000E94E429811102C00E948B2A0E94CA1804
:100E10000C94BF090C94BD0908950E94E9230E9417
:100E20000C072FEF84E39CE0215080409040E1F7D5
:100E300000C000000C943D2C0F931F93CF93DF93C1
:100E4000EC0161E00E94EA068C01BE010E94B2063C
:100E5000882379F1BE01C8010E94B81C882349F19A
:100E6000BE01C8010E940A1D882319F1BE01C801F4
:100E70000E94351E8823E9F0BE01C8010E94E51BCF
:100E80008823B9F08A81882369F001158CE5180759
:100E900031F00F3D1C4531F40E948B2A0AC00E949C
:100EA0000D0707C0CE01DF91CF911F910F910C94D8
:100EB000B00680E0DF91CF911F910F910895CF92FE
:100EC000DF92EF92FF926C01EE24FF24C114D10453
:100ED000E104F10421F0C701B60120E101C020E0E6
:100EE000C72ED82EE92EFF24C114D104E104F10449
:100EF00019F0285FC701B6016B017C0154E0F6943C
:100F0000E794D794C7945A95D1F7C114D104E1045A
:100F1000F10419F02C5FC701B6016B017C0142E0BE
:100F2000F694E794D794C7944A95D1F7C114D104A5
:100F3000E104F10419F02E5FC701B601DC01CB0119
:100F4000B695A79597958795892B8A2B8B2B09F0BA
:100F50002F5F822FFF90EF90DF90CF90089508953C
:100F60000C94AF0781E008950C94B207CF93C82F7B
:100F70000E94B0078C2F0E94B407CF91089526E4F9
:100F8000829FC0011124FC012EE0729FE00DF11D33
:100F90001124E60FF11DEE0FFF1FE45BFE4F85915C
:100FA00094910895CF93DF930E94BF070E94D408C5
:100FB000EC01811521E5920708F043C0811540E559
:100FC000940708F08AC0883E910520F5803E91057F
:100FD00008F0E6C0883A910570F4853A910508F06A
:100FE00074C08130910509F4DBC008F4D7C00497C0
:100FF00008F0D6C0D3C08F3B910508F0CFC0C85AC7
:10100000D0E0CC0FDD1FCF5DDC4F0990D881C02D23
:10101000D464C6C0C11580E2D80758F4C11521E0D8
:10102000D20708F0BDC0CD3ED10508F4B7C0D065E9
:10103000B7C0C11540E4D40708F4B0C0DF70D06A6F
:10104000AFC0C11585E5D807A0F4C11524E5D207C6
:1010500008F08AC0C11543E5D40708F06FC0C11578
:1010600082E5D80708F054C0DC2FCC27C16FD06AC6
:1010700097C0C11529E5D207A0F4C11548E5D407EA
:1010800008F077C0C11586E5D80708F087C08C2F17
:101090000E9468098F71C82FD0E0DC2FCC27D06266
:1010A0007FC0C1152AE5D20708F468C0CE0190566A
:1010B0008115904208F072C08D2F8F710E946809CF
:1010C000DD27D0628F71D82B6BC0C55AD0E0C15BD1
:1010D000DC4FC881D0E0D06463C074E096958795FA
:1010E0007A95E1F783709C2F937021E030E002C085
:1010F000220F331F9A95E2F73C68382BCF70C695C4
:10110000C69580E2C89FE0011124C22BD32B48C0B2
:10111000CE018370992721E030E002C0220F331FF7
:101120008A95E2F78C2F8695869540E2849FC001D0
:101130001124E901C82BD92BDC6832C0CE018370A1
:10114000992721E030E002C0220F331F8A95E2F791
:101150008C2F8695869540E2849FC0011124E90179
:10116000C82BD92BDA681CC0DC2FCC27C46FD06AFF
:1011700017C0DC2FCC27C06FD06A12C08C2F8F70A5
:101180000E94680994E0D695C7959A95E1F7CF70CB
:10119000D0E0DC2FCC27D069C82B02C0C0E0D0E063
:1011A000CE01DF91CF9108958238910569F1B0F4B5
:1011B0008133910509F46DC048F48932910509F431
:1011C00063C08A32910509F469C008958533910599
:1011D00009F455C089339105B9F00895833E91050E
:1011E00069F138F4803E9105B1F0823E910509F134
:1011F0000895863E9105A9F1873E9105B9F1843E97
:10120000910509F064C023C02091150720FD4FC04F
:1012100021FD4DC008958091150780FD44C0809147
:10122000160780FF44C08091150784FD42C083EEFD
:101230004DC08091150782FF38C0F5CF809115070A
:1012400082FD33C08091160780FD31C0ECCF8091C4
:10125000160781FF32C08091150784FD2AC087EEF2
:1012600035C08091150783FF26C0F5CF8091150703
:1012700083FD21C08091160781FD1FC0ECCF8091B6
:10128000150785FD1CC01DC08091150785FD19C07F
:1012900016C08091150786FD16C017C080911507EE
:1012A00086FD13C010C089E311C082EE0FC080EE2E
:1012B0000DC080E00BC086EE09C084EE07C089E255
:1012C00005C085E303C08AE201C081E390E0089590
:1012D0009091150792FF0DC0282F2871283019F41E
:1012E000877F846006C0282F2471243011F48B7FFF
:1012F000886093FF0DC0282F2871283119F4877E4C
:10130000846106C0282F2471243111F48B7E8861FA
:101310002091160720FF0DC0382F3871383019F48E
:10132000877F816006C0382F3171313011F48E7F94
:10133000886021FF0DC0282F2871283119F4877E7D
:10134000816106C0282F2171213111F48E7E8861C0
:1013500094FD877E0895E82FF0E0EE0FFF1FEF5B0E
:10136000FA4F808191810895089580EA8A95F1F776
:10137000089500C008950C94B5090C94AD060C9422
:10138000AC06F894E82FE295EF70F0E031A1282F39
:101390002F7081E090E001C0880F2A95EAF7982F1E
:1013A0009095932391A392A1892B82A37894089579
:1013B0000F931F93CF93DF9385EF0E94C10984EFB2
:1013C0000E94C10981EF0E94C10983E30E94C10903
:1013D00082E30E94C109C2E5D3E000E613E08991EF
:1013E0000E94C1090C171D07D1F7E7E3F5E0A1E45E
:1013F000B5E0119211921D921D9285E0E134F8073B
:10140000C1F785E00E949D0ADF91CF911F910F9156
:101410000C94FE067F928F929F92AF92BF92CF92D2
:10142000DF92EF92FF920F931F93CF93DF9307E327
:1014300015E080E6E82E83E0F82EC0E0D0E0712CC5
:10144000AA24A394B12C4701F7018081F894E82FD6
:10145000E295EF70F0E021A18F70A50102C0440F6A
:10146000551F8A95E2F7CA01922F982B91A392A15A
:101470008095892382A378940E94B909E2E5F3E07C
:1014800020E030E0C12CD12C4191A42FA295AF7067
:10149000B0E090968C9190E04F7002C09595879542
:1014A0004A95E2F780FD08C0C501022E02C0880FF0
:1014B000991F0A94E2F702C080E090E0C82AD92A76
:1014C0002F5F3F4F2E303105F9F65FEFE51AF50A31
:1014D000F40180810E94C109C430D10511F00E943D
:1014E000BB09F80180819181C816D90621F0D1820B
:1014F000C08281E001C080E0782A21960E5F1F4FF4
:10150000C530D10509F09FCF272D45E061E475E096
:1015100087E395E00E949E0A0E940A07872DDF91CB
:10152000CF911F910F91FF90EF90DF90CF90BF90E0
:10153000AF909F908F907F9008950895FF920F93A2
:101540001F93CF93DF93F82E092F162FD72FC42F79
:10155000222349F081E08093AA030E94D42B909328
:10156000A9038093A8038091AA038823D9F08091CE
:10157000A8039091A9030E94EC2B049798F0EF2DFB
:10158000F02FA12FBD2F80E090E04C2F50E084176A
:10159000950734F4219131912D933D930196F7CF26
:1015A0001092AA03DF91CF911F910F91FF900895A0
:1015B0008091B10380FF0BC060910C0285E0689FB1
:1015C000B001112475956795759567952BC081FFBE
:1015D00009C060910C0285E0689FB00111247595E7
:1015E000679520C082FF07C060910C0285E0689F6C
:1015F000B001112417C09091B0039923D1F06091EC
:101600000B02961788F720910C0285E0289F900125
:101610001124929FA001939F500D112470E0CA01E4
:101620000E9485336038710540F46115710519F425
:1016300006C065E070E0862F08958FE7089581E089
:1016400008958091B10380FF08C06091080270E0A6
:10165000759567957595679521C081FF06C0609166
:10166000080270E07595679519C082FF04C060910B
:10167000080270E010C09091AF03992399F0609137
:1016800007029617A0F780910802899FC0011124D4
:1016900070E00E9485336038710540F46115710572
:1016A00019F406C061E070E0862F08958FE7089571
:1016B00081E008958D3E21F40E94D80A819504C0EE
:1016C0008E3E29F40E94D80A8093B50308958F3E78
:1016D00021F40E94D80A819504C0803F29F40E9419
:1016E000D80A8093B4030895893F19F40E94210B0E
:1016F00005C08A3F31F40E94210B81958093B60387
:1017000008958B3F21F40E94210B819504C08C3FEA
:1017100029F40E94210B8093B70308959FE0980F4E
:10172000983078F421E030E0A90102C0440F551F41
:101730009A95E2F7CA019091B303892B8093B30382
:1017400008958D3F21F48091B10381600BC08E3FDD
:1017500021F48091B103826005C08F3F29F480910C
:10176000B10384608093B10308958D3E39F4909164
:10177000B50397FF35C01092B50359C08E3E29F4CA
:101780009091B5031916BCF32BC09091B4038F3E12
:1017900029F497FF25C01092B40349C0803F19F483
:1017A0001916CCF31DC09091B603893F29F4191680
:1017B000BCF41092B6033BC08A3F19F497FF10C0E7
:1017C000F8CF8B3F39F49091B70397FF09C010927F
:1017D000B7032DC08C3F21F49091B7031916BCF3C9
:1017E0009FE0980F983080F421E030E0A90102C01A
:1017F000440F551F9A95E2F7CA0180959091B30363
:1018000089238093B30313C08D3F21F48091B103EA
:101810008E7F0BC08E3F21F48091B1038D7F05C078
:101820008F3F29F48091B1038B7F8093B103809126
:10183000B403811106C08091B503811102C01092DA
:10184000B0038091B603811106C08091B703811166
:1018500002C01092AF0308950E94D42B2091B403CC
:10186000211104C02091B503222321F09093AE03EF
:101870008093AD032091B603211104C02091B703DA
:10188000222321F09093AC038093AB0382EB93E08F
:101890000C94451FEF92FF920F931F93CF93DF930A
:1018A00000D000D000D0CDB7DEB786E0E2EBF3E0A9
:1018B000DE01119601900D928A95E1F7E090B40354
:1018C000F090B5030091B6031091B7031092B403E2
:1018D0001092B5031092B6031092B703E11003C043
:1018E000FF2009F45DC08091AD039091AE030E948A
:1018F000EC2BAC019091B003992339F020910D02AB
:1019000030E02417350758F04BC020910E028AE0D2
:10191000289F900111242417350718F041C09F3FDC
:1019200019F09F5F9093B003EE2061F00E94D80AF7
:101930001E1414F09FEF01C091E0989F902D112488
:101940009093B403FF2061F00E94D80A1F1414F092
:101950009FEF01C091E0989F902D11249093B503C3
:101960003091B4033323E1F02091B5032223C1F079
:1019700045EB3403C0011124992319F09093B4036B
:1019800003C081E08093B40335EB2303C00111242D
:10199000992319F09093B50303C081E08093B503B8
:1019A000011103C0112309F45DC08091AB03909134
:1019B000AC030E94EC2BAC019091AF03992339F05A
:1019C0002091090230E02417350758F04BC02091D0
:1019D0000A028AE0289F900111242417350718F085
:1019E00041C09F3F19F09F5F9093AF03002361F0C8
:1019F0000E94210B101614F09FEF01C091E0989FF8
:101A0000902D11249093B603112361F00E94210BB5
:101A1000111614F09FEF01C091E0989F902D1124B2
:101A20009093B7033091B6033323E1F02091B703CD
:101A30002223C1F045EB3403C0011124992319F08E
:101A40009093B60303C081E08093B60335EB230384
:101A5000C0011124992319F09093B70303C081E0CA
:101A60008093B7038091B40381110BC08091B503BB
:101A7000811107C08091B603811103C08091B70323
:101A800081110E942C0CEB82FC820D831E8386E068
:101A9000FE013196A2EBB3E001900D928A95E1F739
:101AA00026960FB6F894DEBF0FBECDBFDF91CF9163
:101AB0001F910F91FF90EF900895E2EBF3E086E025
:101AC000DF011D928A95E9F71092B0031092AF03DF
:101AD0001092B1030895EF92FF920F931F93CF934B
:101AE000DF938B01682F11110AC0442329F0E82FDE
:101AF000F0E0E85FFB4F6491762F862F75C0212FB1
:101B000030E0E82FF0E0442321F0E85FFB4FE49160
:101B1000F0E046E0049FC0011124CFEFD0E0BE0109
:101B20000E9471334BEA4603C001479F900D112478
:101B3000800F911D800F911D982F990F890FAE0175
:101B4000421B530B4E9FD0014F9FB00D5E9FB00DB7
:101B500011249B2F189FA0011124452F55278E017A
:101B6000041B150B0E9FA0010F9F500D1E9F500DC3
:101B700011247E01E81AF108E29E8001E39E100D17
:101B8000F29E100D1124212F3327C21BD30BCE9FA1
:101B90009001CF9F300DDE9F300D11246230710512
:101BA000A9F048F46115710569F061307105C9F457
:101BB0008B2F752F0DC06430710581F058F06630A1
:101BC000710579F47E2F8B2F932F0DC0832F7B2FE0
:101BD0009E2F09C08E2F7B2F952F05C08E2F732F20
:101BE00002C07E2F852F692FDF91CF911F910F911A
:101BF000FF90EF90089541E00E946B0D089520E062
:101C000030E0869F212D969F200D311D1124C901A2
:101C10000895BC018230910508F40895613E8EE17B
:101C2000780748F49B0195E0369527959A95E1F75A
:101C300048E0420F01C04FEF91E0242F30E0290F20
:101C4000311D35952795229FF001239FF00DF00D52
:101C500011246E177F0718F44FEF420F04C02F3F77
:101C600039F091E0920F491740F78FEF890F0895EF
:101C70008FEF0895482F982F46FD9095E92FEF7329
:101C80009F7046FD9F5FE295EF70EE0FF0E0EB591D
:101C9000FC4F2181299F802D212D112482958F7049
:101CA0002295207F822B3081982F930F892F47FD1B
:101CB000819580580895E42FF0E0EE0FFF1FE65B5A
:101CC000FE4F408134EE439F412D1124E82FF0E078
:101CD00050E0445E5F4FDA01A21BB1099D01B7FFDE
:101CE00003C031952195310993E0220F331F9A9556
:101CF000E1F7AF01421B530B9A0157FF02C020E0EE
:101D000030E0582F259F212D1124822F0895622F16
:101D10000895E42FF0E0EE0FFF1FE65BFE4F6081B9
:101D2000621B0895E42FF0E0EE0FFF1FE55BFE4F0E
:101D30006081621B0895A22F50E0FA01EE0FFF1F91
:101D4000E55BFE4F9081905297FD9195440F551F92
:101D5000FA01E65BFE4F3081232F30E02A1B310968
:101D6000290F311D97FD3A95620F0895EF920F9359
:101D70001F9393E0099F80011124159507956E2DFF
:101D8000600F1F910F91EF9008950F93CF93DF9302
:101D9000D72FC82F47FD4195E8E3F0E0CF01841B22
:101DA000910947FD9395889FB001899F700D700D33
:101DB0001124229FC001239F900D900D1124860FA6
:101DC000971F0E94090E682F660F860F682F600FFD
:101DD0007D2F8C2FDF91CF910F9108950F931F933B
:101DE000522F10E0F801EE0FFF1FE55BFE4FE08180
:101DF000F0E0B0979F015203D001539FB00D112422
:101E0000000F111FF801E65BFE4F008110E0005744
:101E1000110940039001419F300D11242A0F3B1FEF
:101E200037FF02C021583F4F220F232F221F330BB1
:101E3000620F1F910F9108950F931F93522F10E07F
:101E4000F801EE0FFF1FE55BFE4FE081F0E0B09779
:101E5000EE0FFF1F9F015203D001539FB00D1124BD
:101E6000000F111FF801E65BFE4F008110E00057E4
:101E70001109000F111F40039001419F300D1124E3
:101E80002A0F3B1F37FF02C021583F4F220F232F3D
:101E9000221F330B620F1F910F9108950F931F9311
:101EA00010E0F801EE0FFF1FE65BFE4F90819057A8
:101EB00097FD9195000F111FF801E55BFE4FE08142
:101EC000F0E0B097DF01AA0FBB1F8D010E0F1F1F9F
:101ED0002003D001219FB00D1124E8E3F0E0E91BBD
:101EE000F10997FDF3959F01220F331F89010E0F12
:101EF0001F1F40039001419F300D11242A0F3B1FEB
:101F000037FF02C021583F4F220F232F221F330BD0
:101F1000620F1F910F9108954095282F429F412DE8
:101F20001124842F089522E8241B08F420E0620F76
:101F30000895FC019B01009721F477FF2BC080E8F6
:101F40000895AC0197FF04C044275527481B590B3F
:101F5000B901640F751F37FD0CC0241B350BC90177
:101F6000A5E0880F991FAA95E1F70E94853380E2CA
:101F70000CC0CB0165E0880F991F6A95E1F7BA01A3
:101F8000621B730B0E94853380E6861BF7FF03C03C
:101F90008195089580E00895FF920F931F93CF934A
:101FA000DF93F62ED72F182FC901C12FC01BBA01FE
:101FB0000E94990F982F990F890FC81B2C2F219FD2
:101FC000212D1124822F6F2D7D2FDF91CF911F9115
:101FD0000F91FF900895EF920F931F93CF93DF938C
:101FE000D62FC72F182FC9010E19010FBA010E9451
:101FF000990F081B202F219F212D1124822F6D2F37
:102000007C2FDF91CF911F910F91EF9008950F9347
:10201000CF93DF93D72FC82FC901BA010E94990F20
:10202000682F600F7D2F8C2FDF91CF910F91089536
:10203000EF920F93CF93DF93D72FC82FC9010E19BB
:10204000BA010E94990F602F681B7D2F8C2FDF91A2
:10205000CF910F91EF9008950E94FB0D08951F936B
:10206000CF93DF935FEF580FA1E0A80F4FEF460F1C
:1020700091E0960FC82FD0E0461780F42EE02C9FF9
:10208000F0012D9FF00D1124EB51FC4FE40FF11DD9
:10209000208130E1230F08F42FEF2083262F30E03A
:1020A0007EE07C9FF0017D9FF00D1124EB51FC4FF1
:1020B000EF01C20FD31F788110E2710F08F47FEF98
:1020C00078839E3040F4E90FF11D708110E1710FAB
:1020D00008F47FEF7083A53070F5B0E0461780F408
:1020E0007EE07A9FF0017B9FF00D1124EB51FC4FB5
:1020F000E40FF11D70811DE0710F08F47FEF708314
:102100007EE07A9FF0017B9FF00D1124EB51FC4F94
:10211000DF01A20FB31F7C9110E1710F08F47FEF74
:102120007C939E3040F4E90FF11D70811DE0710F2A
:1021300008F47FEF7083581778F5A52FB0E04617A5
:1021400080F48EE08A9FF0018B9FF00D1124EB51FB
:10215000FC4FE40FF11D40815DE0450F08F44FEFA7
:1021600040838EE08A9FF0018B9FF00D1124EB518C
:10217000FC4FDF01A20FB31F2C9130E1230F08F4B5
:102180002FEF2C939E3040F4E90FF11D20813DE0AC
:10219000230F08F42FEF2083DF91CF911F91089533
:1021A00045E050E06CE170E08BE495E00C94453440
:1021B00045E050E06CE170E08BE495E00C94633412
:1021C000EBE4F5E085E28083809122029091230286
:1021D000A091240281839283A3838FE784830C944C
:1021E000D81080E008950F931F93CF93DF93C82FEB
:1021F000D62F8A010E94F1109EE0C99FF0011124A0
:10220000EC5FFE4FED0FF11D90819F3F29F0F8012B
:10221000E80FF11D90838F5FDF91CF911F910F9198
:102220000895E0917303F09174030994E0916F03B2
:10223000F091700309944F925F926F927F928F9208
:102240009F92AF92BF92CF92DF92EF920F931F9324
:10225000CF93DF932C013B01FC01C0818DE0C89F2F
:10226000C02D1124DDE0DC0FD03408F0DFE36091F5
:102270004F05669580915005909151050E94FF0D84
:10228000182FCD1708F044C08C2E912CF401E85380
:10229000FE4F9081F20181818923C1F1F401EE0F9B
:1022A000FF1FE65BFE4FC080D12CF0E7CF1AD108AC
:1022B000F401EE0FFF1FE55BFE4FA080B12C80E222
:1022C000A81AB108CC9C9001CD9C300D300D112482
:1022D000AA9CC001AB9C900D900D1124820F931FFE
:1022E0000E94090E082F60914C0570914D05809158
:1022F0004E05E12E9501A601F30109950E942C10CF
:10230000462F282F672FC4010E941611CF5FB9CF27
:1023100081E0DF3308F080E0DF91CF911F910F91D2
:10232000EF90DF90CF90BF90AF909F908F907F9075
:102330006F905F904F9008956BEE7FE00C941B11AF
:1023400066EB7EE00C941B1168E170E10C941B11AC
:10235000AF92BF92CF92DF92EF92FF920F931F93B3
:10236000CF93DF936C015B01FC01C0818DE0C89FBE
:10237000C02D1124DDE0DC0FD03408F0DFE36091E4
:102380004F05669580915005909151050E94FF0D73
:10239000182FCD1778F5EC2EF12CF701E853FE4FEE
:1023A0009081F6018181892319F1F701EE0FFF1F5A
:1023B000E55BFE4F208130E020523109F701EE0F3E
:1023C000FF1FE65BFE4F408150E04057510960918E
:1023D0004C0570914D0580914E05012FF501099531
:1023E0000E942C10462F282F672FC7010E9416111C
:1023F000CF5FCFCF81E0DF3308F080E0DF91CF9176
:102400001F910F91FF90EF90DF90CF90BF90AF9012
:1024100008956CEC7FE00C94A81165EC7EE00C94C0
:10242000A81167E070E10C94A811BF92CF92DF92DF
:10243000EF92FF920F931F93CF93DF938C017B0159
:10244000FC01C0818DE0C89FC02D1124DDE0DC0FB0
:10245000D03408F0DFE360914F0566956695809172
:102460005005909151050E94FF0DB82ECD17F0F444
:10247000CC2ED12CF601E853FE4F9081F8018181DA
:10248000892391F060914C0570914D0580914E0526
:102490002B2D4C2FF70109950E942C10462F282F29
:1024A000672FC6010E941611CF5FE0CF81E0DF33B6
:1024B00008F080E0DF91CF911F910F91FF90EF9096
:1024C000DF90CF90BF9008956BE57EE00C941512DD
:1024D00067E87EE00C94151269E87EE00C94151212
:1024E00062E97EE00C9415126BE97EE00C94151203
:1024F0007F928F929F92AF92BF92CF92DF92EF9294
:10250000FF920F931F93CF93DF936C015B01FC014C
:10251000C0818DE0C89FC02D1124DDE0DC0FD034D8
:1025200008F0DFE360914F05669566958091500550
:10253000909151050E94FF0D182F80E4810F0E9499
:102540003A0E90E8F92EF80E812F0E943A0E20E8FC
:10255000722E780ECD1700F58C2E912CF401E853D5
:10256000FE4F9081F60181818923A1F060914C0595
:1025700070914D0580914E05E12E0C2F272D4F2D8A
:10258000F50109950E942C10462F282F672FC401B2
:102590000E941611CF5FDECF81E0DF3308F080E0CC
:1025A000DF91CF911F910F91FF90EF90DF90CF902F
:1025B000BF90AF909F908F907F9008956EEE7EE0D9
:1025C0000C9478126CE17FE00C9478126EE47FE05A
:1025D0000C947812AF92BF92CF92DF92EF92FF925B
:1025E0000F931F93CF93DF937C015B01FC01C081AC
:1025F0008DE0C89FC02D1124DDE0DC0FD03408F041
:10260000DFE320914F0530E040E050E06FEF7FEFD7
:1026100080E090E00E9499338901CD17E8F5CC2E37
:10262000D12CF601E853FE4F9081F7018181892377
:1026300089F190915405915097FD15C0292F092ECD
:10264000000C330BF901EC5AFA4F8189C813F3CF10
:10265000220F331FF901EC5AFA4F218D328D2017CA
:10266000310748F701C0980160914F05C9010E94E8
:10267000FF0DAC0160914C0570914D0580914E05A8
:10268000F50109950E942C10462F282F672FC601AF
:102690000E941611CF5FC1CF81E0DF3308F080E0E8
:1026A000DF91CF911F910F91FF90EF90DF90CF902E
:1026B000BF90AF9008956CE87FE00C94EA1263E954
:1026C0007FE00C94EA12DF92EF92FF920F931F9338
:1026D000CF93DF938C01DC018C91CDE08C9FC02DDA
:1026E0001124DDE0DC0FD03408F0DFE360914C050D
:1026F00070914D0580914E050E942C10F62EE72E0C
:10270000D82ECD1798F4EC2FF0E0DF01A853BE4F80
:102710008C91D80111969C91982331F02D2D4F2D3D
:102720006E2DCF010E941611CF5FEBCF81E0DF331A
:1027300008F080E0DF91CF911F910F91FF90EF9013
:10274000DF900895AF92BF92CF92DF92EF92FF9207
:102750000F931F93CF93DF938C01FC01C0818DE019
:10276000C89FC02D1124DDE0DC0FD03408F0DFE37A
:10277000E0904D05F0904E05D0904C056D2D7E2DCE
:102780008F2D0E942C10C62EB72EA82E60914F05BB
:102790006D0D7E2D8F2D0E942C10F62EE72ED82E3B
:1027A000CD17B8F48C2F90E0FC01E853FE4F308138
:1027B000F8012181232359F030FF04C02D2D4F2D26
:1027C0006E2D03C02A2D4C2D6B2D0E941611CF5F4C
:1027D000E7CF81E0DF3308F080E0DF91CF911F91F8
:1027E0000F91FF90EF90DF90CF90BF90AF90089542
:1027F000BF92CF92DF92EF92FF920F931F93CF93EE
:10280000DF937C01FC01C0818DE0C89FC02D1124A5
:10281000DDE0DC0FD03408F0DFE3C0904D05B09070
:102820004E0520914F0530E4D32E3D2D329F312DA2
:102830001124D32ECD1738F50C2F10E0F801E853F2
:10284000FE4F9081F70181818923D9F0F801EE0FC5
:10285000FF1FE65BFE4F6081D69EB001112495E01C
:10286000759567959A95E1F780914C05680F7C2DD9
:102870008B2D0E942C10462F282F672FC8010E94F5
:102880001611CF5FD7CF81E0DF3308F080E0DF9112
:10289000CF911F910F91FF90EF90DF90CF90BF905D
:1028A0000895DF92EF92FF920F931F93CF93DF93E0
:1028B0008C01DC01CC918DE0C89FC02D1124DDE09E
:1028C000DC0FD03408F0DFE3E0904C05F0904D05CC
:1028D000D0904E0560914F056695669566958091FE
:1028E0005005909151050E94FF0D0E943A0E8058AC
:1028F00087FD8195880F282F3D2D239F212D1124A1
:10290000822FB7010E942C10F62EE72ED82ECD175D
:1029100098F4EC2FF0E0DF01A853BE4F8C91D80162
:1029200011969C91982331F02D2D4F2D6E2DCF01B6
:102930000E941611CF5FEBCF81E0DF3308F080E01B
:10294000DF91CF911F910F91FF90EF90DF9008954D
:10295000DF92EF92FF920F931F93CF93DF93EC01DF
:10296000FC01E853FE4F9081692381F1D0904D0521
:1029700000914E0510914C05E12EF12C0E942C3453
:10298000282FC7018C549F4F68E671E00E94853361
:102990008E199F0997FD039695958795959587952F
:1029A0002370612F289F600D11247D2D802F0E94A0
:1029B0002C10462F282F672FCE01DF91CF911F912A
:1029C0000F91FF90EF90DF900C941611DF91CF9153
:1029D0001F910F91FF90EF90DF900895CF92DF92BB
:1029E000FF920F931F93CF93DF938C01FC01C28161
:1029F000C1111DC060914F0520E1620F08F46FEF17
:102A000080915005909151050E94FF0D6AE070E0A1
:102A10000E947133892B59F50E942C346FE370E0CA
:102A20000E948533F80161810E94A81420C0FC0136
:102A30008081CDE08C9FC02D11249DE0F92EFC0EED
:102A4000FFE3FF1510F48FE3F82ED0E0CF2CD12C4C
:102A5000CC15DD053CF4F8016181CE010E94A8147B
:102A60002196F6CFC1E0FEE3FF1508F4C0E08C2FFD
:102A7000DF91CF911F910F91FF90DF90CF9008953C
:102A80001F93CF93DF93FC01E853FE4F2081622315
:102A9000A9F0EC010E942C34182F0E942C34612FD5
:102AA000782F80914E050E942C10462F282F672FDB
:102AB000CE01DF91CF911F910C941611DF91CF9130
:102AC0001F910895CF92DF92FF920F931F93CF93A0
:102AD000DF938C01FC01C281C1111DC060914F05C3
:102AE00020E1620F08F46FEF80915005909151053D
:102AF0000E94FF0D65E070E00E947133892B59F54B
:102B00000E942C346FE370E00E948533F8016181EC
:102B10000E94401520C0FC018081CDE08C9FC02D1B
:102B200011249DE0F92EFC0EFFE3FF1510F48FE356
:102B3000F82ED0E0CF2CD12CCC15DD053CF4F801DB
:102B40006181CE010E9440152196F6CFC1E0FEE3DF
:102B5000FF1508F4C0E08C2FDF91CF911F910F91EA
:102B6000FF90DF90CF900895E0917103F091720390
:102B700009942F923F924F925F926F927F928F9221
:102B80009F92AF92BF92CF92DF92EF92FF920F93FC
:102B90001F93CF93DF93CDB7DEB72B970FB6F89483
:102BA000DEBF0FBECDBF5C01DC018C910DE0809FCC
:102BB000002D1124BDE0B00FB987B73410F0E6E462
:102BC000E987D50112968C91882361F040E060E09E
:102BD00080E00E94B41586E4E5EEF3E0DF011D928B
:102BE0008A95E9F7F5018081811115C080912D0446
:102BF00090912E040E94EC2B21E08931910508F47C
:102C000020E020932C04499730F00E94D42B90931D
:102C10002E0480932D0410E09985892F90E09B87E6
:102C20008A878EE0482EDE0111963D019AEA292E10
:102C30008A859B85081719070CF064C0C80165E0F8
:102C400070E00E9485337B014C01489EF001499E53
:102C5000F00D1124EB51FC4FE60FF71F5080A3013C
:102C60000E94F310382E63018C2D8619831508F00D
:102C700032C0D601EC91F0E0E853FE4F9081F501AF
:102C80008181892321F1252D35E5231B08F420E0DE
:102C9000622D621B70914D05222D352D230F08F4F6
:102CA0002FEF30914E0582E0289F200D11242E5FDA
:102CB000239F212D1124822F0E942C10462FD601F4
:102CC0009C91282F672F892F90E00E941611BFEF4B
:102CD000CB1ADB0AC9CF80912C04882381F0252DE3
:102CE00031E0231B08F420E0489CC001499C900D72
:102CF00011248B519C4FFC01EE0DFF1D20830F5FB3
:102D00001F4F96CF81E09985963408F080E02B968E
:102D10000FB6F894DEBF0FBECDBFDF91CF911F91EC
:102D20000F91FF90EF90DF90CF90BF90AF909F906A
:102D30008F907F906F905F904F903F902F9008956D
:102D4000AF92BF92CF92DF92EF92FF920F931F93B9
:102D5000CF93DF93CDB7DEB728970FB6F894DEBFD9
:102D60000FBECDBFE82ED62E142F0E94991F8823A8
:102D700009F476C0112349F0AE014F5F5F4F6D2D0E
:102D80008E2D0E94F310F82E01C0F12CC090B803D4
:102D90000F2D10E0C8018C0D911D099764F188E09A
:102DA00090E05C01A01AB10AB80167547C4FA501FC
:102DB00089EB93E00E943C34B8016F537C4FA5012E
:102DC00081EC93E00E943C34A501440F551FB801EB
:102DD000660F771F6F527C4F81ED93E00E943C3469
:102DE000B80167537C4FA50189EC93E00E943C3405
:102DF000CA94C092B8031091B803DE01119640E066
:102E0000842F810FF41609F190E05D91252F30E0B9
:102E1000BC0168547C4FF901EE0FFF1FE65BFE4FCB
:102E20000081FB010183220F331FF901E55BFE4F97
:102E30002081FB012187518B880F991FFC01E854E9
:102E4000FC4F128E118E4F5FDBCF8093B8038091C1
:102E50004B058C7F843521F46D2D8E2D0E942F1013
:102E600028960FB6F894DEBF0FBECDBFDF91CF918D
:102E70001F910F91FF90EF90DF90CF90BF90AF9098
:102E8000089508950C9441170E9442170C948C03E6
:102E900008950C944817CF93DF93FC01C081C15073
:102EA0008DE0C89FC02D1124DDE0DC0FD03408F088
:102EB000DFE36D2F8C2F0E9449176D2F8C2FDF9130
:102EC000CF910C9448174F925F926F927F928F929E
:102ED0009F92AF92BF92CF92DF92EF92FF92CF93E9
:102EE0006091E1037091E2038091E3039091E40328
:102EF0000E94FB2B6B017C010E94E02B4B015C01CB
:102F00006093E1037093E2038093E3039093E403FF
:102F1000A091B803E8EBF3E08A2F90E04FEF5FEF6A
:102F200060E070E04C195D096E097F09A91799F0FE
:102F3000218D328D2901612C712C441555056605B2
:102F4000770510F4815004C02C0D3D1D328F218F68
:102F50009F5F3296EBCF8093B80380912B04811151
:102F600008C0C0914B058C2F837019F0C695C6958B
:102F700001C0C0E080910F028130E9F038F082306A
:102F800009F4D9C0833009F4E6C0F6C010921002EB
:102F90008092500590925105A0925205B09253052F
:102FA00089E2E8EBF3E0A4E5B5E001900D928A95A3
:102FB000E1F781E0CAC080911302C8130DC02091CF
:102FC0004B05237030E04091140250E081E024175B
:102FD000350719F480E001C081E08170809312020E
:102FE0004C2F50E04831510508F081C0FA01EA5AEF
:102FF000FF4F0C94B833882309F479C040E060E0B7
:1030000080E00E94B41573C080E192E00E946313D7
:103010006FC080E192E00E94A2136AC080E192E05A
:103020000E94F81365C080E192E00E94511460C0D4
:1030300080E192E00E9464125BC080E192E00E9415
:10304000091256C080E192E00E949C1151C080E1BB
:1030500092E00E9468124CC080E192E00E946C12E3
:1030600047C080E192E00E94701242C080E192E08D
:103070000E9474123DC080E192E00E94A01138C00D
:1030800080E192E00E940D1233C080E192E00E9444
:1030900011122EC080E192E00E94A41129C080E1AB
:1030A00092E00E94DE1224C080E192E00E94E212CF
:1030B0001FC080E192E00E94E6121AC080E192E017
:1030C0000E94EE1415C080E192E00E94621510C0CB
:1030D00080E192E00E94B9150BC080E192E00E946D
:1030E0005B1306C080E192E00E945F1301C080E0A4
:1030F000909110029F5F90931002811129C082E08D
:1031000080930F0280911202811122C0CC23E1F042
:103110000E94441780E192E0CF91FF90EF90DF9002
:10312000CF90BF90AF909F908F907F906F905F9067
:103130004F900C944B17C093130280914B058370F2
:10314000809314020E94111183E080930F0214C037
:10315000CC2391F0DDCF60915005709151058091A5
:103160005205909153050E94FB2B6031710581053A
:10317000910510F010920F02CF91FF90EF90DF9029
:10318000CF90BF90AF909F908F907F906F905F9007
:103190004F900895E0916D03F0916E0309951092A0
:1031A0005405EDE6F5E08FEF9FEF8193919325E0D5
:1031B000ED37F207D1F71092B803E1EDF3E08FEFAE
:1031C0009FEF8193919323E0E13EF207D1F70E94B4
:1031D000E429811104C00E948B2A0E94E0100E9401
:1031E000D01080914B058C7F11F40C94E010089561
:1031F000CF93C82F882329F040E060E080E00E9450
:10320000B415C0932B04CF91089520914B0591E004
:10321000922790934B0510920F0281110C94D810B5
:10322000089581E00C94051990914B05937091F0ED
:10323000811102C0946007C0883110F09C6503C002
:10324000880F880F982B90934B0510920F026111F5
:103250000C94D810089561E00C941419682F909183
:103260004B05969596959F5F983110F4892F01C074
:1032700081E00C94141981E00C942E19682F909120
:103280004B0596959695915011F0892F01C087E1D5
:103290000C94141981E00C943E1990914B05937095
:1032A00049F080934C0560934D0540934E052111E4
:1032B0000C94D8100895ABE4B5E01196EC911197F9
:1032C000F0E0282F13964C91139712966C91CF0132
:1032D00008960C944D1981E00C945B19ABE4B5E0B1
:1032E0001196EC911197F0E0282F13964C911397BB
:1032F00012966C91CF0108970C944D1981E00C94B3
:103300006E19EBE4F5E0628120E1620F08F46FEFE3
:103310009181282F4381892F90E00C944D1981E0F1
:103320000C948119EBE4F5E0628120E1621B08F462
:1033300060E09181282F4381892F90E00C944D19F2
:1033400081E00C949219EBE4F5E0438120E1420F17
:1033500008F44FEF9181282F6281892F90E00C941F
:103360004D1981E00C94A319EBE4F5E0438120E1D1
:10337000421B08F440E09181282F6281892F90E060
:103380000C944D1981E00C94B41920914F0530E153
:10339000230F08F42FEF20934F0581110C94D810C0
:1033A000089581E00C94C51920914F0530E1231B4D
:1033B00008F420E020934F0581110C94D810089553
:1033C00081E00C94D41960E080E50E94711B61E0FB
:1033D00080E50C94711BCF930E94661E60E080E52F
:1033E0000E94471AC0E021E041E061E08C2F0E947A
:1033F000D51ACF5FCF33B9F760E080E50E94A31BF9
:1034000061E080E5CF910C94A31B6093FD0640938F
:10341000FE0624E630E042E050E06DEF76E0880FF3
:103420000E94F31E21E0892B09F020E0822F0895ED
:10343000EF92FF921F93CF93DF937B01182F110F11
:10344000C0E0D0E0C093FD06D701AC0FBD1FEEEF8A
:10345000F6E08D91819387E0EE30F807D1F724E60E
:1034600030E041E150E06DEF76E0812F0E94F31EE5
:10347000892B31F46096C03CD10521F781E001C071
:1034800080E0DF91CF911F91FF90EF9008951F93FF
:10349000CF93DF93C82FD62F45EC6EEF0E94051A0D
:1034A00040E06DEF8C2F0E94051A10E040E0612F84
:1034B0008C2F0E94051A1F5F1831C1F745EC6EEF83
:1034C0008C2F0E94051A41E06DEF8C2F0E94051A87
:1034D00010E040E0612F8C2F0E94051A1F5F103C06
:1034E000C1F745EC6EEF8C2F0E94051A43E06DEF9B
:1034F0008C2F0E94051A4FEF61E08C2F0E94051A55
:1035000080E4D89FA0011124416060E08C2F0E94CC
:10351000051A8FE39CE90197F1F700C00000DF91E5
:10352000CF911F9108958F33910520F5880F991F32
:10353000880F991FFC01EB5DFD4F52813381808123
:1035400083707181E82FF0E0A0EC8A9FC001112404
:1035500083589A4FDC01A70FB11D6C93DC01A50FB6
:10356000B11D4C93DC01A30FB11D2C93EF59FB4F00
:1035700081E080830895FF920F931F93CF93DF9391
:10358000182F062FF42EC0E0D0E02F2D402F612FF2
:10359000CE010E94931A2196CF33D105B1F7DF9166
:1035A000CF911F910F91FF900895CF93DF9334E057
:1035B000839FC0011124FC01EB5DFD4F808183706E
:1035C00051819281C381A52FA695A695A695392FE5
:1035D000369536953695EC2FE695E695E695577037
:1035E000F92FF770C77090E0B0E0D8E1662391F052
:1035F000D89FB001D99F700D11246F5C7B4FA60F2F
:10360000B71F61E070E001C0660F5A95EAF75C9160
:10361000652B12C0D89FB001D99F700D11246F5C2B
:103620007B4FA60FB71F61E070E001C0660F5A958F
:10363000EAF760955C9165236C93632F70E038E145
:10364000389FD001399FB00D1124AF5CBB4FA60F3E
:10365000B71F442349F041E050E001C0440FFA9500
:10366000EAF73C91432B09C041E050E001C0440F10
:10367000FA95EAF740953C9143234C934E2F50E046
:10368000222399F028E1289FF001299FF00D1124B1
:10369000EF5CFB4FE40FF51F21E030E001C0220F8B
:1036A000CA95EAF73081232B13C028E1289FF00147
:1036B000299FF00D1124EF5CFB4FE40FF51F21E073
:1036C00030E001C0220FCA95EAF72095308123230C
:1036D0002083FC01E15DFB4F21E02083DF91CF914E
:1036E0000895EF92FF921F93CF93DF93C62FD0E000
:1036F0009E012F593B4F7901F90190819923D9F00F
:10370000182F45EC6EEF0E94051A41E06DEF812FF6
:103710000E94051A80EC8C9FB0018D9F700D1124C2
:1037200063587A4F812F0E94181A811104C0C15D1D
:10373000DB4F81E08883F7011082DF91CF911F91E9
:10374000FF90EF900895CF92DF92FF920F931F9317
:10375000CF93DF93262F30E0A901415D5B4F6A01D3
:10376000FA01908191110AC0F6011082DF91CF9188
:103770001F910F91FF90DF90CF900895C62FF82EE4
:1037800045EC6EEF0E94051A40E06DEF8F2D0E9410
:10379000051AF8E1CF9FE001112400E010E0F801E4
:1037A000EC0FFD1FEF5CFB4F4081602F8F2D0E94BF
:1037B000051A0F5F1F4F0831110589F7D5CF8823F0
:1037C00011F0FA0101C0FB0109940F931F93CF93ED
:1037D000FB01C281CC2309F450C08C010E9438291E
:1037E0008272F801E35CFC45E431F10508F048C061
:1037F000E259FF4F0C94B8330E94111940C04AE4BB
:1038000059E16BE379E104C04BE359E16AE479E102
:103810000E94DF1B34C04EE759E16BE679E1F8CF37
:103820004BE659E16EE779E1F3CF40EA59E16FE801
:1038300079E1EECF4FE859E160EA79E1E9CF42EC76
:1038400059E161EB79E1E4CF41EB59E162EC79E1D7
:10385000DFCF40EE59E161ED79E1DACF41ED59E199
:1038600060EE79E1D5CF81E005C084E003C089E056
:1038700001C08EE00E942B1902C0C1E001C0C0E06F
:103880008C2FCF911F910F9108950F931F93CF937A
:10389000DF93C42FD22FFC0182818823C9F040938B
:1038A00065040E94D42B909364048093630480E2A7
:1038B0008C0F883008F057C0C77081E001C0880FB6
:1038C000CA95EAF7DF91CF911F910F910C94652172
:1038D00080916504481330C0809163049091640422
:1038E0000E94EC2B883C910538F510E21D0FCD1796
:1038F000B9F080E28C0F883040F4C77081E001C0DD
:10390000880FCA95EAF70E946C21183028F581E0EB
:103910009D2F977001C0880F9A95EAF70E94652144
:10392000802F0E945C211830F0F4D77081E001C034
:10393000880FDA95EAF70AC080E28C0F883098F495
:10394000C77081E001C0880FCA95EAF7DF91CF9177
:103950001F910F910C946C21802FDF91CF911F91BB
:103960000F910C945C21DF91CF911F910F910895DD
:103970000F939C01CB01243F4CE5340731F188F4CF
:10398000293DFCE53F07D9F02A3D4CE5340779F1A4
:10399000283D3C45A9F506E221EE41EE68ED7CE5C7
:1039A0002BC0263FFCE53F07E1F0A8F0273F3C4550
:1039B00039F507E225EE46EE67EF7CE51DC007E22C
:1039C00025EE45EE69ED7CE517C006E221EE40EEFE
:1039D00064EF7CE511C007E225EE44EE65EF7CE57F
:1039E0000BC006E221EE42EE66EF7CE505C008E280
:1039F00021E045EE6AED7CE50E94451C80E008C0B0
:103A0000FC018281882319F01092650401C081E0D5
:103A10000F910895CF93DF93EC01FB0182818823FE
:103A200009F41FC1C230FCE5DF0708F41BC1C63131
:103A30009CE5D90738F09E012B5F3C4529303105C4
:103A400008F010C10E94F72990931607809315077C
:103A5000C031ECE5DE0709F4C3C008F041C0C8304E
:103A60008CE5D80709F49AC0F0F4C430ECE5DE0721
:103A700009F487C068F4C2308CE5D80709F477C030
:103A8000C330DC4509F0E3C080911507826076C041
:103A9000C630ECE5DE0709F46EC008F07BC080910B
:103AA000150788606BC0CC308CE5D80709F485C059
:103AB00068F4CA30ECE5DE0709F474C008F079C098
:103AC0000E94E92380911507806858C0CE308CE5AC
:103AD000D80709F476C008F07FC0809115078BC025
:103AE000CC3FECE5DE0709F44FC018F5C3318CE597
:103AF000D80709F47DC078F4C131ECE5DE0709F49C
:103B000073C0C231DC4509F0A2C00E94E923809154
:103B100015078F7733C0C5318CE5D80709F472C01B
:103B200008F486C0CB3FDC4509F091C080911607B0
:103B30003EC0C115FDE5DF0709F45FC058F4CE3F74
:103B40009CE5D90709F444C008F43FC080911607EA
:103B500082602DC0C230FDE5DF0709F475C008F4AE
:103B60005DC0C330DD4509F072C080E06EC0809159
:103B70001507816003C08091150780618093150748
:103B800066C08091150711C08091160782608093EE
:103B900016075DC0809115078062F0CF80911507F0
:103BA0008064ECCF8091150788608460E7CF8160E6
:103BB000EECF809115078E7FE1CF809115078D7F25
:103BC000DDCF80911507877FD9CF8091160718C068
:103BD000809116078D7FDBCF809115078F7ECECF2A
:103BE000809115078F7DCACF809115078F7BC6CF37
:103BF00080911507877F8B7FC1CF809116078D7FBE
:103C00008E7FC5CF8091150782FB222720F991E096
:103C1000922790FB82F990FB83F9B0CF8091160731
:103C2000982F909591708E7F892B90FB81F9AFCF63
:103C30000E94E9238091150787FB222720F991E054
:103C4000922790FB87F99ACF81E00E948D2A80917C
:103C50001507909116070E94082A0E94E92380E028
:103C600001C081E0DF91CF910895CF93DF9386313A
:103C70009C4541F5EB010E943829982F8A812091BB
:103C8000150230911602882379F09A7A81E009F4BE
:103C900080E080936604911102C069E201C065E38F
:103CA000C9010E94282B0AC080916604811102C0BC
:103CB00069E201C065E3C9010E94332B0E947929A2
:103CC00080E001C081E0DF91CF9108951092B900AA
:103CD0008CE08093B8000895EF92FF920F931F93AA
:103CE000CF93DF93182FEB011092BC0084EA8093EE
:103CF000BC000E94D42B7C018091BC0087FD0EC0CB
:103D0000CF3F8FEFD807C1F30E94D42B8E199F09A4
:103D10008C179D0788F38EEF9FEF2EC08091B9001E
:103D2000887F883041F08091B900887F803119F018
:103D30008FEF9FEF21C01093BB0084E88093BC00FD
:103D40000E94D42B8C018091BC0087FD0CC0CF3F1A
:103D50008FEFD807C1F30E94D42B801B910B8C17D7
:103D60009D0788F3D8CF8091B900887F883111F002
:103D70008034F1F680E090E0DF91CF911F910F91B8
:103D8000FF90EF9008950F931F93CF93DF93EB0174
:103D90008093BB0084E88093BC000E94D42B8C01EC
:103DA0008091BC0087FD0EC0CF3F8FEFD807C1F3D5
:103DB0000E94D42B801B910B8C179D0788F38EEFEC
:103DC0009FEF0CC02091B900287F81E090E028325D
:103DD00011F480E090E0919581959109DF91CF9168
:103DE0001F910F910895CF92DF92EF92FF920F9360
:103DF0001F93CF93DF936B018A017901B9010E9470
:103E00006C1EE6010C0D1D1DC017D10761F424E9DD
:103E10002093BC00DF91CF911F910F91FF90EF9005
:103E2000DF90CF90089597FDF2CFB70189910E945E
:103E3000C31EEACF90936C0480936B040895E091C5
:103E40006B04F0916C04309721F00190F081E02D2B
:103E5000099480E00895E0916B04F0916C04309730
:103E600099F020912102222359F02091150727FF74
:103E700007C0DC012C9111962C93119725E02C930F
:103E80000280F381E02D09940895E0916B04F09194
:103E90006C04309739F022E0DC012C930480F5812A
:103EA000E02D099408952091690430916A0428173F
:103EB000390771F090936A0480936904E0916B0470
:103EC000F0916C04309721F00680F781E02D099481
:103ED000089520916704309168042817390771F01C
:103EE0009093680480936704E0916B04F0916C04F4
:103EF000309721F00084F185E02D099408950E9407
:103F0000E02B60937C0470937D0480937E049093F7
:103F10007F04609378047093790480937A0490937B
:103F20007B04089585B7806885BF85B7806885BFA5
:103F3000089581E008950C94991F08950C949D1F95
:103F40000C949D1F0C94A01F0C949D1F0C94A41FF7
:103F50000C949D1F0E94921F8CED99E20E94612C8F
:103F60000E94A81F0C94A61F0E94CB2B0E94D80968
:103F70000E947C2C0C94A21F6F927F928F929F9232
:103F8000AF92BF92CF92DF92EF92FF920F931F9367
:103F9000CF93DF93CDB7DEB72A970FB6F894DEBF85
:103FA0000FBECDBF0E949E1F0E949D1F0E940A0A45
:103FB00081110E947F1F3EE6832E34E0932E00E0A5
:103FC00010E0E02E802F0E94AB095C01F4016190AB
:103FD00071904F016826792661147104B1F40F5F66
:103FE0001F4F0530110569F78FEF89838A831B8284
:103FF0000E94D42B8160782F9D838C8349815A81C4
:104000006B818D810E94812043C08091130581FDC9
:104010000E94B409F12CCC24C394D12CC3018C216F
:104020009D21892B71F10E949B1FAC20BD2088230C
:10403000A1F0FE82EF8281E0A114B10409F480E0D6
:1040400088870E94D42B8160782F9A8789874E8138
:104050005F8168858A850E948120000F111FF80109
:10406000E259FB4F80819181C826D926D182C08236
:1040700041E0AB2809F440E06F2D8E2D0E94A01680
:1040800007C0F394CC0CDD1CFEE0FF12C7CFA7CF16
:104090000E9463170E944A0C0E941F1F90916D049A
:1040A0008917D1F00E941F1F80936D042A960FB6C6
:1040B000F894DEBF0FBECDBFDF91CF911F910F915E
:1040C000FF90EF90DF90CF90BF90AF909F908F9038
:1040D0007F906F900C94B6072A960FB6F894DEBFC7
:1040E0000FBECDBFDF91CF911F910F91FF90EF9049
:1040F000DF90CF90BF90AF909F908F907F906F9008
:104100000895DF92EF92FF920F931F93CF93DF9367
:10411000CDB7DEB72B970FB6F894DEBF0FBECDBF7D
:10412000F42E052F162FE72ED82E61110E94582944
:10413000FE01319686E0DF011D928A95E9F77E2D1A
:104140004F2D502F612F8D2D9E810E94A2262B96E0
:104150000FB6F894DEBF0FBECDBFDF91CF911F9198
:104160000F91FF90EF90DF900895FC018081918185
:104170000E94F9280895CF93882309F450C0C82FCE
:104180008CEF8C0F813AD0F46C2F809115029091B6
:1041900016020E94A82A882349F06C2F80911502EC
:1041A000909116020E94332B0E9479296C2F8091E6
:1041B0001502909116020E94282B0CC080E28C0FF1
:1041C000883058F4C77081E001C0880FCA95EAF7BB
:1041D0000E943B29CF910C947929EBE5EC0FE33059
:1041E00040F4F0E0ED55FC4F808190E0CF910C94CD
:1041F000531FE8E5EC0FE73150F4F0E0EE0FFF1F3E
:10420000EB58FC4F80819181CF910C94691FCD3E7A
:1042100030F08C2F0E945A0BCF910C942C0CCF9124
:104220000895882389F19CEF980F913A40F4682F04
:1042300080911502909116020E94332B0DC090E2DE
:10424000980F983058F4877091E001C0990F8A95C3
:10425000EAF7892F0E9441290C9479299BE5980F50
:10426000933020F480E090E00C94531F98E5980F71
:10427000973120F480E090E00C94691F8D3E20F08F
:104280000E94B50B0C942C0C08951F93CF93DF93D1
:10429000182FEB010E94BB20209741F08FE99FE08F
:1042A0000197F1F700C000002197F6CF812FDF9131
:1042B000CF911F910C941121893319F060E070E0C7
:1042C00002C060E570E00C944521882321F00E9433
:1042D0003B290C9479290895882321F00E944129D3
:1042E0000C9479290895CF92DF92EF92FF920F9369
:1042F0001F93CF93DF937C01D62FC72FFC01128130
:10430000058102950F700E943129882399F01123AD
:1043100089F08C2F807F803421F080E28D0F8830EF
:1043200048F082E00E94C3290E94312991E0D82EF2
:10433000D92601C0D12CCC2EC2948FE0C8228C2D5E
:1043400090E08C30910508F0B6C1FC01EE57FF4FAC
:104350000C94B8338C2F807FCF70882311F0C295D6
:10436000C07F112399F0CC2309F491C180E28D0F15
:10437000883010F0D11104C08C2F0E943B2903C05B
:104380008C2F0E944B290E94792981C18D2F0E9478
:104390001121CC2309F48FC180E28D0F883010F0F9
:1043A000D11104C08C2F0E94412903C08C2F0E9480
:1043B00051290E9479297FC18C2F807FCF70803254
:1043C00011F0C295C07FDD2319F0D130C9F022C0B1
:1043D000112371F0002341F0013031F40E945E2975
:1043E0008C2B0E94662967C10E945E298C2B1DC000
:1043F000002319F0013009F45EC10E946F2925C025
:10440000112321F0063008F056C10EC0053008F027
:1044100052C11BC0112361F0002331F0F7018581E7
:1044200080FF35C18F7085838C2F0E94652143C129
:10443000002359F0D93309F03BC1FFEF07EE13E039
:10444000F15000401040E1F731C18C2F0E946C21E7
:1044500032C18C2F86958695837019F0813061F07A
:104460002AC1112321F08D2F9C2F937002C080E070
:1044700090E00E94531F27C1112321F08D2F9C2F04
:10448000937002C080E090E00E94691F1CC18D2FD4
:10449000112319F00E945A0B02C00E94B50B0E9412
:1044A0002C0C11C18C2F837009F047C0111107C16A
:1044B0002D2F229526952770220F220F6D2F6F70BA
:1044C000862F90E0A0E0B0E0022E04C0880F991F74
:1044D000AA1FBB1F0A94D2F7D4FF10C04FE050E0D0
:1044E00060E070E004C0440F551F661F771F2A95D7
:1044F000D2F7409550956095709503C040E050E02C
:10450000BA01C695C695C3708A019B01082B192B69
:104510002A2B3B2BC901B801C23049F058F4C130F5
:1045200019F00E947627CBC00E946427C8C00E9461
:104530008827C5C00E946227C2C0112319F08C2FA2
:10454000817001C08695882309F4B9C02D2F22956A
:1045500026952770220F220F6D2F6F70862F90E007
:10456000A0E0B0E0022E04C0880F991FAA1FBB1F55
:104570000A94D2F7D4FF10C04FE050E060E070E042
:1045800004C0440F551F661F771F2A95D2F7409528
:1045900050956095709503C040E050E0BA01C69513
:1045A000C695C3708A019B01082B192B2A2B3B2B24
:1045B000C901B801C23049F058F4C13019F00E9465
:1045C0003B287DC00E9429287AC00E944D2877C0D0
:1045D0000E949C2774C0CF70112339F08C2F0E9449
:1045E000C2278D2F0E9465216AC08D2F0E946C21E9
:1045F0008C2F0E94E32763C0D23F01F128F4D03F03
:1046000041F0D13FA1F03FC0D33FF9F0D43F39F1A1
:104610003AC0112341F0053008F04DC08C2F8F7146
:104620000E94082848C0063008F045C0F7CF112383
:1046300039F08C2F8F710E94C2273DC01123C9F31E
:104640008C2F8F710E94E32736C0112329F08C2F05
:104650008F710E94AD272FC00E94A8272CC0112364
:1046600049F0CF718C2F0E94C22763E08C2F0E94EB
:10467000AE2921C081E00E94C3290230E0F082E02F
:104680000E94C32918C0112331F0002391F28D2F0D
:104690000E94BB2010C0002399F2D93349F41FEFC8
:1046A00027EE33E0115020403040E1F700C0000019
:1046B0008D2F0E94112188EF8C0D843020F40E94F0
:1046C0001F1F0E94B607DD20C9F00E942D2980FD22
:1046D00015C0F70112820E9427290E94C227C70134
:1046E0000E949F230E942729DF91CF911F910F9154
:1046F000FF90EF90DF90CF900C94E327DF91CF9164
:104700001F910F91FF90EF90DF90CF9008950F933E
:104710001F93CF93DF93EC01688179818A810E9496
:1047200004298C010E945F280E945027B801CE0105
:104730000E947321DF91CF911F910F910895CF9324
:10474000DF93EC01988189812B813C81232B31F00F
:104750008F3F31F481E09F3F19F403C081E001C035
:1047600080E080FD19C0CE010E941C0781110CC0A1
:104770000E943129882381F08A81882369F082E0B0
:10478000DF91CF910C94C329CE010E948723CE01E3
:10479000DF91CF910C94F306DF91CF91089580E0E3
:1047A00090E00E94531F80E090E00E94691F0E94E9
:1047B00058290E945B290E9479290E945D0D0C9462
:1047C0002C0C80911502909116020E943E2B0C94A5
:1047D000CF230E9448290C94E123E92FE295EF7042
:1047E0004E2F50E0FA013297EE30F105B0F4E25767
:1047F000FF4F0C94B833803F91F018F4883E68F472
:104800000EC0843F51F40BC0883E48F0813F29F42C
:1048100006C093FB882780F9089580E0089581E021
:1048200008950E94F9280E94ED230895CF93DF9305
:1048300000D000D01F92CDB7DEB70F900F900F9031
:104840000F900F90DF91CF910895CF93DF9300D019
:1048500000D000D0CDB7DEB726960FB6F894DEBFF5
:104860000FBECDBFDF91CF9108951F93CF93DF93FC
:10487000C091810416E080918204C81799F0D0E0BD
:104880001C9FF0011D9FF00D1124ED57FB4F40813F
:10489000518162817381848195810E9425242196B2
:1048A000C770E9CFDF91CF911F9108954091B30474
:1048B0005091B4046091B5047091B6048091B7042E
:1048C0009091B8040C9425240F931F93CF93DF93FA
:1048D0008091B80482958F7009F05DC08091B50415
:1048E000882309F458C0809181041091820460915A
:1048F000B3047091B404C091B604D091B70491E0B0
:104900006F3F09F090E0292F06E0811709F443C0BA
:10491000209721F07F3F21F030E003C031E001C05B
:10492000322F90E030FD34C0089FF001099FF00D58
:104930001124DF01AD57BB4F11963C9111973713EE
:1049400027C03C91361324C012963C911297311126
:104950001FC013964D915C9114974C1B5D0B483C06
:104960005105B0F48091B8048F7080618093B804D1
:10497000E857FB4F80818F708061808383EB94E0E8
:104980000E949F23DF91CF911F910F910C943524AA
:1049900001968770BACFDF91CF911F910F91089543
:1049A0009F92AF92BF92CF92DF92EF92FF920F93BE
:1049B0001F93CF93DF93CDB7DEB761970FB6F8940F
:1049C000DEBF0FBECDBF8C0185E0F801DE011D9674
:1049D00001900D928A95E1F7F80140815181E280C2
:1049E0009091B3046091B4042091B6043091B7045F
:1049F0002115310531F06F3F31F481E09F3F19F40B
:104A000003C081E001C080E0F82FF1709F2E80FD8F
:104A100046C1F801A380B48083EBC82E84E0D82E71
:104A2000F090B504F501E21BF30BFF2009F4DFC0A1
:104A30008091B804E83CF10508F09BC0282F207F46
:104A400009F052C0561313C0491311C0FE2CE110D7
:104A50000EC08F7080618093B8040E945624C601F6
:104A60000E949F238091B804F801858358C1AB2828
:104A700031F05F3F31F481E04F3F19F403C081E032
:104A800001C080E080FD03C081E08E2502C080E08F
:104A900090E0F82FF170FF2E80FF1CC08091810400
:104AA0002091820436E0821709F417C190E0389F04
:104AB000F001399FF00D1124ED57FB4F6181561322
:104AC00006C06081461303C06281E61203C00196EE
:104AD0008770E9CFFE2CEE2009F421C18091B80443
:104AE00081608093B8045AC0561306C0491304C0AD
:104AF000E11002C0F8019FC04D875E878D859E85BD
:104B00000E941124882379F1EE2069F12091B804E4
:104B1000822F82958F7090E0029774F08091B30499
:104B20009091B40498878F831986BB86AA862C87B8
:104B3000CE0107960E949F2386E0F801A3EBB4E024
:104B400001900D928A95E1F70E9464240E945624F8
:104B50000DC0561729F14D875E878D859E850E9471
:104B6000112481112CC0C8010E949F23FF24F394BB
:104B7000D6C0282F207F69F77A2DB98AA88A6E2D92
:104B800089890E94162483EB94E00E949F2386E08B
:104B9000F60111928A95E9F70E945624F12CBFC0C4
:104BA0004913D9CFE110D7CFF8018583C8010E94FE
:104BB0009F2386E0F60111928A95E9F7B0C0EE20B6
:104BC00091F22091B804822F82958F7090E0029725
:104BD0000CF4B2CF8091B3049091B4049A8389838A
:104BE0001B82BD82AC822E83CE010196A3CFE83C0E
:104BF000F10508F047C0FE2CEE2009F4B4CF56139F
:104C000030C049132EC02091B80420FD21C0822F4E
:104C100082958F70482F50E041155105C9F0F80179
:104C200025834F30510541F08F5F982F9295907FEB
:104C3000822F8F70892B8583C8010E949F2386E075
:104C4000F801A3EBB4E001900D928A95E1F742C020
:104C500086E0F801A3EBB4E001900D928A95E1F7AC
:104C60005EC04D875E878D859E850E9411248111CF
:104C700063CF8091B80481608093B804C8010E941A
:104C80009F234DC07A2DB98AA88A6E2D89890E94EA
:104C9000162486E0F60111928A95E9F71BC0EE20F2
:104CA00009F461CF4D875E878D859E850E94112412
:104CB000F82E882309F457CF86E0F801A3EBB4E07F
:104CC00001900D928A95E1F783EB94E00E94B52064
:104CD0000E9464240E94562422C04D875E878D85E1
:104CE0009E850E94F928292F22952F70223028F4C2
:104CF0009F7039F0811105C00BC0243028F49F70DB
:104D000049F4805E883020F0C8010E949F239F2CC8
:104D1000F92C05C0F8019581907F99F7F9CF8F2D77
:104D200061960FB6F894DEBF0FBECDBFDF91CF9175
:104D30001F910F91FF90EF90DF90CF90BF90AF90B9
:104D40009F9008951F93CF93DF93CDB7DEB72C9735
:104D50000FB6F894DEBF0FBECDBF4F83588769876B
:104D60007A878B879C87CE0107960E94D024882360
:104D7000D1F09F8188852A853B85232B31F08F3F99
:104D800031F481E09F3F19F403C081E001C080E06D
:104D900080FD47C04F81588569857A858B859C85C4
:104DA0000E9425243EC086E0FE013796DE01119662
:104DB00001900D928A95E1F7FF81E8856A857B85F0
:104DC0006115710531F0EF3F31F481E0FF3F19F4D7
:104DD00003C081E001C080E080FD23C020918204F7
:104DE00030E0C9010196877099274091810450E015
:104DF00084179507F1F1F983EA837D836C8396E04C
:104E0000929FD001939FB00D1124AD57BB4FFE016F
:104E1000319601900D929A95E1F7809382040E9459
:104E2000352416E08091810490918204891771F1F4
:104E3000189FC00111248D579B4F0E94D0248823B6
:104E400029F1E09181041E9FF0011124ED57FB4FE1
:104E50004081518162817381848195810E942524E2
:104E60008091810490E00196877099278093810456
:104E7000D9CF0E94E9231092820410928104E3EBBF
:104E8000F4E086E0DF011D928A95E9F72C960FB6D3
:104E9000F894DEBF0FBECDBFDF91CF911F91089573
:104EA000089508950C9451270C9452270E9454277A
:104EB0006093EA047093EB048093EC049093ED0408
:104EC0000C94CF230C9456270F931F930091EA0460
:104ED0001091EB042091EC043091ED04602B712BC8
:104EE000822B932B1F910F910C9456270F931F9396
:104EF0000091EA041091EB042091EC043091ED0450
:104F000060237123822393231F910F910C945627C2
:104F10000F931F930091EA041091EB042091EC048D
:104F20003091ED0460277127822793271F910F91FD
:104F30000C9456270C9451270E949A276093E604FC
:104F40007093E7048093E8049093E9040C94CF23D2
:104F500060E070E0CB010C949C270F931F9341E01D
:104F600050E060E070E08A019B0104C0000F111F57
:104F7000221F331F8A95D2F7C901B8011F910F91E3
:104F80000C949C270F931F9341E050E060E070E089
:104F900004C0440F551F661F771F8A95D2F7809172
:104FA000E6049091E704A091E804B091E9048A0135
:104FB0009B01082B192B2A2B3B2BC901B8011F91F0
:104FC0000F910C949C270F931F9341E050E060E0F9
:104FD00070E004C0440F551F661F771F8A95D2F7F3
:104FE00040955095609570958091E6049091E70406
:104FF000A091E804B091E9048A019B0108231923D8
:105000002A233B23C901B8011F910F910C949C27BF
:105010000F931F9341E050E060E070E004C0440F44
:10502000551F661F771F8A95D2F78091E6049091ED
:10503000E704A091E804B091E9048A019B010827E4
:1050400019272A273B27C901B8011F910F910C94FA
:105050009C270F931F930091E6041091E704209181
:10506000E8043091E904602B712B822B932B1F9164
:105070000F910C949C270F931F930091E6041091BD
:10508000E7042091E8043091E9046023712382232E
:1050900093231F910F910C949C270F931F930091C2
:1050A000E6041091E7042091E8043091E9046027B8
:1050B0007127822793271F910F910C949C270895A5
:1050C0002EE0929F800D1124E82FE695E695E69557
:1050D000877051E001C0550F8A95EAF785E0E89F97
:1050E000F0011124E754FB4F20E030E070E04081F4
:1050F000CB01022E02C0969587950A94E2F7817043
:10510000819584278523842781932F5F3F4F253006
:10511000310569F708952EE0929F800D1124682FC4
:10512000669566956695982F977085E0689FB001A3
:10513000112440E050E080E0FB01E40FF51FE7544C
:10514000FB4F208130E0092E02C0369527950A9446
:10515000E2F721703327042E01C0220F0A94EAF7E8
:10516000822B4F5F5F4F4530510531F70895BF9255
:10517000CF92DF92EF92FF920F931F93CF93DF9323
:105180008C01C090E604D090E704E090E804F09031
:10519000E9048091EA049091EB04A091EC04B091B1
:1051A000ED04C82AD92AEA2AFB2ACFE1D0E0D701A8
:1051B000C6010C2E04C0B695A795979587950A94BD
:1051C000D2F780FD04C0219790F7B12C07C0BC2E08
:1051D000B8018C2F0E94D2070197A9F38B2DDF9184
:1051E000CF911F910F91FF90EF90DF90CF90BF90E4
:1051F0000895CF93DF93EC010E94B728BE010E946F
:10520000D207DF91CF9108951F93CF93DF93EB01E6
:1052100090918004992321F0CB010E94F92813C0BA
:10522000882349F0CB010E94B728182F682FCE01A0
:105230000E94602804C0CB010E948B28182FBE0159
:10524000812F0E94D207DF91CF911F910895809105
:10525000EE0485958595859508958091EE04877077
:1052600008959091EE04977081E009F480E008952C
:1052700080911205089590911205892B8093120553
:1052800008958095909112058923809312050895C1
:1052900010921205089590911105892B80931105A4
:1052A00008958095909111058923809311050895A3
:1052B0001092110508951092100508958091EF0441
:1052C000089508950C9461290C9462299091EF043B
:1052D000981721F08093EF040C946429089580912D
:1052E000EF04882329F01092EF0480E00C946429E5
:1052F0000895E0911502F0911602809112058083C5
:10530000E0911502F0911602908180911105892B90
:105310008083E0911502F091160290818091100532
:10532000892B80838091EF04882381F0E09115021E
:10533000F09116029081892B8083809115029091C3
:1053400016020E94922A81110E946F2980911502F3
:10535000909116020C942B1F0C94612998E0899F60
:1053600090011124262B2093EE040E94C2278091E5
:10537000EE048595859585950C94AC291092EE04E4
:1053800080E00C94AC292091EE04809582238093D8
:10539000EE04982F977079F430E0482F082E000C17
:1053A000550B2417350739F08595859585950E940D
:1053B000E3270C94BE29089580E008956FEF7FEFF6
:1053C00080E090E00C94913480E090E00E945D34A5
:1053D00021E08B3E9E4F09F020E0822F089582E06D
:1053E00090E00C94553483E090E00C945534CF93C6
:1053F00084E090E00E945534C82F81E290E00E9442
:1054000055342C2F30E0A901582BCA01CF910895B3
:10541000CF93C92F682F84E090E00E9473346C2FE3
:1054200081E290E0CF910C947334AB01BC018FE02A
:1054300090E00C948534AB01BC0183E190E00C94C6
:10544000853460E070E0CB010C941B2A60E070E0D2
:10545000CB010E94152A0C94212A6BEE7EEF80E08E
:1054600090E00E94913460E082E090E00E9473340A
:1054700060E083E090E00E9473341092EA0410929E
:10548000EB041092EC041092ED0460E084E090E0F4
:105490000E94733460E081E290E00E94733460E027
:1054A00085E090E00E94733460E086E090E00E9426
:1054B00073346FEF87E090E00E94733440E050E077
:1054C000BA0188E090E00E94853460E08DE090E0D1
:1054D0000E94733440E050E0BA0188E190E00E94FD
:1054E000853460E087E190E00E94733440E050E052
:1054F000BA018CE190E00E94853460E080E290E0A7
:105500000E94733440E050E0BA0188E190E00E94CC
:1055100085340C94262A0C942D2A682F8EE090E076
:105520000C947334FC01329680912102882331F06F
:105530008091150787FF02C09EE101C096E080E0E0
:10554000915028F021912223D9F38F5FF9CF08954C
:10555000662351F1209121022223E9F020911507C1
:1055600027FF19C0462F4695469546954E31E0F4E3
:10557000677021E030E002C0220F331F6A95E2F726
:10558000FC01E40FF11D828190E02823392381E0A2
:10559000232B69F409C0FC01329608962191621709
:1055A00029F0E817F907D1F780E0089581E0089520
:1055B0009C01FC0132969FEF80E04191461789F0F3
:1055C0009F3F19F4411101C0982F8F5F8630A9F7D2
:1055D0009F3F39F0F901E90FF11D97FDFA956283BC
:1055E000089508959C012A5F3F4FFC0142814613B4
:1055F00001C01282019682179307B9F70895262FEA
:105600002695269526952E3168F4FC01E20FF11DB2
:10561000677021E030E001C0220F6A95EAF78281CD
:10562000282B22830895262F2695269526952E3100
:1056300070F4FC01E20FF11D677021E030E001C061
:10564000220F6A95EAF72095828128232283089504
:1056500020912102222329F02091150727FD0C9487
:10566000FF2A0C94D82A20912102222329F020918C
:10567000150727FD0C94132B0C94F22A209121027C
:10568000FC013296222331F08091150787FF02C07A
:105690008EE101C086E0DF011D928A95E9F7089549
:1056A00008950C94502B0C94502BCF930E94532BA5
:1056B0000E940A0A0E94512BC0E08C2F0E94AB0965
:1056C000892B29F4CF5FC530C1F780E001C081E0AC
:1056D000CF9108950C94502B80911B07843049F191
:1056E0000E94820380E00E94B6071092140520E415
:1056F00088E190E00FB6F894A895809360000FBE03
:105700002093600083B7817F846083BF83B781600B
:1057100083BF7894889583B78E7F83BF0FB6F89444
:10572000A89580916000886180936000109260006D
:105730000FBE08950E94E9230E941F1F0E94B60712
:105740000C9487031F920F920FB60F9211248F9320
:105750009F93AF93BF9380911405811113C08091E3
:10576000110790911207A0911307B0911407419669
:10577000A11DB11D8093110790931207A0931307E9
:10578000B0931407BF91AF919F918F910F900FBE6F
:105790000F901F90189582E084BD93E095BD9AEF1D
:1057A00097BD80936E0008952FB7F89480911107EC
:1057B00090911207A0911307B09114072FBF08957D
:1057C0002FB7F89460911107709112078091130719
:1057D000909114072FBF08959C014FB7F8948091C2
:1057E000110790911207A0911307B09114074FBFB2
:1057F000821B930B0895CF92DF92EF92FF922FB707
:10580000F894C0901107D0901207E0901307F09021
:1058100014072FBFA7019601261B370B480B590B06
:10582000CA01B901FF90EF90DF90CF90089578946E
:105830001F920F920FB60F9211248F939F93AF93E5
:10584000BF938091110790911207A0911307B09117
:1058500014070196A11DB11D8093110790931207A3
:10586000A0931307B0931407BF91AF919F918F91AD
:105870000F900FBE0F901F90189581E08093E0006D
:1058800080E28093D8001092C9008FE19EE40197D6
:10589000F1F700C0000087E090EBDC018093240763
:1058A00090932507A0932607B09327079CE088E1F3
:1058B0000FB6F894A895809360000FBE9093600097
:1058C000FFCF9093A7038093A60308950C94DE293D
:1058D0000E940A0A8FEB9DE50197F1F700C00000D6
:1058E0000E940A0A80E00E94AB0980FF04C00E9467
:1058F000662C0C943D2C08950E94E429811102C06D
:105900000E948B2A0E94EF29809313050E94F72999
:1059100090931607809315070E94F329682F70E073
:1059200080E090E00E9462276091E6047091E704B5
:105930008091E8049091E9040C949A2780913505B0
:105940000895CF93DF9300D01F92CDB7DEB790912B
:105950001B07943019F589837B836A8382E08093E7
:10596000E9008FEF9091E800815095FD06C095ED1C
:105970009A95F1F700008111F5CF8091E80085FF3D
:105980000DC040E050E063E070E0CE0101960E945F
:10599000D32E8091E8008E778093E8000F900F90CF
:1059A0000F90DF91CF910895BC0184E00C94A12C5D
:1059B000BC0183E00C94A12C22E02093E9002FEF9E
:1059C0003091E800215035FD06C035ED3A95F1F7EC
:1059D00000002111F5CF2091E80025FF0BC040E029
:1059E00050E066E070E00E94D32E8091E8008E7750
:1059F0008093E8000895CF93DF9320912102222322
:105A000039F02091150727FF03C060E222E002C0B1
:105A100068E021E02093E9002FEF3091E800215069
:105A200035FD06C035ED3A95F1F700002111F5CFAF
:105A30002091E80025FF1DC0EC0180912102811119
:105A400005C040E050E068E070E003C070E040E076
:105A500050E0CE010E94D32E8091E8008E77809393
:105A6000E80080E2FE01A5E1B5E001900D928A9583
:105A7000E1F7DF91CF91089580911A07811109C054
:105A80000E9464300E94C1308091E2008460809363
:105A9000E200089510921A07089508950895089550
:105AA00042E061EC81E00E94DD2F42E261EC82E0A5
:105AB0000C94DD2F80911D07833009F460C030F411
:105AC000813071F0823009F499C008958A3009F468
:105AD00085C08B3009F46BC0893009F0A7C020C0A5
